
SAME70-OLED1-EXT1.elf:     file format elf32-littlearm

Sections:
Idx Name          Size      VMA       LMA       File off  Algn
  0 .text         00007294  00400000  00400000  00010000  2**6
                  CONTENTS, ALLOC, LOAD, READONLY, CODE
  1 .ARM.exidx    00000008  00407294  00407294  00017294  2**2
                  CONTENTS, ALLOC, LOAD, READONLY, DATA
  2 .relocate     000009d0  20400000  0040729c  00020000  2**3
                  CONTENTS, ALLOC, LOAD, CODE
  3 .bss          000002fc  204009d0  00407c6c  000209d0  2**2
                  ALLOC
  4 .stack        00002004  20400ccc  00407f68  000209d0  2**0
                  ALLOC
  5 .heap         00000200  20402cd0  00409f6c  000209d0  2**0
                  ALLOC
  6 .ARM.attributes 0000002e  00000000  00000000  000209d0  2**0
                  CONTENTS, READONLY
  7 .comment      00000059  00000000  00000000  000209fe  2**0
                  CONTENTS, READONLY
  8 .debug_info   000178fe  00000000  00000000  00020a57  2**0
                  CONTENTS, READONLY, DEBUGGING
  9 .debug_abbrev 00003628  00000000  00000000  00038355  2**0
                  CONTENTS, READONLY, DEBUGGING
 10 .debug_loc    00005b40  00000000  00000000  0003b97d  2**0
                  CONTENTS, READONLY, DEBUGGING
 11 .debug_aranges 000008e8  00000000  00000000  000414bd  2**0
                  CONTENTS, READONLY, DEBUGGING
 12 .debug_ranges 00000930  00000000  00000000  00041da5  2**0
                  CONTENTS, READONLY, DEBUGGING
 13 .debug_macro  00009d10  00000000  00000000  000426d5  2**0
                  CONTENTS, READONLY, DEBUGGING
 14 .debug_line   0000e98a  00000000  00000000  0004c3e5  2**0
                  CONTENTS, READONLY, DEBUGGING
 15 .debug_str    00092861  00000000  00000000  0005ad6f  2**0
                  CONTENTS, READONLY, DEBUGGING
 16 .debug_frame  00001fb4  00000000  00000000  000ed5d0  2**2
                  CONTENTS, READONLY, DEBUGGING

Disassembly of section .text:

00400000 <exception_table>:
  400000:	d0 2c 40 20 65 10 40 00 61 10 40 00 61 10 40 00     .,@ e.@.a.@.a.@.
  400010:	61 10 40 00 61 10 40 00 61 10 40 00 00 00 00 00     a.@.a.@.a.@.....
	...
  40002c:	61 10 40 00 61 10 40 00 00 00 00 00 61 10 40 00     a.@.a.@.....a.@.
  40003c:	61 10 40 00 61 10 40 00 61 10 40 00 fd 12 40 00     a.@.a.@.a.@...@.
  40004c:	61 10 40 00 61 10 40 00 61 10 40 00 61 10 40 00     a.@.a.@.a.@.a.@.
  40005c:	61 10 40 00 61 10 40 00 00 00 00 00 89 0e 40 00     a.@.a.@.......@.
  40006c:	9d 0e 40 00 b1 0e 40 00 61 10 40 00 61 10 40 00     ..@...@.a.@.a.@.
  40007c:	61 10 40 00 c5 0e 40 00 d9 0e 40 00 61 10 40 00     a.@...@...@.a.@.
  40008c:	61 10 40 00 61 10 40 00 61 10 40 00 61 10 40 00     a.@.a.@.a.@.a.@.
  40009c:	61 10 40 00 61 10 40 00 61 10 40 00 61 10 40 00     a.@.a.@.a.@.a.@.
  4000ac:	61 10 40 00 61 10 40 00 61 10 40 00 61 10 40 00     a.@.a.@.a.@.a.@.
  4000bc:	61 10 40 00 61 10 40 00 61 10 40 00 61 10 40 00     a.@.a.@.a.@.a.@.
  4000cc:	61 10 40 00 00 00 00 00 61 10 40 00 00 00 00 00     a.@.....a.@.....
  4000dc:	61 10 40 00 61 10 40 00 61 10 40 00 61 10 40 00     a.@.a.@.a.@.a.@.
  4000ec:	61 10 40 00 61 10 40 00 61 10 40 00 61 10 40 00     a.@.a.@.a.@.a.@.
  4000fc:	61 10 40 00 61 10 40 00 61 10 40 00 61 10 40 00     a.@.a.@.a.@.a.@.
  40010c:	61 10 40 00 61 10 40 00 00 00 00 00 00 00 00 00     a.@.a.@.........
  40011c:	00 00 00 00 61 10 40 00 61 10 40 00 61 10 40 00     ....a.@.a.@.a.@.
  40012c:	61 10 40 00 61 10 40 00 00 00 00 00 61 10 40 00     a.@.a.@.....a.@.
  40013c:	61 10 40 00                                         a.@.

00400140 <__do_global_dtors_aux>:
  400140:	b510      	push	{r4, lr}
  400142:	4c05      	ldr	r4, [pc, #20]	; (400158 <__do_global_dtors_aux+0x18>)
  400144:	7823      	ldrb	r3, [r4, #0]
  400146:	b933      	cbnz	r3, 400156 <__do_global_dtors_aux+0x16>
  400148:	4b04      	ldr	r3, [pc, #16]	; (40015c <__do_global_dtors_aux+0x1c>)
  40014a:	b113      	cbz	r3, 400152 <__do_global_dtors_aux+0x12>
  40014c:	4804      	ldr	r0, [pc, #16]	; (400160 <__do_global_dtors_aux+0x20>)
  40014e:	f3af 8000 	nop.w
  400152:	2301      	movs	r3, #1
  400154:	7023      	strb	r3, [r4, #0]
  400156:	bd10      	pop	{r4, pc}
  400158:	204009d0 	.word	0x204009d0
  40015c:	00000000 	.word	0x00000000
  400160:	0040729c 	.word	0x0040729c

00400164 <frame_dummy>:
  400164:	4b0c      	ldr	r3, [pc, #48]	; (400198 <frame_dummy+0x34>)
  400166:	b143      	cbz	r3, 40017a <frame_dummy+0x16>
  400168:	480c      	ldr	r0, [pc, #48]	; (40019c <frame_dummy+0x38>)
  40016a:	490d      	ldr	r1, [pc, #52]	; (4001a0 <frame_dummy+0x3c>)
  40016c:	b510      	push	{r4, lr}
  40016e:	f3af 8000 	nop.w
  400172:	480c      	ldr	r0, [pc, #48]	; (4001a4 <frame_dummy+0x40>)
  400174:	6803      	ldr	r3, [r0, #0]
  400176:	b923      	cbnz	r3, 400182 <frame_dummy+0x1e>
  400178:	bd10      	pop	{r4, pc}
  40017a:	480a      	ldr	r0, [pc, #40]	; (4001a4 <frame_dummy+0x40>)
  40017c:	6803      	ldr	r3, [r0, #0]
  40017e:	b933      	cbnz	r3, 40018e <frame_dummy+0x2a>
  400180:	4770      	bx	lr
  400182:	4b09      	ldr	r3, [pc, #36]	; (4001a8 <frame_dummy+0x44>)
  400184:	2b00      	cmp	r3, #0
  400186:	d0f7      	beq.n	400178 <frame_dummy+0x14>
  400188:	e8bd 4010 	ldmia.w	sp!, {r4, lr}
  40018c:	4718      	bx	r3
  40018e:	4b06      	ldr	r3, [pc, #24]	; (4001a8 <frame_dummy+0x44>)
  400190:	2b00      	cmp	r3, #0
  400192:	d0f5      	beq.n	400180 <frame_dummy+0x1c>
  400194:	4718      	bx	r3
  400196:	bf00      	nop
  400198:	00000000 	.word	0x00000000
  40019c:	0040729c 	.word	0x0040729c
  4001a0:	204009d4 	.word	0x204009d4
  4001a4:	0040729c 	.word	0x0040729c
  4001a8:	00000000 	.word	0x00000000

004001ac <rtc_set_hour_mode>:
 * \param p_rtc Pointer to an RTC instance.
 * \param ul_mode 1 for 12-hour mode, 0 for 24-hour mode.
 */
void rtc_set_hour_mode(Rtc *p_rtc, uint32_t ul_mode)
{
	if (ul_mode) {
  4001ac:	b921      	cbnz	r1, 4001b8 <rtc_set_hour_mode+0xc>
		p_rtc->RTC_MR |= RTC_MR_HRMOD;
	} else {
		p_rtc->RTC_MR &= (~RTC_MR_HRMOD);
  4001ae:	6843      	ldr	r3, [r0, #4]
  4001b0:	f023 0301 	bic.w	r3, r3, #1
  4001b4:	6043      	str	r3, [r0, #4]
  4001b6:	4770      	bx	lr
		p_rtc->RTC_MR |= RTC_MR_HRMOD;
  4001b8:	6843      	ldr	r3, [r0, #4]
  4001ba:	f043 0301 	orr.w	r3, r3, #1
  4001be:	6043      	str	r3, [r0, #4]
  4001c0:	4770      	bx	lr

004001c2 <rtc_enable_interrupt>:
 * \param p_rtc Pointer to an RTC instance.
 * \param ul_sources Interrupts to be enabled.
 */
void rtc_enable_interrupt(Rtc *p_rtc, uint32_t ul_sources)
{
	p_rtc->RTC_IER = ul_sources;
  4001c2:	6201      	str	r1, [r0, #32]
  4001c4:	4770      	bx	lr

004001c6 <rtc_get_time>:
 * \param pul_minute Current minute.
 * \param pul_second Current second.
 */
void rtc_get_time(Rtc *p_rtc, uint32_t *pul_hour, uint32_t *pul_minute,
		uint32_t *pul_second)
{
  4001c6:	b430      	push	{r4, r5}
	uint32_t ul_time;
	uint32_t ul_temp;

	/* Get the current RTC time (multiple reads are necessary to insure a stable value). */
	ul_time = p_rtc->RTC_TIMR;
  4001c8:	6885      	ldr	r5, [r0, #8]
	while (ul_time != p_rtc->RTC_TIMR) {
  4001ca:	6884      	ldr	r4, [r0, #8]
  4001cc:	42a5      	cmp	r5, r4
  4001ce:	d003      	beq.n	4001d8 <rtc_get_time+0x12>
		ul_time = p_rtc->RTC_TIMR;
  4001d0:	6885      	ldr	r5, [r0, #8]
	while (ul_time != p_rtc->RTC_TIMR) {
  4001d2:	6884      	ldr	r4, [r0, #8]
  4001d4:	42ac      	cmp	r4, r5
  4001d6:	d1fb      	bne.n	4001d0 <rtc_get_time+0xa>
	}

	/* Hour */
	if (pul_hour) {
  4001d8:	b161      	cbz	r1, 4001f4 <rtc_get_time+0x2e>
		ul_temp = (ul_time & RTC_TIMR_HOUR_Msk) >> RTC_TIMR_HOUR_Pos;
		*pul_hour = (ul_temp >> BCD_SHIFT) * BCD_FACTOR + (ul_temp & BCD_MASK);
  4001da:	f3c4 5001 	ubfx	r0, r4, #20, #2
  4001de:	eb00 0580 	add.w	r5, r0, r0, lsl #2
  4001e2:	f3c4 4003 	ubfx	r0, r4, #16, #4
  4001e6:	eb00 0045 	add.w	r0, r0, r5, lsl #1

		if ((ul_time & RTC_TIMR_AMPM) == RTC_TIMR_AMPM) {
  4001ea:	f414 0f80 	tst.w	r4, #4194304	; 0x400000
			*pul_hour += 12;
  4001ee:	bf18      	it	ne
  4001f0:	300c      	addne	r0, #12
  4001f2:	6008      	str	r0, [r1, #0]
		}
	}

	/* Minute */
	if (pul_minute) {
  4001f4:	b142      	cbz	r2, 400208 <rtc_get_time+0x42>
		ul_temp = (ul_time & RTC_TIMR_MIN_Msk) >> RTC_TIMR_MIN_Pos;
		*pul_minute = (ul_temp >> BCD_SHIFT) * BCD_FACTOR +  (ul_temp & BCD_MASK);
  4001f6:	f3c4 3102 	ubfx	r1, r4, #12, #3
  4001fa:	eb01 0181 	add.w	r1, r1, r1, lsl #2
  4001fe:	f3c4 2003 	ubfx	r0, r4, #8, #4
  400202:	eb00 0141 	add.w	r1, r0, r1, lsl #1
  400206:	6011      	str	r1, [r2, #0]
	}

	/* Second */
	if (pul_second) {
  400208:	b143      	cbz	r3, 40021c <rtc_get_time+0x56>
		ul_temp = (ul_time & RTC_TIMR_SEC_Msk) >> RTC_TIMR_SEC_Pos;
		*pul_second = (ul_temp >> BCD_SHIFT) * BCD_FACTOR + (ul_temp & BCD_MASK);
  40020a:	f3c4 1202 	ubfx	r2, r4, #4, #3
  40020e:	eb02 0282 	add.w	r2, r2, r2, lsl #2
  400212:	f004 040f 	and.w	r4, r4, #15
  400216:	eb04 0442 	add.w	r4, r4, r2, lsl #1
  40021a:	601c      	str	r4, [r3, #0]
	}
}
  40021c:	bc30      	pop	{r4, r5}
  40021e:	4770      	bx	lr

00400220 <rtc_set_time>:
 *
 * \return 0 for OK, else invalid setting.
 */
uint32_t rtc_set_time(Rtc *p_rtc, uint32_t ul_hour, uint32_t ul_minute,
		uint32_t ul_second)
{
  400220:	b4f0      	push	{r4, r5, r6, r7}
	uint32_t ul_time = 0;

	/* If 12-hour mode, set AMPM bit */
	if ((p_rtc->RTC_MR & RTC_MR_HRMOD) == RTC_MR_HRMOD) {
  400222:	6844      	ldr	r4, [r0, #4]
		if (ul_hour > 12) {
  400224:	f014 0f01 	tst.w	r4, #1
  400228:	d005      	beq.n	400236 <rtc_set_time+0x16>
  40022a:	290c      	cmp	r1, #12
  40022c:	d903      	bls.n	400236 <rtc_set_time+0x16>
			ul_hour -= 12;
  40022e:	390c      	subs	r1, #12
			ul_time |= RTC_TIMR_AMPM;
  400230:	f44f 0780 	mov.w	r7, #4194304	; 0x400000
  400234:	e000      	b.n	400238 <rtc_set_time+0x18>
	uint32_t ul_time = 0;
  400236:	2700      	movs	r7, #0
	/* Minute */
	ul_time |= ((ul_minute / BCD_FACTOR) << (RTC_TIMR_MIN_Pos + BCD_SHIFT)) |
			((ul_minute % BCD_FACTOR) << RTC_TIMR_MIN_Pos);

	/* Second */
	ul_time |= ((ul_second / BCD_FACTOR) << (RTC_TIMR_SEC_Pos + BCD_SHIFT)) |
  400238:	4c1c      	ldr	r4, [pc, #112]	; (4002ac <rtc_set_time+0x8c>)
  40023a:	fba4 5603 	umull	r5, r6, r4, r3
  40023e:	08f6      	lsrs	r6, r6, #3
			((ul_second % BCD_FACTOR) << RTC_TIMR_SEC_Pos);
  400240:	eb06 0586 	add.w	r5, r6, r6, lsl #2
  400244:	eba3 0345 	sub.w	r3, r3, r5, lsl #1
  400248:	ea43 1306 	orr.w	r3, r3, r6, lsl #4
	ul_time |= ((ul_minute / BCD_FACTOR) << (RTC_TIMR_MIN_Pos + BCD_SHIFT)) |
  40024c:	fba4 6502 	umull	r6, r5, r4, r2
  400250:	08ed      	lsrs	r5, r5, #3
  400252:	ea43 3305 	orr.w	r3, r3, r5, lsl #12
			((ul_minute % BCD_FACTOR) << RTC_TIMR_MIN_Pos);
  400256:	eb05 0585 	add.w	r5, r5, r5, lsl #2
  40025a:	eba2 0545 	sub.w	r5, r2, r5, lsl #1
  40025e:	ea43 2305 	orr.w	r3, r3, r5, lsl #8
  400262:	433b      	orrs	r3, r7
	ul_time |= ((ul_hour / BCD_FACTOR) << (RTC_TIMR_HOUR_Pos + BCD_SHIFT)) |
  400264:	fba4 4201 	umull	r4, r2, r4, r1
  400268:	08d2      	lsrs	r2, r2, #3
  40026a:	ea43 5302 	orr.w	r3, r3, r2, lsl #20
			((ul_hour % BCD_FACTOR) << RTC_TIMR_HOUR_Pos);
  40026e:	eb02 0282 	add.w	r2, r2, r2, lsl #2
  400272:	eba1 0142 	sub.w	r1, r1, r2, lsl #1
	ul_time |= ((ul_second / BCD_FACTOR) << (RTC_TIMR_SEC_Pos + BCD_SHIFT)) |
  400276:	ea43 4101 	orr.w	r1, r3, r1, lsl #16

	/* Update time register. Check the spec for the flow. */
	while ((p_rtc->RTC_SR & RTC_SR_SEC) != RTC_SR_SEC);
  40027a:	6983      	ldr	r3, [r0, #24]
  40027c:	f013 0f04 	tst.w	r3, #4
  400280:	d0fb      	beq.n	40027a <rtc_set_time+0x5a>
	p_rtc->RTC_CR |= RTC_CR_UPDTIM;
  400282:	6803      	ldr	r3, [r0, #0]
  400284:	f043 0301 	orr.w	r3, r3, #1
  400288:	6003      	str	r3, [r0, #0]
	while ((p_rtc->RTC_SR & RTC_SR_ACKUPD) != RTC_SR_ACKUPD);
  40028a:	6983      	ldr	r3, [r0, #24]
  40028c:	f013 0f01 	tst.w	r3, #1
  400290:	d0fb      	beq.n	40028a <rtc_set_time+0x6a>
	p_rtc->RTC_SCCR = RTC_SCCR_ACKCLR;
  400292:	2301      	movs	r3, #1
  400294:	61c3      	str	r3, [r0, #28]
	p_rtc->RTC_TIMR = ul_time;
  400296:	6081      	str	r1, [r0, #8]
	p_rtc->RTC_CR &= (~RTC_CR_UPDTIM);
  400298:	6803      	ldr	r3, [r0, #0]
  40029a:	f023 0301 	bic.w	r3, r3, #1
  40029e:	6003      	str	r3, [r0, #0]

	return (p_rtc->RTC_VER & RTC_VER_NVTIM);
  4002a0:	6ac0      	ldr	r0, [r0, #44]	; 0x2c
}
  4002a2:	f000 0001 	and.w	r0, r0, #1
  4002a6:	bcf0      	pop	{r4, r5, r6, r7}
  4002a8:	4770      	bx	lr
  4002aa:	bf00      	nop
  4002ac:	cccccccd 	.word	0xcccccccd

004002b0 <rtc_set_time_alarm>:
 */
uint32_t rtc_set_time_alarm(Rtc *p_rtc,
		uint32_t ul_hour_flag, uint32_t ul_hour,
		uint32_t ul_minute_flag, uint32_t ul_minute,
		uint32_t ul_second_flag, uint32_t ul_second)
{
  4002b0:	b5f0      	push	{r4, r5, r6, r7, lr}
  4002b2:	9c05      	ldr	r4, [sp, #20]
  4002b4:	9d06      	ldr	r5, [sp, #24]
  4002b6:	9f07      	ldr	r7, [sp, #28]
	uint32_t ul_alarm = 0;

	/* Hour alarm setting */
	if (ul_hour_flag) {
  4002b8:	460e      	mov	r6, r1
  4002ba:	b1b1      	cbz	r1, 4002ea <rtc_set_time_alarm+0x3a>
		/* If 12-hour mode, set AMPM bit */
		if ((p_rtc->RTC_MR & RTC_MR_HRMOD) == RTC_MR_HRMOD) {
  4002bc:	6841      	ldr	r1, [r0, #4]
			if (ul_hour > 12) {
  4002be:	f011 0f01 	tst.w	r1, #1
  4002c2:	d005      	beq.n	4002d0 <rtc_set_time_alarm+0x20>
  4002c4:	2a0c      	cmp	r2, #12
  4002c6:	d903      	bls.n	4002d0 <rtc_set_time_alarm+0x20>
				ul_hour -= 12;
  4002c8:	3a0c      	subs	r2, #12
				ul_alarm |= RTC_TIMR_AMPM;
  4002ca:	f44f 0680 	mov.w	r6, #4194304	; 0x400000
  4002ce:	e000      	b.n	4002d2 <rtc_set_time_alarm+0x22>
	uint32_t ul_alarm = 0;
  4002d0:	2600      	movs	r6, #0
			}
		}

		ul_alarm |= ((ul_hour / BCD_FACTOR) << (RTC_TIMR_HOUR_Pos + BCD_SHIFT)) |
  4002d2:	4919      	ldr	r1, [pc, #100]	; (400338 <rtc_set_time_alarm+0x88>)
  4002d4:	fba1 e102 	umull	lr, r1, r1, r2
  4002d8:	08c9      	lsrs	r1, r1, #3
				((ul_hour % BCD_FACTOR) << RTC_TIMR_HOUR_Pos);
  4002da:	eb01 0e81 	add.w	lr, r1, r1, lsl #2
  4002de:	eba2 024e 	sub.w	r2, r2, lr, lsl #1
  4002e2:	0412      	lsls	r2, r2, #16
		ul_alarm |= ((ul_hour / BCD_FACTOR) << (RTC_TIMR_HOUR_Pos + BCD_SHIFT)) |
  4002e4:	ea42 5201 	orr.w	r2, r2, r1, lsl #20
  4002e8:	4316      	orrs	r6, r2
	}

	/* Minute alarm setting */
	if (ul_minute_flag) {
  4002ea:	b15b      	cbz	r3, 400304 <rtc_set_time_alarm+0x54>
		ul_alarm |= ((ul_minute / BCD_FACTOR) << (RTC_TIMR_MIN_Pos + BCD_SHIFT)) |
  4002ec:	4b12      	ldr	r3, [pc, #72]	; (400338 <rtc_set_time_alarm+0x88>)
  4002ee:	fba3 2304 	umull	r2, r3, r3, r4
  4002f2:	08db      	lsrs	r3, r3, #3
				((ul_minute % BCD_FACTOR) << RTC_TIMR_MIN_Pos);
  4002f4:	eb03 0283 	add.w	r2, r3, r3, lsl #2
  4002f8:	eba4 0442 	sub.w	r4, r4, r2, lsl #1
  4002fc:	0224      	lsls	r4, r4, #8
		ul_alarm |= ((ul_minute / BCD_FACTOR) << (RTC_TIMR_MIN_Pos + BCD_SHIFT)) |
  4002fe:	ea44 3403 	orr.w	r4, r4, r3, lsl #12
  400302:	4326      	orrs	r6, r4
	}

	/* Second alarm setting */
	if (ul_second_flag) {
  400304:	b155      	cbz	r5, 40031c <rtc_set_time_alarm+0x6c>
		ul_alarm |= ((ul_second / BCD_FACTOR) << (RTC_TIMR_SEC_Pos + BCD_SHIFT)) |
  400306:	4b0c      	ldr	r3, [pc, #48]	; (400338 <rtc_set_time_alarm+0x88>)
  400308:	fba3 2307 	umull	r2, r3, r3, r7
  40030c:	08db      	lsrs	r3, r3, #3
				((ul_second % BCD_FACTOR) << RTC_TIMR_SEC_Pos);
  40030e:	eb03 0283 	add.w	r2, r3, r3, lsl #2
  400312:	eba7 0742 	sub.w	r7, r7, r2, lsl #1
		ul_alarm |= ((ul_second / BCD_FACTOR) << (RTC_TIMR_SEC_Pos + BCD_SHIFT)) |
  400316:	ea47 1303 	orr.w	r3, r7, r3, lsl #4
  40031a:	431e      	orrs	r6, r3
	}

	p_rtc->RTC_TIMALR &= ~(RTC_TIMALR_SECEN | RTC_TIMALR_MINEN | RTC_TIMALR_HOUREN);
  40031c:	6902      	ldr	r2, [r0, #16]
  40031e:	4b07      	ldr	r3, [pc, #28]	; (40033c <rtc_set_time_alarm+0x8c>)
  400320:	4013      	ands	r3, r2
  400322:	6103      	str	r3, [r0, #16]
	p_rtc->RTC_TIMALR = ul_alarm;
  400324:	6106      	str	r6, [r0, #16]
	p_rtc->RTC_TIMALR |= (RTC_TIMALR_SECEN | RTC_TIMALR_MINEN | RTC_TIMALR_HOUREN);
  400326:	6902      	ldr	r2, [r0, #16]
  400328:	4b05      	ldr	r3, [pc, #20]	; (400340 <rtc_set_time_alarm+0x90>)
  40032a:	4313      	orrs	r3, r2
  40032c:	6103      	str	r3, [r0, #16]

	return (p_rtc->RTC_VER & RTC_VER_NVTIMALR);
  40032e:	6ac0      	ldr	r0, [r0, #44]	; 0x2c
}
  400330:	f000 0004 	and.w	r0, r0, #4
  400334:	bdf0      	pop	{r4, r5, r6, r7, pc}
  400336:	bf00      	nop
  400338:	cccccccd 	.word	0xcccccccd
  40033c:	ff7f7f7f 	.word	0xff7f7f7f
  400340:	00808080 	.word	0x00808080

00400344 <rtc_get_status>:
 *
 * \return Status of the RTC.
 */
uint32_t rtc_get_status(Rtc *p_rtc)
{
	return (p_rtc->RTC_SR);
  400344:	6980      	ldr	r0, [r0, #24]
}
  400346:	4770      	bx	lr

00400348 <rtc_clear_status>:
 * \param p_rtc Pointer to an RTC instance.
 * \param ul_clear Some flag bits which will be cleared.
 */
void rtc_clear_status(Rtc *p_rtc, uint32_t ul_clear)
{
	p_rtc->RTC_SCCR = ul_clear;
  400348:	61c1      	str	r1, [r0, #28]
  40034a:	4770      	bx	lr

0040034c <spi_enable_clock>:
 * \brief Enable SPI clock.
 *
 * \param p_spi Pointer to an SPI instance.
 */
void spi_enable_clock(Spi *p_spi)
{
  40034c:	b508      	push	{r3, lr}
#if (SAM4S || SAM3S || SAM3N || SAM3U || SAM4E || SAM4N || SAMG51|| SAMG53|| SAMG54)
	UNUSED(p_spi);
	sysclk_enable_peripheral_clock(ID_SPI);
#elif (SAM3XA || SAM4C || SAM4CP || SAM4CM || SAMV71 || SAMV70 || SAME70 || SAMS70)
	if (p_spi == SPI0) {
  40034e:	4b07      	ldr	r3, [pc, #28]	; (40036c <spi_enable_clock+0x20>)
  400350:	4298      	cmp	r0, r3
  400352:	d003      	beq.n	40035c <spi_enable_clock+0x10>
		sysclk_enable_peripheral_clock(ID_SPI0);
	}
	#ifdef SPI1
	else if (p_spi == SPI1) {
  400354:	4b06      	ldr	r3, [pc, #24]	; (400370 <spi_enable_clock+0x24>)
  400356:	4298      	cmp	r0, r3
  400358:	d004      	beq.n	400364 <spi_enable_clock+0x18>
  40035a:	bd08      	pop	{r3, pc}
 *
 * \param ul_id Id (number) of the peripheral clock.
 */
static inline void sysclk_enable_peripheral_clock(uint32_t ul_id)
{
	pmc_enable_periph_clk(ul_id);
  40035c:	2015      	movs	r0, #21
  40035e:	4b05      	ldr	r3, [pc, #20]	; (400374 <spi_enable_clock+0x28>)
  400360:	4798      	blx	r3
  400362:	bd08      	pop	{r3, pc}
  400364:	202a      	movs	r0, #42	; 0x2a
  400366:	4b03      	ldr	r3, [pc, #12]	; (400374 <spi_enable_clock+0x28>)
  400368:	4798      	blx	r3
	}
	#endif
#elif SAM4L
	sysclk_enable_peripheral_clock(p_spi);
#endif
}
  40036a:	e7f6      	b.n	40035a <spi_enable_clock+0xe>
  40036c:	40008000 	.word	0x40008000
  400370:	40058000 	.word	0x40058000
  400374:	0040100d 	.word	0x0040100d

00400378 <spi_set_peripheral_chip_select_value>:
 *                 \ref spi_enable_peripheral_select_decode,
 *                 \ref spi_disable_peripheral_select_decode.
 */
void spi_set_peripheral_chip_select_value(Spi *p_spi, uint32_t ul_value)
{
	p_spi->SPI_MR &= (~SPI_MR_PCS_Msk);
  400378:	6843      	ldr	r3, [r0, #4]
  40037a:	f423 2370 	bic.w	r3, r3, #983040	; 0xf0000
  40037e:	6043      	str	r3, [r0, #4]
	p_spi->SPI_MR |= SPI_MR_PCS(ul_value);
  400380:	6843      	ldr	r3, [r0, #4]
  400382:	0409      	lsls	r1, r1, #16
  400384:	f401 2170 	and.w	r1, r1, #983040	; 0xf0000
  400388:	4319      	orrs	r1, r3
  40038a:	6041      	str	r1, [r0, #4]
  40038c:	4770      	bx	lr

0040038e <spi_write>:
 * \retval SPI_OK on Success.
 * \retval SPI_ERROR_TIMEOUT on Time-out.
 */
spi_status_t spi_write(Spi *p_spi, uint16_t us_data,
		uint8_t uc_pcs, uint8_t uc_last)
{
  40038e:	b430      	push	{r4, r5}
	uint32_t timeout = SPI_TIMEOUT;
	uint32_t value;

	while (!(p_spi->SPI_SR & SPI_SR_TDRE)) {
  400390:	f643 2499 	movw	r4, #15001	; 0x3a99
  400394:	6905      	ldr	r5, [r0, #16]
  400396:	f015 0f02 	tst.w	r5, #2
  40039a:	d103      	bne.n	4003a4 <spi_write+0x16>
		if (!timeout--) {
  40039c:	3c01      	subs	r4, #1
  40039e:	d1f9      	bne.n	400394 <spi_write+0x6>
			return SPI_ERROR_TIMEOUT;
  4003a0:	2001      	movs	r0, #1
  4003a2:	e00c      	b.n	4003be <spi_write+0x30>
 *
 * \return 1 for Variable mode, 0 for fixed mode.
 */
static inline uint32_t spi_get_peripheral_select_mode(Spi *p_spi)
{
	if (p_spi->SPI_MR & SPI_MR_PS) {
  4003a4:	6844      	ldr	r4, [r0, #4]
		}
	}

	if (spi_get_peripheral_select_mode(p_spi)) {
  4003a6:	f014 0f02 	tst.w	r4, #2
  4003aa:	d006      	beq.n	4003ba <spi_write+0x2c>
		value = SPI_TDR_TD(us_data) | SPI_TDR_PCS(uc_pcs);
  4003ac:	0412      	lsls	r2, r2, #16
  4003ae:	f402 2270 	and.w	r2, r2, #983040	; 0xf0000
  4003b2:	4311      	orrs	r1, r2
		if (uc_last) {
  4003b4:	b10b      	cbz	r3, 4003ba <spi_write+0x2c>
			value |= SPI_TDR_LASTXFER;
  4003b6:	f041 7180 	orr.w	r1, r1, #16777216	; 0x1000000
		}
	} else {
		value = SPI_TDR_TD(us_data);
	}

	p_spi->SPI_TDR = value;
  4003ba:	60c1      	str	r1, [r0, #12]

	return SPI_OK;
  4003bc:	2000      	movs	r0, #0
}
  4003be:	bc30      	pop	{r4, r5}
  4003c0:	4770      	bx	lr

004003c2 <spi_set_clock_polarity>:
 * \param ul_polarity Default clock state is logical one(high)/zero(low).
 */
void spi_set_clock_polarity(Spi *p_spi, uint32_t ul_pcs_ch,
		uint32_t ul_polarity)
{
	if (ul_polarity) {
  4003c2:	b932      	cbnz	r2, 4003d2 <spi_set_clock_polarity+0x10>
  4003c4:	eb00 0081 	add.w	r0, r0, r1, lsl #2
		p_spi->SPI_CSR[ul_pcs_ch] |= SPI_CSR_CPOL;
	} else {
		p_spi->SPI_CSR[ul_pcs_ch] &= (~SPI_CSR_CPOL);
  4003c8:	6b03      	ldr	r3, [r0, #48]	; 0x30
  4003ca:	f023 0301 	bic.w	r3, r3, #1
  4003ce:	6303      	str	r3, [r0, #48]	; 0x30
  4003d0:	4770      	bx	lr
  4003d2:	eb00 0081 	add.w	r0, r0, r1, lsl #2
		p_spi->SPI_CSR[ul_pcs_ch] |= SPI_CSR_CPOL;
  4003d6:	6b03      	ldr	r3, [r0, #48]	; 0x30
  4003d8:	f043 0301 	orr.w	r3, r3, #1
  4003dc:	6303      	str	r3, [r0, #48]	; 0x30
  4003de:	4770      	bx	lr

004003e0 <spi_set_clock_phase>:
 *  \param ul_pcs_ch Peripheral Chip Select channel (0~3).
 *  \param ul_phase Data capture on the rising/falling edge of clock.
 */
void spi_set_clock_phase(Spi *p_spi, uint32_t ul_pcs_ch, uint32_t ul_phase)
{
	if (ul_phase) {
  4003e0:	b932      	cbnz	r2, 4003f0 <spi_set_clock_phase+0x10>
  4003e2:	eb00 0081 	add.w	r0, r0, r1, lsl #2
		p_spi->SPI_CSR[ul_pcs_ch] |= SPI_CSR_NCPHA;
	} else {
		p_spi->SPI_CSR[ul_pcs_ch] &= (~SPI_CSR_NCPHA);
  4003e6:	6b03      	ldr	r3, [r0, #48]	; 0x30
  4003e8:	f023 0302 	bic.w	r3, r3, #2
  4003ec:	6303      	str	r3, [r0, #48]	; 0x30
  4003ee:	4770      	bx	lr
  4003f0:	eb00 0081 	add.w	r0, r0, r1, lsl #2
		p_spi->SPI_CSR[ul_pcs_ch] |= SPI_CSR_NCPHA;
  4003f4:	6b03      	ldr	r3, [r0, #48]	; 0x30
  4003f6:	f043 0302 	orr.w	r3, r3, #2
  4003fa:	6303      	str	r3, [r0, #48]	; 0x30
  4003fc:	4770      	bx	lr

004003fe <spi_configure_cs_behavior>:
 * \param ul_cs_behavior Behavior of the Chip Select after transfer.
 */
void spi_configure_cs_behavior(Spi *p_spi, uint32_t ul_pcs_ch,
		uint32_t ul_cs_behavior)
{
	if (ul_cs_behavior == SPI_CS_RISE_FORCED) {
  4003fe:	2a04      	cmp	r2, #4
  400400:	d003      	beq.n	40040a <spi_configure_cs_behavior+0xc>
		p_spi->SPI_CSR[ul_pcs_ch] &= (~SPI_CSR_CSAAT);
		p_spi->SPI_CSR[ul_pcs_ch] |= SPI_CSR_CSNAAT;
	} else if (ul_cs_behavior == SPI_CS_RISE_NO_TX) {
  400402:	b16a      	cbz	r2, 400420 <spi_configure_cs_behavior+0x22>
		p_spi->SPI_CSR[ul_pcs_ch] &= (~SPI_CSR_CSAAT);
		p_spi->SPI_CSR[ul_pcs_ch] &= (~SPI_CSR_CSNAAT);
	} else if (ul_cs_behavior == SPI_CS_KEEP_LOW) {
  400404:	2a08      	cmp	r2, #8
  400406:	d016      	beq.n	400436 <spi_configure_cs_behavior+0x38>
  400408:	4770      	bx	lr
  40040a:	eb00 0081 	add.w	r0, r0, r1, lsl #2
		p_spi->SPI_CSR[ul_pcs_ch] &= (~SPI_CSR_CSAAT);
  40040e:	6b03      	ldr	r3, [r0, #48]	; 0x30
  400410:	f023 0308 	bic.w	r3, r3, #8
  400414:	6303      	str	r3, [r0, #48]	; 0x30
		p_spi->SPI_CSR[ul_pcs_ch] |= SPI_CSR_CSNAAT;
  400416:	6b03      	ldr	r3, [r0, #48]	; 0x30
  400418:	f043 0304 	orr.w	r3, r3, #4
  40041c:	6303      	str	r3, [r0, #48]	; 0x30
  40041e:	4770      	bx	lr
  400420:	eb00 0081 	add.w	r0, r0, r1, lsl #2
		p_spi->SPI_CSR[ul_pcs_ch] &= (~SPI_CSR_CSAAT);
  400424:	6b03      	ldr	r3, [r0, #48]	; 0x30
  400426:	f023 0308 	bic.w	r3, r3, #8
  40042a:	6303      	str	r3, [r0, #48]	; 0x30
		p_spi->SPI_CSR[ul_pcs_ch] &= (~SPI_CSR_CSNAAT);
  40042c:	6b03      	ldr	r3, [r0, #48]	; 0x30
  40042e:	f023 0304 	bic.w	r3, r3, #4
  400432:	6303      	str	r3, [r0, #48]	; 0x30
  400434:	4770      	bx	lr
  400436:	eb00 0081 	add.w	r0, r0, r1, lsl #2
		p_spi->SPI_CSR[ul_pcs_ch] |= SPI_CSR_CSAAT;
  40043a:	6b03      	ldr	r3, [r0, #48]	; 0x30
  40043c:	f043 0308 	orr.w	r3, r3, #8
  400440:	6303      	str	r3, [r0, #48]	; 0x30
	}
}
  400442:	e7e1      	b.n	400408 <spi_configure_cs_behavior+0xa>

00400444 <spi_set_bits_per_transfer>:
 * \param ul_bits Number of bits (8~16), use the pattern defined
 *        in the device header file.
 */
void spi_set_bits_per_transfer(Spi *p_spi, uint32_t ul_pcs_ch,
		uint32_t ul_bits)
{
  400444:	eb00 0181 	add.w	r1, r0, r1, lsl #2
	p_spi->SPI_CSR[ul_pcs_ch] &= (~SPI_CSR_BITS_Msk);
  400448:	6b0b      	ldr	r3, [r1, #48]	; 0x30
  40044a:	f023 03f0 	bic.w	r3, r3, #240	; 0xf0
  40044e:	630b      	str	r3, [r1, #48]	; 0x30
	p_spi->SPI_CSR[ul_pcs_ch] |= ul_bits;
  400450:	6b0b      	ldr	r3, [r1, #48]	; 0x30
  400452:	431a      	orrs	r2, r3
  400454:	630a      	str	r2, [r1, #48]	; 0x30
  400456:	4770      	bx	lr

00400458 <spi_calc_baudrate_div>:
 *   \retval > 0  Success.
 *   \retval < 0  Error.
 */
int16_t spi_calc_baudrate_div(const uint32_t baudrate, uint32_t mck)
{
	int baud_div = div_ceil(mck, baudrate);
  400458:	1e43      	subs	r3, r0, #1
  40045a:	4419      	add	r1, r3
  40045c:	fbb1 f0f0 	udiv	r0, r1, r0

	/* The value of baud_div is from 1 to 255 in the SCBR field. */
	if (baud_div <= 0 || baud_div > 255) {
  400460:	1e43      	subs	r3, r0, #1
  400462:	2bfe      	cmp	r3, #254	; 0xfe
		return -1;
	}

	return baud_div;
  400464:	bf94      	ite	ls
  400466:	b200      	sxthls	r0, r0
		return -1;
  400468:	f04f 30ff 	movhi.w	r0, #4294967295
}
  40046c:	4770      	bx	lr

0040046e <spi_set_baudrate_div>:
 */
int16_t spi_set_baudrate_div(Spi *p_spi, uint32_t ul_pcs_ch,
		uint8_t uc_baudrate_divider)
{
    /* Programming the SCBR field to 0 is forbidden */
    if (!uc_baudrate_divider)
  40046e:	b17a      	cbz	r2, 400490 <spi_set_baudrate_div+0x22>
{
  400470:	b410      	push	{r4}
  400472:	4614      	mov	r4, r2
  400474:	eb00 0181 	add.w	r1, r0, r1, lsl #2
        return -1;

	p_spi->SPI_CSR[ul_pcs_ch] &= (~SPI_CSR_SCBR_Msk);
  400478:	6b0b      	ldr	r3, [r1, #48]	; 0x30
  40047a:	f423 437f 	bic.w	r3, r3, #65280	; 0xff00
  40047e:	630b      	str	r3, [r1, #48]	; 0x30
	p_spi->SPI_CSR[ul_pcs_ch] |= SPI_CSR_SCBR(uc_baudrate_divider);
  400480:	6b0a      	ldr	r2, [r1, #48]	; 0x30
  400482:	ea42 2204 	orr.w	r2, r2, r4, lsl #8
  400486:	630a      	str	r2, [r1, #48]	; 0x30
    return 0;
  400488:	2000      	movs	r0, #0
}
  40048a:	f85d 4b04 	ldr.w	r4, [sp], #4
  40048e:	4770      	bx	lr
        return -1;
  400490:	f04f 30ff 	mov.w	r0, #4294967295
  400494:	4770      	bx	lr
	...

00400498 <gfx_mono_set_framebuffer>:
	gfx_mono_set_framebuffer(framebuffer);
\endcode
 */
void gfx_mono_set_framebuffer(uint8_t *framebuffer)
{
	fbpointer = framebuffer;
  400498:	4b01      	ldr	r3, [pc, #4]	; (4004a0 <gfx_mono_set_framebuffer+0x8>)
  40049a:	6018      	str	r0, [r3, #0]
  40049c:	4770      	bx	lr
  40049e:	bf00      	nop
  4004a0:	204009ec 	.word	0x204009ec

004004a4 <gfx_mono_framebuffer_put_byte>:
\endcode
 */
void gfx_mono_framebuffer_put_byte(gfx_coord_t page, gfx_coord_t column,
		uint8_t data)
{
	*(fbpointer + (page * GFX_MONO_LCD_WIDTH) + column) = data;
  4004a4:	4b02      	ldr	r3, [pc, #8]	; (4004b0 <gfx_mono_framebuffer_put_byte+0xc>)
  4004a6:	681b      	ldr	r3, [r3, #0]
  4004a8:	eb03 10c0 	add.w	r0, r3, r0, lsl #7
  4004ac:	5442      	strb	r2, [r0, r1]
  4004ae:	4770      	bx	lr
  4004b0:	204009ec 	.word	0x204009ec

004004b4 <gfx_mono_framebuffer_get_byte>:
	data = gfx_mono_framebuffer_get_byte(0, 0);
\endcode
 */
uint8_t gfx_mono_framebuffer_get_byte(gfx_coord_t page, gfx_coord_t column)
{
	return *(fbpointer + (page * GFX_MONO_LCD_WIDTH) + column);
  4004b4:	4b02      	ldr	r3, [pc, #8]	; (4004c0 <gfx_mono_framebuffer_get_byte+0xc>)
  4004b6:	681b      	ldr	r3, [r3, #0]
  4004b8:	eb03 10c0 	add.w	r0, r3, r0, lsl #7
}
  4004bc:	5c40      	ldrb	r0, [r0, r1]
  4004be:	4770      	bx	lr
  4004c0:	204009ec 	.word	0x204009ec

004004c4 <gfx_mono_generic_draw_horizontal_line>:
 * \param[in]  length     Length of the line in pixels.
 * \param[in]  color      Pixel operation of the line.
 */
void gfx_mono_generic_draw_horizontal_line(gfx_coord_t x, gfx_coord_t y,
		gfx_coord_t length, enum gfx_mono_color color)
{
  4004c4:	e92d 47f0 	stmdb	sp!, {r4, r5, r6, r7, r8, r9, sl, lr}
	uint8_t page;
	uint8_t pixelmask;
	uint8_t temp;

	/* Clip line length if too long */
	if (x + length > GFX_MONO_LCD_WIDTH) {
  4004c8:	1884      	adds	r4, r0, r2
  4004ca:	2c80      	cmp	r4, #128	; 0x80
  4004cc:	dd02      	ble.n	4004d4 <gfx_mono_generic_draw_horizontal_line+0x10>
		length = GFX_MONO_LCD_WIDTH - x;
  4004ce:	f1c0 0480 	rsb	r4, r0, #128	; 0x80
  4004d2:	b2e2      	uxtb	r2, r4
	}

	page = y / 8;
	pixelmask = (1 << (y - (page * 8)));

	if (length == 0) {
  4004d4:	b322      	cbz	r2, 400520 <gfx_mono_generic_draw_horizontal_line+0x5c>
	page = y / 8;
  4004d6:	08cd      	lsrs	r5, r1, #3
	pixelmask = (1 << (y - (page * 8)));
  4004d8:	eba1 01c5 	sub.w	r1, r1, r5, lsl #3
  4004dc:	2601      	movs	r6, #1
  4004de:	fa06 f101 	lsl.w	r1, r6, r1
  4004e2:	b2ce      	uxtb	r6, r1
		/* Nothing to do. Move along. */
		return;
	}

	switch (color) {
  4004e4:	2b01      	cmp	r3, #1
  4004e6:	d01d      	beq.n	400524 <gfx_mono_generic_draw_horizontal_line+0x60>
  4004e8:	2b00      	cmp	r3, #0
  4004ea:	d035      	beq.n	400558 <gfx_mono_generic_draw_horizontal_line+0x94>
  4004ec:	2b02      	cmp	r3, #2
  4004ee:	d117      	bne.n	400520 <gfx_mono_generic_draw_horizontal_line+0x5c>
  4004f0:	3801      	subs	r0, #1
  4004f2:	b2c7      	uxtb	r7, r0
  4004f4:	19d4      	adds	r4, r2, r7
  4004f6:	b2e4      	uxtb	r4, r4
		}
		break;

	case GFX_PIXEL_XOR:
		while (length-- > 0) {
			temp = gfx_mono_get_byte(page, x + length);
  4004f8:	f8df a090 	ldr.w	sl, [pc, #144]	; 40058c <gfx_mono_generic_draw_horizontal_line+0xc8>
			temp ^= pixelmask;
			gfx_mono_put_byte(page, x + length, temp);
  4004fc:	f04f 0900 	mov.w	r9, #0
  400500:	f8df 808c 	ldr.w	r8, [pc, #140]	; 400590 <gfx_mono_generic_draw_horizontal_line+0xcc>
			temp = gfx_mono_get_byte(page, x + length);
  400504:	4621      	mov	r1, r4
  400506:	4628      	mov	r0, r5
  400508:	47d0      	blx	sl
			temp ^= pixelmask;
  40050a:	ea86 0200 	eor.w	r2, r6, r0
			gfx_mono_put_byte(page, x + length, temp);
  40050e:	464b      	mov	r3, r9
  400510:	b2d2      	uxtb	r2, r2
  400512:	4621      	mov	r1, r4
  400514:	4628      	mov	r0, r5
  400516:	47c0      	blx	r8
  400518:	3c01      	subs	r4, #1
  40051a:	b2e4      	uxtb	r4, r4
		while (length-- > 0) {
  40051c:	42bc      	cmp	r4, r7
  40051e:	d1f1      	bne.n	400504 <gfx_mono_generic_draw_horizontal_line+0x40>
  400520:	e8bd 87f0 	ldmia.w	sp!, {r4, r5, r6, r7, r8, r9, sl, pc}
  400524:	3801      	subs	r0, #1
  400526:	b2c7      	uxtb	r7, r0
  400528:	19d4      	adds	r4, r2, r7
  40052a:	b2e4      	uxtb	r4, r4
			temp = gfx_mono_get_byte(page, x + length);
  40052c:	f8df a05c 	ldr.w	sl, [pc, #92]	; 40058c <gfx_mono_generic_draw_horizontal_line+0xc8>
			gfx_mono_put_byte(page, x + length, temp);
  400530:	f04f 0900 	mov.w	r9, #0
  400534:	f8df 8058 	ldr.w	r8, [pc, #88]	; 400590 <gfx_mono_generic_draw_horizontal_line+0xcc>
			temp = gfx_mono_get_byte(page, x + length);
  400538:	4621      	mov	r1, r4
  40053a:	4628      	mov	r0, r5
  40053c:	47d0      	blx	sl
			temp |= pixelmask;
  40053e:	ea46 0200 	orr.w	r2, r6, r0
			gfx_mono_put_byte(page, x + length, temp);
  400542:	464b      	mov	r3, r9
  400544:	b2d2      	uxtb	r2, r2
  400546:	4621      	mov	r1, r4
  400548:	4628      	mov	r0, r5
  40054a:	47c0      	blx	r8
  40054c:	3c01      	subs	r4, #1
  40054e:	b2e4      	uxtb	r4, r4
		while (length-- > 0) {
  400550:	42bc      	cmp	r4, r7
  400552:	d1f1      	bne.n	400538 <gfx_mono_generic_draw_horizontal_line+0x74>
  400554:	e8bd 87f0 	ldmia.w	sp!, {r4, r5, r6, r7, r8, r9, sl, pc}
  400558:	3801      	subs	r0, #1
  40055a:	b2c7      	uxtb	r7, r0
  40055c:	19d4      	adds	r4, r2, r7
  40055e:	b2e4      	uxtb	r4, r4
			temp = gfx_mono_get_byte(page, x + length);
  400560:	f8df 8028 	ldr.w	r8, [pc, #40]	; 40058c <gfx_mono_generic_draw_horizontal_line+0xc8>
			temp &= ~pixelmask;
  400564:	43ce      	mvns	r6, r1
			gfx_mono_put_byte(page, x + length, temp);
  400566:	f8df 9028 	ldr.w	r9, [pc, #40]	; 400590 <gfx_mono_generic_draw_horizontal_line+0xcc>
			temp = gfx_mono_get_byte(page, x + length);
  40056a:	4621      	mov	r1, r4
  40056c:	4628      	mov	r0, r5
  40056e:	47c0      	blx	r8
			temp &= ~pixelmask;
  400570:	ea06 0200 	and.w	r2, r6, r0
			gfx_mono_put_byte(page, x + length, temp);
  400574:	2300      	movs	r3, #0
  400576:	b2d2      	uxtb	r2, r2
  400578:	4621      	mov	r1, r4
  40057a:	4628      	mov	r0, r5
  40057c:	47c8      	blx	r9
  40057e:	3c01      	subs	r4, #1
  400580:	b2e4      	uxtb	r4, r4
		while (length-- > 0) {
  400582:	42bc      	cmp	r4, r7
  400584:	d1f1      	bne.n	40056a <gfx_mono_generic_draw_horizontal_line+0xa6>
  400586:	e8bd 87f0 	ldmia.w	sp!, {r4, r5, r6, r7, r8, r9, sl, pc}
  40058a:	bf00      	nop
  40058c:	004007d9 	.word	0x004007d9
  400590:	004006c1 	.word	0x004006c1

00400594 <gfx_mono_generic_draw_filled_rect>:
 * \param[in]  color       Pixel operation of the line
 */
void gfx_mono_generic_draw_filled_rect(gfx_coord_t x, gfx_coord_t y,
		gfx_coord_t width, gfx_coord_t height,
		enum gfx_mono_color color)
{
  400594:	e92d 43f8 	stmdb	sp!, {r3, r4, r5, r6, r7, r8, r9, lr}
  400598:	f89d 7020 	ldrb.w	r7, [sp, #32]
	if (height == 0) {
  40059c:	b18b      	cbz	r3, 4005c2 <gfx_mono_generic_draw_filled_rect+0x2e>
  40059e:	461c      	mov	r4, r3
  4005a0:	4690      	mov	r8, r2
  4005a2:	4606      	mov	r6, r0
  4005a4:	1e4d      	subs	r5, r1, #1
  4005a6:	b2ed      	uxtb	r5, r5
  4005a8:	442c      	add	r4, r5
  4005aa:	b2e4      	uxtb	r4, r4
		/* Nothing to do. Move along. */
		return;
	}

	while (height-- > 0) {
		gfx_mono_draw_horizontal_line(x, y + height, width, color);
  4005ac:	f8df 9018 	ldr.w	r9, [pc, #24]	; 4005c8 <gfx_mono_generic_draw_filled_rect+0x34>
  4005b0:	463b      	mov	r3, r7
  4005b2:	4642      	mov	r2, r8
  4005b4:	4621      	mov	r1, r4
  4005b6:	4630      	mov	r0, r6
  4005b8:	47c8      	blx	r9
  4005ba:	3c01      	subs	r4, #1
  4005bc:	b2e4      	uxtb	r4, r4
	while (height-- > 0) {
  4005be:	42ac      	cmp	r4, r5
  4005c0:	d1f6      	bne.n	4005b0 <gfx_mono_generic_draw_filled_rect+0x1c>
  4005c2:	e8bd 83f8 	ldmia.w	sp!, {r3, r4, r5, r6, r7, r8, r9, pc}
  4005c6:	bf00      	nop
  4005c8:	004004c5 	.word	0x004004c5

004005cc <gfx_mono_draw_char>:
 * \param[in] y        Y coordinate on screen.
 * \param[in] font     Font to draw character in
 */
void gfx_mono_draw_char(const char c, const gfx_coord_t x, const gfx_coord_t y,
		const struct font *font)
{
  4005cc:	e92d 4ff0 	stmdb	sp!, {r4, r5, r6, r7, r8, r9, sl, fp, lr}
  4005d0:	b083      	sub	sp, #12
  4005d2:	4604      	mov	r4, r0
  4005d4:	4688      	mov	r8, r1
  4005d6:	4691      	mov	r9, r2
  4005d8:	469b      	mov	fp, r3
	gfx_mono_draw_filled_rect(x, y, font->width, font->height,
  4005da:	7a5b      	ldrb	r3, [r3, #9]
  4005dc:	f89b 2008 	ldrb.w	r2, [fp, #8]
  4005e0:	2100      	movs	r1, #0
  4005e2:	9100      	str	r1, [sp, #0]
  4005e4:	4649      	mov	r1, r9
  4005e6:	4640      	mov	r0, r8
  4005e8:	4d21      	ldr	r5, [pc, #132]	; (400670 <gfx_mono_draw_char+0xa4>)
  4005ea:	47a8      	blx	r5
			GFX_PIXEL_CLR);

	switch (font->type) {
  4005ec:	f89b 3000 	ldrb.w	r3, [fp]
  4005f0:	b113      	cbz	r3, 4005f8 <gfx_mono_draw_char+0x2c>
	default:
		/* Unsupported mode, call assert */
		Assert(false);
		break;
	}
}
  4005f2:	b003      	add	sp, #12
  4005f4:	e8bd 8ff0 	ldmia.w	sp!, {r4, r5, r6, r7, r8, r9, sl, fp, pc}
	char_row_size = font->width / CONFIG_FONT_PIXELS_PER_BYTE;
  4005f8:	f89b 2008 	ldrb.w	r2, [fp, #8]
  4005fc:	08d3      	lsrs	r3, r2, #3
	if (font->width % CONFIG_FONT_PIXELS_PER_BYTE) {
  4005fe:	f012 0f07 	tst.w	r2, #7
		char_row_size++;
  400602:	bf18      	it	ne
  400604:	3301      	addne	r3, #1
	glyph_data_offset = char_row_size * font->height *
  400606:	f89b a009 	ldrb.w	sl, [fp, #9]
			((uint8_t)ch - font->first_char);
  40060a:	f89b 700a 	ldrb.w	r7, [fp, #10]
  40060e:	1be7      	subs	r7, r4, r7
	glyph_data_offset = char_row_size * font->height *
  400610:	fb17 f70a 	smulbb	r7, r7, sl
  400614:	fb17 f703 	smulbb	r7, r7, r3
	glyph_data = font->data.progmem + glyph_data_offset;
  400618:	f8db 3004 	ldr.w	r3, [fp, #4]
  40061c:	fa13 f787 	uxtah	r7, r3, r7
  400620:	e01f      	b.n	400662 <gfx_mono_draw_char+0x96>
			glyph_byte <<= 1;
  400622:	0064      	lsls	r4, r4, #1
  400624:	b2e4      	uxtb	r4, r4
  400626:	3501      	adds	r5, #1
		for (i = 0; i < pixelsToDraw; i++) {
  400628:	b2eb      	uxtb	r3, r5
  40062a:	429e      	cmp	r6, r3
  40062c:	d910      	bls.n	400650 <gfx_mono_draw_char+0x84>
  40062e:	b2eb      	uxtb	r3, r5
  400630:	eb08 0003 	add.w	r0, r8, r3
  400634:	b2c0      	uxtb	r0, r0
			if (i % CONFIG_FONT_PIXELS_PER_BYTE == 0) {
  400636:	f013 0f07 	tst.w	r3, #7
				glyph_byte = PROGMEM_READ_BYTE(glyph_data);
  40063a:	bf08      	it	eq
  40063c:	f817 4b01 	ldrbeq.w	r4, [r7], #1
			if ((glyph_byte & 0x80)) {
  400640:	f014 0f80 	tst.w	r4, #128	; 0x80
  400644:	d0ed      	beq.n	400622 <gfx_mono_draw_char+0x56>
				gfx_mono_draw_pixel(inc_x, inc_y,
  400646:	2201      	movs	r2, #1
  400648:	4649      	mov	r1, r9
  40064a:	4b0a      	ldr	r3, [pc, #40]	; (400674 <gfx_mono_draw_char+0xa8>)
  40064c:	4798      	blx	r3
  40064e:	e7e8      	b.n	400622 <gfx_mono_draw_char+0x56>
		inc_y += 1;
  400650:	f109 0901 	add.w	r9, r9, #1
  400654:	fa5f f989 	uxtb.w	r9, r9
		rows_left--;
  400658:	f10a 3aff 	add.w	sl, sl, #4294967295
	} while (rows_left > 0);
  40065c:	f01a 0aff 	ands.w	sl, sl, #255	; 0xff
  400660:	d0c7      	beq.n	4005f2 <gfx_mono_draw_char+0x26>
		uint8_t pixelsToDraw = font->width;
  400662:	f89b 6008 	ldrb.w	r6, [fp, #8]
		for (i = 0; i < pixelsToDraw; i++) {
  400666:	2e00      	cmp	r6, #0
  400668:	d0f2      	beq.n	400650 <gfx_mono_draw_char+0x84>
  40066a:	2500      	movs	r5, #0
  40066c:	462c      	mov	r4, r5
  40066e:	e7de      	b.n	40062e <gfx_mono_draw_char+0x62>
  400670:	00400595 	.word	0x00400595
  400674:	00400761 	.word	0x00400761

00400678 <gfx_mono_draw_string>:
 * \param[in] y         Y coordinate on screen.
 * \param[in] font      Font to draw string in
 */
void gfx_mono_draw_string(const char *str, gfx_coord_t x, gfx_coord_t y,
		const struct font *font)
{
  400678:	e92d 43f8 	stmdb	sp!, {r3, r4, r5, r6, r7, r8, r9, lr}
  40067c:	4604      	mov	r4, r0
  40067e:	4690      	mov	r8, r2
  400680:	461d      	mov	r5, r3
  400682:	4689      	mov	r9, r1
			x = start_of_string_position_x;
			y += font->height + 1;
		} else if (*str == '\r') {
			/* Skip '\r' characters. */
		} else {
			gfx_mono_draw_char(*str, x, y, font);
  400684:	4f0d      	ldr	r7, [pc, #52]	; (4006bc <gfx_mono_draw_string+0x44>)
			x = start_of_string_position_x;
  400686:	460e      	mov	r6, r1
  400688:	e008      	b.n	40069c <gfx_mono_draw_string+0x24>
			y += font->height + 1;
  40068a:	7a6a      	ldrb	r2, [r5, #9]
  40068c:	3201      	adds	r2, #1
  40068e:	4442      	add	r2, r8
  400690:	fa5f f882 	uxtb.w	r8, r2
			x = start_of_string_position_x;
  400694:	46b1      	mov	r9, r6
			x += font->width;
		}
	} while (*(++str));
  400696:	f814 3f01 	ldrb.w	r3, [r4, #1]!
  40069a:	b16b      	cbz	r3, 4006b8 <gfx_mono_draw_string+0x40>
		if (*str == '\n') {
  40069c:	7820      	ldrb	r0, [r4, #0]
  40069e:	280a      	cmp	r0, #10
  4006a0:	d0f3      	beq.n	40068a <gfx_mono_draw_string+0x12>
		} else if (*str == '\r') {
  4006a2:	280d      	cmp	r0, #13
  4006a4:	d0f7      	beq.n	400696 <gfx_mono_draw_string+0x1e>
			gfx_mono_draw_char(*str, x, y, font);
  4006a6:	462b      	mov	r3, r5
  4006a8:	4642      	mov	r2, r8
  4006aa:	4649      	mov	r1, r9
  4006ac:	47b8      	blx	r7
			x += font->width;
  4006ae:	7a2b      	ldrb	r3, [r5, #8]
  4006b0:	4499      	add	r9, r3
  4006b2:	fa5f f989 	uxtb.w	r9, r9
  4006b6:	e7ee      	b.n	400696 <gfx_mono_draw_string+0x1e>
}
  4006b8:	e8bd 83f8 	ldmia.w	sp!, {r3, r4, r5, r6, r7, r8, r9, pc}
  4006bc:	004005cd 	.word	0x004005cd

004006c0 <gfx_mono_ssd1306_put_byte>:
	gfx_mono_ssd1306_put_byte(0, 0, 0xFF, false);
\endcode
  */
 void gfx_mono_ssd1306_put_byte(gfx_coord_t page, gfx_coord_t column,
		uint8_t data, bool force)
{
  4006c0:	b570      	push	{r4, r5, r6, lr}
  4006c2:	4604      	mov	r4, r0
  4006c4:	460d      	mov	r5, r1
  4006c6:	4616      	mov	r6, r2
#ifdef CONFIG_SSD1306_FRAMEBUFFER
	if (!force && data == gfx_mono_framebuffer_get_byte(page, column)) {
  4006c8:	b91b      	cbnz	r3, 4006d2 <gfx_mono_ssd1306_put_byte+0x12>
  4006ca:	4b0d      	ldr	r3, [pc, #52]	; (400700 <gfx_mono_ssd1306_put_byte+0x40>)
  4006cc:	4798      	blx	r3
  4006ce:	42b0      	cmp	r0, r6
  4006d0:	d015      	beq.n	4006fe <gfx_mono_ssd1306_put_byte+0x3e>
		return;
	}
	gfx_mono_framebuffer_put_byte(page, column, data);
  4006d2:	4632      	mov	r2, r6
  4006d4:	4629      	mov	r1, r5
  4006d6:	4620      	mov	r0, r4
  4006d8:	4b0a      	ldr	r3, [pc, #40]	; (400704 <gfx_mono_ssd1306_put_byte+0x44>)
  4006da:	4798      	blx	r3
 * \param address the page address
 */
static inline void ssd1306_set_page_address(uint8_t address)
{
	// Make sure that the address is 4 bits (only 8 pages)
	address &= 0x0F;
  4006dc:	f004 000f 	and.w	r0, r4, #15
	ssd1306_write_command(SSD1306_CMD_SET_PAGE_START_ADDRESS(address));
  4006e0:	f040 00b0 	orr.w	r0, r0, #176	; 0xb0
  4006e4:	4c08      	ldr	r4, [pc, #32]	; (400708 <gfx_mono_ssd1306_put_byte+0x48>)
  4006e6:	47a0      	blx	r4
 */
static inline void ssd1306_set_column_address(uint8_t address)
{
	// Make sure the address is 7 bits
	address &= 0x7F;
	ssd1306_write_command(SSD1306_CMD_COL_ADD_SET_MSB(address >> 4));
  4006e8:	f3c5 1002 	ubfx	r0, r5, #4, #3
  4006ec:	f040 0010 	orr.w	r0, r0, #16
  4006f0:	47a0      	blx	r4
	ssd1306_write_command(SSD1306_CMD_COL_ADD_SET_LSB(address & 0x0F));
  4006f2:	f005 000f 	and.w	r0, r5, #15
  4006f6:	47a0      	blx	r4
#endif

	ssd1306_set_page_address(page);
	ssd1306_set_column_address(column);

	ssd1306_write_data(data);
  4006f8:	4630      	mov	r0, r6
  4006fa:	4b04      	ldr	r3, [pc, #16]	; (40070c <gfx_mono_ssd1306_put_byte+0x4c>)
  4006fc:	4798      	blx	r3
  4006fe:	bd70      	pop	{r4, r5, r6, pc}
  400700:	004004b5 	.word	0x004004b5
  400704:	004004a5 	.word	0x004004a5
  400708:	004007e5 	.word	0x004007e5
  40070c:	00400a05 	.word	0x00400a05

00400710 <gfx_mono_ssd1306_init>:
{
  400710:	e92d 41f0 	stmdb	sp!, {r4, r5, r6, r7, r8, lr}
	gfx_mono_set_framebuffer(framebuffer);
  400714:	480d      	ldr	r0, [pc, #52]	; (40074c <gfx_mono_ssd1306_init+0x3c>)
  400716:	4b0e      	ldr	r3, [pc, #56]	; (400750 <gfx_mono_ssd1306_init+0x40>)
  400718:	4798      	blx	r3
	ssd1306_init();
  40071a:	4b0e      	ldr	r3, [pc, #56]	; (400754 <gfx_mono_ssd1306_init+0x44>)
  40071c:	4798      	blx	r3
 */
static inline void ssd1306_set_display_start_line_address(uint8_t address)
{
	// Make sure address is 6 bits
	address &= 0x3F;
	ssd1306_write_command(SSD1306_CMD_SET_DISPLAY_START_LINE(address));
  40071e:	2040      	movs	r0, #64	; 0x40
  400720:	4b0d      	ldr	r3, [pc, #52]	; (400758 <gfx_mono_ssd1306_init+0x48>)
  400722:	4798      	blx	r3
	for (page = 0; page < GFX_MONO_LCD_PAGES; page++) {
  400724:	2500      	movs	r5, #0
			gfx_mono_ssd1306_put_byte(page, column, 0x00, true);
  400726:	f04f 0801 	mov.w	r8, #1
  40072a:	462f      	mov	r7, r5
  40072c:	4e0b      	ldr	r6, [pc, #44]	; (40075c <gfx_mono_ssd1306_init+0x4c>)
{
  40072e:	2400      	movs	r4, #0
			gfx_mono_ssd1306_put_byte(page, column, 0x00, true);
  400730:	4643      	mov	r3, r8
  400732:	463a      	mov	r2, r7
  400734:	b2e1      	uxtb	r1, r4
  400736:	4628      	mov	r0, r5
  400738:	47b0      	blx	r6
  40073a:	3401      	adds	r4, #1
		for (column = 0; column < GFX_MONO_LCD_WIDTH; column++) {
  40073c:	2c80      	cmp	r4, #128	; 0x80
  40073e:	d1f7      	bne.n	400730 <gfx_mono_ssd1306_init+0x20>
	for (page = 0; page < GFX_MONO_LCD_PAGES; page++) {
  400740:	3501      	adds	r5, #1
  400742:	b2ed      	uxtb	r5, r5
  400744:	2d04      	cmp	r5, #4
  400746:	d1f2      	bne.n	40072e <gfx_mono_ssd1306_init+0x1e>
  400748:	e8bd 81f0 	ldmia.w	sp!, {r4, r5, r6, r7, r8, pc}
  40074c:	204009f0 	.word	0x204009f0
  400750:	00400499 	.word	0x00400499
  400754:	00400825 	.word	0x00400825
  400758:	004007e5 	.word	0x004007e5
  40075c:	004006c1 	.word	0x004006c1

00400760 <gfx_mono_ssd1306_draw_pixel>:
{
  400760:	e92d 43f8 	stmdb	sp!, {r3, r4, r5, r6, r7, r8, r9, lr}
	if ((x > GFX_MONO_LCD_WIDTH - 1) || (y > GFX_MONO_LCD_HEIGHT - 1)) {
  400764:	09c3      	lsrs	r3, r0, #7
  400766:	d123      	bne.n	4007b0 <gfx_mono_ssd1306_draw_pixel+0x50>
  400768:	291f      	cmp	r1, #31
  40076a:	d821      	bhi.n	4007b0 <gfx_mono_ssd1306_draw_pixel+0x50>
  40076c:	4614      	mov	r4, r2
  40076e:	4605      	mov	r5, r0
	page = y / GFX_MONO_LCD_PIXELS_PER_BYTE;
  400770:	08cf      	lsrs	r7, r1, #3
	pixel_mask = (1 << (y - (page * 8)));
  400772:	eba1 01c7 	sub.w	r1, r1, r7, lsl #3
  400776:	2601      	movs	r6, #1
  400778:	fa06 f801 	lsl.w	r8, r6, r1
  40077c:	fa5f f988 	uxtb.w	r9, r8
\endcode
 */
uint8_t gfx_mono_ssd1306_get_byte(gfx_coord_t page, gfx_coord_t column)
{
#ifdef CONFIG_SSD1306_FRAMEBUFFER
	return gfx_mono_framebuffer_get_byte(page, column);
  400780:	4601      	mov	r1, r0
  400782:	4638      	mov	r0, r7
  400784:	4b11      	ldr	r3, [pc, #68]	; (4007cc <gfx_mono_ssd1306_draw_pixel+0x6c>)
  400786:	4798      	blx	r3
  400788:	4606      	mov	r6, r0
    delay_us(500);
  40078a:	f246 20c7 	movw	r0, #25287	; 0x62c7
  40078e:	4b10      	ldr	r3, [pc, #64]	; (4007d0 <gfx_mono_ssd1306_draw_pixel+0x70>)
  400790:	4798      	blx	r3
	switch (color) {
  400792:	2c01      	cmp	r4, #1
  400794:	d00e      	beq.n	4007b4 <gfx_mono_ssd1306_draw_pixel+0x54>
  400796:	b18c      	cbz	r4, 4007bc <gfx_mono_ssd1306_draw_pixel+0x5c>
  400798:	2c02      	cmp	r4, #2
  40079a:	d013      	beq.n	4007c4 <gfx_mono_ssd1306_draw_pixel+0x64>
	gfx_mono_put_byte(page, x, pixel_value);
  40079c:	2300      	movs	r3, #0
  40079e:	4632      	mov	r2, r6
  4007a0:	4629      	mov	r1, r5
  4007a2:	4638      	mov	r0, r7
  4007a4:	4c0b      	ldr	r4, [pc, #44]	; (4007d4 <gfx_mono_ssd1306_draw_pixel+0x74>)
  4007a6:	47a0      	blx	r4
	 delay_us(500);
  4007a8:	f246 20c7 	movw	r0, #25287	; 0x62c7
  4007ac:	4b08      	ldr	r3, [pc, #32]	; (4007d0 <gfx_mono_ssd1306_draw_pixel+0x70>)
  4007ae:	4798      	blx	r3
  4007b0:	e8bd 83f8 	ldmia.w	sp!, {r3, r4, r5, r6, r7, r8, r9, pc}
		pixel_value |= pixel_mask;
  4007b4:	ea49 0606 	orr.w	r6, r9, r6
  4007b8:	b2f6      	uxtb	r6, r6
		break;
  4007ba:	e7ef      	b.n	40079c <gfx_mono_ssd1306_draw_pixel+0x3c>
		pixel_value &= ~pixel_mask;
  4007bc:	ea26 0608 	bic.w	r6, r6, r8
  4007c0:	b2f6      	uxtb	r6, r6
		break;
  4007c2:	e7eb      	b.n	40079c <gfx_mono_ssd1306_draw_pixel+0x3c>
		pixel_value ^= pixel_mask;
  4007c4:	ea89 0606 	eor.w	r6, r9, r6
  4007c8:	b2f6      	uxtb	r6, r6
		break;
  4007ca:	e7e7      	b.n	40079c <gfx_mono_ssd1306_draw_pixel+0x3c>
  4007cc:	004004b5 	.word	0x004004b5
  4007d0:	20400001 	.word	0x20400001
  4007d4:	004006c1 	.word	0x004006c1

004007d8 <gfx_mono_ssd1306_get_byte>:
{
  4007d8:	b508      	push	{r3, lr}
	return gfx_mono_framebuffer_get_byte(page, column);
  4007da:	4b01      	ldr	r3, [pc, #4]	; (4007e0 <gfx_mono_ssd1306_get_byte+0x8>)
  4007dc:	4798      	blx	r3
	ssd1306_set_column_address(column);

	return ssd1306_read_data();

#endif
}
  4007de:	bd08      	pop	{r3, pc}
  4007e0:	004004b5 	.word	0x004004b5

004007e4 <ssd1306_write_command>:
 * data write function is called based on the selected interface.
 *
 * \param command the command to write
 */
void ssd1306_write_command(uint8_t command)
{
  4007e4:	b538      	push	{r3, r4, r5, lr}
  4007e6:	4605      	mov	r5, r0
	Pio *base = arch_ioport_pin_to_base(pin);

	if (level) {
		base->PIO_SODR = arch_ioport_pin_to_mask(pin);
	} else {
		base->PIO_CODR = arch_ioport_pin_to_mask(pin);
  4007e8:	2208      	movs	r2, #8
  4007ea:	4b09      	ldr	r3, [pc, #36]	; (400810 <ssd1306_write_command+0x2c>)
  4007ec:	635a      	str	r2, [r3, #52]	; 0x34
	ioport_set_pin_level(SSD1306_DC_PIN, false);
	
	spi_set_peripheral_chip_select_value(SPI0, 1);
  4007ee:	4c09      	ldr	r4, [pc, #36]	; (400814 <ssd1306_write_command+0x30>)
  4007f0:	2101      	movs	r1, #1
  4007f2:	4620      	mov	r0, r4
  4007f4:	4b08      	ldr	r3, [pc, #32]	; (400818 <ssd1306_write_command+0x34>)
  4007f6:	4798      	blx	r3
	spi_write(SPI0, command, 1, 1);
  4007f8:	2301      	movs	r3, #1
  4007fa:	461a      	mov	r2, r3
  4007fc:	4629      	mov	r1, r5
  4007fe:	4620      	mov	r0, r4
  400800:	4c06      	ldr	r4, [pc, #24]	; (40081c <ssd1306_write_command+0x38>)
  400802:	47a0      	blx	r4
	delay_us(10);
  400804:	f44f 70fd 	mov.w	r0, #506	; 0x1fa
  400808:	4b05      	ldr	r3, [pc, #20]	; (400820 <ssd1306_write_command+0x3c>)
  40080a:	4798      	blx	r3
  40080c:	bd38      	pop	{r3, r4, r5, pc}
  40080e:	bf00      	nop
  400810:	400e1000 	.word	0x400e1000
  400814:	40008000 	.word	0x40008000
  400818:	00400379 	.word	0x00400379
  40081c:	0040038f 	.word	0x0040038f
  400820:	20400001 	.word	0x20400001

00400824 <ssd1306_init>:
{
  400824:	e92d 43f8 	stmdb	sp!, {r3, r4, r5, r6, r7, r8, r9, lr}
		base->PIO_OER = arch_ioport_pin_to_mask(pin);
  400828:	4d66      	ldr	r5, [pc, #408]	; (4009c4 <ssd1306_init+0x1a0>)
  40082a:	f44f 3600 	mov.w	r6, #131072	; 0x20000
  40082e:	612e      	str	r6, [r5, #16]
	base->PIO_OWER = arch_ioport_pin_to_mask(pin);
  400830:	f8c5 60a0 	str.w	r6, [r5, #160]	; 0xa0
		base->PIO_OER = arch_ioport_pin_to_mask(pin);
  400834:	4b64      	ldr	r3, [pc, #400]	; (4009c8 <ssd1306_init+0x1a4>)
  400836:	2708      	movs	r7, #8
  400838:	611f      	str	r7, [r3, #16]
	base->PIO_OWER = arch_ioport_pin_to_mask(pin);
  40083a:	f8c3 70a0 	str.w	r7, [r3, #160]	; 0xa0
		base->PIO_PUER = mask;
  40083e:	666e      	str	r6, [r5, #100]	; 0x64
		base->PIO_PPDDR = mask;
  400840:	f8c5 6090 	str.w	r6, [r5, #144]	; 0x90
		base->PIO_MDDR = mask;
  400844:	656e      	str	r6, [r5, #84]	; 0x54
		base->PIO_IFDR = mask;
  400846:	626e      	str	r6, [r5, #36]	; 0x24
		base->PIO_IFSCDR = mask;
  400848:	f8c5 6080 	str.w	r6, [r5, #128]	; 0x80
		base->PIO_ABCDSR[0] &= ~mask;
  40084c:	6f2a      	ldr	r2, [r5, #112]	; 0x70
  40084e:	f422 3200 	bic.w	r2, r2, #131072	; 0x20000
  400852:	672a      	str	r2, [r5, #112]	; 0x70
		base->PIO_ABCDSR[1] &= ~mask;
  400854:	6f6a      	ldr	r2, [r5, #116]	; 0x74
  400856:	f422 3200 	bic.w	r2, r2, #131072	; 0x20000
  40085a:	676a      	str	r2, [r5, #116]	; 0x74
		base->PIO_PUER = mask;
  40085c:	665f      	str	r7, [r3, #100]	; 0x64
		base->PIO_PPDDR = mask;
  40085e:	f8c3 7090 	str.w	r7, [r3, #144]	; 0x90
		base->PIO_MDDR = mask;
  400862:	655f      	str	r7, [r3, #84]	; 0x54
		base->PIO_IFDR = mask;
  400864:	625f      	str	r7, [r3, #36]	; 0x24
		base->PIO_IFSCDR = mask;
  400866:	f8c3 7080 	str.w	r7, [r3, #128]	; 0x80
		base->PIO_ABCDSR[0] &= ~mask;
  40086a:	6f1a      	ldr	r2, [r3, #112]	; 0x70
  40086c:	f022 0208 	bic.w	r2, r2, #8
  400870:	671a      	str	r2, [r3, #112]	; 0x70
		base->PIO_ABCDSR[1] &= ~mask;
  400872:	6f5a      	ldr	r2, [r3, #116]	; 0x74
  400874:	f022 0208 	bic.w	r2, r2, #8
  400878:	675a      	str	r2, [r3, #116]	; 0x74
	arch_ioport_port_to_base(port)->PIO_PER = mask;
  40087a:	601f      	str	r7, [r3, #0]
  40087c:	602e      	str	r6, [r5, #0]
		base->PIO_SODR = arch_ioport_pin_to_mask(pin);
  40087e:	631f      	str	r7, [r3, #48]	; 0x30
  400880:	632e      	str	r6, [r5, #48]	; 0x30
	pio_configure(PIOD, PIO_PERIPH_B, 1 << SPI_CLK_MASK, PIO_DEFAULT);
  400882:	f8df 817c 	ldr.w	r8, [pc, #380]	; 400a00 <ssd1306_init+0x1dc>
  400886:	2300      	movs	r3, #0
  400888:	f44f 0280 	mov.w	r2, #4194304	; 0x400000
  40088c:	f04f 5180 	mov.w	r1, #268435456	; 0x10000000
  400890:	4640      	mov	r0, r8
  400892:	4c4e      	ldr	r4, [pc, #312]	; (4009cc <ssd1306_init+0x1a8>)
  400894:	47a0      	blx	r4
	pio_configure(PIOD, PIO_PERIPH_B, 1 << SPI_MOSI_MASK, PIO_DEFAULT);
  400896:	2300      	movs	r3, #0
  400898:	f44f 1200 	mov.w	r2, #2097152	; 0x200000
  40089c:	f04f 5180 	mov.w	r1, #268435456	; 0x10000000
  4008a0:	4640      	mov	r0, r8
  4008a2:	47a0      	blx	r4
	pio_configure(PIOD, PIO_PERIPH_B, 1 << SPI_CS_MASK, PIO_DEFAULT);
  4008a4:	2300      	movs	r3, #0
  4008a6:	f04f 7200 	mov.w	r2, #33554432	; 0x2000000
  4008aa:	f04f 5180 	mov.w	r1, #268435456	; 0x10000000
  4008ae:	4640      	mov	r0, r8
  4008b0:	47a0      	blx	r4
		pio_configure(PIOD, PIO_PERIPH_B, 1 << SPI_CLK_MASK, PIO_DEFAULT);
  4008b2:	2300      	movs	r3, #0
  4008b4:	f44f 0280 	mov.w	r2, #4194304	; 0x400000
  4008b8:	f04f 5180 	mov.w	r1, #268435456	; 0x10000000
  4008bc:	4640      	mov	r0, r8
  4008be:	47a0      	blx	r4
		pio_configure(PIOD, PIO_PERIPH_B, 1 << SPI_MOSI_MASK, PIO_DEFAULT);
  4008c0:	2300      	movs	r3, #0
  4008c2:	f44f 1200 	mov.w	r2, #2097152	; 0x200000
  4008c6:	f04f 5180 	mov.w	r1, #268435456	; 0x10000000
  4008ca:	4640      	mov	r0, r8
  4008cc:	47a0      	blx	r4
		pio_configure(PIOD, PIO_PERIPH_B, 1 << SPI_CS_MASK, PIO_DEFAULT);
  4008ce:	2300      	movs	r3, #0
  4008d0:	f04f 7200 	mov.w	r2, #33554432	; 0x2000000
  4008d4:	f04f 5180 	mov.w	r1, #268435456	; 0x10000000
  4008d8:	4640      	mov	r0, r8
  4008da:	47a0      	blx	r4
	p_spi->SPI_CR = SPI_CR_SPIDIS;
  4008dc:	4c3c      	ldr	r4, [pc, #240]	; (4009d0 <ssd1306_init+0x1ac>)
  4008de:	f04f 0902 	mov.w	r9, #2
  4008e2:	f8c4 9000 	str.w	r9, [r4]
	p_spi->SPI_CR = SPI_CR_SWRST;
  4008e6:	f04f 0880 	mov.w	r8, #128	; 0x80
  4008ea:	f8c4 8000 	str.w	r8, [r4]
	p_spi->SPI_MR |= SPI_MR_MSTR;
  4008ee:	6863      	ldr	r3, [r4, #4]
  4008f0:	f043 0301 	orr.w	r3, r3, #1
  4008f4:	6063      	str	r3, [r4, #4]
		spi_configure_cs_behavior(SPI0, 1, SPI_CS_KEEP_LOW);
  4008f6:	463a      	mov	r2, r7
  4008f8:	2101      	movs	r1, #1
  4008fa:	4620      	mov	r0, r4
  4008fc:	4b35      	ldr	r3, [pc, #212]	; (4009d4 <ssd1306_init+0x1b0>)
  4008fe:	4798      	blx	r3
		spi_set_clock_polarity(SPI0, 1, 0);
  400900:	2200      	movs	r2, #0
  400902:	2101      	movs	r1, #1
  400904:	4620      	mov	r0, r4
  400906:	4b34      	ldr	r3, [pc, #208]	; (4009d8 <ssd1306_init+0x1b4>)
  400908:	4798      	blx	r3
		spi_set_clock_phase(SPI0, 1, 0);
  40090a:	2200      	movs	r2, #0
  40090c:	2101      	movs	r1, #1
  40090e:	4620      	mov	r0, r4
  400910:	4b32      	ldr	r3, [pc, #200]	; (4009dc <ssd1306_init+0x1b8>)
  400912:	4798      	blx	r3
	p_spi->SPI_MR &= (~SPI_MR_PS);
  400914:	6863      	ldr	r3, [r4, #4]
  400916:	f023 0302 	bic.w	r3, r3, #2
  40091a:	6063      	str	r3, [r4, #4]
		spi_set_bits_per_transfer(SPI0, 1, SPI_CSR_BITS_8_BIT);
  40091c:	2200      	movs	r2, #0
  40091e:	2101      	movs	r1, #1
  400920:	4620      	mov	r0, r4
  400922:	4b2f      	ldr	r3, [pc, #188]	; (4009e0 <ssd1306_init+0x1bc>)
  400924:	4798      	blx	r3
 *
 * \param p_spi Pointer to an SPI instance.
 */
static inline void spi_disable_loopback(Spi *p_spi)
{
	p_spi->SPI_MR &= (~SPI_MR_LLB);
  400926:	6863      	ldr	r3, [r4, #4]
  400928:	f023 0380 	bic.w	r3, r3, #128	; 0x80
  40092c:	6063      	str	r3, [r4, #4]
	p_spi->SPI_MR |= SPI_MR_MODFDIS;
  40092e:	6863      	ldr	r3, [r4, #4]
  400930:	f043 0310 	orr.w	r3, r3, #16
  400934:	6063      	str	r3, [r4, #4]
		int div = spi_calc_baudrate_div(1000000, sysclk_get_peripheral_hz());
  400936:	492b      	ldr	r1, [pc, #172]	; (4009e4 <ssd1306_init+0x1c0>)
  400938:	482b      	ldr	r0, [pc, #172]	; (4009e8 <ssd1306_init+0x1c4>)
  40093a:	4b2c      	ldr	r3, [pc, #176]	; (4009ec <ssd1306_init+0x1c8>)
  40093c:	4798      	blx	r3
		spi_set_baudrate_div(SPI0,1, div);
  40093e:	b2c2      	uxtb	r2, r0
  400940:	2101      	movs	r1, #1
  400942:	4620      	mov	r0, r4
  400944:	4b2a      	ldr	r3, [pc, #168]	; (4009f0 <ssd1306_init+0x1cc>)
  400946:	4798      	blx	r3
		spi_enable_clock(SPI0);
  400948:	4620      	mov	r0, r4
  40094a:	4b2a      	ldr	r3, [pc, #168]	; (4009f4 <ssd1306_init+0x1d0>)
  40094c:	4798      	blx	r3
	p_spi->SPI_CR = SPI_CR_SPIEN;
  40094e:	2301      	movs	r3, #1
  400950:	6023      	str	r3, [r4, #0]
		base->PIO_CODR = arch_ioport_pin_to_mask(pin);
  400952:	636e      	str	r6, [r5, #52]	; 0x34
	delay_cycles(delay_10us); // At lest 10us
  400954:	f640 30b8 	movw	r0, #3000	; 0xbb8
  400958:	4c27      	ldr	r4, [pc, #156]	; (4009f8 <ssd1306_init+0x1d4>)
  40095a:	47a0      	blx	r4
		base->PIO_SODR = arch_ioport_pin_to_mask(pin);
  40095c:	632e      	str	r6, [r5, #48]	; 0x30
	delay_cycles(delay_10us); // At lest 10us
  40095e:	f640 30b8 	movw	r0, #3000	; 0xbb8
  400962:	47a0      	blx	r4
  400964:	632e      	str	r6, [r5, #48]	; 0x30
	ssd1306_write_command(SSD1306_CMD_SET_MULTIPLEX_RATIO);
  400966:	20a8      	movs	r0, #168	; 0xa8
  400968:	4c24      	ldr	r4, [pc, #144]	; (4009fc <ssd1306_init+0x1d8>)
  40096a:	47a0      	blx	r4
	ssd1306_write_command(0x1F);
  40096c:	201f      	movs	r0, #31
  40096e:	47a0      	blx	r4
	ssd1306_write_command(SSD1306_CMD_SET_DISPLAY_OFFSET);
  400970:	20d3      	movs	r0, #211	; 0xd3
  400972:	47a0      	blx	r4
	ssd1306_write_command(0x00);
  400974:	2000      	movs	r0, #0
  400976:	47a0      	blx	r4
	ssd1306_write_command(SSD1306_CMD_SET_DISPLAY_START_LINE(0x00));
  400978:	2040      	movs	r0, #64	; 0x40
  40097a:	47a0      	blx	r4
	ssd1306_write_command(SSD1306_CMD_SET_SEGMENT_RE_MAP_COL127_SEG0);
  40097c:	20a1      	movs	r0, #161	; 0xa1
  40097e:	47a0      	blx	r4
	ssd1306_write_command(SSD1306_CMD_SET_COM_OUTPUT_SCAN_DOWN);
  400980:	20c8      	movs	r0, #200	; 0xc8
  400982:	47a0      	blx	r4
	ssd1306_write_command(SSD1306_CMD_SET_COM_PINS);
  400984:	20da      	movs	r0, #218	; 0xda
  400986:	47a0      	blx	r4
	ssd1306_write_command(0x02);
  400988:	4648      	mov	r0, r9
  40098a:	47a0      	blx	r4
 *
 * \retval contrast the contrast value written to the OLED controller
 */
static inline uint8_t ssd1306_set_contrast(uint8_t contrast)
{
	ssd1306_write_command(SSD1306_CMD_SET_CONTRAST_CONTROL_FOR_BANK0);
  40098c:	2081      	movs	r0, #129	; 0x81
  40098e:	47a0      	blx	r4
	ssd1306_write_command(contrast);
  400990:	208f      	movs	r0, #143	; 0x8f
  400992:	47a0      	blx	r4
	ssd1306_write_command(SSD1306_CMD_ENTIRE_DISPLAY_AND_GDDRAM_ON);
  400994:	20a4      	movs	r0, #164	; 0xa4
  400996:	47a0      	blx	r4
 * This function will disable invert on all pixels on the OLED
 *
 */
static inline void ssd1306_display_invert_disable(void)
{
	ssd1306_write_command(SSD1306_CMD_SET_NORMAL_DISPLAY);
  400998:	20a6      	movs	r0, #166	; 0xa6
  40099a:	47a0      	blx	r4
	ssd1306_write_command(SSD1306_CMD_SET_DISPLAY_CLOCK_DIVIDE_RATIO);
  40099c:	20d5      	movs	r0, #213	; 0xd5
  40099e:	47a0      	blx	r4
	ssd1306_write_command(0x80);
  4009a0:	4640      	mov	r0, r8
  4009a2:	47a0      	blx	r4
	ssd1306_write_command(SSD1306_CMD_SET_CHARGE_PUMP_SETTING);
  4009a4:	208d      	movs	r0, #141	; 0x8d
  4009a6:	47a0      	blx	r4
	ssd1306_write_command(0x14);
  4009a8:	2014      	movs	r0, #20
  4009aa:	47a0      	blx	r4
	ssd1306_write_command(SSD1306_CMD_SET_VCOMH_DESELECT_LEVEL);
  4009ac:	20db      	movs	r0, #219	; 0xdb
  4009ae:	47a0      	blx	r4
	ssd1306_write_command(0x40); // Default => 0x20 (0.77*VCC)
  4009b0:	2040      	movs	r0, #64	; 0x40
  4009b2:	47a0      	blx	r4
	ssd1306_write_command(SSD1306_CMD_SET_PRE_CHARGE_PERIOD);
  4009b4:	20d9      	movs	r0, #217	; 0xd9
  4009b6:	47a0      	blx	r4
	ssd1306_write_command(0xF1);
  4009b8:	20f1      	movs	r0, #241	; 0xf1
  4009ba:	47a0      	blx	r4
	ssd1306_write_command(SSD1306_CMD_SET_DISPLAY_ON);
  4009bc:	20af      	movs	r0, #175	; 0xaf
  4009be:	47a0      	blx	r4
  4009c0:	e8bd 83f8 	ldmia.w	sp!, {r3, r4, r5, r6, r7, r8, r9, pc}
  4009c4:	400e1200 	.word	0x400e1200
  4009c8:	400e1000 	.word	0x400e1000
  4009cc:	00400ced 	.word	0x00400ced
  4009d0:	40008000 	.word	0x40008000
  4009d4:	004003ff 	.word	0x004003ff
  4009d8:	004003c3 	.word	0x004003c3
  4009dc:	004003e1 	.word	0x004003e1
  4009e0:	00400445 	.word	0x00400445
  4009e4:	08f0d180 	.word	0x08f0d180
  4009e8:	000f4240 	.word	0x000f4240
  4009ec:	00400459 	.word	0x00400459
  4009f0:	0040046f 	.word	0x0040046f
  4009f4:	0040034d 	.word	0x0040034d
  4009f8:	20400001 	.word	0x20400001
  4009fc:	004007e5 	.word	0x004007e5
  400a00:	400e1400 	.word	0x400e1400

00400a04 <ssd1306_write_data>:
 * data write function is called based on the selected interface.
 *
 * \param data the data to write
 */
void ssd1306_write_data(uint8_t data)
{
  400a04:	b538      	push	{r3, r4, r5, lr}
  400a06:	4605      	mov	r5, r0
  400a08:	2208      	movs	r2, #8
  400a0a:	4b09      	ldr	r3, [pc, #36]	; (400a30 <ssd1306_write_data+0x2c>)
  400a0c:	631a      	str	r2, [r3, #48]	; 0x30
	ioport_set_pin_level(SSD1306_DC_PIN, true);
	
	spi_set_peripheral_chip_select_value(SPI0, 1);
  400a0e:	4c09      	ldr	r4, [pc, #36]	; (400a34 <ssd1306_write_data+0x30>)
  400a10:	2101      	movs	r1, #1
  400a12:	4620      	mov	r0, r4
  400a14:	4b08      	ldr	r3, [pc, #32]	; (400a38 <ssd1306_write_data+0x34>)
  400a16:	4798      	blx	r3
	spi_write(SPI0, data, 1, 1);
  400a18:	2301      	movs	r3, #1
  400a1a:	461a      	mov	r2, r3
  400a1c:	4629      	mov	r1, r5
  400a1e:	4620      	mov	r0, r4
  400a20:	4c06      	ldr	r4, [pc, #24]	; (400a3c <ssd1306_write_data+0x38>)
  400a22:	47a0      	blx	r4
	delay_us(10);
  400a24:	f44f 70fd 	mov.w	r0, #506	; 0x1fa
  400a28:	4b05      	ldr	r3, [pc, #20]	; (400a40 <ssd1306_write_data+0x3c>)
  400a2a:	4798      	blx	r3
  400a2c:	bd38      	pop	{r3, r4, r5, pc}
  400a2e:	bf00      	nop
  400a30:	400e1000 	.word	0x400e1000
  400a34:	40008000 	.word	0x40008000
  400a38:	00400379 	.word	0x00400379
  400a3c:	0040038f 	.word	0x0040038f
  400a40:	20400001 	.word	0x20400001

00400a44 <sysclk_init>:
	pmc_disable_udpck();
}
#endif // CONFIG_USBCLK_SOURCE

void sysclk_init(void)
{
  400a44:	b510      	push	{r4, lr}
	struct pll_config pllcfg;

	/* Set flash wait state to max in case the below clock switching. */
	system_init_flash(CHIP_FREQ_CPU_MAX);
  400a46:	4810      	ldr	r0, [pc, #64]	; (400a88 <sysclk_init+0x44>)
  400a48:	4b10      	ldr	r3, [pc, #64]	; (400a8c <sysclk_init+0x48>)
  400a4a:	4798      	blx	r3
		pmc_switch_mainck_to_fastrc(CKGR_MOR_MOSCRCF_12_MHz);
		break;


	case OSC_MAINCK_XTAL:
		pmc_switch_mainck_to_xtal(PMC_OSC_XTAL,
  400a4c:	213e      	movs	r1, #62	; 0x3e
  400a4e:	2000      	movs	r0, #0
  400a50:	4b0f      	ldr	r3, [pc, #60]	; (400a90 <sysclk_init+0x4c>)
  400a52:	4798      	blx	r3
	case OSC_MAINCK_4M_RC:
	case OSC_MAINCK_8M_RC:
	case OSC_MAINCK_12M_RC:
	case OSC_MAINCK_XTAL:
	case OSC_MAINCK_BYPASS:
		return pmc_osc_is_ready_mainck();
  400a54:	4c0f      	ldr	r4, [pc, #60]	; (400a94 <sysclk_init+0x50>)
  400a56:	47a0      	blx	r4
 *
 * \param id A number identifying the oscillator to wait for.
 */
static inline void osc_wait_ready(uint8_t id)
{
	while (!osc_is_ready(id)) {
  400a58:	2800      	cmp	r0, #0
  400a5a:	d0fc      	beq.n	400a56 <sysclk_init+0x12>
static inline void pll_enable(const struct pll_config *p_cfg, uint32_t ul_pll_id)
{
	Assert(ul_pll_id < NR_PLLS);

	if (ul_pll_id == PLLA_ID) {
		pmc_disable_pllack(); // Always stop PLL first!
  400a5c:	4b0e      	ldr	r3, [pc, #56]	; (400a98 <sysclk_init+0x54>)
  400a5e:	4798      	blx	r3
		PMC->CKGR_PLLAR = CKGR_PLLAR_ONE | p_cfg->ctrl;
  400a60:	4a0e      	ldr	r2, [pc, #56]	; (400a9c <sysclk_init+0x58>)
  400a62:	4b0f      	ldr	r3, [pc, #60]	; (400aa0 <sysclk_init+0x5c>)
  400a64:	629a      	str	r2, [r3, #40]	; 0x28
static inline uint32_t pll_is_locked(uint32_t ul_pll_id)
{
	Assert(ul_pll_id < NR_PLLS);

	if (ul_pll_id == PLLA_ID) {
	return pmc_is_locked_pllack();
  400a66:	4c0f      	ldr	r4, [pc, #60]	; (400aa4 <sysclk_init+0x60>)
  400a68:	47a0      	blx	r4
 */
static inline int pll_wait_for_lock(unsigned int pll_id)
{
	Assert(pll_id < NR_PLLS);

	while (!pll_is_locked(pll_id)) {
  400a6a:	2800      	cmp	r0, #0
  400a6c:	d0fc      	beq.n	400a68 <sysclk_init+0x24>
	else if (CONFIG_SYSCLK_SOURCE == SYSCLK_SRC_PLLACK) {
		pll_enable_source(CONFIG_PLL0_SOURCE);
		pll_config_defaults(&pllcfg, 0);
		pll_enable(&pllcfg, 0);
		pll_wait_for_lock(0);
		pmc_mck_set_division(CONFIG_SYSCLK_DIV);
  400a6e:	2002      	movs	r0, #2
  400a70:	4b0d      	ldr	r3, [pc, #52]	; (400aa8 <sysclk_init+0x64>)
  400a72:	4798      	blx	r3
		pmc_switch_mck_to_pllack(CONFIG_SYSCLK_PRES);
  400a74:	2000      	movs	r0, #0
  400a76:	4b0d      	ldr	r3, [pc, #52]	; (400aac <sysclk_init+0x68>)
  400a78:	4798      	blx	r3
		pll_wait_for_lock(1);
		pmc_mck_set_division(CONFIG_SYSCLK_DIV);
		pmc_switch_mck_to_upllck(CONFIG_SYSCLK_PRES);
	}
	/* Update the SystemFrequency variable */
	SystemCoreClockUpdate();
  400a7a:	4b0d      	ldr	r3, [pc, #52]	; (400ab0 <sysclk_init+0x6c>)
  400a7c:	4798      	blx	r3

	/* Set a flash wait state depending on the new cpu frequency */
	system_init_flash(sysclk_get_cpu_hz());
  400a7e:	4802      	ldr	r0, [pc, #8]	; (400a88 <sysclk_init+0x44>)
  400a80:	4b02      	ldr	r3, [pc, #8]	; (400a8c <sysclk_init+0x48>)
  400a82:	4798      	blx	r3
  400a84:	bd10      	pop	{r4, pc}
  400a86:	bf00      	nop
  400a88:	11e1a300 	.word	0x11e1a300
  400a8c:	00401239 	.word	0x00401239
  400a90:	00400f89 	.word	0x00400f89
  400a94:	00400fdd 	.word	0x00400fdd
  400a98:	00400fed 	.word	0x00400fed
  400a9c:	20183f01 	.word	0x20183f01
  400aa0:	400e0600 	.word	0x400e0600
  400aa4:	00400ffd 	.word	0x00400ffd
  400aa8:	00400eed 	.word	0x00400eed
  400aac:	00400f25 	.word	0x00400f25
  400ab0:	0040112d 	.word	0x0040112d

00400ab4 <board_init>:
	__ISB();
}
#endif

void board_init(void)
{
  400ab4:	b5f8      	push	{r3, r4, r5, r6, r7, lr}
#ifndef CONF_BOARD_KEEP_WATCHDOG_AT_INIT
	/* Disable the watchdog */
	WDT->WDT_MR = WDT_MR_WDDIS;
  400ab6:	f44f 4200 	mov.w	r2, #32768	; 0x8000
  400aba:	4b48      	ldr	r3, [pc, #288]	; (400bdc <board_init+0x128>)
  400abc:	605a      	str	r2, [r3, #4]
    This function acts as a special kind of Data Memory Barrier.
    It completes when all explicit memory accesses before this instruction complete.
 */
__attribute__( ( always_inline ) ) __STATIC_INLINE void __DSB(void)
{
  __ASM volatile ("dsb");
  400abe:	f3bf 8f4f 	dsb	sy
  __ASM volatile ("isb");
  400ac2:	f3bf 8f6f 	isb	sy
__STATIC_INLINE void SCB_EnableICache(void)
{
  #if (__ICACHE_PRESENT == 1)
    __DSB();
    __ISB();
    SCB->ICIALLU = 0;                       // invalidate I-Cache
  400ac6:	4b46      	ldr	r3, [pc, #280]	; (400be0 <board_init+0x12c>)
  400ac8:	2200      	movs	r2, #0
  400aca:	f8c3 2250 	str.w	r2, [r3, #592]	; 0x250
    SCB->CCR |=  SCB_CCR_IC_Msk;            // enable I-Cache
  400ace:	695a      	ldr	r2, [r3, #20]
  400ad0:	f442 3200 	orr.w	r2, r2, #131072	; 0x20000
  400ad4:	615a      	str	r2, [r3, #20]
  __ASM volatile ("dsb");
  400ad6:	f3bf 8f4f 	dsb	sy
  __ASM volatile ("isb");
  400ada:	f3bf 8f6f 	isb	sy
{
  #if (__DCACHE_PRESENT == 1)
    uint32_t ccsidr, sshift, wshift, sw;
    uint32_t sets, ways;

    ccsidr  = SCB->CCSIDR;
  400ade:	f8d3 7080 	ldr.w	r7, [r3, #128]	; 0x80
    sets    = CCSIDR_SETS(ccsidr);
  400ae2:	f3c7 364e 	ubfx	r6, r7, #13, #15
    sshift  = CCSIDR_LSSHIFT(ccsidr) + 4;
  400ae6:	f007 0007 	and.w	r0, r7, #7
  400aea:	3004      	adds	r0, #4
    ways    = CCSIDR_WAYS(ccsidr);
  400aec:	f3c7 07c9 	ubfx	r7, r7, #3, #10
 */
__attribute__( ( always_inline ) ) __STATIC_INLINE uint8_t __CLZ(uint32_t value)
{
  uint32_t result;

  __ASM volatile ("clz %0, %1" : "=r" (result) : "r" (value) );
  400af0:	fab7 fe87 	clz	lr, r7
    wshift  = __CLZ(ways) & 0x1f;
  400af4:	f00e 0e1f 	and.w	lr, lr, #31
  __ASM volatile ("dsb");
  400af8:	f3bf 8f4f 	dsb	sy
  400afc:	f04f 34ff 	mov.w	r4, #4294967295
  400b00:	fa04 fc00 	lsl.w	ip, r4, r0
  400b04:	fa06 f000 	lsl.w	r0, r6, r0
  400b08:	fa04 f40e 	lsl.w	r4, r4, lr
  400b0c:	fa07 fe0e 	lsl.w	lr, r7, lr

    do {                                    // invalidate D-Cache
         int32_t tmpways = ways;
         do {
              sw = ((tmpways << wshift) | (sets << sshift));
              SCB->DCISW = sw;
  400b10:	461d      	mov	r5, r3
         int32_t tmpways = ways;
  400b12:	463a      	mov	r2, r7
  400b14:	4673      	mov	r3, lr
              sw = ((tmpways << wshift) | (sets << sshift));
  400b16:	ea40 0103 	orr.w	r1, r0, r3
              SCB->DCISW = sw;
  400b1a:	f8c5 1260 	str.w	r1, [r5, #608]	; 0x260
            } while(tmpways--);
  400b1e:	3a01      	subs	r2, #1
  400b20:	4423      	add	r3, r4
  400b22:	f1b2 3fff 	cmp.w	r2, #4294967295
  400b26:	d1f6      	bne.n	400b16 <board_init+0x62>
        } while(sets--);
  400b28:	3e01      	subs	r6, #1
  400b2a:	4460      	add	r0, ip
  400b2c:	f1b6 3fff 	cmp.w	r6, #4294967295
  400b30:	d1ef      	bne.n	400b12 <board_init+0x5e>
  400b32:	f3bf 8f4f 	dsb	sy
    __DSB();

    SCB->CCR |=  SCB_CCR_DC_Msk;            // enable D-Cache
  400b36:	4b2a      	ldr	r3, [pc, #168]	; (400be0 <board_init+0x12c>)
  400b38:	695a      	ldr	r2, [r3, #20]
  400b3a:	f442 3280 	orr.w	r2, r2, #65536	; 0x10000
  400b3e:	615a      	str	r2, [r3, #20]
  400b40:	f3bf 8f4f 	dsb	sy
  __ASM volatile ("isb");
  400b44:	f3bf 8f6f 	isb	sy
		*dst++ = *src++;
	}
#endif
#else
	/* TCM Configuration */
	EFC->EEFC_FCR = (EEFC_FCR_FKEY_PASSWD | EEFC_FCR_FCMD_CGPB 
  400b48:	4a26      	ldr	r2, [pc, #152]	; (400be4 <board_init+0x130>)
  400b4a:	4927      	ldr	r1, [pc, #156]	; (400be8 <board_init+0x134>)
  400b4c:	6051      	str	r1, [r2, #4]
					| EEFC_FCR_FARG(8));
	EFC->EEFC_FCR = (EEFC_FCR_FKEY_PASSWD | EEFC_FCR_FCMD_CGPB 
  400b4e:	f5a1 7180 	sub.w	r1, r1, #256	; 0x100
  400b52:	6051      	str	r1, [r2, #4]
  __ASM volatile ("dsb");
  400b54:	f3bf 8f4f 	dsb	sy
  __ASM volatile ("isb");
  400b58:	f3bf 8f6f 	isb	sy
	SCB->ITCMCR &= ~(uint32_t)(1UL);
  400b5c:	f8d3 2290 	ldr.w	r2, [r3, #656]	; 0x290
  400b60:	f022 0201 	bic.w	r2, r2, #1
  400b64:	f8c3 2290 	str.w	r2, [r3, #656]	; 0x290
	SCB->DTCMCR &= ~(uint32_t)SCB_DTCMCR_EN_Msk;
  400b68:	f8d3 2294 	ldr.w	r2, [r3, #660]	; 0x294
  400b6c:	f022 0201 	bic.w	r2, r2, #1
  400b70:	f8c3 2294 	str.w	r2, [r3, #660]	; 0x294
  __ASM volatile ("dsb");
  400b74:	f3bf 8f4f 	dsb	sy
  __ASM volatile ("isb");
  400b78:	f3bf 8f6f 	isb	sy
  400b7c:	200a      	movs	r0, #10
  400b7e:	4c1b      	ldr	r4, [pc, #108]	; (400bec <board_init+0x138>)
  400b80:	47a0      	blx	r4
  400b82:	200b      	movs	r0, #11
  400b84:	47a0      	blx	r4
  400b86:	200c      	movs	r0, #12
  400b88:	47a0      	blx	r4
  400b8a:	2010      	movs	r0, #16
  400b8c:	47a0      	blx	r4
  400b8e:	2011      	movs	r0, #17
  400b90:	47a0      	blx	r4
		base->PIO_OER = arch_ioport_pin_to_mask(pin);
  400b92:	4b17      	ldr	r3, [pc, #92]	; (400bf0 <board_init+0x13c>)
  400b94:	f44f 7280 	mov.w	r2, #256	; 0x100
  400b98:	611a      	str	r2, [r3, #16]
	base->PIO_OWER = arch_ioport_pin_to_mask(pin);
  400b9a:	f8c3 20a0 	str.w	r2, [r3, #160]	; 0xa0
		base->PIO_SODR = arch_ioport_pin_to_mask(pin);
  400b9e:	631a      	str	r2, [r3, #48]	; 0x30
		base->PIO_ODR = arch_ioport_pin_to_mask(pin);
  400ba0:	f5a3 6380 	sub.w	r3, r3, #1024	; 0x400
  400ba4:	f44f 6200 	mov.w	r2, #2048	; 0x800
  400ba8:	615a      	str	r2, [r3, #20]
	base->PIO_OWER = arch_ioport_pin_to_mask(pin);
  400baa:	f8c3 20a0 	str.w	r2, [r3, #160]	; 0xa0
		base->PIO_PUER = mask;
  400bae:	665a      	str	r2, [r3, #100]	; 0x64
		base->PIO_PPDDR = mask;
  400bb0:	f8c3 2090 	str.w	r2, [r3, #144]	; 0x90
		base->PIO_MDDR = mask;
  400bb4:	655a      	str	r2, [r3, #84]	; 0x54
		base->PIO_IFER = mask;
  400bb6:	621a      	str	r2, [r3, #32]
		base->PIO_IFSCER = mask;
  400bb8:	f8c3 2084 	str.w	r2, [r3, #132]	; 0x84
		base->PIO_ABCDSR[0] &= ~mask;
  400bbc:	6f19      	ldr	r1, [r3, #112]	; 0x70
  400bbe:	f421 6100 	bic.w	r1, r1, #2048	; 0x800
  400bc2:	6719      	str	r1, [r3, #112]	; 0x70
		base->PIO_ABCDSR[1] &= ~mask;
  400bc4:	6f59      	ldr	r1, [r3, #116]	; 0x74
  400bc6:	f421 6100 	bic.w	r1, r1, #2048	; 0x800
  400bca:	6759      	str	r1, [r3, #116]	; 0x74
	case IOPORT_SENSE_FALLING:
		base->PIO_ESR = mask;
		base->PIO_FELLSR = mask;
		break;
	case IOPORT_SENSE_RISING:
		base->PIO_ESR = mask;
  400bcc:	f8c3 20c0 	str.w	r2, [r3, #192]	; 0xc0
		base->PIO_REHLSR = mask;
  400bd0:	f8c3 20d4 	str.w	r2, [r3, #212]	; 0xd4
		break;
	default:
		base->PIO_AIMDR = mask;
		return;
	}
	base->PIO_AIMER = mask;
  400bd4:	f8c3 20b0 	str.w	r2, [r3, #176]	; 0xb0
  400bd8:	bdf8      	pop	{r3, r4, r5, r6, r7, pc}
  400bda:	bf00      	nop
  400bdc:	400e1850 	.word	0x400e1850
  400be0:	e000ed00 	.word	0xe000ed00
  400be4:	400e0c00 	.word	0x400e0c00
  400be8:	5a00080c 	.word	0x5a00080c
  400bec:	0040100d 	.word	0x0040100d
  400bf0:	400e1200 	.word	0x400e1200

00400bf4 <pio_set>:
 * \param p_pio Pointer to a PIO instance.
 * \param ul_mask Bitmask of one or more pin(s) to configure.
 */
void pio_set(Pio *p_pio, const uint32_t ul_mask)
{
	p_pio->PIO_SODR = ul_mask;
  400bf4:	6301      	str	r1, [r0, #48]	; 0x30
  400bf6:	4770      	bx	lr

00400bf8 <pio_clear>:
 * \param p_pio Pointer to a PIO instance.
 * \param ul_mask Bitmask of one or more pin(s) to configure.
 */
void pio_clear(Pio *p_pio, const uint32_t ul_mask)
{
	p_pio->PIO_CODR = ul_mask;
  400bf8:	6341      	str	r1, [r0, #52]	; 0x34
  400bfa:	4770      	bx	lr

00400bfc <pio_set_peripheral>:
		const uint32_t ul_mask)
{
	uint32_t ul_sr;

	/* Disable interrupts on the pin(s) */
	p_pio->PIO_IDR = ul_mask;
  400bfc:	6442      	str	r2, [r0, #68]	; 0x44

#if (SAM3S || SAM3N || SAM4S || SAM4E || SAM4N || SAM4C || SAMG || SAM4CP || SAM4CM || SAMV71 || SAMV70 || SAME70 || SAMS70)
	switch (ul_type) {
  400bfe:	f1b1 5fc0 	cmp.w	r1, #402653184	; 0x18000000
  400c02:	d03a      	beq.n	400c7a <pio_set_peripheral+0x7e>
  400c04:	d813      	bhi.n	400c2e <pio_set_peripheral+0x32>
  400c06:	f1b1 6f00 	cmp.w	r1, #134217728	; 0x8000000
  400c0a:	d025      	beq.n	400c58 <pio_set_peripheral+0x5c>
  400c0c:	f1b1 5f80 	cmp.w	r1, #268435456	; 0x10000000
  400c10:	d10a      	bne.n	400c28 <pio_set_peripheral+0x2c>

		ul_sr = p_pio->PIO_ABCDSR[1];
		p_pio->PIO_ABCDSR[1] &= (~ul_mask & ul_sr);
		break;
	case PIO_PERIPH_B:
		ul_sr = p_pio->PIO_ABCDSR[0];
  400c12:	6f03      	ldr	r3, [r0, #112]	; 0x70
		p_pio->PIO_ABCDSR[0] = (ul_mask | ul_sr);
  400c14:	4313      	orrs	r3, r2
  400c16:	6703      	str	r3, [r0, #112]	; 0x70

		ul_sr = p_pio->PIO_ABCDSR[1];
  400c18:	6f43      	ldr	r3, [r0, #116]	; 0x74
		p_pio->PIO_ABCDSR[1] &= (~ul_mask & ul_sr);
  400c1a:	6f41      	ldr	r1, [r0, #116]	; 0x74
  400c1c:	400b      	ands	r3, r1
  400c1e:	ea23 0302 	bic.w	r3, r3, r2
  400c22:	6743      	str	r3, [r0, #116]	; 0x74
#else
#error "Unsupported device"
#endif

	/* Remove the pins from under the control of PIO */
	p_pio->PIO_PDR = ul_mask;
  400c24:	6042      	str	r2, [r0, #4]
  400c26:	4770      	bx	lr
	switch (ul_type) {
  400c28:	2900      	cmp	r1, #0
  400c2a:	d1fb      	bne.n	400c24 <pio_set_peripheral+0x28>
  400c2c:	4770      	bx	lr
  400c2e:	f1b1 5f20 	cmp.w	r1, #671088640	; 0x28000000
  400c32:	d021      	beq.n	400c78 <pio_set_peripheral+0x7c>
  400c34:	d809      	bhi.n	400c4a <pio_set_peripheral+0x4e>
  400c36:	f1b1 5f00 	cmp.w	r1, #536870912	; 0x20000000
  400c3a:	d1f3      	bne.n	400c24 <pio_set_peripheral+0x28>
		ul_sr = p_pio->PIO_ABCDSR[0];
  400c3c:	6f03      	ldr	r3, [r0, #112]	; 0x70
		p_pio->PIO_ABCDSR[0] = (ul_mask | ul_sr);
  400c3e:	4313      	orrs	r3, r2
  400c40:	6703      	str	r3, [r0, #112]	; 0x70
		ul_sr = p_pio->PIO_ABCDSR[1];
  400c42:	6f43      	ldr	r3, [r0, #116]	; 0x74
		p_pio->PIO_ABCDSR[1] = (ul_mask | ul_sr);
  400c44:	4313      	orrs	r3, r2
  400c46:	6743      	str	r3, [r0, #116]	; 0x74
		break;
  400c48:	e7ec      	b.n	400c24 <pio_set_peripheral+0x28>
	switch (ul_type) {
  400c4a:	f1b1 5f40 	cmp.w	r1, #805306368	; 0x30000000
  400c4e:	d013      	beq.n	400c78 <pio_set_peripheral+0x7c>
  400c50:	f1b1 5f60 	cmp.w	r1, #939524096	; 0x38000000
  400c54:	d010      	beq.n	400c78 <pio_set_peripheral+0x7c>
  400c56:	e7e5      	b.n	400c24 <pio_set_peripheral+0x28>
{
  400c58:	b410      	push	{r4}
		ul_sr = p_pio->PIO_ABCDSR[0];
  400c5a:	6f01      	ldr	r1, [r0, #112]	; 0x70
		p_pio->PIO_ABCDSR[0] &= (~ul_mask & ul_sr);
  400c5c:	6f04      	ldr	r4, [r0, #112]	; 0x70
  400c5e:	43d3      	mvns	r3, r2
  400c60:	4021      	ands	r1, r4
  400c62:	461c      	mov	r4, r3
  400c64:	4019      	ands	r1, r3
  400c66:	6701      	str	r1, [r0, #112]	; 0x70
		ul_sr = p_pio->PIO_ABCDSR[1];
  400c68:	6f43      	ldr	r3, [r0, #116]	; 0x74
		p_pio->PIO_ABCDSR[1] &= (~ul_mask & ul_sr);
  400c6a:	6f41      	ldr	r1, [r0, #116]	; 0x74
  400c6c:	400b      	ands	r3, r1
  400c6e:	4023      	ands	r3, r4
  400c70:	6743      	str	r3, [r0, #116]	; 0x74
	p_pio->PIO_PDR = ul_mask;
  400c72:	6042      	str	r2, [r0, #4]
}
  400c74:	f85d 4b04 	ldr.w	r4, [sp], #4
  400c78:	4770      	bx	lr
		ul_sr = p_pio->PIO_ABCDSR[0];
  400c7a:	6f03      	ldr	r3, [r0, #112]	; 0x70
		p_pio->PIO_ABCDSR[0] &= (~ul_mask & ul_sr);
  400c7c:	6f01      	ldr	r1, [r0, #112]	; 0x70
  400c7e:	400b      	ands	r3, r1
  400c80:	ea23 0302 	bic.w	r3, r3, r2
  400c84:	6703      	str	r3, [r0, #112]	; 0x70
		ul_sr = p_pio->PIO_ABCDSR[1];
  400c86:	6f43      	ldr	r3, [r0, #116]	; 0x74
		p_pio->PIO_ABCDSR[1] = (ul_mask | ul_sr);
  400c88:	4313      	orrs	r3, r2
  400c8a:	6743      	str	r3, [r0, #116]	; 0x74
		break;
  400c8c:	e7ca      	b.n	400c24 <pio_set_peripheral+0x28>

00400c8e <pio_set_input>:
 * \param p_pio Pointer to a PIO instance.
 * \param ul_mask Interrupt sources bit map.
 */
void pio_disable_interrupt(Pio *p_pio, const uint32_t ul_mask)
{
	p_pio->PIO_IDR = ul_mask;
  400c8e:	6441      	str	r1, [r0, #68]	; 0x44
	if (ul_pull_up_enable) {
  400c90:	f012 0f01 	tst.w	r2, #1
  400c94:	d10d      	bne.n	400cb2 <pio_set_input+0x24>
		p_pio->PIO_PUDR = ul_mask;
  400c96:	6601      	str	r1, [r0, #96]	; 0x60
	if (ul_attribute & (PIO_DEGLITCH | PIO_DEBOUNCE)) {
  400c98:	f012 0f0a 	tst.w	r2, #10
  400c9c:	d00b      	beq.n	400cb6 <pio_set_input+0x28>
		p_pio->PIO_IFER = ul_mask;
  400c9e:	6201      	str	r1, [r0, #32]
	if (ul_attribute & PIO_DEGLITCH) {
  400ca0:	f012 0f02 	tst.w	r2, #2
  400ca4:	d109      	bne.n	400cba <pio_set_input+0x2c>
		if (ul_attribute & PIO_DEBOUNCE) {
  400ca6:	f012 0f08 	tst.w	r2, #8
  400caa:	d008      	beq.n	400cbe <pio_set_input+0x30>
			p_pio->PIO_IFSCER = ul_mask;
  400cac:	f8c0 1084 	str.w	r1, [r0, #132]	; 0x84
  400cb0:	e005      	b.n	400cbe <pio_set_input+0x30>
		p_pio->PIO_PUER = ul_mask;
  400cb2:	6641      	str	r1, [r0, #100]	; 0x64
  400cb4:	e7f0      	b.n	400c98 <pio_set_input+0xa>
		p_pio->PIO_IFDR = ul_mask;
  400cb6:	6241      	str	r1, [r0, #36]	; 0x24
  400cb8:	e7f2      	b.n	400ca0 <pio_set_input+0x12>
		p_pio->PIO_IFSCDR = ul_mask;
  400cba:	f8c0 1080 	str.w	r1, [r0, #128]	; 0x80
	p_pio->PIO_ODR = ul_mask;
  400cbe:	6141      	str	r1, [r0, #20]
	p_pio->PIO_PER = ul_mask;
  400cc0:	6001      	str	r1, [r0, #0]
  400cc2:	4770      	bx	lr

00400cc4 <pio_set_output>:
{
  400cc4:	b410      	push	{r4}
  400cc6:	9c01      	ldr	r4, [sp, #4]
	p_pio->PIO_IDR = ul_mask;
  400cc8:	6441      	str	r1, [r0, #68]	; 0x44
	if (ul_pull_up_enable) {
  400cca:	b94c      	cbnz	r4, 400ce0 <pio_set_output+0x1c>
		p_pio->PIO_PUDR = ul_mask;
  400ccc:	6601      	str	r1, [r0, #96]	; 0x60
	if (ul_multidrive_enable) {
  400cce:	b14b      	cbz	r3, 400ce4 <pio_set_output+0x20>
		p_pio->PIO_MDER = ul_mask;
  400cd0:	6501      	str	r1, [r0, #80]	; 0x50
	if (ul_default_level) {
  400cd2:	b94a      	cbnz	r2, 400ce8 <pio_set_output+0x24>
		p_pio->PIO_CODR = ul_mask;
  400cd4:	6341      	str	r1, [r0, #52]	; 0x34
	p_pio->PIO_OER = ul_mask;
  400cd6:	6101      	str	r1, [r0, #16]
	p_pio->PIO_PER = ul_mask;
  400cd8:	6001      	str	r1, [r0, #0]
}
  400cda:	f85d 4b04 	ldr.w	r4, [sp], #4
  400cde:	4770      	bx	lr
		p_pio->PIO_PUER = ul_mask;
  400ce0:	6641      	str	r1, [r0, #100]	; 0x64
  400ce2:	e7f4      	b.n	400cce <pio_set_output+0xa>
		p_pio->PIO_MDDR = ul_mask;
  400ce4:	6541      	str	r1, [r0, #84]	; 0x54
  400ce6:	e7f4      	b.n	400cd2 <pio_set_output+0xe>
		p_pio->PIO_SODR = ul_mask;
  400ce8:	6301      	str	r1, [r0, #48]	; 0x30
  400cea:	e7f4      	b.n	400cd6 <pio_set_output+0x12>

00400cec <pio_configure>:
{
  400cec:	b570      	push	{r4, r5, r6, lr}
  400cee:	b082      	sub	sp, #8
  400cf0:	4605      	mov	r5, r0
  400cf2:	4616      	mov	r6, r2
  400cf4:	461c      	mov	r4, r3
	switch (ul_type) {
  400cf6:	f1b1 5f00 	cmp.w	r1, #536870912	; 0x20000000
  400cfa:	d014      	beq.n	400d26 <pio_configure+0x3a>
  400cfc:	d90a      	bls.n	400d14 <pio_configure+0x28>
  400cfe:	f1b1 5f40 	cmp.w	r1, #805306368	; 0x30000000
  400d02:	d024      	beq.n	400d4e <pio_configure+0x62>
  400d04:	f1b1 5f60 	cmp.w	r1, #939524096	; 0x38000000
  400d08:	d021      	beq.n	400d4e <pio_configure+0x62>
  400d0a:	f1b1 5f20 	cmp.w	r1, #671088640	; 0x28000000
  400d0e:	d017      	beq.n	400d40 <pio_configure+0x54>
		return 0;
  400d10:	2000      	movs	r0, #0
  400d12:	e01a      	b.n	400d4a <pio_configure+0x5e>
	switch (ul_type) {
  400d14:	f1b1 5f80 	cmp.w	r1, #268435456	; 0x10000000
  400d18:	d005      	beq.n	400d26 <pio_configure+0x3a>
  400d1a:	f1b1 5fc0 	cmp.w	r1, #402653184	; 0x18000000
  400d1e:	d002      	beq.n	400d26 <pio_configure+0x3a>
  400d20:	f1b1 6f00 	cmp.w	r1, #134217728	; 0x8000000
  400d24:	d1f4      	bne.n	400d10 <pio_configure+0x24>
		pio_set_peripheral(p_pio, ul_type, ul_mask);
  400d26:	4632      	mov	r2, r6
  400d28:	4628      	mov	r0, r5
  400d2a:	4b11      	ldr	r3, [pc, #68]	; (400d70 <pio_configure+0x84>)
  400d2c:	4798      	blx	r3
	if (ul_pull_up_enable) {
  400d2e:	f014 0f01 	tst.w	r4, #1
  400d32:	d102      	bne.n	400d3a <pio_configure+0x4e>
		p_pio->PIO_PUDR = ul_mask;
  400d34:	662e      	str	r6, [r5, #96]	; 0x60
	return 1;
  400d36:	2001      	movs	r0, #1
  400d38:	e007      	b.n	400d4a <pio_configure+0x5e>
		p_pio->PIO_PUER = ul_mask;
  400d3a:	666e      	str	r6, [r5, #100]	; 0x64
	return 1;
  400d3c:	2001      	movs	r0, #1
  400d3e:	e004      	b.n	400d4a <pio_configure+0x5e>
		pio_set_input(p_pio, ul_mask, ul_attribute);
  400d40:	461a      	mov	r2, r3
  400d42:	4631      	mov	r1, r6
  400d44:	4b0b      	ldr	r3, [pc, #44]	; (400d74 <pio_configure+0x88>)
  400d46:	4798      	blx	r3
	return 1;
  400d48:	2001      	movs	r0, #1
}
  400d4a:	b002      	add	sp, #8
  400d4c:	bd70      	pop	{r4, r5, r6, pc}
		pio_set_output(p_pio, ul_mask, (ul_type == PIO_OUTPUT_1),
  400d4e:	f004 0301 	and.w	r3, r4, #1
  400d52:	9300      	str	r3, [sp, #0]
  400d54:	f3c4 0380 	ubfx	r3, r4, #2, #1
  400d58:	f1b1 5f60 	cmp.w	r1, #939524096	; 0x38000000
  400d5c:	bf14      	ite	ne
  400d5e:	2200      	movne	r2, #0
  400d60:	2201      	moveq	r2, #1
  400d62:	4631      	mov	r1, r6
  400d64:	4628      	mov	r0, r5
  400d66:	4c04      	ldr	r4, [pc, #16]	; (400d78 <pio_configure+0x8c>)
  400d68:	47a0      	blx	r4
	return 1;
  400d6a:	2001      	movs	r0, #1
		break;
  400d6c:	e7ed      	b.n	400d4a <pio_configure+0x5e>
  400d6e:	bf00      	nop
  400d70:	00400bfd 	.word	0x00400bfd
  400d74:	00400c8f 	.word	0x00400c8f
  400d78:	00400cc5 	.word	0x00400cc5

00400d7c <pio_get_output_data_status>:
	if ((p_pio->PIO_ODSR & ul_mask) == 0) {
  400d7c:	6b83      	ldr	r3, [r0, #56]	; 0x38
  400d7e:	420b      	tst	r3, r1
}
  400d80:	bf14      	ite	ne
  400d82:	2001      	movne	r0, #1
  400d84:	2000      	moveq	r0, #0
  400d86:	4770      	bx	lr

00400d88 <pio_configure_interrupt>:
	if (ul_attr & PIO_IT_AIME) {
  400d88:	f012 0f10 	tst.w	r2, #16
  400d8c:	d012      	beq.n	400db4 <pio_configure_interrupt+0x2c>
		p_pio->PIO_AIMER = ul_mask;
  400d8e:	f8c0 10b0 	str.w	r1, [r0, #176]	; 0xb0
		if (ul_attr & PIO_IT_RE_OR_HL) {
  400d92:	f012 0f20 	tst.w	r2, #32
  400d96:	d007      	beq.n	400da8 <pio_configure_interrupt+0x20>
			p_pio->PIO_REHLSR = ul_mask;
  400d98:	f8c0 10d4 	str.w	r1, [r0, #212]	; 0xd4
		if (ul_attr & PIO_IT_EDGE) {
  400d9c:	f012 0f40 	tst.w	r2, #64	; 0x40
  400da0:	d005      	beq.n	400dae <pio_configure_interrupt+0x26>
			p_pio->PIO_ESR = ul_mask;
  400da2:	f8c0 10c0 	str.w	r1, [r0, #192]	; 0xc0
  400da6:	4770      	bx	lr
			p_pio->PIO_FELLSR = ul_mask;
  400da8:	f8c0 10d0 	str.w	r1, [r0, #208]	; 0xd0
  400dac:	e7f6      	b.n	400d9c <pio_configure_interrupt+0x14>
			p_pio->PIO_LSR = ul_mask;
  400dae:	f8c0 10c4 	str.w	r1, [r0, #196]	; 0xc4
  400db2:	4770      	bx	lr
		p_pio->PIO_AIMDR = ul_mask;
  400db4:	f8c0 10b4 	str.w	r1, [r0, #180]	; 0xb4
  400db8:	4770      	bx	lr

00400dba <pio_enable_interrupt>:
	p_pio->PIO_IER = ul_mask;
  400dba:	6401      	str	r1, [r0, #64]	; 0x40
  400dbc:	4770      	bx	lr

00400dbe <pio_get_interrupt_status>:
 *
 * \return The interrupt status value.
 */
uint32_t pio_get_interrupt_status(const Pio *p_pio)
{
	return p_pio->PIO_ISR;
  400dbe:	6cc0      	ldr	r0, [r0, #76]	; 0x4c
}
  400dc0:	4770      	bx	lr

00400dc2 <pio_get_interrupt_mask>:
 *
 * \return The interrupt mask value.
 */
uint32_t pio_get_interrupt_mask(const Pio *p_pio)
{
	return p_pio->PIO_IMR;
  400dc2:	6c80      	ldr	r0, [r0, #72]	; 0x48
}
  400dc4:	4770      	bx	lr
	...

00400dc8 <pio_handler_process>:
 *
 * \param p_pio PIO controller base address.
 * \param ul_id PIO controller ID.
 */
void pio_handler_process(Pio *p_pio, uint32_t ul_id)
{
  400dc8:	e92d 41f0 	stmdb	sp!, {r4, r5, r6, r7, r8, lr}
  400dcc:	4604      	mov	r4, r0
  400dce:	4688      	mov	r8, r1
	uint32_t status;
	uint32_t i;

	/* Read PIO controller status */
	status = pio_get_interrupt_status(p_pio);
  400dd0:	4b0e      	ldr	r3, [pc, #56]	; (400e0c <pio_handler_process+0x44>)
  400dd2:	4798      	blx	r3
  400dd4:	4605      	mov	r5, r0
	status &= pio_get_interrupt_mask(p_pio);
  400dd6:	4620      	mov	r0, r4
  400dd8:	4b0d      	ldr	r3, [pc, #52]	; (400e10 <pio_handler_process+0x48>)
  400dda:	4798      	blx	r3

	/* Check pending events */
	if (status != 0) {
  400ddc:	4005      	ands	r5, r0
  400dde:	d013      	beq.n	400e08 <pio_handler_process+0x40>
  400de0:	4c0c      	ldr	r4, [pc, #48]	; (400e14 <pio_handler_process+0x4c>)
  400de2:	f104 0660 	add.w	r6, r4, #96	; 0x60
  400de6:	e003      	b.n	400df0 <pio_handler_process+0x28>
							gs_interrupt_sources[i].mask);
					status &= ~(gs_interrupt_sources[i].mask);
				}
			}
			i++;
			if (i >= MAX_INTERRUPT_SOURCES) {
  400de8:	42b4      	cmp	r4, r6
  400dea:	d00d      	beq.n	400e08 <pio_handler_process+0x40>
  400dec:	3410      	adds	r4, #16
		while (status != 0) {
  400dee:	b15d      	cbz	r5, 400e08 <pio_handler_process+0x40>
			if (gs_interrupt_sources[i].id == ul_id) {
  400df0:	6820      	ldr	r0, [r4, #0]
  400df2:	4540      	cmp	r0, r8
  400df4:	d1f8      	bne.n	400de8 <pio_handler_process+0x20>
				if ((status & gs_interrupt_sources[i].mask) != 0) {
  400df6:	6861      	ldr	r1, [r4, #4]
  400df8:	4229      	tst	r1, r5
  400dfa:	d0f5      	beq.n	400de8 <pio_handler_process+0x20>
					gs_interrupt_sources[i].handler(gs_interrupt_sources[i].id,
  400dfc:	68e3      	ldr	r3, [r4, #12]
  400dfe:	4798      	blx	r3
					status &= ~(gs_interrupt_sources[i].mask);
  400e00:	6863      	ldr	r3, [r4, #4]
  400e02:	ea25 0503 	bic.w	r5, r5, r3
  400e06:	e7ef      	b.n	400de8 <pio_handler_process+0x20>
  400e08:	e8bd 81f0 	ldmia.w	sp!, {r4, r5, r6, r7, r8, pc}
  400e0c:	00400dbf 	.word	0x00400dbf
  400e10:	00400dc3 	.word	0x00400dc3
  400e14:	20400bf0 	.word	0x20400bf0

00400e18 <pio_handler_set>:
 *
 * \return 0 if successful, 1 if the maximum number of sources has been defined.
 */
uint32_t pio_handler_set(Pio *p_pio, uint32_t ul_id, uint32_t ul_mask,
		uint32_t ul_attr, void (*p_handler) (uint32_t, uint32_t))
{
  400e18:	b5f8      	push	{r3, r4, r5, r6, r7, lr}
    uint8_t i;
	struct s_interrupt_source *pSource;

	if (gs_ul_nb_sources >= MAX_INTERRUPT_SOURCES)
  400e1a:	4c18      	ldr	r4, [pc, #96]	; (400e7c <pio_handler_set+0x64>)
  400e1c:	6826      	ldr	r6, [r4, #0]
  400e1e:	2e06      	cmp	r6, #6
  400e20:	d82a      	bhi.n	400e78 <pio_handler_set+0x60>
  400e22:	f04f 0c00 	mov.w	ip, #0
  400e26:	4664      	mov	r4, ip
		return 1;

    /* Check interrupt for this pin, if already defined, redefine it. */
	for (i = 0; i <= gs_ul_nb_sources; i++) {
		pSource = &(gs_interrupt_sources[i]);
		if (pSource->id == ul_id && pSource->mask == ul_mask) {
  400e28:	4f15      	ldr	r7, [pc, #84]	; (400e80 <pio_handler_set+0x68>)
  400e2a:	e004      	b.n	400e36 <pio_handler_set+0x1e>
	for (i = 0; i <= gs_ul_nb_sources; i++) {
  400e2c:	3401      	adds	r4, #1
  400e2e:	b2e4      	uxtb	r4, r4
  400e30:	46a4      	mov	ip, r4
  400e32:	42a6      	cmp	r6, r4
  400e34:	d309      	bcc.n	400e4a <pio_handler_set+0x32>
		pSource = &(gs_interrupt_sources[i]);
  400e36:	46a6      	mov	lr, r4
		if (pSource->id == ul_id && pSource->mask == ul_mask) {
  400e38:	0125      	lsls	r5, r4, #4
  400e3a:	597d      	ldr	r5, [r7, r5]
  400e3c:	428d      	cmp	r5, r1
  400e3e:	d1f5      	bne.n	400e2c <pio_handler_set+0x14>
  400e40:	eb07 1504 	add.w	r5, r7, r4, lsl #4
  400e44:	686d      	ldr	r5, [r5, #4]
  400e46:	4295      	cmp	r5, r2
  400e48:	d1f0      	bne.n	400e2c <pio_handler_set+0x14>
			break;
		}
	}

	/* Define new source */
	pSource->id = ul_id;
  400e4a:	4d0d      	ldr	r5, [pc, #52]	; (400e80 <pio_handler_set+0x68>)
  400e4c:	ea4f 1e0e 	mov.w	lr, lr, lsl #4
  400e50:	eb05 040e 	add.w	r4, r5, lr
  400e54:	f845 100e 	str.w	r1, [r5, lr]
	pSource->mask = ul_mask;
  400e58:	6062      	str	r2, [r4, #4]
	pSource->attr = ul_attr;
  400e5a:	60a3      	str	r3, [r4, #8]
	pSource->handler = p_handler;
  400e5c:	9906      	ldr	r1, [sp, #24]
  400e5e:	60e1      	str	r1, [r4, #12]
	if (i == gs_ul_nb_sources + 1) {
  400e60:	3601      	adds	r6, #1
  400e62:	4566      	cmp	r6, ip
  400e64:	d005      	beq.n	400e72 <pio_handler_set+0x5a>
  400e66:	4611      	mov	r1, r2
		gs_ul_nb_sources++;
	}

	/* Configure interrupt mode */
	pio_configure_interrupt(p_pio, ul_mask, ul_attr);
  400e68:	461a      	mov	r2, r3
  400e6a:	4b06      	ldr	r3, [pc, #24]	; (400e84 <pio_handler_set+0x6c>)
  400e6c:	4798      	blx	r3

	return 0;
  400e6e:	2000      	movs	r0, #0
  400e70:	bdf8      	pop	{r3, r4, r5, r6, r7, pc}
		gs_ul_nb_sources++;
  400e72:	4902      	ldr	r1, [pc, #8]	; (400e7c <pio_handler_set+0x64>)
  400e74:	600e      	str	r6, [r1, #0]
  400e76:	e7f6      	b.n	400e66 <pio_handler_set+0x4e>
		return 1;
  400e78:	2001      	movs	r0, #1
}
  400e7a:	bdf8      	pop	{r3, r4, r5, r6, r7, pc}
  400e7c:	20400c60 	.word	0x20400c60
  400e80:	20400bf0 	.word	0x20400bf0
  400e84:	00400d89 	.word	0x00400d89

00400e88 <PIOA_Handler>:
/**
 * \brief Parallel IO Controller A interrupt handler.
 * Redefined PIOA interrupt handler for NVIC interrupt table.
 */
void PIOA_Handler(void)
{
  400e88:	b508      	push	{r3, lr}
	pio_handler_process(PIOA, ID_PIOA);
  400e8a:	210a      	movs	r1, #10
  400e8c:	4801      	ldr	r0, [pc, #4]	; (400e94 <PIOA_Handler+0xc>)
  400e8e:	4b02      	ldr	r3, [pc, #8]	; (400e98 <PIOA_Handler+0x10>)
  400e90:	4798      	blx	r3
  400e92:	bd08      	pop	{r3, pc}
  400e94:	400e0e00 	.word	0x400e0e00
  400e98:	00400dc9 	.word	0x00400dc9

00400e9c <PIOB_Handler>:
/**
 * \brief Parallel IO Controller B interrupt handler
 * Redefined PIOB interrupt handler for NVIC interrupt table.
 */
void PIOB_Handler(void)
{
  400e9c:	b508      	push	{r3, lr}
    pio_handler_process(PIOB, ID_PIOB);
  400e9e:	210b      	movs	r1, #11
  400ea0:	4801      	ldr	r0, [pc, #4]	; (400ea8 <PIOB_Handler+0xc>)
  400ea2:	4b02      	ldr	r3, [pc, #8]	; (400eac <PIOB_Handler+0x10>)
  400ea4:	4798      	blx	r3
  400ea6:	bd08      	pop	{r3, pc}
  400ea8:	400e1000 	.word	0x400e1000
  400eac:	00400dc9 	.word	0x00400dc9

00400eb0 <PIOC_Handler>:
/**
 * \brief Parallel IO Controller C interrupt handler.
 * Redefined PIOC interrupt handler for NVIC interrupt table.
 */
void PIOC_Handler(void)
{
  400eb0:	b508      	push	{r3, lr}
	pio_handler_process(PIOC, ID_PIOC);
  400eb2:	210c      	movs	r1, #12
  400eb4:	4801      	ldr	r0, [pc, #4]	; (400ebc <PIOC_Handler+0xc>)
  400eb6:	4b02      	ldr	r3, [pc, #8]	; (400ec0 <PIOC_Handler+0x10>)
  400eb8:	4798      	blx	r3
  400eba:	bd08      	pop	{r3, pc}
  400ebc:	400e1200 	.word	0x400e1200
  400ec0:	00400dc9 	.word	0x00400dc9

00400ec4 <PIOD_Handler>:
/**
 * \brief Parallel IO Controller D interrupt handler.
 * Redefined PIOD interrupt handler for NVIC interrupt table.
 */
void PIOD_Handler(void)
{
  400ec4:	b508      	push	{r3, lr}
	pio_handler_process(PIOD, ID_PIOD);
  400ec6:	2110      	movs	r1, #16
  400ec8:	4801      	ldr	r0, [pc, #4]	; (400ed0 <PIOD_Handler+0xc>)
  400eca:	4b02      	ldr	r3, [pc, #8]	; (400ed4 <PIOD_Handler+0x10>)
  400ecc:	4798      	blx	r3
  400ece:	bd08      	pop	{r3, pc}
  400ed0:	400e1400 	.word	0x400e1400
  400ed4:	00400dc9 	.word	0x00400dc9

00400ed8 <PIOE_Handler>:
/**
 * \brief Parallel IO Controller E interrupt handler.
 * Redefined PIOE interrupt handler for NVIC interrupt table.
 */
void PIOE_Handler(void)
{
  400ed8:	b508      	push	{r3, lr}
	pio_handler_process(PIOE, ID_PIOE);
  400eda:	2111      	movs	r1, #17
  400edc:	4801      	ldr	r0, [pc, #4]	; (400ee4 <PIOE_Handler+0xc>)
  400ede:	4b02      	ldr	r3, [pc, #8]	; (400ee8 <PIOE_Handler+0x10>)
  400ee0:	4798      	blx	r3
  400ee2:	bd08      	pop	{r3, pc}
  400ee4:	400e1600 	.word	0x400e1600
  400ee8:	00400dc9 	.word	0x00400dc9

00400eec <pmc_mck_set_division>:
 *
 * \param ul_div Division value.
 */
void pmc_mck_set_division(uint32_t ul_div)
{
	switch (ul_div) {
  400eec:	2803      	cmp	r0, #3
  400eee:	d011      	beq.n	400f14 <pmc_mck_set_division+0x28>
  400ef0:	2804      	cmp	r0, #4
  400ef2:	d012      	beq.n	400f1a <pmc_mck_set_division+0x2e>
		case 1:
			ul_div = PMC_MCKR_MDIV_EQ_PCK;
  400ef4:	2802      	cmp	r0, #2
  400ef6:	bf0c      	ite	eq
  400ef8:	f44f 7180 	moveq.w	r1, #256	; 0x100
  400efc:	2100      	movne	r1, #0
		default:
			ul_div = PMC_MCKR_MDIV_EQ_PCK;
			break;
	}
	PMC->PMC_MCKR =
			(PMC->PMC_MCKR & (~PMC_MCKR_MDIV_Msk)) | ul_div;
  400efe:	4a08      	ldr	r2, [pc, #32]	; (400f20 <pmc_mck_set_division+0x34>)
  400f00:	6b13      	ldr	r3, [r2, #48]	; 0x30
  400f02:	f423 7340 	bic.w	r3, r3, #768	; 0x300
  400f06:	430b      	orrs	r3, r1
	PMC->PMC_MCKR =
  400f08:	6313      	str	r3, [r2, #48]	; 0x30
	while (!(PMC->PMC_SR & PMC_SR_MCKRDY));
  400f0a:	6e93      	ldr	r3, [r2, #104]	; 0x68
  400f0c:	f013 0f08 	tst.w	r3, #8
  400f10:	d0fb      	beq.n	400f0a <pmc_mck_set_division+0x1e>
}
  400f12:	4770      	bx	lr
			ul_div = PMC_MCKR_MDIV_PCK_DIV3;
  400f14:	f44f 7140 	mov.w	r1, #768	; 0x300
			break;
  400f18:	e7f1      	b.n	400efe <pmc_mck_set_division+0x12>
			ul_div = PMC_MCKR_MDIV_PCK_DIV4;
  400f1a:	f44f 7100 	mov.w	r1, #512	; 0x200
			break;
  400f1e:	e7ee      	b.n	400efe <pmc_mck_set_division+0x12>
  400f20:	400e0600 	.word	0x400e0600

00400f24 <pmc_switch_mck_to_pllack>:
 */
uint32_t pmc_switch_mck_to_pllack(uint32_t ul_pres)
{
	uint32_t ul_timeout;

	PMC->PMC_MCKR = (PMC->PMC_MCKR & (~PMC_MCKR_PRES_Msk)) | ul_pres;
  400f24:	4a17      	ldr	r2, [pc, #92]	; (400f84 <pmc_switch_mck_to_pllack+0x60>)
  400f26:	6b13      	ldr	r3, [r2, #48]	; 0x30
  400f28:	f023 0370 	bic.w	r3, r3, #112	; 0x70
  400f2c:	4318      	orrs	r0, r3
  400f2e:	6310      	str	r0, [r2, #48]	; 0x30
	for (ul_timeout = PMC_TIMEOUT; !(PMC->PMC_SR & PMC_SR_MCKRDY);
  400f30:	6e93      	ldr	r3, [r2, #104]	; 0x68
  400f32:	f013 0f08 	tst.w	r3, #8
  400f36:	d10a      	bne.n	400f4e <pmc_switch_mck_to_pllack+0x2a>
  400f38:	f44f 5380 	mov.w	r3, #4096	; 0x1000
  400f3c:	4911      	ldr	r1, [pc, #68]	; (400f84 <pmc_switch_mck_to_pllack+0x60>)
  400f3e:	6e8a      	ldr	r2, [r1, #104]	; 0x68
  400f40:	f012 0f08 	tst.w	r2, #8
  400f44:	d103      	bne.n	400f4e <pmc_switch_mck_to_pllack+0x2a>
			--ul_timeout) {
		if (ul_timeout == 0) {
  400f46:	3b01      	subs	r3, #1
  400f48:	d1f9      	bne.n	400f3e <pmc_switch_mck_to_pllack+0x1a>
			return 1;
  400f4a:	2001      	movs	r0, #1
  400f4c:	4770      	bx	lr
		}
	}

	PMC->PMC_MCKR = (PMC->PMC_MCKR & (~PMC_MCKR_CSS_Msk)) |
  400f4e:	4a0d      	ldr	r2, [pc, #52]	; (400f84 <pmc_switch_mck_to_pllack+0x60>)
  400f50:	6b13      	ldr	r3, [r2, #48]	; 0x30
  400f52:	f023 0303 	bic.w	r3, r3, #3
  400f56:	f043 0302 	orr.w	r3, r3, #2
  400f5a:	6313      	str	r3, [r2, #48]	; 0x30
			PMC_MCKR_CSS_PLLA_CLK;

	for (ul_timeout = PMC_TIMEOUT; !(PMC->PMC_SR & PMC_SR_MCKRDY);
  400f5c:	6e93      	ldr	r3, [r2, #104]	; 0x68
  400f5e:	f013 0f08 	tst.w	r3, #8
  400f62:	d10a      	bne.n	400f7a <pmc_switch_mck_to_pllack+0x56>
  400f64:	f44f 5380 	mov.w	r3, #4096	; 0x1000
  400f68:	4906      	ldr	r1, [pc, #24]	; (400f84 <pmc_switch_mck_to_pllack+0x60>)
  400f6a:	6e8a      	ldr	r2, [r1, #104]	; 0x68
  400f6c:	f012 0f08 	tst.w	r2, #8
  400f70:	d105      	bne.n	400f7e <pmc_switch_mck_to_pllack+0x5a>
			--ul_timeout) {
		if (ul_timeout == 0) {
  400f72:	3b01      	subs	r3, #1
  400f74:	d1f9      	bne.n	400f6a <pmc_switch_mck_to_pllack+0x46>
			return 1;
  400f76:	2001      	movs	r0, #1
		}
	}

	return 0;
}
  400f78:	4770      	bx	lr
	return 0;
  400f7a:	2000      	movs	r0, #0
  400f7c:	4770      	bx	lr
  400f7e:	2000      	movs	r0, #0
  400f80:	4770      	bx	lr
  400f82:	bf00      	nop
  400f84:	400e0600 	.word	0x400e0600

00400f88 <pmc_switch_mainck_to_xtal>:
 */
void pmc_switch_mainck_to_xtal(uint32_t ul_bypass,
		uint32_t ul_xtal_startup_time)
{
	/* Enable Main Xtal oscillator */
	if (ul_bypass) {
  400f88:	b9a0      	cbnz	r0, 400fb4 <pmc_switch_mainck_to_xtal+0x2c>
		PMC->CKGR_MOR = (PMC->CKGR_MOR & ~CKGR_MOR_MOSCXTEN) |
				CKGR_MOR_KEY_PASSWD | CKGR_MOR_MOSCXTBY |
				CKGR_MOR_MOSCSEL;
	} else {
		PMC->CKGR_MOR = (PMC->CKGR_MOR & ~CKGR_MOR_MOSCXTBY) |
  400f8a:	480e      	ldr	r0, [pc, #56]	; (400fc4 <pmc_switch_mainck_to_xtal+0x3c>)
  400f8c:	6a03      	ldr	r3, [r0, #32]
				CKGR_MOR_KEY_PASSWD | CKGR_MOR_MOSCXTEN |
				CKGR_MOR_MOSCXTST(ul_xtal_startup_time);
  400f8e:	0209      	lsls	r1, r1, #8
  400f90:	b289      	uxth	r1, r1
				CKGR_MOR_KEY_PASSWD | CKGR_MOR_MOSCXTEN |
  400f92:	4a0d      	ldr	r2, [pc, #52]	; (400fc8 <pmc_switch_mainck_to_xtal+0x40>)
  400f94:	401a      	ands	r2, r3
  400f96:	4b0d      	ldr	r3, [pc, #52]	; (400fcc <pmc_switch_mainck_to_xtal+0x44>)
  400f98:	4313      	orrs	r3, r2
  400f9a:	4319      	orrs	r1, r3
		PMC->CKGR_MOR = (PMC->CKGR_MOR & ~CKGR_MOR_MOSCXTBY) |
  400f9c:	6201      	str	r1, [r0, #32]
		/* Wait the Xtal to stabilize */
		while (!(PMC->PMC_SR & PMC_SR_MOSCXTS));
  400f9e:	4602      	mov	r2, r0
  400fa0:	6e93      	ldr	r3, [r2, #104]	; 0x68
  400fa2:	f013 0f01 	tst.w	r3, #1
  400fa6:	d0fb      	beq.n	400fa0 <pmc_switch_mainck_to_xtal+0x18>

		PMC->CKGR_MOR |= CKGR_MOR_KEY_PASSWD | CKGR_MOR_MOSCSEL;
  400fa8:	4a06      	ldr	r2, [pc, #24]	; (400fc4 <pmc_switch_mainck_to_xtal+0x3c>)
  400faa:	6a11      	ldr	r1, [r2, #32]
  400fac:	4b08      	ldr	r3, [pc, #32]	; (400fd0 <pmc_switch_mainck_to_xtal+0x48>)
  400fae:	430b      	orrs	r3, r1
  400fb0:	6213      	str	r3, [r2, #32]
  400fb2:	4770      	bx	lr
		PMC->CKGR_MOR = (PMC->CKGR_MOR & ~CKGR_MOR_MOSCXTEN) |
  400fb4:	4903      	ldr	r1, [pc, #12]	; (400fc4 <pmc_switch_mainck_to_xtal+0x3c>)
  400fb6:	6a0b      	ldr	r3, [r1, #32]
				CKGR_MOR_KEY_PASSWD | CKGR_MOR_MOSCXTBY |
  400fb8:	4a06      	ldr	r2, [pc, #24]	; (400fd4 <pmc_switch_mainck_to_xtal+0x4c>)
  400fba:	401a      	ands	r2, r3
  400fbc:	4b06      	ldr	r3, [pc, #24]	; (400fd8 <pmc_switch_mainck_to_xtal+0x50>)
  400fbe:	4313      	orrs	r3, r2
		PMC->CKGR_MOR = (PMC->CKGR_MOR & ~CKGR_MOR_MOSCXTEN) |
  400fc0:	620b      	str	r3, [r1, #32]
  400fc2:	4770      	bx	lr
  400fc4:	400e0600 	.word	0x400e0600
  400fc8:	ffc8fffc 	.word	0xffc8fffc
  400fcc:	00370001 	.word	0x00370001
  400fd0:	01370000 	.word	0x01370000
  400fd4:	fec8fffc 	.word	0xfec8fffc
  400fd8:	01370002 	.word	0x01370002

00400fdc <pmc_osc_is_ready_mainck>:
 * \retval 1 Xtal is ready.
 * \retval 0 Xtal is not ready.
 */
uint32_t pmc_osc_is_ready_mainck(void)
{
	return PMC->PMC_SR & PMC_SR_MOSCSELS;
  400fdc:	4b02      	ldr	r3, [pc, #8]	; (400fe8 <pmc_osc_is_ready_mainck+0xc>)
  400fde:	6e98      	ldr	r0, [r3, #104]	; 0x68
}
  400fe0:	f400 3080 	and.w	r0, r0, #65536	; 0x10000
  400fe4:	4770      	bx	lr
  400fe6:	bf00      	nop
  400fe8:	400e0600 	.word	0x400e0600

00400fec <pmc_disable_pllack>:
void pmc_disable_pllack(void)
{
#if (SAM4C || SAM4CM || SAM4CP || SAMG)
	PMC->CKGR_PLLAR = CKGR_PLLAR_MULA(0);
#else
	PMC->CKGR_PLLAR = CKGR_PLLAR_ONE | CKGR_PLLAR_MULA(0);
  400fec:	f04f 5200 	mov.w	r2, #536870912	; 0x20000000
  400ff0:	4b01      	ldr	r3, [pc, #4]	; (400ff8 <pmc_disable_pllack+0xc>)
  400ff2:	629a      	str	r2, [r3, #40]	; 0x28
  400ff4:	4770      	bx	lr
  400ff6:	bf00      	nop
  400ff8:	400e0600 	.word	0x400e0600

00400ffc <pmc_is_locked_pllack>:
 * \retval 0 Not locked.
 * \retval 1 Locked.
 */
uint32_t pmc_is_locked_pllack(void)
{
	return (PMC->PMC_SR & PMC_SR_LOCKA);
  400ffc:	4b02      	ldr	r3, [pc, #8]	; (401008 <pmc_is_locked_pllack+0xc>)
  400ffe:	6e98      	ldr	r0, [r3, #104]	; 0x68
}
  401000:	f000 0002 	and.w	r0, r0, #2
  401004:	4770      	bx	lr
  401006:	bf00      	nop
  401008:	400e0600 	.word	0x400e0600

0040100c <pmc_enable_periph_clk>:
 * \retval 0 Success.
 * \retval 1 Invalid parameter.
 */
uint32_t pmc_enable_periph_clk(uint32_t ul_id)
{
	if (ul_id > MAX_PERIPH_ID) {
  40100c:	283f      	cmp	r0, #63	; 0x3f
  40100e:	d81e      	bhi.n	40104e <pmc_enable_periph_clk+0x42>
		return 1;
	}

	if (ul_id < 32) {
  401010:	281f      	cmp	r0, #31
  401012:	d80c      	bhi.n	40102e <pmc_enable_periph_clk+0x22>
		if ((PMC->PMC_PCSR0 & (1u << ul_id)) != (1u << ul_id)) {
  401014:	4b11      	ldr	r3, [pc, #68]	; (40105c <pmc_enable_periph_clk+0x50>)
  401016:	699a      	ldr	r2, [r3, #24]
  401018:	2301      	movs	r3, #1
  40101a:	4083      	lsls	r3, r0
  40101c:	4393      	bics	r3, r2
  40101e:	d018      	beq.n	401052 <pmc_enable_periph_clk+0x46>
			PMC->PMC_PCER0 = 1 << ul_id;
  401020:	2301      	movs	r3, #1
  401022:	fa03 f000 	lsl.w	r0, r3, r0
  401026:	4b0d      	ldr	r3, [pc, #52]	; (40105c <pmc_enable_periph_clk+0x50>)
  401028:	6118      	str	r0, [r3, #16]
			PMC->PMC_PCER1 = 1 << ul_id;
		}
#endif
	}

	return 0;
  40102a:	2000      	movs	r0, #0
  40102c:	4770      	bx	lr
		ul_id -= 32;
  40102e:	3820      	subs	r0, #32
		if ((PMC->PMC_PCSR1 & (1u << ul_id)) != (1u << ul_id)) {
  401030:	4b0a      	ldr	r3, [pc, #40]	; (40105c <pmc_enable_periph_clk+0x50>)
  401032:	f8d3 2108 	ldr.w	r2, [r3, #264]	; 0x108
  401036:	2301      	movs	r3, #1
  401038:	4083      	lsls	r3, r0
  40103a:	4393      	bics	r3, r2
  40103c:	d00b      	beq.n	401056 <pmc_enable_periph_clk+0x4a>
			PMC->PMC_PCER1 = 1 << ul_id;
  40103e:	2301      	movs	r3, #1
  401040:	fa03 f000 	lsl.w	r0, r3, r0
  401044:	4b05      	ldr	r3, [pc, #20]	; (40105c <pmc_enable_periph_clk+0x50>)
  401046:	f8c3 0100 	str.w	r0, [r3, #256]	; 0x100
	return 0;
  40104a:	2000      	movs	r0, #0
  40104c:	4770      	bx	lr
		return 1;
  40104e:	2001      	movs	r0, #1
  401050:	4770      	bx	lr
	return 0;
  401052:	2000      	movs	r0, #0
  401054:	4770      	bx	lr
  401056:	2000      	movs	r0, #0
}
  401058:	4770      	bx	lr
  40105a:	bf00      	nop
  40105c:	400e0600 	.word	0x400e0600

00401060 <Dummy_Handler>:

/**
 * \brief Default interrupt handler for unused IRQs.
 */
void Dummy_Handler(void)
{
  401060:	e7fe      	b.n	401060 <Dummy_Handler>
	...

00401064 <Reset_Handler>:
{
  401064:	b500      	push	{lr}
  401066:	b083      	sub	sp, #12
        if (pSrc != pDest) {
  401068:	4b25      	ldr	r3, [pc, #148]	; (401100 <Reset_Handler+0x9c>)
  40106a:	4a26      	ldr	r2, [pc, #152]	; (401104 <Reset_Handler+0xa0>)
  40106c:	429a      	cmp	r2, r3
  40106e:	d010      	beq.n	401092 <Reset_Handler+0x2e>
                for (; pDest < &_erelocate;) {
  401070:	4b25      	ldr	r3, [pc, #148]	; (401108 <Reset_Handler+0xa4>)
  401072:	4a23      	ldr	r2, [pc, #140]	; (401100 <Reset_Handler+0x9c>)
  401074:	429a      	cmp	r2, r3
  401076:	d20c      	bcs.n	401092 <Reset_Handler+0x2e>
  401078:	3b01      	subs	r3, #1
  40107a:	1a9b      	subs	r3, r3, r2
  40107c:	f023 0303 	bic.w	r3, r3, #3
  401080:	3304      	adds	r3, #4
  401082:	4413      	add	r3, r2
  401084:	491f      	ldr	r1, [pc, #124]	; (401104 <Reset_Handler+0xa0>)
                        *pDest++ = *pSrc++;
  401086:	f851 0b04 	ldr.w	r0, [r1], #4
  40108a:	f842 0b04 	str.w	r0, [r2], #4
                for (; pDest < &_erelocate;) {
  40108e:	429a      	cmp	r2, r3
  401090:	d1f9      	bne.n	401086 <Reset_Handler+0x22>
        for (pDest = &_szero; pDest < &_ezero;) {
  401092:	4b1e      	ldr	r3, [pc, #120]	; (40110c <Reset_Handler+0xa8>)
  401094:	4a1e      	ldr	r2, [pc, #120]	; (401110 <Reset_Handler+0xac>)
  401096:	429a      	cmp	r2, r3
  401098:	d20a      	bcs.n	4010b0 <Reset_Handler+0x4c>
  40109a:	3b01      	subs	r3, #1
  40109c:	1a9b      	subs	r3, r3, r2
  40109e:	f023 0303 	bic.w	r3, r3, #3
  4010a2:	3304      	adds	r3, #4
  4010a4:	4413      	add	r3, r2
                *pDest++ = 0;
  4010a6:	2100      	movs	r1, #0
  4010a8:	f842 1b04 	str.w	r1, [r2], #4
        for (pDest = &_szero; pDest < &_ezero;) {
  4010ac:	4293      	cmp	r3, r2
  4010ae:	d1fb      	bne.n	4010a8 <Reset_Handler+0x44>
        SCB->VTOR = ((uint32_t) pSrc & SCB_VTOR_TBLOFF_Msk);
  4010b0:	4a18      	ldr	r2, [pc, #96]	; (401114 <Reset_Handler+0xb0>)
  4010b2:	4b19      	ldr	r3, [pc, #100]	; (401118 <Reset_Handler+0xb4>)
  4010b4:	f023 037f 	bic.w	r3, r3, #127	; 0x7f
  4010b8:	6093      	str	r3, [r2, #8]
 */
__attribute__( ( always_inline ) ) __STATIC_INLINE uint32_t __get_PRIMASK(void)
{
  uint32_t result;

  __ASM volatile ("MRS %0, primask" : "=r" (result) );
  4010ba:	f3ef 8310 	mrs	r3, PRIMASK
static volatile uint32_t cpu_irq_critical_section_counter;
static volatile bool     cpu_irq_prev_interrupt_state;

static inline irqflags_t cpu_irq_save(void)
{
	volatile irqflags_t flags = cpu_irq_is_enabled();
  4010be:	fab3 f383 	clz	r3, r3
  4010c2:	095b      	lsrs	r3, r3, #5
  4010c4:	9301      	str	r3, [sp, #4]
  __ASM volatile ("cpsid i" : : : "memory");
  4010c6:	b672      	cpsid	i
  __ASM volatile ("dmb");
  4010c8:	f3bf 8f5f 	dmb	sy
	cpu_irq_disable();
  4010cc:	2200      	movs	r2, #0
  4010ce:	4b13      	ldr	r3, [pc, #76]	; (40111c <Reset_Handler+0xb8>)
  4010d0:	701a      	strb	r2, [r3, #0]
	return flags;
  4010d2:	9901      	ldr	r1, [sp, #4]
 */
__always_inline static void fpu_enable(void)
{
	irqflags_t flags;
	flags = cpu_irq_save();
	REG_CPACR |=  (0xFu << 20);
  4010d4:	4a12      	ldr	r2, [pc, #72]	; (401120 <Reset_Handler+0xbc>)
  4010d6:	6813      	ldr	r3, [r2, #0]
  4010d8:	f443 0370 	orr.w	r3, r3, #15728640	; 0xf00000
  4010dc:	6013      	str	r3, [r2, #0]
  __ASM volatile ("dsb");
  4010de:	f3bf 8f4f 	dsb	sy
  __ASM volatile ("isb");
  4010e2:	f3bf 8f6f 	isb	sy
	return (flags);
}

static inline void cpu_irq_restore(irqflags_t flags)
{
	if (cpu_irq_is_enabled_flags(flags))
  4010e6:	b129      	cbz	r1, 4010f4 <Reset_Handler+0x90>
		cpu_irq_enable();
  4010e8:	2201      	movs	r2, #1
  4010ea:	4b0c      	ldr	r3, [pc, #48]	; (40111c <Reset_Handler+0xb8>)
  4010ec:	701a      	strb	r2, [r3, #0]
  __ASM volatile ("dmb");
  4010ee:	f3bf 8f5f 	dmb	sy
  __ASM volatile ("cpsie i" : : : "memory");
  4010f2:	b662      	cpsie	i
        __libc_init_array();
  4010f4:	4b0b      	ldr	r3, [pc, #44]	; (401124 <Reset_Handler+0xc0>)
  4010f6:	4798      	blx	r3
        main();
  4010f8:	4b0b      	ldr	r3, [pc, #44]	; (401128 <Reset_Handler+0xc4>)
  4010fa:	4798      	blx	r3
  4010fc:	e7fe      	b.n	4010fc <Reset_Handler+0x98>
  4010fe:	bf00      	nop
  401100:	20400000 	.word	0x20400000
  401104:	0040729c 	.word	0x0040729c
  401108:	204009d0 	.word	0x204009d0
  40110c:	20400ccc 	.word	0x20400ccc
  401110:	204009d0 	.word	0x204009d0
  401114:	e000ed00 	.word	0xe000ed00
  401118:	00400000 	.word	0x00400000
  40111c:	20400018 	.word	0x20400018
  401120:	e000ed88 	.word	0xe000ed88
  401124:	0040162d 	.word	0x0040162d
  401128:	00401525 	.word	0x00401525

0040112c <SystemCoreClockUpdate>:
}

void SystemCoreClockUpdate( void )
{
  /* Determine clock frequency according to clock register values */
  switch (PMC->PMC_MCKR & (uint32_t) PMC_MCKR_CSS_Msk)
  40112c:	4b3b      	ldr	r3, [pc, #236]	; (40121c <SystemCoreClockUpdate+0xf0>)
  40112e:	6b1b      	ldr	r3, [r3, #48]	; 0x30
  401130:	f003 0303 	and.w	r3, r3, #3
  401134:	2b01      	cmp	r3, #1
  401136:	d01d      	beq.n	401174 <SystemCoreClockUpdate+0x48>
  401138:	b183      	cbz	r3, 40115c <SystemCoreClockUpdate+0x30>
  40113a:	2b02      	cmp	r3, #2
  40113c:	d036      	beq.n	4011ac <SystemCoreClockUpdate+0x80>

    default:
    break;
  }

  if ( (PMC->PMC_MCKR & PMC_MCKR_PRES_Msk) == PMC_MCKR_PRES_CLK_3 )
  40113e:	4b37      	ldr	r3, [pc, #220]	; (40121c <SystemCoreClockUpdate+0xf0>)
  401140:	6b1b      	ldr	r3, [r3, #48]	; 0x30
  401142:	f003 0370 	and.w	r3, r3, #112	; 0x70
  401146:	2b70      	cmp	r3, #112	; 0x70
  401148:	d05f      	beq.n	40120a <SystemCoreClockUpdate+0xde>
  {
    SystemCoreClock /= 3U;
  }
  else
  {
    SystemCoreClock >>= ((PMC->PMC_MCKR & PMC_MCKR_PRES_Msk) >> PMC_MCKR_PRES_Pos);
  40114a:	4b34      	ldr	r3, [pc, #208]	; (40121c <SystemCoreClockUpdate+0xf0>)
  40114c:	6b1a      	ldr	r2, [r3, #48]	; 0x30
  40114e:	4934      	ldr	r1, [pc, #208]	; (401220 <SystemCoreClockUpdate+0xf4>)
  401150:	f3c2 1202 	ubfx	r2, r2, #4, #3
  401154:	680b      	ldr	r3, [r1, #0]
  401156:	40d3      	lsrs	r3, r2
  401158:	600b      	str	r3, [r1, #0]
  40115a:	4770      	bx	lr
      if ( SUPC->SUPC_SR & SUPC_SR_OSCSEL )
  40115c:	4b31      	ldr	r3, [pc, #196]	; (401224 <SystemCoreClockUpdate+0xf8>)
  40115e:	695b      	ldr	r3, [r3, #20]
  401160:	f013 0f80 	tst.w	r3, #128	; 0x80
        SystemCoreClock = CHIP_FREQ_XTAL_32K;
  401164:	bf14      	ite	ne
  401166:	f44f 4200 	movne.w	r2, #32768	; 0x8000
        SystemCoreClock = CHIP_FREQ_SLCK_RC;
  40116a:	f44f 42fa 	moveq.w	r2, #32000	; 0x7d00
  40116e:	4b2c      	ldr	r3, [pc, #176]	; (401220 <SystemCoreClockUpdate+0xf4>)
  401170:	601a      	str	r2, [r3, #0]
  401172:	e7e4      	b.n	40113e <SystemCoreClockUpdate+0x12>
      if ( PMC->CKGR_MOR & CKGR_MOR_MOSCSEL )
  401174:	4b29      	ldr	r3, [pc, #164]	; (40121c <SystemCoreClockUpdate+0xf0>)
  401176:	6a1b      	ldr	r3, [r3, #32]
  401178:	f013 7f80 	tst.w	r3, #16777216	; 0x1000000
  40117c:	d003      	beq.n	401186 <SystemCoreClockUpdate+0x5a>
        SystemCoreClock = CHIP_FREQ_XTAL_12M;
  40117e:	4a2a      	ldr	r2, [pc, #168]	; (401228 <SystemCoreClockUpdate+0xfc>)
  401180:	4b27      	ldr	r3, [pc, #156]	; (401220 <SystemCoreClockUpdate+0xf4>)
  401182:	601a      	str	r2, [r3, #0]
  401184:	e7db      	b.n	40113e <SystemCoreClockUpdate+0x12>
        SystemCoreClock = CHIP_FREQ_MAINCK_RC_4MHZ;
  401186:	4a29      	ldr	r2, [pc, #164]	; (40122c <SystemCoreClockUpdate+0x100>)
  401188:	4b25      	ldr	r3, [pc, #148]	; (401220 <SystemCoreClockUpdate+0xf4>)
  40118a:	601a      	str	r2, [r3, #0]
        switch ( PMC->CKGR_MOR & CKGR_MOR_MOSCRCF_Msk )
  40118c:	4b23      	ldr	r3, [pc, #140]	; (40121c <SystemCoreClockUpdate+0xf0>)
  40118e:	6a1b      	ldr	r3, [r3, #32]
  401190:	f003 0370 	and.w	r3, r3, #112	; 0x70
  401194:	2b10      	cmp	r3, #16
  401196:	d005      	beq.n	4011a4 <SystemCoreClockUpdate+0x78>
  401198:	2b20      	cmp	r3, #32
  40119a:	d1d0      	bne.n	40113e <SystemCoreClockUpdate+0x12>
            SystemCoreClock *= 3U;
  40119c:	4a22      	ldr	r2, [pc, #136]	; (401228 <SystemCoreClockUpdate+0xfc>)
  40119e:	4b20      	ldr	r3, [pc, #128]	; (401220 <SystemCoreClockUpdate+0xf4>)
  4011a0:	601a      	str	r2, [r3, #0]
          break;
  4011a2:	e7cc      	b.n	40113e <SystemCoreClockUpdate+0x12>
            SystemCoreClock *= 2U;
  4011a4:	4a22      	ldr	r2, [pc, #136]	; (401230 <SystemCoreClockUpdate+0x104>)
  4011a6:	4b1e      	ldr	r3, [pc, #120]	; (401220 <SystemCoreClockUpdate+0xf4>)
  4011a8:	601a      	str	r2, [r3, #0]
          break;
  4011aa:	e7c8      	b.n	40113e <SystemCoreClockUpdate+0x12>
      if ( PMC->CKGR_MOR & CKGR_MOR_MOSCSEL )
  4011ac:	4b1b      	ldr	r3, [pc, #108]	; (40121c <SystemCoreClockUpdate+0xf0>)
  4011ae:	6a1b      	ldr	r3, [r3, #32]
  4011b0:	f013 7f80 	tst.w	r3, #16777216	; 0x1000000
  4011b4:	d016      	beq.n	4011e4 <SystemCoreClockUpdate+0xb8>
        SystemCoreClock = CHIP_FREQ_XTAL_12M ;
  4011b6:	4a1c      	ldr	r2, [pc, #112]	; (401228 <SystemCoreClockUpdate+0xfc>)
  4011b8:	4b19      	ldr	r3, [pc, #100]	; (401220 <SystemCoreClockUpdate+0xf4>)
  4011ba:	601a      	str	r2, [r3, #0]
      if ( (uint32_t) (PMC->PMC_MCKR & (uint32_t) PMC_MCKR_CSS_Msk) == PMC_MCKR_CSS_PLLA_CLK )
  4011bc:	4b17      	ldr	r3, [pc, #92]	; (40121c <SystemCoreClockUpdate+0xf0>)
  4011be:	6b1b      	ldr	r3, [r3, #48]	; 0x30
  4011c0:	f003 0303 	and.w	r3, r3, #3
  4011c4:	2b02      	cmp	r3, #2
  4011c6:	d1ba      	bne.n	40113e <SystemCoreClockUpdate+0x12>
        SystemCoreClock *= ((((PMC->CKGR_PLLAR) & CKGR_PLLAR_MULA_Msk) >> CKGR_PLLAR_MULA_Pos) + 1U);
  4011c8:	4a14      	ldr	r2, [pc, #80]	; (40121c <SystemCoreClockUpdate+0xf0>)
  4011ca:	6a91      	ldr	r1, [r2, #40]	; 0x28
        SystemCoreClock /= ((((PMC->CKGR_PLLAR) & CKGR_PLLAR_DIVA_Msk) >> CKGR_PLLAR_DIVA_Pos));
  4011cc:	6a92      	ldr	r2, [r2, #40]	; 0x28
  4011ce:	4814      	ldr	r0, [pc, #80]	; (401220 <SystemCoreClockUpdate+0xf4>)
        SystemCoreClock *= ((((PMC->CKGR_PLLAR) & CKGR_PLLAR_MULA_Msk) >> CKGR_PLLAR_MULA_Pos) + 1U);
  4011d0:	f3c1 410a 	ubfx	r1, r1, #16, #11
  4011d4:	6803      	ldr	r3, [r0, #0]
  4011d6:	fb01 3303 	mla	r3, r1, r3, r3
        SystemCoreClock /= ((((PMC->CKGR_PLLAR) & CKGR_PLLAR_DIVA_Msk) >> CKGR_PLLAR_DIVA_Pos));
  4011da:	b2d2      	uxtb	r2, r2
  4011dc:	fbb3 f3f2 	udiv	r3, r3, r2
  4011e0:	6003      	str	r3, [r0, #0]
  4011e2:	e7ac      	b.n	40113e <SystemCoreClockUpdate+0x12>
        SystemCoreClock = CHIP_FREQ_MAINCK_RC_4MHZ;
  4011e4:	4a11      	ldr	r2, [pc, #68]	; (40122c <SystemCoreClockUpdate+0x100>)
  4011e6:	4b0e      	ldr	r3, [pc, #56]	; (401220 <SystemCoreClockUpdate+0xf4>)
  4011e8:	601a      	str	r2, [r3, #0]
        switch ( PMC->CKGR_MOR & CKGR_MOR_MOSCRCF_Msk )
  4011ea:	4b0c      	ldr	r3, [pc, #48]	; (40121c <SystemCoreClockUpdate+0xf0>)
  4011ec:	6a1b      	ldr	r3, [r3, #32]
  4011ee:	f003 0370 	and.w	r3, r3, #112	; 0x70
  4011f2:	2b10      	cmp	r3, #16
  4011f4:	d005      	beq.n	401202 <SystemCoreClockUpdate+0xd6>
  4011f6:	2b20      	cmp	r3, #32
  4011f8:	d1e0      	bne.n	4011bc <SystemCoreClockUpdate+0x90>
            SystemCoreClock *= 3U;
  4011fa:	4a0b      	ldr	r2, [pc, #44]	; (401228 <SystemCoreClockUpdate+0xfc>)
  4011fc:	4b08      	ldr	r3, [pc, #32]	; (401220 <SystemCoreClockUpdate+0xf4>)
  4011fe:	601a      	str	r2, [r3, #0]
          break;
  401200:	e7dc      	b.n	4011bc <SystemCoreClockUpdate+0x90>
            SystemCoreClock *= 2U;
  401202:	4a0b      	ldr	r2, [pc, #44]	; (401230 <SystemCoreClockUpdate+0x104>)
  401204:	4b06      	ldr	r3, [pc, #24]	; (401220 <SystemCoreClockUpdate+0xf4>)
  401206:	601a      	str	r2, [r3, #0]
          break;
  401208:	e7d8      	b.n	4011bc <SystemCoreClockUpdate+0x90>
    SystemCoreClock /= 3U;
  40120a:	4a05      	ldr	r2, [pc, #20]	; (401220 <SystemCoreClockUpdate+0xf4>)
  40120c:	6813      	ldr	r3, [r2, #0]
  40120e:	4909      	ldr	r1, [pc, #36]	; (401234 <SystemCoreClockUpdate+0x108>)
  401210:	fba1 1303 	umull	r1, r3, r1, r3
  401214:	085b      	lsrs	r3, r3, #1
  401216:	6013      	str	r3, [r2, #0]
  401218:	4770      	bx	lr
  40121a:	bf00      	nop
  40121c:	400e0600 	.word	0x400e0600
  401220:	2040001c 	.word	0x2040001c
  401224:	400e1810 	.word	0x400e1810
  401228:	00b71b00 	.word	0x00b71b00
  40122c:	003d0900 	.word	0x003d0900
  401230:	007a1200 	.word	0x007a1200
  401234:	aaaaaaab 	.word	0xaaaaaaab

00401238 <system_init_flash>:
 * Initialize flash.
 */
void system_init_flash( uint32_t ul_clk )
{
  /* Set FWS for embedded Flash access according to operating frequency */
  if ( ul_clk < CHIP_FREQ_FWS_0 )
  401238:	4b16      	ldr	r3, [pc, #88]	; (401294 <system_init_flash+0x5c>)
  40123a:	4298      	cmp	r0, r3
  40123c:	d913      	bls.n	401266 <system_init_flash+0x2e>
  {
    EFC->EEFC_FMR = EEFC_FMR_FWS(0)|EEFC_FMR_CLOE;
  }
  else
  {
    if (ul_clk < CHIP_FREQ_FWS_1)
  40123e:	4b16      	ldr	r3, [pc, #88]	; (401298 <system_init_flash+0x60>)
  401240:	4298      	cmp	r0, r3
  401242:	d915      	bls.n	401270 <system_init_flash+0x38>
    {
      EFC->EEFC_FMR = EEFC_FMR_FWS(1)|EEFC_FMR_CLOE;
    }
    else
    {
      if (ul_clk < CHIP_FREQ_FWS_2)
  401244:	4b15      	ldr	r3, [pc, #84]	; (40129c <system_init_flash+0x64>)
  401246:	4298      	cmp	r0, r3
  401248:	d916      	bls.n	401278 <system_init_flash+0x40>
      {
        EFC->EEFC_FMR = EEFC_FMR_FWS(2)|EEFC_FMR_CLOE;
      }
      else
      {
        if ( ul_clk < CHIP_FREQ_FWS_3 )
  40124a:	4b15      	ldr	r3, [pc, #84]	; (4012a0 <system_init_flash+0x68>)
  40124c:	4298      	cmp	r0, r3
  40124e:	d917      	bls.n	401280 <system_init_flash+0x48>
        {
          EFC->EEFC_FMR = EEFC_FMR_FWS(3)|EEFC_FMR_CLOE;
        }
        else
        {
          if ( ul_clk < CHIP_FREQ_FWS_4 )
  401250:	4b14      	ldr	r3, [pc, #80]	; (4012a4 <system_init_flash+0x6c>)
  401252:	4298      	cmp	r0, r3
  401254:	d918      	bls.n	401288 <system_init_flash+0x50>
          {
            EFC->EEFC_FMR = EEFC_FMR_FWS(4)|EEFC_FMR_CLOE;
          }
          else
          {
            if ( ul_clk < CHIP_FREQ_FWS_5 )
  401256:	4b14      	ldr	r3, [pc, #80]	; (4012a8 <system_init_flash+0x70>)
  401258:	4298      	cmp	r0, r3
            {
              EFC->EEFC_FMR = EEFC_FMR_FWS(5)|EEFC_FMR_CLOE;
  40125a:	bf94      	ite	ls
  40125c:	4a13      	ldrls	r2, [pc, #76]	; (4012ac <system_init_flash+0x74>)
            }
            else
            {
              EFC->EEFC_FMR = EEFC_FMR_FWS(6)|EEFC_FMR_CLOE;
  40125e:	4a14      	ldrhi	r2, [pc, #80]	; (4012b0 <system_init_flash+0x78>)
  401260:	4b14      	ldr	r3, [pc, #80]	; (4012b4 <system_init_flash+0x7c>)
  401262:	601a      	str	r2, [r3, #0]
  401264:	4770      	bx	lr
    EFC->EEFC_FMR = EEFC_FMR_FWS(0)|EEFC_FMR_CLOE;
  401266:	f04f 6280 	mov.w	r2, #67108864	; 0x4000000
  40126a:	4b12      	ldr	r3, [pc, #72]	; (4012b4 <system_init_flash+0x7c>)
  40126c:	601a      	str	r2, [r3, #0]
  40126e:	4770      	bx	lr
      EFC->EEFC_FMR = EEFC_FMR_FWS(1)|EEFC_FMR_CLOE;
  401270:	4a11      	ldr	r2, [pc, #68]	; (4012b8 <system_init_flash+0x80>)
  401272:	4b10      	ldr	r3, [pc, #64]	; (4012b4 <system_init_flash+0x7c>)
  401274:	601a      	str	r2, [r3, #0]
  401276:	4770      	bx	lr
        EFC->EEFC_FMR = EEFC_FMR_FWS(2)|EEFC_FMR_CLOE;
  401278:	4a10      	ldr	r2, [pc, #64]	; (4012bc <system_init_flash+0x84>)
  40127a:	4b0e      	ldr	r3, [pc, #56]	; (4012b4 <system_init_flash+0x7c>)
  40127c:	601a      	str	r2, [r3, #0]
  40127e:	4770      	bx	lr
          EFC->EEFC_FMR = EEFC_FMR_FWS(3)|EEFC_FMR_CLOE;
  401280:	4a0f      	ldr	r2, [pc, #60]	; (4012c0 <system_init_flash+0x88>)
  401282:	4b0c      	ldr	r3, [pc, #48]	; (4012b4 <system_init_flash+0x7c>)
  401284:	601a      	str	r2, [r3, #0]
  401286:	4770      	bx	lr
            EFC->EEFC_FMR = EEFC_FMR_FWS(4)|EEFC_FMR_CLOE;
  401288:	f04f 2204 	mov.w	r2, #67109888	; 0x4000400
  40128c:	4b09      	ldr	r3, [pc, #36]	; (4012b4 <system_init_flash+0x7c>)
  40128e:	601a      	str	r2, [r3, #0]
  401290:	4770      	bx	lr
  401292:	bf00      	nop
  401294:	015ef3bf 	.word	0x015ef3bf
  401298:	02bde77f 	.word	0x02bde77f
  40129c:	041cdb3f 	.word	0x041cdb3f
  4012a0:	057bceff 	.word	0x057bceff
  4012a4:	06dac2bf 	.word	0x06dac2bf
  4012a8:	0839b67f 	.word	0x0839b67f
  4012ac:	04000500 	.word	0x04000500
  4012b0:	04000600 	.word	0x04000600
  4012b4:	400e0c00 	.word	0x400e0c00
  4012b8:	04000100 	.word	0x04000100
  4012bc:	04000200 	.word	0x04000200
  4012c0:	04000300 	.word	0x04000300

004012c4 <_sbrk>:
{
	static unsigned char *heap = NULL;
	unsigned char *prev_heap;
	int ramend = (int)&__ram_end__;

	if (heap == NULL) {
  4012c4:	4b0a      	ldr	r3, [pc, #40]	; (4012f0 <_sbrk+0x2c>)
  4012c6:	681b      	ldr	r3, [r3, #0]
  4012c8:	b153      	cbz	r3, 4012e0 <_sbrk+0x1c>
		heap = (unsigned char *)&_end;
	}
	prev_heap = heap;
  4012ca:	4b09      	ldr	r3, [pc, #36]	; (4012f0 <_sbrk+0x2c>)
  4012cc:	681b      	ldr	r3, [r3, #0]

	if (((int)prev_heap + incr) > ramend) {
  4012ce:	181a      	adds	r2, r3, r0
  4012d0:	4908      	ldr	r1, [pc, #32]	; (4012f4 <_sbrk+0x30>)
  4012d2:	4291      	cmp	r1, r2
  4012d4:	db08      	blt.n	4012e8 <_sbrk+0x24>
		return (caddr_t) -1;	
	}

	heap += incr;
  4012d6:	4610      	mov	r0, r2
  4012d8:	4a05      	ldr	r2, [pc, #20]	; (4012f0 <_sbrk+0x2c>)
  4012da:	6010      	str	r0, [r2, #0]

	return (caddr_t) prev_heap;
  4012dc:	4618      	mov	r0, r3
  4012de:	4770      	bx	lr
		heap = (unsigned char *)&_end;
  4012e0:	4a05      	ldr	r2, [pc, #20]	; (4012f8 <_sbrk+0x34>)
  4012e2:	4b03      	ldr	r3, [pc, #12]	; (4012f0 <_sbrk+0x2c>)
  4012e4:	601a      	str	r2, [r3, #0]
  4012e6:	e7f0      	b.n	4012ca <_sbrk+0x6>
		return (caddr_t) -1;	
  4012e8:	f04f 30ff 	mov.w	r0, #4294967295
}
  4012ec:	4770      	bx	lr
  4012ee:	bf00      	nop
  4012f0:	20400c64 	.word	0x20400c64
  4012f4:	2045fffc 	.word	0x2045fffc
  4012f8:	20402ed0 	.word	0x20402ed0

004012fc <RTC_Handler>:

/**
* \brief Interrupt handler for the RTC. Refresh the display.
*/
void RTC_Handler(void)
{
  4012fc:	b530      	push	{r4, r5, lr}
  4012fe:	b089      	sub	sp, #36	; 0x24
	uint32_t ul_status = rtc_get_status(RTC);
  401300:	482e      	ldr	r0, [pc, #184]	; (4013bc <RTC_Handler+0xc0>)
  401302:	4b2f      	ldr	r3, [pc, #188]	; (4013c0 <RTC_Handler+0xc4>)
  401304:	4798      	blx	r3
  401306:	4604      	mov	r4, r0
	/*
	*  Verifica por qual motivo entrou
	*  na interrupcao, se foi por segundo
	*  ou Alarm
	*/
	if ((ul_status & RTC_SR_SEC) == RTC_SR_SEC) {
  401308:	f010 0f04 	tst.w	r0, #4
  40130c:	d112      	bne.n	401334 <RTC_Handler+0x38>
		rtc_clear_status(RTC, RTC_SCCR_SECCLR);
	}
	
	/* Time or date alarm */
	if ((ul_status & RTC_SR_ALARM) == RTC_SR_ALARM) {
  40130e:	f014 0f02 	tst.w	r4, #2
  401312:	d114      	bne.n	40133e <RTC_Handler+0x42>
				
			rtc_set_time_alarm(RTC, 1, h, 1, m+1, 1, s);
	
	}
	
	rtc_clear_status(RTC, RTC_SCCR_ACKCLR);
  401314:	4d29      	ldr	r5, [pc, #164]	; (4013bc <RTC_Handler+0xc0>)
  401316:	2101      	movs	r1, #1
  401318:	4628      	mov	r0, r5
  40131a:	4c2a      	ldr	r4, [pc, #168]	; (4013c4 <RTC_Handler+0xc8>)
  40131c:	47a0      	blx	r4
	rtc_clear_status(RTC, RTC_SCCR_TIMCLR);
  40131e:	2108      	movs	r1, #8
  401320:	4628      	mov	r0, r5
  401322:	47a0      	blx	r4
	rtc_clear_status(RTC, RTC_SCCR_CALCLR);
  401324:	2110      	movs	r1, #16
  401326:	4628      	mov	r0, r5
  401328:	47a0      	blx	r4
	rtc_clear_status(RTC, RTC_SCCR_TDERRCLR);
  40132a:	2120      	movs	r1, #32
  40132c:	4628      	mov	r0, r5
  40132e:	47a0      	blx	r4
	
}
  401330:	b009      	add	sp, #36	; 0x24
  401332:	bd30      	pop	{r4, r5, pc}
		rtc_clear_status(RTC, RTC_SCCR_SECCLR);
  401334:	2104      	movs	r1, #4
  401336:	4821      	ldr	r0, [pc, #132]	; (4013bc <RTC_Handler+0xc0>)
  401338:	4b22      	ldr	r3, [pc, #136]	; (4013c4 <RTC_Handler+0xc8>)
  40133a:	4798      	blx	r3
  40133c:	e7e7      	b.n	40130e <RTC_Handler+0x12>
			rtc_clear_status(RTC, RTC_SCCR_ALRCLR);
  40133e:	4c1f      	ldr	r4, [pc, #124]	; (4013bc <RTC_Handler+0xc0>)
  401340:	2102      	movs	r1, #2
  401342:	4620      	mov	r0, r4
  401344:	4b1f      	ldr	r3, [pc, #124]	; (4013c4 <RTC_Handler+0xc8>)
  401346:	4798      	blx	r3
			rtc_get_time(RTC, &h, &m, &s);
  401348:	ab07      	add	r3, sp, #28
  40134a:	aa06      	add	r2, sp, #24
  40134c:	a905      	add	r1, sp, #20
  40134e:	4620      	mov	r0, r4
  401350:	4c1d      	ldr	r4, [pc, #116]	; (4013c8 <RTC_Handler+0xcc>)
  401352:	47a0      	blx	r4
			if(h == 23 && m == 59){ //modo 24 horas
  401354:	9b05      	ldr	r3, [sp, #20]
  401356:	2b17      	cmp	r3, #23
  401358:	d01d      	beq.n	401396 <RTC_Handler+0x9a>
			} else if(m == 59){ // como vai disparar o alarme sempre em m+1, m tem que ser -1 caso a hora v virar, para disparar em h:00
  40135a:	9a06      	ldr	r2, [sp, #24]
  40135c:	2a3b      	cmp	r2, #59	; 0x3b
  40135e:	d023      	beq.n	4013a8 <RTC_Handler+0xac>
			if (counter_alarm > 0){
  401360:	4b1a      	ldr	r3, [pc, #104]	; (4013cc <RTC_Handler+0xd0>)
  401362:	681b      	ldr	r3, [r3, #0]
  401364:	2b00      	cmp	r3, #0
  401366:	dd03      	ble.n	401370 <RTC_Handler+0x74>
				counter_alarm -= 1;
  401368:	4a18      	ldr	r2, [pc, #96]	; (4013cc <RTC_Handler+0xd0>)
  40136a:	6813      	ldr	r3, [r2, #0]
  40136c:	3b01      	subs	r3, #1
  40136e:	6013      	str	r3, [r2, #0]
			} if (counter_alarm == 0) {
  401370:	4b16      	ldr	r3, [pc, #88]	; (4013cc <RTC_Handler+0xd0>)
  401372:	681b      	ldr	r3, [r3, #0]
  401374:	b9f3      	cbnz	r3, 4013b4 <RTC_Handler+0xb8>
				flag_alarm = 1;
  401376:	2201      	movs	r2, #1
  401378:	4b15      	ldr	r3, [pc, #84]	; (4013d0 <RTC_Handler+0xd4>)
  40137a:	701a      	strb	r2, [r3, #0]
			rtc_set_time_alarm(RTC, 1, h, 1, m+1, 1, s);
  40137c:	9b07      	ldr	r3, [sp, #28]
  40137e:	9302      	str	r3, [sp, #8]
  401380:	2101      	movs	r1, #1
  401382:	9101      	str	r1, [sp, #4]
  401384:	9b06      	ldr	r3, [sp, #24]
  401386:	440b      	add	r3, r1
  401388:	9300      	str	r3, [sp, #0]
  40138a:	460b      	mov	r3, r1
  40138c:	9a05      	ldr	r2, [sp, #20]
  40138e:	480b      	ldr	r0, [pc, #44]	; (4013bc <RTC_Handler+0xc0>)
  401390:	4c10      	ldr	r4, [pc, #64]	; (4013d4 <RTC_Handler+0xd8>)
  401392:	47a0      	blx	r4
  401394:	e7be      	b.n	401314 <RTC_Handler+0x18>
			if(h == 23 && m == 59){ //modo 24 horas
  401396:	9b06      	ldr	r3, [sp, #24]
  401398:	2b3b      	cmp	r3, #59	; 0x3b
  40139a:	d1e1      	bne.n	401360 <RTC_Handler+0x64>
				m = -1;
  40139c:	f04f 33ff 	mov.w	r3, #4294967295
  4013a0:	9306      	str	r3, [sp, #24]
				h += 1;
  4013a2:	2300      	movs	r3, #0
  4013a4:	9305      	str	r3, [sp, #20]
  4013a6:	e7db      	b.n	401360 <RTC_Handler+0x64>
				m = -1;
  4013a8:	f04f 32ff 	mov.w	r2, #4294967295
  4013ac:	9206      	str	r2, [sp, #24]
				h += 1;
  4013ae:	3301      	adds	r3, #1
  4013b0:	9305      	str	r3, [sp, #20]
  4013b2:	e7d5      	b.n	401360 <RTC_Handler+0x64>
				counter_alarm = 0;
  4013b4:	2200      	movs	r2, #0
  4013b6:	4b05      	ldr	r3, [pc, #20]	; (4013cc <RTC_Handler+0xd0>)
  4013b8:	601a      	str	r2, [r3, #0]
  4013ba:	e7df      	b.n	40137c <RTC_Handler+0x80>
  4013bc:	400e1860 	.word	0x400e1860
  4013c0:	00400345 	.word	0x00400345
  4013c4:	00400349 	.word	0x00400349
  4013c8:	004001c7 	.word	0x004001c7
  4013cc:	20400c68 	.word	0x20400c68
  4013d0:	20400c6c 	.word	0x20400c6c
  4013d4:	004002b1 	.word	0x004002b1

004013d8 <pin_toggle>:
/************************************************************************/

/**
*  Toggle pin controlado pelo PIO (out)
*/
void pin_toggle(Pio *pio, uint32_t mask){
  4013d8:	b538      	push	{r3, r4, r5, lr}
  4013da:	4604      	mov	r4, r0
  4013dc:	460d      	mov	r5, r1
	if(pio_get_output_data_status(pio, mask))
  4013de:	4b06      	ldr	r3, [pc, #24]	; (4013f8 <pin_toggle+0x20>)
  4013e0:	4798      	blx	r3
  4013e2:	b920      	cbnz	r0, 4013ee <pin_toggle+0x16>
	pio_clear(pio, mask);
	else
	pio_set(pio,mask);
  4013e4:	4629      	mov	r1, r5
  4013e6:	4620      	mov	r0, r4
  4013e8:	4b04      	ldr	r3, [pc, #16]	; (4013fc <pin_toggle+0x24>)
  4013ea:	4798      	blx	r3
  4013ec:	bd38      	pop	{r3, r4, r5, pc}
	pio_clear(pio, mask);
  4013ee:	4629      	mov	r1, r5
  4013f0:	4620      	mov	r0, r4
  4013f2:	4b03      	ldr	r3, [pc, #12]	; (401400 <pin_toggle+0x28>)
  4013f4:	4798      	blx	r3
  4013f6:	bd38      	pop	{r3, r4, r5, pc}
  4013f8:	00400d7d 	.word	0x00400d7d
  4013fc:	00400bf5 	.word	0x00400bf5
  401400:	00400bf9 	.word	0x00400bf9

00401404 <Button1_Handler>:
static void Button1_Handler(uint32_t id, uint32_t mask){
  401404:	b508      	push	{r3, lr}
	counter_alarm += 1;
  401406:	4a05      	ldr	r2, [pc, #20]	; (40141c <Button1_Handler+0x18>)
  401408:	6813      	ldr	r3, [r2, #0]
  40140a:	3301      	adds	r3, #1
  40140c:	6013      	str	r3, [r2, #0]
	pin_toggle(LED2_PIO, LED2_PIN_MASK); //muda status do led2 pro usuario saber que o button1 foi apertado
  40140e:	f04f 4180 	mov.w	r1, #1073741824	; 0x40000000
  401412:	4803      	ldr	r0, [pc, #12]	; (401420 <Button1_Handler+0x1c>)
  401414:	4b03      	ldr	r3, [pc, #12]	; (401424 <Button1_Handler+0x20>)
  401416:	4798      	blx	r3
  401418:	bd08      	pop	{r3, pc}
  40141a:	bf00      	nop
  40141c:	20400c68 	.word	0x20400c68
  401420:	400e1200 	.word	0x400e1200
  401424:	004013d9 	.word	0x004013d9

00401428 <BUT_init>:
}

/**
* @Brief Inicializa o pino do BUT
*/
void BUT_init(void){
  401428:	b510      	push	{r4, lr}
  40142a:	b082      	sub	sp, #8
	pmc_enable_periph_clk(BUT1_PIO_ID);
  40142c:	2010      	movs	r0, #16
  40142e:	4b10      	ldr	r3, [pc, #64]	; (401470 <BUT_init+0x48>)
  401430:	4798      	blx	r3
	pio_set_input(BUT1_PIO, BUT1_PIN_MASK, PIO_PULLUP | PIO_DEBOUNCE);
  401432:	4c10      	ldr	r4, [pc, #64]	; (401474 <BUT_init+0x4c>)
  401434:	2209      	movs	r2, #9
  401436:	f04f 5180 	mov.w	r1, #268435456	; 0x10000000
  40143a:	4620      	mov	r0, r4
  40143c:	4b0e      	ldr	r3, [pc, #56]	; (401478 <BUT_init+0x50>)
  40143e:	4798      	blx	r3
		
	pio_enable_interrupt(BUT1_PIO, BUT1_PIN_MASK);
  401440:	f04f 5180 	mov.w	r1, #268435456	; 0x10000000
  401444:	4620      	mov	r0, r4
  401446:	4b0d      	ldr	r3, [pc, #52]	; (40147c <BUT_init+0x54>)
  401448:	4798      	blx	r3
	pio_handler_set(BUT1_PIO, BUT1_PIO_ID, BUT1_PIN_MASK, PIO_IT_FALL_EDGE, Button1_Handler);
  40144a:	4b0d      	ldr	r3, [pc, #52]	; (401480 <BUT_init+0x58>)
  40144c:	9300      	str	r3, [sp, #0]
  40144e:	2350      	movs	r3, #80	; 0x50
  401450:	f04f 5280 	mov.w	r2, #268435456	; 0x10000000
  401454:	2110      	movs	r1, #16
  401456:	4620      	mov	r0, r4
  401458:	4c0a      	ldr	r4, [pc, #40]	; (401484 <BUT_init+0x5c>)
  40145a:	47a0      	blx	r4
  NVIC->ISER[(uint32_t)((int32_t)IRQn) >> 5] = (uint32_t)(1 << ((uint32_t)((int32_t)IRQn) & (uint32_t)0x1F)); /* enable interrupt */
  40145c:	4b0a      	ldr	r3, [pc, #40]	; (401488 <BUT_init+0x60>)
  40145e:	f44f 3280 	mov.w	r2, #65536	; 0x10000
  401462:	601a      	str	r2, [r3, #0]
    NVIC->IP[(uint32_t)(IRQn)]            = ((priority << (8 - __NVIC_PRIO_BITS)) & 0xff); } /* set Priority for device specific Interrupts  */
  401464:	2220      	movs	r2, #32
  401466:	f883 2310 	strb.w	r2, [r3, #784]	; 0x310
		
	NVIC_EnableIRQ(BUT1_PIO_ID);
	NVIC_SetPriority(BUT1_PIO_ID, 1);
};
  40146a:	b002      	add	sp, #8
  40146c:	bd10      	pop	{r4, pc}
  40146e:	bf00      	nop
  401470:	0040100d 	.word	0x0040100d
  401474:	400e1400 	.word	0x400e1400
  401478:	00400c8f 	.word	0x00400c8f
  40147c:	00400dbb 	.word	0x00400dbb
  401480:	00401405 	.word	0x00401405
  401484:	00400e19 	.word	0x00400e19
  401488:	e000e100 	.word	0xe000e100

0040148c <LED_init>:

/**
* @Brief Inicializa o pino do LED
*/
void LED_init(int estado){
  40148c:	b5f0      	push	{r4, r5, r6, r7, lr}
  40148e:	b083      	sub	sp, #12
  401490:	4606      	mov	r6, r0
	
	pmc_enable_periph_clk(LED1_PIO_ID);
  401492:	200a      	movs	r0, #10
  401494:	4f0a      	ldr	r7, [pc, #40]	; (4014c0 <LED_init+0x34>)
  401496:	47b8      	blx	r7
	pio_set_output(LED1_PIO, LED1_PIN_MASK, estado, 0, 0 );
  401498:	2400      	movs	r4, #0
  40149a:	9400      	str	r4, [sp, #0]
  40149c:	4623      	mov	r3, r4
  40149e:	4632      	mov	r2, r6
  4014a0:	2101      	movs	r1, #1
  4014a2:	4808      	ldr	r0, [pc, #32]	; (4014c4 <LED_init+0x38>)
  4014a4:	4d08      	ldr	r5, [pc, #32]	; (4014c8 <LED_init+0x3c>)
  4014a6:	47a8      	blx	r5
	
	pmc_enable_periph_clk(LED2_PIO_ID);
  4014a8:	200c      	movs	r0, #12
  4014aa:	47b8      	blx	r7
	pio_set_output(LED2_PIO, LED2_PIN_MASK, estado, 0, 0 );
  4014ac:	9400      	str	r4, [sp, #0]
  4014ae:	4623      	mov	r3, r4
  4014b0:	4632      	mov	r2, r6
  4014b2:	f04f 4180 	mov.w	r1, #1073741824	; 0x40000000
  4014b6:	4805      	ldr	r0, [pc, #20]	; (4014cc <LED_init+0x40>)
  4014b8:	47a8      	blx	r5
};
  4014ba:	b003      	add	sp, #12
  4014bc:	bdf0      	pop	{r4, r5, r6, r7, pc}
  4014be:	bf00      	nop
  4014c0:	0040100d 	.word	0x0040100d
  4014c4:	400e0e00 	.word	0x400e0e00
  4014c8:	00400cc5 	.word	0x00400cc5
  4014cc:	400e1200 	.word	0x400e1200

004014d0 <RTC_init>:

/**
* Configura o RTC para funcionar com interrupcao de alarme
*/
void RTC_init(){
  4014d0:	b538      	push	{r3, r4, r5, lr}
	/* Configura o PMC */
	pmc_enable_periph_clk(ID_RTC);
  4014d2:	2002      	movs	r0, #2
  4014d4:	4b0d      	ldr	r3, [pc, #52]	; (40150c <RTC_init+0x3c>)
  4014d6:	4798      	blx	r3

	/* Default RTC configuration, 24-hour mode */
	rtc_set_hour_mode(RTC, 0);
  4014d8:	4c0d      	ldr	r4, [pc, #52]	; (401510 <RTC_init+0x40>)
  4014da:	2100      	movs	r1, #0
  4014dc:	4620      	mov	r0, r4
  4014de:	4b0d      	ldr	r3, [pc, #52]	; (401514 <RTC_init+0x44>)
  4014e0:	4798      	blx	r3

	/* Configura data e hora manualmente */
	rtc_set_time(RTC, HOUR, MINUTE, SECOND);
  4014e2:	2300      	movs	r3, #0
  4014e4:	221e      	movs	r2, #30
  4014e6:	210b      	movs	r1, #11
  4014e8:	4620      	mov	r0, r4
  4014ea:	4d0b      	ldr	r5, [pc, #44]	; (401518 <RTC_init+0x48>)
  4014ec:	47a8      	blx	r5
  NVIC->ICER[((uint32_t)(IRQn) >> 5)] = (1 << ((uint32_t)(IRQn) & 0x1F)); /* disable interrupt */
  4014ee:	4b0b      	ldr	r3, [pc, #44]	; (40151c <RTC_init+0x4c>)
  4014f0:	2204      	movs	r2, #4
  4014f2:	f8c3 2080 	str.w	r2, [r3, #128]	; 0x80
  NVIC->ICPR[((uint32_t)(IRQn) >> 5)] = (1 << ((uint32_t)(IRQn) & 0x1F)); /* Clear pending interrupt */
  4014f6:	f8c3 2180 	str.w	r2, [r3, #384]	; 0x180
    NVIC->IP[(uint32_t)(IRQn)]            = ((priority << (8 - __NVIC_PRIO_BITS)) & 0xff); } /* set Priority for device specific Interrupts  */
  4014fa:	2100      	movs	r1, #0
  4014fc:	f883 1302 	strb.w	r1, [r3, #770]	; 0x302
  NVIC->ISER[(uint32_t)((int32_t)IRQn) >> 5] = (uint32_t)(1 << ((uint32_t)((int32_t)IRQn) & (uint32_t)0x1F)); /* enable interrupt */
  401500:	601a      	str	r2, [r3, #0]
	NVIC_ClearPendingIRQ(RTC_IRQn);
	NVIC_SetPriority(RTC_IRQn, 0);
	NVIC_EnableIRQ(RTC_IRQn);

	/* Ativa interrupcao via alarme */
	rtc_enable_interrupt(RTC,  RTC_IER_ALREN | RTC_IER_SECEN); //INTERRUPCAO	
  401502:	2106      	movs	r1, #6
  401504:	4620      	mov	r0, r4
  401506:	4b06      	ldr	r3, [pc, #24]	; (401520 <RTC_init+0x50>)
  401508:	4798      	blx	r3
  40150a:	bd38      	pop	{r3, r4, r5, pc}
  40150c:	0040100d 	.word	0x0040100d
  401510:	400e1860 	.word	0x400e1860
  401514:	004001ad 	.word	0x004001ad
  401518:	00400221 	.word	0x00400221
  40151c:	e000e100 	.word	0xe000e100
  401520:	004001c3 	.word	0x004001c3

00401524 <main>:

}

int main (void)
{
  401524:	e92d 43f0 	stmdb	sp!, {r4, r5, r6, r7, r8, r9, lr}
  401528:	b08b      	sub	sp, #44	; 0x2c
	board_init();
  40152a:	4b2b      	ldr	r3, [pc, #172]	; (4015d8 <main+0xb4>)
  40152c:	4798      	blx	r3
	sysclk_init();
  40152e:	4b2b      	ldr	r3, [pc, #172]	; (4015dc <main+0xb8>)
  401530:	4798      	blx	r3
	delay_init();
	gfx_mono_ssd1306_init();
  401532:	4b2b      	ldr	r3, [pc, #172]	; (4015e0 <main+0xbc>)
  401534:	4798      	blx	r3

	/* Disable the watchdog */
	WDT->WDT_MR = WDT_MR_WDDIS;
  401536:	f44f 4200 	mov.w	r2, #32768	; 0x8000
  40153a:	4b2a      	ldr	r3, [pc, #168]	; (4015e4 <main+0xc0>)
  40153c:	605a      	str	r2, [r3, #4]

	/* Configura Leds */
	LED_init(0);
  40153e:	2000      	movs	r0, #0
  401540:	4b29      	ldr	r3, [pc, #164]	; (4015e8 <main+0xc4>)
  401542:	4798      	blx	r3

	/* Configura os botes */
	BUT_init();
  401544:	4b29      	ldr	r3, [pc, #164]	; (4015ec <main+0xc8>)
  401546:	4798      	blx	r3
  
	/** Configura RTC */
	RTC_init();
  401548:	4b29      	ldr	r3, [pc, #164]	; (4015f0 <main+0xcc>)
  40154a:	4798      	blx	r3
	
	/* configura alarme do RTC */
	rtc_set_time_alarm(RTC, 1, HOUR, 1, MINUTE+1, 1, SECOND);
  40154c:	2500      	movs	r5, #0
  40154e:	9502      	str	r5, [sp, #8]
  401550:	2401      	movs	r4, #1
  401552:	9401      	str	r4, [sp, #4]
  401554:	231f      	movs	r3, #31
  401556:	9300      	str	r3, [sp, #0]
  401558:	4623      	mov	r3, r4
  40155a:	220b      	movs	r2, #11
  40155c:	4621      	mov	r1, r4
  40155e:	4825      	ldr	r0, [pc, #148]	; (4015f4 <main+0xd0>)
  401560:	4e25      	ldr	r6, [pc, #148]	; (4015f8 <main+0xd4>)
  401562:	47b0      	blx	r6
	
	counter_alarm = 0;
  401564:	4b25      	ldr	r3, [pc, #148]	; (4015fc <main+0xd8>)
  401566:	601d      	str	r5, [r3, #0]
	flag_alarm = 0;
  401568:	4b25      	ldr	r3, [pc, #148]	; (401600 <main+0xdc>)
  40156a:	701d      	strb	r5, [r3, #0]
	pio_set(LED1_PIO, LED1_PIN_MASK);
  40156c:	4621      	mov	r1, r4
  40156e:	4825      	ldr	r0, [pc, #148]	; (401604 <main+0xe0>)
  401570:	4b25      	ldr	r3, [pc, #148]	; (401608 <main+0xe4>)
  401572:	4798      	blx	r3
	
	while(1) {
		
		char horas[10];
		uint32_t h, m, s;
		rtc_get_time(RTC, &h, &m, &s);
  401574:	f8df 907c 	ldr.w	r9, [pc, #124]	; 4015f4 <main+0xd0>
		//gfx_mono_draw_filled_circle(115, 5, 5, GFX_PIXEL_SET, GFX_WHOLE);
		gfx_mono_draw_string(horas, 0, 0, &sysfont);
		
		if (flag_alarm){
			for(int i = 0;i<5;i++){
				pio_clear(LED1_PIO, LED1_PIN_MASK);
  401578:	f8df 8088 	ldr.w	r8, [pc, #136]	; 401604 <main+0xe0>
				delay_ms(200);
  40157c:	4f23      	ldr	r7, [pc, #140]	; (40160c <main+0xe8>)
  40157e:	e002      	b.n	401586 <main+0x62>
			
				//Set LED
				pio_set(LED1_PIO, LED1_PIN_MASK);
				delay_ms(200);
			}
			flag_alarm = 0;
  401580:	2200      	movs	r2, #0
  401582:	4b1f      	ldr	r3, [pc, #124]	; (401600 <main+0xdc>)
  401584:	701a      	strb	r2, [r3, #0]
		rtc_get_time(RTC, &h, &m, &s);
  401586:	ab06      	add	r3, sp, #24
  401588:	aa05      	add	r2, sp, #20
  40158a:	a904      	add	r1, sp, #16
  40158c:	4648      	mov	r0, r9
  40158e:	4c20      	ldr	r4, [pc, #128]	; (401610 <main+0xec>)
  401590:	47a0      	blx	r4
		sprintf(horas, "%d:%d", h, m);
  401592:	9b05      	ldr	r3, [sp, #20]
  401594:	9a04      	ldr	r2, [sp, #16]
  401596:	491f      	ldr	r1, [pc, #124]	; (401614 <main+0xf0>)
  401598:	a807      	add	r0, sp, #28
  40159a:	4c1f      	ldr	r4, [pc, #124]	; (401618 <main+0xf4>)
  40159c:	47a0      	blx	r4
		gfx_mono_draw_string(horas, 0, 0, &sysfont);
  40159e:	4b1f      	ldr	r3, [pc, #124]	; (40161c <main+0xf8>)
  4015a0:	2200      	movs	r2, #0
  4015a2:	4611      	mov	r1, r2
  4015a4:	a807      	add	r0, sp, #28
  4015a6:	4c1e      	ldr	r4, [pc, #120]	; (401620 <main+0xfc>)
  4015a8:	47a0      	blx	r4
		if (flag_alarm){
  4015aa:	4b15      	ldr	r3, [pc, #84]	; (401600 <main+0xdc>)
  4015ac:	781b      	ldrb	r3, [r3, #0]
  4015ae:	2b00      	cmp	r3, #0
  4015b0:	d0e9      	beq.n	401586 <main+0x62>
  4015b2:	2405      	movs	r4, #5
				pio_clear(LED1_PIO, LED1_PIN_MASK);
  4015b4:	2601      	movs	r6, #1
  4015b6:	4631      	mov	r1, r6
  4015b8:	4640      	mov	r0, r8
  4015ba:	4b1a      	ldr	r3, [pc, #104]	; (401624 <main+0x100>)
  4015bc:	4798      	blx	r3
				delay_ms(200);
  4015be:	4638      	mov	r0, r7
  4015c0:	4d19      	ldr	r5, [pc, #100]	; (401628 <main+0x104>)
  4015c2:	47a8      	blx	r5
				pio_set(LED1_PIO, LED1_PIN_MASK);
  4015c4:	4631      	mov	r1, r6
  4015c6:	4640      	mov	r0, r8
  4015c8:	4b0f      	ldr	r3, [pc, #60]	; (401608 <main+0xe4>)
  4015ca:	4798      	blx	r3
				delay_ms(200);
  4015cc:	4638      	mov	r0, r7
  4015ce:	47a8      	blx	r5
			for(int i = 0;i<5;i++){
  4015d0:	3c01      	subs	r4, #1
  4015d2:	d1f0      	bne.n	4015b6 <main+0x92>
  4015d4:	e7d4      	b.n	401580 <main+0x5c>
  4015d6:	bf00      	nop
  4015d8:	00400ab5 	.word	0x00400ab5
  4015dc:	00400a45 	.word	0x00400a45
  4015e0:	00400711 	.word	0x00400711
  4015e4:	400e1850 	.word	0x400e1850
  4015e8:	0040148d 	.word	0x0040148d
  4015ec:	00401429 	.word	0x00401429
  4015f0:	004014d1 	.word	0x004014d1
  4015f4:	400e1860 	.word	0x400e1860
  4015f8:	004002b1 	.word	0x004002b1
  4015fc:	20400c68 	.word	0x20400c68
  401600:	20400c6c 	.word	0x20400c6c
  401604:	400e0e00 	.word	0x400e0e00
  401608:	00400bf5 	.word	0x00400bf5
  40160c:	009a5649 	.word	0x009a5649
  401610:	004001c7 	.word	0x004001c7
  401614:	00406fe0 	.word	0x00406fe0
  401618:	00401719 	.word	0x00401719
  40161c:	2040000c 	.word	0x2040000c
  401620:	00400679 	.word	0x00400679
  401624:	00400bf9 	.word	0x00400bf9
  401628:	20400001 	.word	0x20400001

0040162c <__libc_init_array>:
  40162c:	b570      	push	{r4, r5, r6, lr}
  40162e:	4e0f      	ldr	r6, [pc, #60]	; (40166c <__libc_init_array+0x40>)
  401630:	4d0f      	ldr	r5, [pc, #60]	; (401670 <__libc_init_array+0x44>)
  401632:	1b76      	subs	r6, r6, r5
  401634:	10b6      	asrs	r6, r6, #2
  401636:	bf18      	it	ne
  401638:	2400      	movne	r4, #0
  40163a:	d005      	beq.n	401648 <__libc_init_array+0x1c>
  40163c:	3401      	adds	r4, #1
  40163e:	f855 3b04 	ldr.w	r3, [r5], #4
  401642:	4798      	blx	r3
  401644:	42a6      	cmp	r6, r4
  401646:	d1f9      	bne.n	40163c <__libc_init_array+0x10>
  401648:	4e0a      	ldr	r6, [pc, #40]	; (401674 <__libc_init_array+0x48>)
  40164a:	4d0b      	ldr	r5, [pc, #44]	; (401678 <__libc_init_array+0x4c>)
  40164c:	1b76      	subs	r6, r6, r5
  40164e:	f005 fe0f 	bl	407270 <_init>
  401652:	10b6      	asrs	r6, r6, #2
  401654:	bf18      	it	ne
  401656:	2400      	movne	r4, #0
  401658:	d006      	beq.n	401668 <__libc_init_array+0x3c>
  40165a:	3401      	adds	r4, #1
  40165c:	f855 3b04 	ldr.w	r3, [r5], #4
  401660:	4798      	blx	r3
  401662:	42a6      	cmp	r6, r4
  401664:	d1f9      	bne.n	40165a <__libc_init_array+0x2e>
  401666:	bd70      	pop	{r4, r5, r6, pc}
  401668:	bd70      	pop	{r4, r5, r6, pc}
  40166a:	bf00      	nop
  40166c:	0040727c 	.word	0x0040727c
  401670:	0040727c 	.word	0x0040727c
  401674:	00407284 	.word	0x00407284
  401678:	0040727c 	.word	0x0040727c

0040167c <memset>:
  40167c:	b470      	push	{r4, r5, r6}
  40167e:	0786      	lsls	r6, r0, #30
  401680:	d046      	beq.n	401710 <memset+0x94>
  401682:	1e54      	subs	r4, r2, #1
  401684:	2a00      	cmp	r2, #0
  401686:	d041      	beq.n	40170c <memset+0x90>
  401688:	b2ca      	uxtb	r2, r1
  40168a:	4603      	mov	r3, r0
  40168c:	e002      	b.n	401694 <memset+0x18>
  40168e:	f114 34ff 	adds.w	r4, r4, #4294967295
  401692:	d33b      	bcc.n	40170c <memset+0x90>
  401694:	f803 2b01 	strb.w	r2, [r3], #1
  401698:	079d      	lsls	r5, r3, #30
  40169a:	d1f8      	bne.n	40168e <memset+0x12>
  40169c:	2c03      	cmp	r4, #3
  40169e:	d92e      	bls.n	4016fe <memset+0x82>
  4016a0:	b2cd      	uxtb	r5, r1
  4016a2:	ea45 2505 	orr.w	r5, r5, r5, lsl #8
  4016a6:	2c0f      	cmp	r4, #15
  4016a8:	ea45 4505 	orr.w	r5, r5, r5, lsl #16
  4016ac:	d919      	bls.n	4016e2 <memset+0x66>
  4016ae:	f103 0210 	add.w	r2, r3, #16
  4016b2:	4626      	mov	r6, r4
  4016b4:	3e10      	subs	r6, #16
  4016b6:	2e0f      	cmp	r6, #15
  4016b8:	f842 5c10 	str.w	r5, [r2, #-16]
  4016bc:	f842 5c0c 	str.w	r5, [r2, #-12]
  4016c0:	f842 5c08 	str.w	r5, [r2, #-8]
  4016c4:	f842 5c04 	str.w	r5, [r2, #-4]
  4016c8:	f102 0210 	add.w	r2, r2, #16
  4016cc:	d8f2      	bhi.n	4016b4 <memset+0x38>
  4016ce:	f1a4 0210 	sub.w	r2, r4, #16
  4016d2:	f022 020f 	bic.w	r2, r2, #15
  4016d6:	f004 040f 	and.w	r4, r4, #15
  4016da:	3210      	adds	r2, #16
  4016dc:	2c03      	cmp	r4, #3
  4016de:	4413      	add	r3, r2
  4016e0:	d90d      	bls.n	4016fe <memset+0x82>
  4016e2:	461e      	mov	r6, r3
  4016e4:	4622      	mov	r2, r4
  4016e6:	3a04      	subs	r2, #4
  4016e8:	2a03      	cmp	r2, #3
  4016ea:	f846 5b04 	str.w	r5, [r6], #4
  4016ee:	d8fa      	bhi.n	4016e6 <memset+0x6a>
  4016f0:	1f22      	subs	r2, r4, #4
  4016f2:	f022 0203 	bic.w	r2, r2, #3
  4016f6:	3204      	adds	r2, #4
  4016f8:	4413      	add	r3, r2
  4016fa:	f004 0403 	and.w	r4, r4, #3
  4016fe:	b12c      	cbz	r4, 40170c <memset+0x90>
  401700:	b2c9      	uxtb	r1, r1
  401702:	441c      	add	r4, r3
  401704:	f803 1b01 	strb.w	r1, [r3], #1
  401708:	429c      	cmp	r4, r3
  40170a:	d1fb      	bne.n	401704 <memset+0x88>
  40170c:	bc70      	pop	{r4, r5, r6}
  40170e:	4770      	bx	lr
  401710:	4614      	mov	r4, r2
  401712:	4603      	mov	r3, r0
  401714:	e7c2      	b.n	40169c <memset+0x20>
  401716:	bf00      	nop

00401718 <sprintf>:
  401718:	b40e      	push	{r1, r2, r3}
  40171a:	b5f0      	push	{r4, r5, r6, r7, lr}
  40171c:	b09c      	sub	sp, #112	; 0x70
  40171e:	ab21      	add	r3, sp, #132	; 0x84
  401720:	490f      	ldr	r1, [pc, #60]	; (401760 <sprintf+0x48>)
  401722:	f853 2b04 	ldr.w	r2, [r3], #4
  401726:	9301      	str	r3, [sp, #4]
  401728:	4605      	mov	r5, r0
  40172a:	f06f 4400 	mvn.w	r4, #2147483648	; 0x80000000
  40172e:	6808      	ldr	r0, [r1, #0]
  401730:	9502      	str	r5, [sp, #8]
  401732:	f44f 7702 	mov.w	r7, #520	; 0x208
  401736:	f64f 76ff 	movw	r6, #65535	; 0xffff
  40173a:	a902      	add	r1, sp, #8
  40173c:	9506      	str	r5, [sp, #24]
  40173e:	f8ad 7014 	strh.w	r7, [sp, #20]
  401742:	9404      	str	r4, [sp, #16]
  401744:	9407      	str	r4, [sp, #28]
  401746:	f8ad 6016 	strh.w	r6, [sp, #22]
  40174a:	f000 f80b 	bl	401764 <_svfprintf_r>
  40174e:	9b02      	ldr	r3, [sp, #8]
  401750:	2200      	movs	r2, #0
  401752:	701a      	strb	r2, [r3, #0]
  401754:	b01c      	add	sp, #112	; 0x70
  401756:	e8bd 40f0 	ldmia.w	sp!, {r4, r5, r6, r7, lr}
  40175a:	b003      	add	sp, #12
  40175c:	4770      	bx	lr
  40175e:	bf00      	nop
  401760:	20400020 	.word	0x20400020

00401764 <_svfprintf_r>:
  401764:	e92d 4ff0 	stmdb	sp!, {r4, r5, r6, r7, r8, r9, sl, fp, lr}
  401768:	b0c3      	sub	sp, #268	; 0x10c
  40176a:	460c      	mov	r4, r1
  40176c:	910b      	str	r1, [sp, #44]	; 0x2c
  40176e:	4692      	mov	sl, r2
  401770:	930f      	str	r3, [sp, #60]	; 0x3c
  401772:	900c      	str	r0, [sp, #48]	; 0x30
  401774:	f002 fa0c 	bl	403b90 <_localeconv_r>
  401778:	6803      	ldr	r3, [r0, #0]
  40177a:	931a      	str	r3, [sp, #104]	; 0x68
  40177c:	4618      	mov	r0, r3
  40177e:	f003 f8df 	bl	404940 <strlen>
  401782:	89a3      	ldrh	r3, [r4, #12]
  401784:	9019      	str	r0, [sp, #100]	; 0x64
  401786:	0619      	lsls	r1, r3, #24
  401788:	d503      	bpl.n	401792 <_svfprintf_r+0x2e>
  40178a:	6923      	ldr	r3, [r4, #16]
  40178c:	2b00      	cmp	r3, #0
  40178e:	f001 8003 	beq.w	402798 <_svfprintf_r+0x1034>
  401792:	2300      	movs	r3, #0
  401794:	f10d 09c8 	add.w	r9, sp, #200	; 0xc8
  401798:	9313      	str	r3, [sp, #76]	; 0x4c
  40179a:	9315      	str	r3, [sp, #84]	; 0x54
  40179c:	9314      	str	r3, [sp, #80]	; 0x50
  40179e:	9327      	str	r3, [sp, #156]	; 0x9c
  4017a0:	9326      	str	r3, [sp, #152]	; 0x98
  4017a2:	9318      	str	r3, [sp, #96]	; 0x60
  4017a4:	931b      	str	r3, [sp, #108]	; 0x6c
  4017a6:	9309      	str	r3, [sp, #36]	; 0x24
  4017a8:	f8cd 9094 	str.w	r9, [sp, #148]	; 0x94
  4017ac:	46c8      	mov	r8, r9
  4017ae:	9316      	str	r3, [sp, #88]	; 0x58
  4017b0:	9317      	str	r3, [sp, #92]	; 0x5c
  4017b2:	f89a 3000 	ldrb.w	r3, [sl]
  4017b6:	4654      	mov	r4, sl
  4017b8:	b1e3      	cbz	r3, 4017f4 <_svfprintf_r+0x90>
  4017ba:	2b25      	cmp	r3, #37	; 0x25
  4017bc:	d102      	bne.n	4017c4 <_svfprintf_r+0x60>
  4017be:	e019      	b.n	4017f4 <_svfprintf_r+0x90>
  4017c0:	2b25      	cmp	r3, #37	; 0x25
  4017c2:	d003      	beq.n	4017cc <_svfprintf_r+0x68>
  4017c4:	f814 3f01 	ldrb.w	r3, [r4, #1]!
  4017c8:	2b00      	cmp	r3, #0
  4017ca:	d1f9      	bne.n	4017c0 <_svfprintf_r+0x5c>
  4017cc:	eba4 050a 	sub.w	r5, r4, sl
  4017d0:	b185      	cbz	r5, 4017f4 <_svfprintf_r+0x90>
  4017d2:	9b26      	ldr	r3, [sp, #152]	; 0x98
  4017d4:	9a27      	ldr	r2, [sp, #156]	; 0x9c
  4017d6:	f8c8 a000 	str.w	sl, [r8]
  4017da:	3301      	adds	r3, #1
  4017dc:	442a      	add	r2, r5
  4017de:	2b07      	cmp	r3, #7
  4017e0:	f8c8 5004 	str.w	r5, [r8, #4]
  4017e4:	9227      	str	r2, [sp, #156]	; 0x9c
  4017e6:	9326      	str	r3, [sp, #152]	; 0x98
  4017e8:	dc7f      	bgt.n	4018ea <_svfprintf_r+0x186>
  4017ea:	f108 0808 	add.w	r8, r8, #8
  4017ee:	9b09      	ldr	r3, [sp, #36]	; 0x24
  4017f0:	442b      	add	r3, r5
  4017f2:	9309      	str	r3, [sp, #36]	; 0x24
  4017f4:	7823      	ldrb	r3, [r4, #0]
  4017f6:	2b00      	cmp	r3, #0
  4017f8:	d07f      	beq.n	4018fa <_svfprintf_r+0x196>
  4017fa:	2300      	movs	r3, #0
  4017fc:	461a      	mov	r2, r3
  4017fe:	f88d 3077 	strb.w	r3, [sp, #119]	; 0x77
  401802:	4619      	mov	r1, r3
  401804:	930d      	str	r3, [sp, #52]	; 0x34
  401806:	469b      	mov	fp, r3
  401808:	f04f 30ff 	mov.w	r0, #4294967295
  40180c:	7863      	ldrb	r3, [r4, #1]
  40180e:	900a      	str	r0, [sp, #40]	; 0x28
  401810:	f104 0a01 	add.w	sl, r4, #1
  401814:	f10a 0a01 	add.w	sl, sl, #1
  401818:	f1a3 0020 	sub.w	r0, r3, #32
  40181c:	2858      	cmp	r0, #88	; 0x58
  40181e:	f200 83c1 	bhi.w	401fa4 <_svfprintf_r+0x840>
  401822:	e8df f010 	tbh	[pc, r0, lsl #1]
  401826:	0238      	.short	0x0238
  401828:	03bf03bf 	.word	0x03bf03bf
  40182c:	03bf0240 	.word	0x03bf0240
  401830:	03bf03bf 	.word	0x03bf03bf
  401834:	03bf03bf 	.word	0x03bf03bf
  401838:	024503bf 	.word	0x024503bf
  40183c:	03bf0203 	.word	0x03bf0203
  401840:	026b005d 	.word	0x026b005d
  401844:	028603bf 	.word	0x028603bf
  401848:	039d039d 	.word	0x039d039d
  40184c:	039d039d 	.word	0x039d039d
  401850:	039d039d 	.word	0x039d039d
  401854:	039d039d 	.word	0x039d039d
  401858:	03bf039d 	.word	0x03bf039d
  40185c:	03bf03bf 	.word	0x03bf03bf
  401860:	03bf03bf 	.word	0x03bf03bf
  401864:	03bf03bf 	.word	0x03bf03bf
  401868:	03bf03bf 	.word	0x03bf03bf
  40186c:	033703bf 	.word	0x033703bf
  401870:	03bf0357 	.word	0x03bf0357
  401874:	03bf0357 	.word	0x03bf0357
  401878:	03bf03bf 	.word	0x03bf03bf
  40187c:	039803bf 	.word	0x039803bf
  401880:	03bf03bf 	.word	0x03bf03bf
  401884:	03bf03ad 	.word	0x03bf03ad
  401888:	03bf03bf 	.word	0x03bf03bf
  40188c:	03bf03bf 	.word	0x03bf03bf
  401890:	03bf0259 	.word	0x03bf0259
  401894:	031e03bf 	.word	0x031e03bf
  401898:	03bf03bf 	.word	0x03bf03bf
  40189c:	03bf03bf 	.word	0x03bf03bf
  4018a0:	03bf03bf 	.word	0x03bf03bf
  4018a4:	03bf03bf 	.word	0x03bf03bf
  4018a8:	03bf03bf 	.word	0x03bf03bf
  4018ac:	02db02c6 	.word	0x02db02c6
  4018b0:	03570357 	.word	0x03570357
  4018b4:	028b0357 	.word	0x028b0357
  4018b8:	03bf02db 	.word	0x03bf02db
  4018bc:	029003bf 	.word	0x029003bf
  4018c0:	029d03bf 	.word	0x029d03bf
  4018c4:	02b401cc 	.word	0x02b401cc
  4018c8:	03bf0208 	.word	0x03bf0208
  4018cc:	03bf01e1 	.word	0x03bf01e1
  4018d0:	03bf007e 	.word	0x03bf007e
  4018d4:	020d03bf 	.word	0x020d03bf
  4018d8:	980d      	ldr	r0, [sp, #52]	; 0x34
  4018da:	930f      	str	r3, [sp, #60]	; 0x3c
  4018dc:	4240      	negs	r0, r0
  4018de:	900d      	str	r0, [sp, #52]	; 0x34
  4018e0:	f04b 0b04 	orr.w	fp, fp, #4
  4018e4:	f89a 3000 	ldrb.w	r3, [sl]
  4018e8:	e794      	b.n	401814 <_svfprintf_r+0xb0>
  4018ea:	aa25      	add	r2, sp, #148	; 0x94
  4018ec:	990b      	ldr	r1, [sp, #44]	; 0x2c
  4018ee:	980c      	ldr	r0, [sp, #48]	; 0x30
  4018f0:	f003 f894 	bl	404a1c <__ssprint_r>
  4018f4:	b940      	cbnz	r0, 401908 <_svfprintf_r+0x1a4>
  4018f6:	46c8      	mov	r8, r9
  4018f8:	e779      	b.n	4017ee <_svfprintf_r+0x8a>
  4018fa:	9b27      	ldr	r3, [sp, #156]	; 0x9c
  4018fc:	b123      	cbz	r3, 401908 <_svfprintf_r+0x1a4>
  4018fe:	980c      	ldr	r0, [sp, #48]	; 0x30
  401900:	990b      	ldr	r1, [sp, #44]	; 0x2c
  401902:	aa25      	add	r2, sp, #148	; 0x94
  401904:	f003 f88a 	bl	404a1c <__ssprint_r>
  401908:	9b0b      	ldr	r3, [sp, #44]	; 0x2c
  40190a:	899b      	ldrh	r3, [r3, #12]
  40190c:	f013 0f40 	tst.w	r3, #64	; 0x40
  401910:	9b09      	ldr	r3, [sp, #36]	; 0x24
  401912:	bf18      	it	ne
  401914:	f04f 33ff 	movne.w	r3, #4294967295
  401918:	9309      	str	r3, [sp, #36]	; 0x24
  40191a:	9809      	ldr	r0, [sp, #36]	; 0x24
  40191c:	b043      	add	sp, #268	; 0x10c
  40191e:	e8bd 8ff0 	ldmia.w	sp!, {r4, r5, r6, r7, r8, r9, sl, fp, pc}
  401922:	f01b 0f20 	tst.w	fp, #32
  401926:	9311      	str	r3, [sp, #68]	; 0x44
  401928:	f040 81dd 	bne.w	401ce6 <_svfprintf_r+0x582>
  40192c:	9a0f      	ldr	r2, [sp, #60]	; 0x3c
  40192e:	f01b 0f10 	tst.w	fp, #16
  401932:	4613      	mov	r3, r2
  401934:	f040 856e 	bne.w	402414 <_svfprintf_r+0xcb0>
  401938:	f01b 0f40 	tst.w	fp, #64	; 0x40
  40193c:	f000 856a 	beq.w	402414 <_svfprintf_r+0xcb0>
  401940:	8814      	ldrh	r4, [r2, #0]
  401942:	3204      	adds	r2, #4
  401944:	2500      	movs	r5, #0
  401946:	2301      	movs	r3, #1
  401948:	920f      	str	r2, [sp, #60]	; 0x3c
  40194a:	2700      	movs	r7, #0
  40194c:	f88d 7077 	strb.w	r7, [sp, #119]	; 0x77
  401950:	990a      	ldr	r1, [sp, #40]	; 0x28
  401952:	1c4a      	adds	r2, r1, #1
  401954:	f000 8265 	beq.w	401e22 <_svfprintf_r+0x6be>
  401958:	f02b 0280 	bic.w	r2, fp, #128	; 0x80
  40195c:	9207      	str	r2, [sp, #28]
  40195e:	ea54 0205 	orrs.w	r2, r4, r5
  401962:	f040 8264 	bne.w	401e2e <_svfprintf_r+0x6ca>
  401966:	2900      	cmp	r1, #0
  401968:	f040 843c 	bne.w	4021e4 <_svfprintf_r+0xa80>
  40196c:	2b00      	cmp	r3, #0
  40196e:	f040 84d7 	bne.w	402320 <_svfprintf_r+0xbbc>
  401972:	f01b 0301 	ands.w	r3, fp, #1
  401976:	930e      	str	r3, [sp, #56]	; 0x38
  401978:	f000 8604 	beq.w	402584 <_svfprintf_r+0xe20>
  40197c:	ae42      	add	r6, sp, #264	; 0x108
  40197e:	2330      	movs	r3, #48	; 0x30
  401980:	f806 3d41 	strb.w	r3, [r6, #-65]!
  401984:	9b0a      	ldr	r3, [sp, #40]	; 0x28
  401986:	9a0e      	ldr	r2, [sp, #56]	; 0x38
  401988:	4293      	cmp	r3, r2
  40198a:	bfb8      	it	lt
  40198c:	4613      	movlt	r3, r2
  40198e:	9308      	str	r3, [sp, #32]
  401990:	2300      	movs	r3, #0
  401992:	9312      	str	r3, [sp, #72]	; 0x48
  401994:	b117      	cbz	r7, 40199c <_svfprintf_r+0x238>
  401996:	9b08      	ldr	r3, [sp, #32]
  401998:	3301      	adds	r3, #1
  40199a:	9308      	str	r3, [sp, #32]
  40199c:	9b07      	ldr	r3, [sp, #28]
  40199e:	f013 0302 	ands.w	r3, r3, #2
  4019a2:	9310      	str	r3, [sp, #64]	; 0x40
  4019a4:	d002      	beq.n	4019ac <_svfprintf_r+0x248>
  4019a6:	9b08      	ldr	r3, [sp, #32]
  4019a8:	3302      	adds	r3, #2
  4019aa:	9308      	str	r3, [sp, #32]
  4019ac:	9b07      	ldr	r3, [sp, #28]
  4019ae:	f013 0584 	ands.w	r5, r3, #132	; 0x84
  4019b2:	f040 830e 	bne.w	401fd2 <_svfprintf_r+0x86e>
  4019b6:	9b0d      	ldr	r3, [sp, #52]	; 0x34
  4019b8:	9a08      	ldr	r2, [sp, #32]
  4019ba:	eba3 0b02 	sub.w	fp, r3, r2
  4019be:	f1bb 0f00 	cmp.w	fp, #0
  4019c2:	f340 8306 	ble.w	401fd2 <_svfprintf_r+0x86e>
  4019c6:	f1bb 0f10 	cmp.w	fp, #16
  4019ca:	9c27      	ldr	r4, [sp, #156]	; 0x9c
  4019cc:	9a26      	ldr	r2, [sp, #152]	; 0x98
  4019ce:	dd29      	ble.n	401a24 <_svfprintf_r+0x2c0>
  4019d0:	4643      	mov	r3, r8
  4019d2:	4621      	mov	r1, r4
  4019d4:	46a8      	mov	r8, r5
  4019d6:	2710      	movs	r7, #16
  4019d8:	9c0c      	ldr	r4, [sp, #48]	; 0x30
  4019da:	9d0b      	ldr	r5, [sp, #44]	; 0x2c
  4019dc:	e006      	b.n	4019ec <_svfprintf_r+0x288>
  4019de:	f1ab 0b10 	sub.w	fp, fp, #16
  4019e2:	f1bb 0f10 	cmp.w	fp, #16
  4019e6:	f103 0308 	add.w	r3, r3, #8
  4019ea:	dd18      	ble.n	401a1e <_svfprintf_r+0x2ba>
  4019ec:	3201      	adds	r2, #1
  4019ee:	48b7      	ldr	r0, [pc, #732]	; (401ccc <_svfprintf_r+0x568>)
  4019f0:	9226      	str	r2, [sp, #152]	; 0x98
  4019f2:	3110      	adds	r1, #16
  4019f4:	2a07      	cmp	r2, #7
  4019f6:	9127      	str	r1, [sp, #156]	; 0x9c
  4019f8:	e883 0081 	stmia.w	r3, {r0, r7}
  4019fc:	ddef      	ble.n	4019de <_svfprintf_r+0x27a>
  4019fe:	aa25      	add	r2, sp, #148	; 0x94
  401a00:	4629      	mov	r1, r5
  401a02:	4620      	mov	r0, r4
  401a04:	f003 f80a 	bl	404a1c <__ssprint_r>
  401a08:	2800      	cmp	r0, #0
  401a0a:	f47f af7d 	bne.w	401908 <_svfprintf_r+0x1a4>
  401a0e:	f1ab 0b10 	sub.w	fp, fp, #16
  401a12:	f1bb 0f10 	cmp.w	fp, #16
  401a16:	9927      	ldr	r1, [sp, #156]	; 0x9c
  401a18:	9a26      	ldr	r2, [sp, #152]	; 0x98
  401a1a:	464b      	mov	r3, r9
  401a1c:	dce6      	bgt.n	4019ec <_svfprintf_r+0x288>
  401a1e:	4645      	mov	r5, r8
  401a20:	460c      	mov	r4, r1
  401a22:	4698      	mov	r8, r3
  401a24:	3201      	adds	r2, #1
  401a26:	4ba9      	ldr	r3, [pc, #676]	; (401ccc <_svfprintf_r+0x568>)
  401a28:	9226      	str	r2, [sp, #152]	; 0x98
  401a2a:	445c      	add	r4, fp
  401a2c:	2a07      	cmp	r2, #7
  401a2e:	9427      	str	r4, [sp, #156]	; 0x9c
  401a30:	e888 0808 	stmia.w	r8, {r3, fp}
  401a34:	f300 8498 	bgt.w	402368 <_svfprintf_r+0xc04>
  401a38:	f89d 7077 	ldrb.w	r7, [sp, #119]	; 0x77
  401a3c:	f108 0808 	add.w	r8, r8, #8
  401a40:	b177      	cbz	r7, 401a60 <_svfprintf_r+0x2fc>
  401a42:	9b26      	ldr	r3, [sp, #152]	; 0x98
  401a44:	3301      	adds	r3, #1
  401a46:	3401      	adds	r4, #1
  401a48:	f10d 0177 	add.w	r1, sp, #119	; 0x77
  401a4c:	2201      	movs	r2, #1
  401a4e:	2b07      	cmp	r3, #7
  401a50:	9427      	str	r4, [sp, #156]	; 0x9c
  401a52:	9326      	str	r3, [sp, #152]	; 0x98
  401a54:	e888 0006 	stmia.w	r8, {r1, r2}
  401a58:	f300 83db 	bgt.w	402212 <_svfprintf_r+0xaae>
  401a5c:	f108 0808 	add.w	r8, r8, #8
  401a60:	9b10      	ldr	r3, [sp, #64]	; 0x40
  401a62:	b16b      	cbz	r3, 401a80 <_svfprintf_r+0x31c>
  401a64:	9b26      	ldr	r3, [sp, #152]	; 0x98
  401a66:	3301      	adds	r3, #1
  401a68:	3402      	adds	r4, #2
  401a6a:	a91e      	add	r1, sp, #120	; 0x78
  401a6c:	2202      	movs	r2, #2
  401a6e:	2b07      	cmp	r3, #7
  401a70:	9427      	str	r4, [sp, #156]	; 0x9c
  401a72:	9326      	str	r3, [sp, #152]	; 0x98
  401a74:	e888 0006 	stmia.w	r8, {r1, r2}
  401a78:	f300 83d6 	bgt.w	402228 <_svfprintf_r+0xac4>
  401a7c:	f108 0808 	add.w	r8, r8, #8
  401a80:	2d80      	cmp	r5, #128	; 0x80
  401a82:	f000 8315 	beq.w	4020b0 <_svfprintf_r+0x94c>
  401a86:	9b0a      	ldr	r3, [sp, #40]	; 0x28
  401a88:	9a0e      	ldr	r2, [sp, #56]	; 0x38
  401a8a:	1a9f      	subs	r7, r3, r2
  401a8c:	2f00      	cmp	r7, #0
  401a8e:	dd36      	ble.n	401afe <_svfprintf_r+0x39a>
  401a90:	2f10      	cmp	r7, #16
  401a92:	9b26      	ldr	r3, [sp, #152]	; 0x98
  401a94:	4d8e      	ldr	r5, [pc, #568]	; (401cd0 <_svfprintf_r+0x56c>)
  401a96:	dd27      	ble.n	401ae8 <_svfprintf_r+0x384>
  401a98:	4642      	mov	r2, r8
  401a9a:	4621      	mov	r1, r4
  401a9c:	46b0      	mov	r8, r6
  401a9e:	f04f 0b10 	mov.w	fp, #16
  401aa2:	462e      	mov	r6, r5
  401aa4:	9c0c      	ldr	r4, [sp, #48]	; 0x30
  401aa6:	9d0b      	ldr	r5, [sp, #44]	; 0x2c
  401aa8:	e004      	b.n	401ab4 <_svfprintf_r+0x350>
  401aaa:	3f10      	subs	r7, #16
  401aac:	2f10      	cmp	r7, #16
  401aae:	f102 0208 	add.w	r2, r2, #8
  401ab2:	dd15      	ble.n	401ae0 <_svfprintf_r+0x37c>
  401ab4:	3301      	adds	r3, #1
  401ab6:	3110      	adds	r1, #16
  401ab8:	2b07      	cmp	r3, #7
  401aba:	9127      	str	r1, [sp, #156]	; 0x9c
  401abc:	9326      	str	r3, [sp, #152]	; 0x98
  401abe:	e882 0840 	stmia.w	r2, {r6, fp}
  401ac2:	ddf2      	ble.n	401aaa <_svfprintf_r+0x346>
  401ac4:	aa25      	add	r2, sp, #148	; 0x94
  401ac6:	4629      	mov	r1, r5
  401ac8:	4620      	mov	r0, r4
  401aca:	f002 ffa7 	bl	404a1c <__ssprint_r>
  401ace:	2800      	cmp	r0, #0
  401ad0:	f47f af1a 	bne.w	401908 <_svfprintf_r+0x1a4>
  401ad4:	3f10      	subs	r7, #16
  401ad6:	2f10      	cmp	r7, #16
  401ad8:	9927      	ldr	r1, [sp, #156]	; 0x9c
  401ada:	9b26      	ldr	r3, [sp, #152]	; 0x98
  401adc:	464a      	mov	r2, r9
  401ade:	dce9      	bgt.n	401ab4 <_svfprintf_r+0x350>
  401ae0:	4635      	mov	r5, r6
  401ae2:	460c      	mov	r4, r1
  401ae4:	4646      	mov	r6, r8
  401ae6:	4690      	mov	r8, r2
  401ae8:	3301      	adds	r3, #1
  401aea:	443c      	add	r4, r7
  401aec:	2b07      	cmp	r3, #7
  401aee:	9427      	str	r4, [sp, #156]	; 0x9c
  401af0:	9326      	str	r3, [sp, #152]	; 0x98
  401af2:	e888 00a0 	stmia.w	r8, {r5, r7}
  401af6:	f300 8381 	bgt.w	4021fc <_svfprintf_r+0xa98>
  401afa:	f108 0808 	add.w	r8, r8, #8
  401afe:	9b07      	ldr	r3, [sp, #28]
  401b00:	05df      	lsls	r7, r3, #23
  401b02:	f100 8268 	bmi.w	401fd6 <_svfprintf_r+0x872>
  401b06:	9b26      	ldr	r3, [sp, #152]	; 0x98
  401b08:	990e      	ldr	r1, [sp, #56]	; 0x38
  401b0a:	f8c8 6000 	str.w	r6, [r8]
  401b0e:	3301      	adds	r3, #1
  401b10:	440c      	add	r4, r1
  401b12:	2b07      	cmp	r3, #7
  401b14:	9427      	str	r4, [sp, #156]	; 0x9c
  401b16:	f8c8 1004 	str.w	r1, [r8, #4]
  401b1a:	9326      	str	r3, [sp, #152]	; 0x98
  401b1c:	f300 834d 	bgt.w	4021ba <_svfprintf_r+0xa56>
  401b20:	f108 0808 	add.w	r8, r8, #8
  401b24:	9b07      	ldr	r3, [sp, #28]
  401b26:	075b      	lsls	r3, r3, #29
  401b28:	d53a      	bpl.n	401ba0 <_svfprintf_r+0x43c>
  401b2a:	9b0d      	ldr	r3, [sp, #52]	; 0x34
  401b2c:	9a08      	ldr	r2, [sp, #32]
  401b2e:	1a9d      	subs	r5, r3, r2
  401b30:	2d00      	cmp	r5, #0
  401b32:	dd35      	ble.n	401ba0 <_svfprintf_r+0x43c>
  401b34:	2d10      	cmp	r5, #16
  401b36:	9b26      	ldr	r3, [sp, #152]	; 0x98
  401b38:	dd20      	ble.n	401b7c <_svfprintf_r+0x418>
  401b3a:	2610      	movs	r6, #16
  401b3c:	9f0c      	ldr	r7, [sp, #48]	; 0x30
  401b3e:	f8dd b02c 	ldr.w	fp, [sp, #44]	; 0x2c
  401b42:	e004      	b.n	401b4e <_svfprintf_r+0x3ea>
  401b44:	3d10      	subs	r5, #16
  401b46:	2d10      	cmp	r5, #16
  401b48:	f108 0808 	add.w	r8, r8, #8
  401b4c:	dd16      	ble.n	401b7c <_svfprintf_r+0x418>
  401b4e:	3301      	adds	r3, #1
  401b50:	4a5e      	ldr	r2, [pc, #376]	; (401ccc <_svfprintf_r+0x568>)
  401b52:	9326      	str	r3, [sp, #152]	; 0x98
  401b54:	3410      	adds	r4, #16
  401b56:	2b07      	cmp	r3, #7
  401b58:	9427      	str	r4, [sp, #156]	; 0x9c
  401b5a:	e888 0044 	stmia.w	r8, {r2, r6}
  401b5e:	ddf1      	ble.n	401b44 <_svfprintf_r+0x3e0>
  401b60:	aa25      	add	r2, sp, #148	; 0x94
  401b62:	4659      	mov	r1, fp
  401b64:	4638      	mov	r0, r7
  401b66:	f002 ff59 	bl	404a1c <__ssprint_r>
  401b6a:	2800      	cmp	r0, #0
  401b6c:	f47f aecc 	bne.w	401908 <_svfprintf_r+0x1a4>
  401b70:	3d10      	subs	r5, #16
  401b72:	2d10      	cmp	r5, #16
  401b74:	9c27      	ldr	r4, [sp, #156]	; 0x9c
  401b76:	9b26      	ldr	r3, [sp, #152]	; 0x98
  401b78:	46c8      	mov	r8, r9
  401b7a:	dce8      	bgt.n	401b4e <_svfprintf_r+0x3ea>
  401b7c:	3301      	adds	r3, #1
  401b7e:	4a53      	ldr	r2, [pc, #332]	; (401ccc <_svfprintf_r+0x568>)
  401b80:	9326      	str	r3, [sp, #152]	; 0x98
  401b82:	442c      	add	r4, r5
  401b84:	2b07      	cmp	r3, #7
  401b86:	9427      	str	r4, [sp, #156]	; 0x9c
  401b88:	e888 0024 	stmia.w	r8, {r2, r5}
  401b8c:	dd08      	ble.n	401ba0 <_svfprintf_r+0x43c>
  401b8e:	aa25      	add	r2, sp, #148	; 0x94
  401b90:	990b      	ldr	r1, [sp, #44]	; 0x2c
  401b92:	980c      	ldr	r0, [sp, #48]	; 0x30
  401b94:	f002 ff42 	bl	404a1c <__ssprint_r>
  401b98:	2800      	cmp	r0, #0
  401b9a:	f47f aeb5 	bne.w	401908 <_svfprintf_r+0x1a4>
  401b9e:	9c27      	ldr	r4, [sp, #156]	; 0x9c
  401ba0:	9b09      	ldr	r3, [sp, #36]	; 0x24
  401ba2:	9a0d      	ldr	r2, [sp, #52]	; 0x34
  401ba4:	9908      	ldr	r1, [sp, #32]
  401ba6:	428a      	cmp	r2, r1
  401ba8:	bfac      	ite	ge
  401baa:	189b      	addge	r3, r3, r2
  401bac:	185b      	addlt	r3, r3, r1
  401bae:	9309      	str	r3, [sp, #36]	; 0x24
  401bb0:	2c00      	cmp	r4, #0
  401bb2:	f040 830d 	bne.w	4021d0 <_svfprintf_r+0xa6c>
  401bb6:	2300      	movs	r3, #0
  401bb8:	9326      	str	r3, [sp, #152]	; 0x98
  401bba:	46c8      	mov	r8, r9
  401bbc:	e5f9      	b.n	4017b2 <_svfprintf_r+0x4e>
  401bbe:	9311      	str	r3, [sp, #68]	; 0x44
  401bc0:	f01b 0320 	ands.w	r3, fp, #32
  401bc4:	f040 81e3 	bne.w	401f8e <_svfprintf_r+0x82a>
  401bc8:	f01b 0210 	ands.w	r2, fp, #16
  401bcc:	f040 842e 	bne.w	40242c <_svfprintf_r+0xcc8>
  401bd0:	f01b 0340 	ands.w	r3, fp, #64	; 0x40
  401bd4:	f000 842a 	beq.w	40242c <_svfprintf_r+0xcc8>
  401bd8:	990f      	ldr	r1, [sp, #60]	; 0x3c
  401bda:	4613      	mov	r3, r2
  401bdc:	460a      	mov	r2, r1
  401bde:	3204      	adds	r2, #4
  401be0:	880c      	ldrh	r4, [r1, #0]
  401be2:	920f      	str	r2, [sp, #60]	; 0x3c
  401be4:	2500      	movs	r5, #0
  401be6:	e6b0      	b.n	40194a <_svfprintf_r+0x1e6>
  401be8:	9a0f      	ldr	r2, [sp, #60]	; 0x3c
  401bea:	9311      	str	r3, [sp, #68]	; 0x44
  401bec:	6816      	ldr	r6, [r2, #0]
  401bee:	2400      	movs	r4, #0
  401bf0:	f88d 4077 	strb.w	r4, [sp, #119]	; 0x77
  401bf4:	1d15      	adds	r5, r2, #4
  401bf6:	2e00      	cmp	r6, #0
  401bf8:	f000 86a7 	beq.w	40294a <_svfprintf_r+0x11e6>
  401bfc:	9a0a      	ldr	r2, [sp, #40]	; 0x28
  401bfe:	1c53      	adds	r3, r2, #1
  401c00:	f000 8609 	beq.w	402816 <_svfprintf_r+0x10b2>
  401c04:	4621      	mov	r1, r4
  401c06:	4630      	mov	r0, r6
  401c08:	f002 fa8a 	bl	404120 <memchr>
  401c0c:	2800      	cmp	r0, #0
  401c0e:	f000 86e1 	beq.w	4029d4 <_svfprintf_r+0x1270>
  401c12:	1b83      	subs	r3, r0, r6
  401c14:	930e      	str	r3, [sp, #56]	; 0x38
  401c16:	940a      	str	r4, [sp, #40]	; 0x28
  401c18:	950f      	str	r5, [sp, #60]	; 0x3c
  401c1a:	f8cd b01c 	str.w	fp, [sp, #28]
  401c1e:	ea23 73e3 	bic.w	r3, r3, r3, asr #31
  401c22:	9308      	str	r3, [sp, #32]
  401c24:	9412      	str	r4, [sp, #72]	; 0x48
  401c26:	f89d 7077 	ldrb.w	r7, [sp, #119]	; 0x77
  401c2a:	e6b3      	b.n	401994 <_svfprintf_r+0x230>
  401c2c:	f89a 3000 	ldrb.w	r3, [sl]
  401c30:	2201      	movs	r2, #1
  401c32:	212b      	movs	r1, #43	; 0x2b
  401c34:	e5ee      	b.n	401814 <_svfprintf_r+0xb0>
  401c36:	f04b 0b20 	orr.w	fp, fp, #32
  401c3a:	f89a 3000 	ldrb.w	r3, [sl]
  401c3e:	e5e9      	b.n	401814 <_svfprintf_r+0xb0>
  401c40:	9311      	str	r3, [sp, #68]	; 0x44
  401c42:	2a00      	cmp	r2, #0
  401c44:	f040 8795 	bne.w	402b72 <_svfprintf_r+0x140e>
  401c48:	4b22      	ldr	r3, [pc, #136]	; (401cd4 <_svfprintf_r+0x570>)
  401c4a:	9318      	str	r3, [sp, #96]	; 0x60
  401c4c:	f01b 0f20 	tst.w	fp, #32
  401c50:	f040 8111 	bne.w	401e76 <_svfprintf_r+0x712>
  401c54:	9a0f      	ldr	r2, [sp, #60]	; 0x3c
  401c56:	f01b 0f10 	tst.w	fp, #16
  401c5a:	4613      	mov	r3, r2
  401c5c:	f040 83e1 	bne.w	402422 <_svfprintf_r+0xcbe>
  401c60:	f01b 0f40 	tst.w	fp, #64	; 0x40
  401c64:	f000 83dd 	beq.w	402422 <_svfprintf_r+0xcbe>
  401c68:	3304      	adds	r3, #4
  401c6a:	8814      	ldrh	r4, [r2, #0]
  401c6c:	930f      	str	r3, [sp, #60]	; 0x3c
  401c6e:	2500      	movs	r5, #0
  401c70:	f01b 0f01 	tst.w	fp, #1
  401c74:	f000 810c 	beq.w	401e90 <_svfprintf_r+0x72c>
  401c78:	ea54 0305 	orrs.w	r3, r4, r5
  401c7c:	f000 8108 	beq.w	401e90 <_svfprintf_r+0x72c>
  401c80:	2330      	movs	r3, #48	; 0x30
  401c82:	f89d 2044 	ldrb.w	r2, [sp, #68]	; 0x44
  401c86:	f88d 3078 	strb.w	r3, [sp, #120]	; 0x78
  401c8a:	f88d 2079 	strb.w	r2, [sp, #121]	; 0x79
  401c8e:	f04b 0b02 	orr.w	fp, fp, #2
  401c92:	2302      	movs	r3, #2
  401c94:	e659      	b.n	40194a <_svfprintf_r+0x1e6>
  401c96:	f89a 3000 	ldrb.w	r3, [sl]
  401c9a:	2900      	cmp	r1, #0
  401c9c:	f47f adba 	bne.w	401814 <_svfprintf_r+0xb0>
  401ca0:	2201      	movs	r2, #1
  401ca2:	2120      	movs	r1, #32
  401ca4:	e5b6      	b.n	401814 <_svfprintf_r+0xb0>
  401ca6:	f04b 0b01 	orr.w	fp, fp, #1
  401caa:	f89a 3000 	ldrb.w	r3, [sl]
  401cae:	e5b1      	b.n	401814 <_svfprintf_r+0xb0>
  401cb0:	9c0f      	ldr	r4, [sp, #60]	; 0x3c
  401cb2:	6823      	ldr	r3, [r4, #0]
  401cb4:	930d      	str	r3, [sp, #52]	; 0x34
  401cb6:	4618      	mov	r0, r3
  401cb8:	2800      	cmp	r0, #0
  401cba:	4623      	mov	r3, r4
  401cbc:	f103 0304 	add.w	r3, r3, #4
  401cc0:	f6ff ae0a 	blt.w	4018d8 <_svfprintf_r+0x174>
  401cc4:	930f      	str	r3, [sp, #60]	; 0x3c
  401cc6:	f89a 3000 	ldrb.w	r3, [sl]
  401cca:	e5a3      	b.n	401814 <_svfprintf_r+0xb0>
  401ccc:	00407030 	.word	0x00407030
  401cd0:	00407040 	.word	0x00407040
  401cd4:	00407010 	.word	0x00407010
  401cd8:	f04b 0b10 	orr.w	fp, fp, #16
  401cdc:	f01b 0f20 	tst.w	fp, #32
  401ce0:	9311      	str	r3, [sp, #68]	; 0x44
  401ce2:	f43f ae23 	beq.w	40192c <_svfprintf_r+0x1c8>
  401ce6:	9d0f      	ldr	r5, [sp, #60]	; 0x3c
  401ce8:	3507      	adds	r5, #7
  401cea:	f025 0307 	bic.w	r3, r5, #7
  401cee:	f103 0208 	add.w	r2, r3, #8
  401cf2:	e9d3 4500 	ldrd	r4, r5, [r3]
  401cf6:	920f      	str	r2, [sp, #60]	; 0x3c
  401cf8:	2301      	movs	r3, #1
  401cfa:	e626      	b.n	40194a <_svfprintf_r+0x1e6>
  401cfc:	f89a 3000 	ldrb.w	r3, [sl]
  401d00:	2b2a      	cmp	r3, #42	; 0x2a
  401d02:	f10a 0401 	add.w	r4, sl, #1
  401d06:	f000 8727 	beq.w	402b58 <_svfprintf_r+0x13f4>
  401d0a:	f1a3 0030 	sub.w	r0, r3, #48	; 0x30
  401d0e:	2809      	cmp	r0, #9
  401d10:	46a2      	mov	sl, r4
  401d12:	f200 86ad 	bhi.w	402a70 <_svfprintf_r+0x130c>
  401d16:	2300      	movs	r3, #0
  401d18:	461c      	mov	r4, r3
  401d1a:	f81a 3b01 	ldrb.w	r3, [sl], #1
  401d1e:	eb04 0484 	add.w	r4, r4, r4, lsl #2
  401d22:	eb00 0444 	add.w	r4, r0, r4, lsl #1
  401d26:	f1a3 0030 	sub.w	r0, r3, #48	; 0x30
  401d2a:	2809      	cmp	r0, #9
  401d2c:	d9f5      	bls.n	401d1a <_svfprintf_r+0x5b6>
  401d2e:	940a      	str	r4, [sp, #40]	; 0x28
  401d30:	e572      	b.n	401818 <_svfprintf_r+0xb4>
  401d32:	f04b 0b80 	orr.w	fp, fp, #128	; 0x80
  401d36:	f89a 3000 	ldrb.w	r3, [sl]
  401d3a:	e56b      	b.n	401814 <_svfprintf_r+0xb0>
  401d3c:	f04b 0b40 	orr.w	fp, fp, #64	; 0x40
  401d40:	f89a 3000 	ldrb.w	r3, [sl]
  401d44:	e566      	b.n	401814 <_svfprintf_r+0xb0>
  401d46:	f89a 3000 	ldrb.w	r3, [sl]
  401d4a:	2b6c      	cmp	r3, #108	; 0x6c
  401d4c:	bf03      	ittte	eq
  401d4e:	f89a 3001 	ldrbeq.w	r3, [sl, #1]
  401d52:	f04b 0b20 	orreq.w	fp, fp, #32
  401d56:	f10a 0a01 	addeq.w	sl, sl, #1
  401d5a:	f04b 0b10 	orrne.w	fp, fp, #16
  401d5e:	e559      	b.n	401814 <_svfprintf_r+0xb0>
  401d60:	2a00      	cmp	r2, #0
  401d62:	f040 8711 	bne.w	402b88 <_svfprintf_r+0x1424>
  401d66:	f01b 0f20 	tst.w	fp, #32
  401d6a:	f040 84f9 	bne.w	402760 <_svfprintf_r+0xffc>
  401d6e:	f01b 0f10 	tst.w	fp, #16
  401d72:	f040 84ac 	bne.w	4026ce <_svfprintf_r+0xf6a>
  401d76:	f01b 0f40 	tst.w	fp, #64	; 0x40
  401d7a:	f000 84a8 	beq.w	4026ce <_svfprintf_r+0xf6a>
  401d7e:	9a0f      	ldr	r2, [sp, #60]	; 0x3c
  401d80:	6813      	ldr	r3, [r2, #0]
  401d82:	3204      	adds	r2, #4
  401d84:	920f      	str	r2, [sp, #60]	; 0x3c
  401d86:	f8bd 2024 	ldrh.w	r2, [sp, #36]	; 0x24
  401d8a:	801a      	strh	r2, [r3, #0]
  401d8c:	e511      	b.n	4017b2 <_svfprintf_r+0x4e>
  401d8e:	990f      	ldr	r1, [sp, #60]	; 0x3c
  401d90:	4bb3      	ldr	r3, [pc, #716]	; (402060 <_svfprintf_r+0x8fc>)
  401d92:	680c      	ldr	r4, [r1, #0]
  401d94:	9318      	str	r3, [sp, #96]	; 0x60
  401d96:	2230      	movs	r2, #48	; 0x30
  401d98:	2378      	movs	r3, #120	; 0x78
  401d9a:	3104      	adds	r1, #4
  401d9c:	f88d 3079 	strb.w	r3, [sp, #121]	; 0x79
  401da0:	9311      	str	r3, [sp, #68]	; 0x44
  401da2:	f04b 0b02 	orr.w	fp, fp, #2
  401da6:	910f      	str	r1, [sp, #60]	; 0x3c
  401da8:	2500      	movs	r5, #0
  401daa:	f88d 2078 	strb.w	r2, [sp, #120]	; 0x78
  401dae:	2302      	movs	r3, #2
  401db0:	e5cb      	b.n	40194a <_svfprintf_r+0x1e6>
  401db2:	990f      	ldr	r1, [sp, #60]	; 0x3c
  401db4:	9311      	str	r3, [sp, #68]	; 0x44
  401db6:	680a      	ldr	r2, [r1, #0]
  401db8:	f88d 20a0 	strb.w	r2, [sp, #160]	; 0xa0
  401dbc:	2300      	movs	r3, #0
  401dbe:	460a      	mov	r2, r1
  401dc0:	461f      	mov	r7, r3
  401dc2:	f88d 3077 	strb.w	r3, [sp, #119]	; 0x77
  401dc6:	3204      	adds	r2, #4
  401dc8:	2301      	movs	r3, #1
  401dca:	9308      	str	r3, [sp, #32]
  401dcc:	f8cd b01c 	str.w	fp, [sp, #28]
  401dd0:	970a      	str	r7, [sp, #40]	; 0x28
  401dd2:	9712      	str	r7, [sp, #72]	; 0x48
  401dd4:	920f      	str	r2, [sp, #60]	; 0x3c
  401dd6:	930e      	str	r3, [sp, #56]	; 0x38
  401dd8:	ae28      	add	r6, sp, #160	; 0xa0
  401dda:	e5df      	b.n	40199c <_svfprintf_r+0x238>
  401ddc:	9311      	str	r3, [sp, #68]	; 0x44
  401dde:	2a00      	cmp	r2, #0
  401de0:	f040 86ea 	bne.w	402bb8 <_svfprintf_r+0x1454>
  401de4:	f01b 0f20 	tst.w	fp, #32
  401de8:	d15d      	bne.n	401ea6 <_svfprintf_r+0x742>
  401dea:	f01b 0f10 	tst.w	fp, #16
  401dee:	f040 8308 	bne.w	402402 <_svfprintf_r+0xc9e>
  401df2:	f01b 0f40 	tst.w	fp, #64	; 0x40
  401df6:	f000 8304 	beq.w	402402 <_svfprintf_r+0xc9e>
  401dfa:	990f      	ldr	r1, [sp, #60]	; 0x3c
  401dfc:	f9b1 4000 	ldrsh.w	r4, [r1]
  401e00:	3104      	adds	r1, #4
  401e02:	17e5      	asrs	r5, r4, #31
  401e04:	4622      	mov	r2, r4
  401e06:	462b      	mov	r3, r5
  401e08:	910f      	str	r1, [sp, #60]	; 0x3c
  401e0a:	2a00      	cmp	r2, #0
  401e0c:	f173 0300 	sbcs.w	r3, r3, #0
  401e10:	db58      	blt.n	401ec4 <_svfprintf_r+0x760>
  401e12:	990a      	ldr	r1, [sp, #40]	; 0x28
  401e14:	f89d 7077 	ldrb.w	r7, [sp, #119]	; 0x77
  401e18:	1c4a      	adds	r2, r1, #1
  401e1a:	f04f 0301 	mov.w	r3, #1
  401e1e:	f47f ad9b 	bne.w	401958 <_svfprintf_r+0x1f4>
  401e22:	ea54 0205 	orrs.w	r2, r4, r5
  401e26:	f000 81df 	beq.w	4021e8 <_svfprintf_r+0xa84>
  401e2a:	f8cd b01c 	str.w	fp, [sp, #28]
  401e2e:	2b01      	cmp	r3, #1
  401e30:	f000 827b 	beq.w	40232a <_svfprintf_r+0xbc6>
  401e34:	2b02      	cmp	r3, #2
  401e36:	f040 8206 	bne.w	402246 <_svfprintf_r+0xae2>
  401e3a:	9818      	ldr	r0, [sp, #96]	; 0x60
  401e3c:	464e      	mov	r6, r9
  401e3e:	0923      	lsrs	r3, r4, #4
  401e40:	f004 010f 	and.w	r1, r4, #15
  401e44:	ea43 7305 	orr.w	r3, r3, r5, lsl #28
  401e48:	092a      	lsrs	r2, r5, #4
  401e4a:	461c      	mov	r4, r3
  401e4c:	4615      	mov	r5, r2
  401e4e:	5c43      	ldrb	r3, [r0, r1]
  401e50:	f806 3d01 	strb.w	r3, [r6, #-1]!
  401e54:	ea54 0305 	orrs.w	r3, r4, r5
  401e58:	d1f1      	bne.n	401e3e <_svfprintf_r+0x6da>
  401e5a:	eba9 0306 	sub.w	r3, r9, r6
  401e5e:	930e      	str	r3, [sp, #56]	; 0x38
  401e60:	e590      	b.n	401984 <_svfprintf_r+0x220>
  401e62:	9311      	str	r3, [sp, #68]	; 0x44
  401e64:	2a00      	cmp	r2, #0
  401e66:	f040 86a3 	bne.w	402bb0 <_svfprintf_r+0x144c>
  401e6a:	4b7e      	ldr	r3, [pc, #504]	; (402064 <_svfprintf_r+0x900>)
  401e6c:	9318      	str	r3, [sp, #96]	; 0x60
  401e6e:	f01b 0f20 	tst.w	fp, #32
  401e72:	f43f aeef 	beq.w	401c54 <_svfprintf_r+0x4f0>
  401e76:	9d0f      	ldr	r5, [sp, #60]	; 0x3c
  401e78:	3507      	adds	r5, #7
  401e7a:	f025 0307 	bic.w	r3, r5, #7
  401e7e:	f103 0208 	add.w	r2, r3, #8
  401e82:	f01b 0f01 	tst.w	fp, #1
  401e86:	920f      	str	r2, [sp, #60]	; 0x3c
  401e88:	e9d3 4500 	ldrd	r4, r5, [r3]
  401e8c:	f47f aef4 	bne.w	401c78 <_svfprintf_r+0x514>
  401e90:	2302      	movs	r3, #2
  401e92:	e55a      	b.n	40194a <_svfprintf_r+0x1e6>
  401e94:	9311      	str	r3, [sp, #68]	; 0x44
  401e96:	2a00      	cmp	r2, #0
  401e98:	f040 8686 	bne.w	402ba8 <_svfprintf_r+0x1444>
  401e9c:	f04b 0b10 	orr.w	fp, fp, #16
  401ea0:	f01b 0f20 	tst.w	fp, #32
  401ea4:	d0a1      	beq.n	401dea <_svfprintf_r+0x686>
  401ea6:	9d0f      	ldr	r5, [sp, #60]	; 0x3c
  401ea8:	3507      	adds	r5, #7
  401eaa:	f025 0507 	bic.w	r5, r5, #7
  401eae:	e9d5 2300 	ldrd	r2, r3, [r5]
  401eb2:	2a00      	cmp	r2, #0
  401eb4:	f105 0108 	add.w	r1, r5, #8
  401eb8:	461d      	mov	r5, r3
  401eba:	f173 0300 	sbcs.w	r3, r3, #0
  401ebe:	910f      	str	r1, [sp, #60]	; 0x3c
  401ec0:	4614      	mov	r4, r2
  401ec2:	daa6      	bge.n	401e12 <_svfprintf_r+0x6ae>
  401ec4:	272d      	movs	r7, #45	; 0x2d
  401ec6:	4264      	negs	r4, r4
  401ec8:	eb65 0545 	sbc.w	r5, r5, r5, lsl #1
  401ecc:	f88d 7077 	strb.w	r7, [sp, #119]	; 0x77
  401ed0:	2301      	movs	r3, #1
  401ed2:	e53d      	b.n	401950 <_svfprintf_r+0x1ec>
  401ed4:	9311      	str	r3, [sp, #68]	; 0x44
  401ed6:	2a00      	cmp	r2, #0
  401ed8:	f040 8662 	bne.w	402ba0 <_svfprintf_r+0x143c>
  401edc:	9d0f      	ldr	r5, [sp, #60]	; 0x3c
  401ede:	3507      	adds	r5, #7
  401ee0:	f025 0307 	bic.w	r3, r5, #7
  401ee4:	f103 0208 	add.w	r2, r3, #8
  401ee8:	920f      	str	r2, [sp, #60]	; 0x3c
  401eea:	681a      	ldr	r2, [r3, #0]
  401eec:	9215      	str	r2, [sp, #84]	; 0x54
  401eee:	685b      	ldr	r3, [r3, #4]
  401ef0:	9314      	str	r3, [sp, #80]	; 0x50
  401ef2:	9b14      	ldr	r3, [sp, #80]	; 0x50
  401ef4:	9d15      	ldr	r5, [sp, #84]	; 0x54
  401ef6:	f023 4400 	bic.w	r4, r3, #2147483648	; 0x80000000
  401efa:	4628      	mov	r0, r5
  401efc:	4621      	mov	r1, r4
  401efe:	f04f 32ff 	mov.w	r2, #4294967295
  401f02:	4b59      	ldr	r3, [pc, #356]	; (402068 <_svfprintf_r+0x904>)
  401f04:	f003 fe50 	bl	405ba8 <__aeabi_dcmpun>
  401f08:	2800      	cmp	r0, #0
  401f0a:	f040 834a 	bne.w	4025a2 <_svfprintf_r+0xe3e>
  401f0e:	4628      	mov	r0, r5
  401f10:	4621      	mov	r1, r4
  401f12:	f04f 32ff 	mov.w	r2, #4294967295
  401f16:	4b54      	ldr	r3, [pc, #336]	; (402068 <_svfprintf_r+0x904>)
  401f18:	f003 fe28 	bl	405b6c <__aeabi_dcmple>
  401f1c:	2800      	cmp	r0, #0
  401f1e:	f040 8340 	bne.w	4025a2 <_svfprintf_r+0xe3e>
  401f22:	a815      	add	r0, sp, #84	; 0x54
  401f24:	c80d      	ldmia	r0, {r0, r2, r3}
  401f26:	9914      	ldr	r1, [sp, #80]	; 0x50
  401f28:	f003 fe16 	bl	405b58 <__aeabi_dcmplt>
  401f2c:	2800      	cmp	r0, #0
  401f2e:	f040 8530 	bne.w	402992 <_svfprintf_r+0x122e>
  401f32:	f89d 7077 	ldrb.w	r7, [sp, #119]	; 0x77
  401f36:	4e4d      	ldr	r6, [pc, #308]	; (40206c <_svfprintf_r+0x908>)
  401f38:	4b4d      	ldr	r3, [pc, #308]	; (402070 <_svfprintf_r+0x90c>)
  401f3a:	f02b 0080 	bic.w	r0, fp, #128	; 0x80
  401f3e:	9007      	str	r0, [sp, #28]
  401f40:	9811      	ldr	r0, [sp, #68]	; 0x44
  401f42:	2203      	movs	r2, #3
  401f44:	2100      	movs	r1, #0
  401f46:	9208      	str	r2, [sp, #32]
  401f48:	910a      	str	r1, [sp, #40]	; 0x28
  401f4a:	2847      	cmp	r0, #71	; 0x47
  401f4c:	bfd8      	it	le
  401f4e:	461e      	movle	r6, r3
  401f50:	920e      	str	r2, [sp, #56]	; 0x38
  401f52:	9112      	str	r1, [sp, #72]	; 0x48
  401f54:	e51e      	b.n	401994 <_svfprintf_r+0x230>
  401f56:	f04b 0b08 	orr.w	fp, fp, #8
  401f5a:	f89a 3000 	ldrb.w	r3, [sl]
  401f5e:	e459      	b.n	401814 <_svfprintf_r+0xb0>
  401f60:	f1a3 0030 	sub.w	r0, r3, #48	; 0x30
  401f64:	2300      	movs	r3, #0
  401f66:	461c      	mov	r4, r3
  401f68:	f81a 3b01 	ldrb.w	r3, [sl], #1
  401f6c:	eb04 0484 	add.w	r4, r4, r4, lsl #2
  401f70:	eb00 0444 	add.w	r4, r0, r4, lsl #1
  401f74:	f1a3 0030 	sub.w	r0, r3, #48	; 0x30
  401f78:	2809      	cmp	r0, #9
  401f7a:	d9f5      	bls.n	401f68 <_svfprintf_r+0x804>
  401f7c:	940d      	str	r4, [sp, #52]	; 0x34
  401f7e:	e44b      	b.n	401818 <_svfprintf_r+0xb4>
  401f80:	f04b 0b10 	orr.w	fp, fp, #16
  401f84:	9311      	str	r3, [sp, #68]	; 0x44
  401f86:	f01b 0320 	ands.w	r3, fp, #32
  401f8a:	f43f ae1d 	beq.w	401bc8 <_svfprintf_r+0x464>
  401f8e:	9d0f      	ldr	r5, [sp, #60]	; 0x3c
  401f90:	3507      	adds	r5, #7
  401f92:	f025 0307 	bic.w	r3, r5, #7
  401f96:	f103 0208 	add.w	r2, r3, #8
  401f9a:	e9d3 4500 	ldrd	r4, r5, [r3]
  401f9e:	920f      	str	r2, [sp, #60]	; 0x3c
  401fa0:	2300      	movs	r3, #0
  401fa2:	e4d2      	b.n	40194a <_svfprintf_r+0x1e6>
  401fa4:	9311      	str	r3, [sp, #68]	; 0x44
  401fa6:	2a00      	cmp	r2, #0
  401fa8:	f040 85e7 	bne.w	402b7a <_svfprintf_r+0x1416>
  401fac:	9a11      	ldr	r2, [sp, #68]	; 0x44
  401fae:	2a00      	cmp	r2, #0
  401fb0:	f43f aca3 	beq.w	4018fa <_svfprintf_r+0x196>
  401fb4:	2300      	movs	r3, #0
  401fb6:	2101      	movs	r1, #1
  401fb8:	461f      	mov	r7, r3
  401fba:	9108      	str	r1, [sp, #32]
  401fbc:	f88d 20a0 	strb.w	r2, [sp, #160]	; 0xa0
  401fc0:	f8cd b01c 	str.w	fp, [sp, #28]
  401fc4:	f88d 3077 	strb.w	r3, [sp, #119]	; 0x77
  401fc8:	930a      	str	r3, [sp, #40]	; 0x28
  401fca:	9312      	str	r3, [sp, #72]	; 0x48
  401fcc:	910e      	str	r1, [sp, #56]	; 0x38
  401fce:	ae28      	add	r6, sp, #160	; 0xa0
  401fd0:	e4e4      	b.n	40199c <_svfprintf_r+0x238>
  401fd2:	9c27      	ldr	r4, [sp, #156]	; 0x9c
  401fd4:	e534      	b.n	401a40 <_svfprintf_r+0x2dc>
  401fd6:	9b11      	ldr	r3, [sp, #68]	; 0x44
  401fd8:	2b65      	cmp	r3, #101	; 0x65
  401fda:	f340 80a7 	ble.w	40212c <_svfprintf_r+0x9c8>
  401fde:	a815      	add	r0, sp, #84	; 0x54
  401fe0:	c80d      	ldmia	r0, {r0, r2, r3}
  401fe2:	9914      	ldr	r1, [sp, #80]	; 0x50
  401fe4:	f003 fdae 	bl	405b44 <__aeabi_dcmpeq>
  401fe8:	2800      	cmp	r0, #0
  401fea:	f000 8150 	beq.w	40228e <_svfprintf_r+0xb2a>
  401fee:	9b26      	ldr	r3, [sp, #152]	; 0x98
  401ff0:	4a20      	ldr	r2, [pc, #128]	; (402074 <_svfprintf_r+0x910>)
  401ff2:	f8c8 2000 	str.w	r2, [r8]
  401ff6:	3301      	adds	r3, #1
  401ff8:	3401      	adds	r4, #1
  401ffa:	2201      	movs	r2, #1
  401ffc:	2b07      	cmp	r3, #7
  401ffe:	9427      	str	r4, [sp, #156]	; 0x9c
  402000:	9326      	str	r3, [sp, #152]	; 0x98
  402002:	f8c8 2004 	str.w	r2, [r8, #4]
  402006:	f300 836a 	bgt.w	4026de <_svfprintf_r+0xf7a>
  40200a:	f108 0808 	add.w	r8, r8, #8
  40200e:	9b1f      	ldr	r3, [sp, #124]	; 0x7c
  402010:	9a13      	ldr	r2, [sp, #76]	; 0x4c
  402012:	9c27      	ldr	r4, [sp, #156]	; 0x9c
  402014:	4293      	cmp	r3, r2
  402016:	db03      	blt.n	402020 <_svfprintf_r+0x8bc>
  402018:	9b07      	ldr	r3, [sp, #28]
  40201a:	07dd      	lsls	r5, r3, #31
  40201c:	f57f ad82 	bpl.w	401b24 <_svfprintf_r+0x3c0>
  402020:	9b26      	ldr	r3, [sp, #152]	; 0x98
  402022:	9919      	ldr	r1, [sp, #100]	; 0x64
  402024:	9a1a      	ldr	r2, [sp, #104]	; 0x68
  402026:	f8c8 2000 	str.w	r2, [r8]
  40202a:	3301      	adds	r3, #1
  40202c:	440c      	add	r4, r1
  40202e:	2b07      	cmp	r3, #7
  402030:	f8c8 1004 	str.w	r1, [r8, #4]
  402034:	9427      	str	r4, [sp, #156]	; 0x9c
  402036:	9326      	str	r3, [sp, #152]	; 0x98
  402038:	f300 839e 	bgt.w	402778 <_svfprintf_r+0x1014>
  40203c:	f108 0808 	add.w	r8, r8, #8
  402040:	9b13      	ldr	r3, [sp, #76]	; 0x4c
  402042:	1e5e      	subs	r6, r3, #1
  402044:	2e00      	cmp	r6, #0
  402046:	f77f ad6d 	ble.w	401b24 <_svfprintf_r+0x3c0>
  40204a:	2e10      	cmp	r6, #16
  40204c:	9b26      	ldr	r3, [sp, #152]	; 0x98
  40204e:	4d0a      	ldr	r5, [pc, #40]	; (402078 <_svfprintf_r+0x914>)
  402050:	f340 81f5 	ble.w	40243e <_svfprintf_r+0xcda>
  402054:	4622      	mov	r2, r4
  402056:	2710      	movs	r7, #16
  402058:	f8dd b030 	ldr.w	fp, [sp, #48]	; 0x30
  40205c:	9c0b      	ldr	r4, [sp, #44]	; 0x2c
  40205e:	e013      	b.n	402088 <_svfprintf_r+0x924>
  402060:	00407010 	.word	0x00407010
  402064:	00406ffc 	.word	0x00406ffc
  402068:	7fefffff 	.word	0x7fefffff
  40206c:	00406ff0 	.word	0x00406ff0
  402070:	00406fec 	.word	0x00406fec
  402074:	0040702c 	.word	0x0040702c
  402078:	00407040 	.word	0x00407040
  40207c:	f108 0808 	add.w	r8, r8, #8
  402080:	3e10      	subs	r6, #16
  402082:	2e10      	cmp	r6, #16
  402084:	f340 81da 	ble.w	40243c <_svfprintf_r+0xcd8>
  402088:	3301      	adds	r3, #1
  40208a:	3210      	adds	r2, #16
  40208c:	2b07      	cmp	r3, #7
  40208e:	9227      	str	r2, [sp, #156]	; 0x9c
  402090:	9326      	str	r3, [sp, #152]	; 0x98
  402092:	e888 00a0 	stmia.w	r8, {r5, r7}
  402096:	ddf1      	ble.n	40207c <_svfprintf_r+0x918>
  402098:	aa25      	add	r2, sp, #148	; 0x94
  40209a:	4621      	mov	r1, r4
  40209c:	4658      	mov	r0, fp
  40209e:	f002 fcbd 	bl	404a1c <__ssprint_r>
  4020a2:	2800      	cmp	r0, #0
  4020a4:	f47f ac30 	bne.w	401908 <_svfprintf_r+0x1a4>
  4020a8:	9a27      	ldr	r2, [sp, #156]	; 0x9c
  4020aa:	9b26      	ldr	r3, [sp, #152]	; 0x98
  4020ac:	46c8      	mov	r8, r9
  4020ae:	e7e7      	b.n	402080 <_svfprintf_r+0x91c>
  4020b0:	9b0d      	ldr	r3, [sp, #52]	; 0x34
  4020b2:	9a08      	ldr	r2, [sp, #32]
  4020b4:	1a9f      	subs	r7, r3, r2
  4020b6:	2f00      	cmp	r7, #0
  4020b8:	f77f ace5 	ble.w	401a86 <_svfprintf_r+0x322>
  4020bc:	2f10      	cmp	r7, #16
  4020be:	9b26      	ldr	r3, [sp, #152]	; 0x98
  4020c0:	4db6      	ldr	r5, [pc, #728]	; (40239c <_svfprintf_r+0xc38>)
  4020c2:	dd27      	ble.n	402114 <_svfprintf_r+0x9b0>
  4020c4:	4642      	mov	r2, r8
  4020c6:	4621      	mov	r1, r4
  4020c8:	46b0      	mov	r8, r6
  4020ca:	f04f 0b10 	mov.w	fp, #16
  4020ce:	462e      	mov	r6, r5
  4020d0:	9c0c      	ldr	r4, [sp, #48]	; 0x30
  4020d2:	9d0b      	ldr	r5, [sp, #44]	; 0x2c
  4020d4:	e004      	b.n	4020e0 <_svfprintf_r+0x97c>
  4020d6:	3f10      	subs	r7, #16
  4020d8:	2f10      	cmp	r7, #16
  4020da:	f102 0208 	add.w	r2, r2, #8
  4020de:	dd15      	ble.n	40210c <_svfprintf_r+0x9a8>
  4020e0:	3301      	adds	r3, #1
  4020e2:	3110      	adds	r1, #16
  4020e4:	2b07      	cmp	r3, #7
  4020e6:	9127      	str	r1, [sp, #156]	; 0x9c
  4020e8:	9326      	str	r3, [sp, #152]	; 0x98
  4020ea:	e882 0840 	stmia.w	r2, {r6, fp}
  4020ee:	ddf2      	ble.n	4020d6 <_svfprintf_r+0x972>
  4020f0:	aa25      	add	r2, sp, #148	; 0x94
  4020f2:	4629      	mov	r1, r5
  4020f4:	4620      	mov	r0, r4
  4020f6:	f002 fc91 	bl	404a1c <__ssprint_r>
  4020fa:	2800      	cmp	r0, #0
  4020fc:	f47f ac04 	bne.w	401908 <_svfprintf_r+0x1a4>
  402100:	3f10      	subs	r7, #16
  402102:	2f10      	cmp	r7, #16
  402104:	9927      	ldr	r1, [sp, #156]	; 0x9c
  402106:	9b26      	ldr	r3, [sp, #152]	; 0x98
  402108:	464a      	mov	r2, r9
  40210a:	dce9      	bgt.n	4020e0 <_svfprintf_r+0x97c>
  40210c:	4635      	mov	r5, r6
  40210e:	460c      	mov	r4, r1
  402110:	4646      	mov	r6, r8
  402112:	4690      	mov	r8, r2
  402114:	3301      	adds	r3, #1
  402116:	443c      	add	r4, r7
  402118:	2b07      	cmp	r3, #7
  40211a:	9427      	str	r4, [sp, #156]	; 0x9c
  40211c:	9326      	str	r3, [sp, #152]	; 0x98
  40211e:	e888 00a0 	stmia.w	r8, {r5, r7}
  402122:	f300 8232 	bgt.w	40258a <_svfprintf_r+0xe26>
  402126:	f108 0808 	add.w	r8, r8, #8
  40212a:	e4ac      	b.n	401a86 <_svfprintf_r+0x322>
  40212c:	9b13      	ldr	r3, [sp, #76]	; 0x4c
  40212e:	9f26      	ldr	r7, [sp, #152]	; 0x98
  402130:	2b01      	cmp	r3, #1
  402132:	f340 81fe 	ble.w	402532 <_svfprintf_r+0xdce>
  402136:	3701      	adds	r7, #1
  402138:	3401      	adds	r4, #1
  40213a:	2301      	movs	r3, #1
  40213c:	2f07      	cmp	r7, #7
  40213e:	9427      	str	r4, [sp, #156]	; 0x9c
  402140:	9726      	str	r7, [sp, #152]	; 0x98
  402142:	f8c8 6000 	str.w	r6, [r8]
  402146:	f8c8 3004 	str.w	r3, [r8, #4]
  40214a:	f300 8203 	bgt.w	402554 <_svfprintf_r+0xdf0>
  40214e:	f108 0808 	add.w	r8, r8, #8
  402152:	9a19      	ldr	r2, [sp, #100]	; 0x64
  402154:	9b1a      	ldr	r3, [sp, #104]	; 0x68
  402156:	f8c8 3000 	str.w	r3, [r8]
  40215a:	3701      	adds	r7, #1
  40215c:	4414      	add	r4, r2
  40215e:	2f07      	cmp	r7, #7
  402160:	9427      	str	r4, [sp, #156]	; 0x9c
  402162:	9726      	str	r7, [sp, #152]	; 0x98
  402164:	f8c8 2004 	str.w	r2, [r8, #4]
  402168:	f300 8200 	bgt.w	40256c <_svfprintf_r+0xe08>
  40216c:	f108 0808 	add.w	r8, r8, #8
  402170:	a815      	add	r0, sp, #84	; 0x54
  402172:	c80d      	ldmia	r0, {r0, r2, r3}
  402174:	9914      	ldr	r1, [sp, #80]	; 0x50
  402176:	f003 fce5 	bl	405b44 <__aeabi_dcmpeq>
  40217a:	9b13      	ldr	r3, [sp, #76]	; 0x4c
  40217c:	2800      	cmp	r0, #0
  40217e:	f040 8101 	bne.w	402384 <_svfprintf_r+0xc20>
  402182:	3b01      	subs	r3, #1
  402184:	3701      	adds	r7, #1
  402186:	3601      	adds	r6, #1
  402188:	441c      	add	r4, r3
  40218a:	2f07      	cmp	r7, #7
  40218c:	9726      	str	r7, [sp, #152]	; 0x98
  40218e:	9427      	str	r4, [sp, #156]	; 0x9c
  402190:	f8c8 6000 	str.w	r6, [r8]
  402194:	f8c8 3004 	str.w	r3, [r8, #4]
  402198:	f300 8127 	bgt.w	4023ea <_svfprintf_r+0xc86>
  40219c:	f108 0808 	add.w	r8, r8, #8
  4021a0:	9a1b      	ldr	r2, [sp, #108]	; 0x6c
  4021a2:	f8c8 2004 	str.w	r2, [r8, #4]
  4021a6:	3701      	adds	r7, #1
  4021a8:	4414      	add	r4, r2
  4021aa:	ab21      	add	r3, sp, #132	; 0x84
  4021ac:	2f07      	cmp	r7, #7
  4021ae:	9427      	str	r4, [sp, #156]	; 0x9c
  4021b0:	9726      	str	r7, [sp, #152]	; 0x98
  4021b2:	f8c8 3000 	str.w	r3, [r8]
  4021b6:	f77f acb3 	ble.w	401b20 <_svfprintf_r+0x3bc>
  4021ba:	aa25      	add	r2, sp, #148	; 0x94
  4021bc:	990b      	ldr	r1, [sp, #44]	; 0x2c
  4021be:	980c      	ldr	r0, [sp, #48]	; 0x30
  4021c0:	f002 fc2c 	bl	404a1c <__ssprint_r>
  4021c4:	2800      	cmp	r0, #0
  4021c6:	f47f ab9f 	bne.w	401908 <_svfprintf_r+0x1a4>
  4021ca:	9c27      	ldr	r4, [sp, #156]	; 0x9c
  4021cc:	46c8      	mov	r8, r9
  4021ce:	e4a9      	b.n	401b24 <_svfprintf_r+0x3c0>
  4021d0:	aa25      	add	r2, sp, #148	; 0x94
  4021d2:	990b      	ldr	r1, [sp, #44]	; 0x2c
  4021d4:	980c      	ldr	r0, [sp, #48]	; 0x30
  4021d6:	f002 fc21 	bl	404a1c <__ssprint_r>
  4021da:	2800      	cmp	r0, #0
  4021dc:	f43f aceb 	beq.w	401bb6 <_svfprintf_r+0x452>
  4021e0:	f7ff bb92 	b.w	401908 <_svfprintf_r+0x1a4>
  4021e4:	f8dd b01c 	ldr.w	fp, [sp, #28]
  4021e8:	2b01      	cmp	r3, #1
  4021ea:	f000 8134 	beq.w	402456 <_svfprintf_r+0xcf2>
  4021ee:	2b02      	cmp	r3, #2
  4021f0:	d125      	bne.n	40223e <_svfprintf_r+0xada>
  4021f2:	f8cd b01c 	str.w	fp, [sp, #28]
  4021f6:	2400      	movs	r4, #0
  4021f8:	2500      	movs	r5, #0
  4021fa:	e61e      	b.n	401e3a <_svfprintf_r+0x6d6>
  4021fc:	aa25      	add	r2, sp, #148	; 0x94
  4021fe:	990b      	ldr	r1, [sp, #44]	; 0x2c
  402200:	980c      	ldr	r0, [sp, #48]	; 0x30
  402202:	f002 fc0b 	bl	404a1c <__ssprint_r>
  402206:	2800      	cmp	r0, #0
  402208:	f47f ab7e 	bne.w	401908 <_svfprintf_r+0x1a4>
  40220c:	9c27      	ldr	r4, [sp, #156]	; 0x9c
  40220e:	46c8      	mov	r8, r9
  402210:	e475      	b.n	401afe <_svfprintf_r+0x39a>
  402212:	aa25      	add	r2, sp, #148	; 0x94
  402214:	990b      	ldr	r1, [sp, #44]	; 0x2c
  402216:	980c      	ldr	r0, [sp, #48]	; 0x30
  402218:	f002 fc00 	bl	404a1c <__ssprint_r>
  40221c:	2800      	cmp	r0, #0
  40221e:	f47f ab73 	bne.w	401908 <_svfprintf_r+0x1a4>
  402222:	9c27      	ldr	r4, [sp, #156]	; 0x9c
  402224:	46c8      	mov	r8, r9
  402226:	e41b      	b.n	401a60 <_svfprintf_r+0x2fc>
  402228:	aa25      	add	r2, sp, #148	; 0x94
  40222a:	990b      	ldr	r1, [sp, #44]	; 0x2c
  40222c:	980c      	ldr	r0, [sp, #48]	; 0x30
  40222e:	f002 fbf5 	bl	404a1c <__ssprint_r>
  402232:	2800      	cmp	r0, #0
  402234:	f47f ab68 	bne.w	401908 <_svfprintf_r+0x1a4>
  402238:	9c27      	ldr	r4, [sp, #156]	; 0x9c
  40223a:	46c8      	mov	r8, r9
  40223c:	e420      	b.n	401a80 <_svfprintf_r+0x31c>
  40223e:	f8cd b01c 	str.w	fp, [sp, #28]
  402242:	2400      	movs	r4, #0
  402244:	2500      	movs	r5, #0
  402246:	4649      	mov	r1, r9
  402248:	e000      	b.n	40224c <_svfprintf_r+0xae8>
  40224a:	4631      	mov	r1, r6
  40224c:	08e2      	lsrs	r2, r4, #3
  40224e:	ea42 7245 	orr.w	r2, r2, r5, lsl #29
  402252:	08e8      	lsrs	r0, r5, #3
  402254:	f004 0307 	and.w	r3, r4, #7
  402258:	4605      	mov	r5, r0
  40225a:	4614      	mov	r4, r2
  40225c:	3330      	adds	r3, #48	; 0x30
  40225e:	ea54 0205 	orrs.w	r2, r4, r5
  402262:	f801 3c01 	strb.w	r3, [r1, #-1]
  402266:	f101 36ff 	add.w	r6, r1, #4294967295
  40226a:	d1ee      	bne.n	40224a <_svfprintf_r+0xae6>
  40226c:	9a07      	ldr	r2, [sp, #28]
  40226e:	07d2      	lsls	r2, r2, #31
  402270:	f57f adf3 	bpl.w	401e5a <_svfprintf_r+0x6f6>
  402274:	2b30      	cmp	r3, #48	; 0x30
  402276:	f43f adf0 	beq.w	401e5a <_svfprintf_r+0x6f6>
  40227a:	3902      	subs	r1, #2
  40227c:	2330      	movs	r3, #48	; 0x30
  40227e:	f806 3c01 	strb.w	r3, [r6, #-1]
  402282:	eba9 0301 	sub.w	r3, r9, r1
  402286:	930e      	str	r3, [sp, #56]	; 0x38
  402288:	460e      	mov	r6, r1
  40228a:	f7ff bb7b 	b.w	401984 <_svfprintf_r+0x220>
  40228e:	991f      	ldr	r1, [sp, #124]	; 0x7c
  402290:	2900      	cmp	r1, #0
  402292:	f340 822e 	ble.w	4026f2 <_svfprintf_r+0xf8e>
  402296:	9b12      	ldr	r3, [sp, #72]	; 0x48
  402298:	9a13      	ldr	r2, [sp, #76]	; 0x4c
  40229a:	4293      	cmp	r3, r2
  40229c:	bfa8      	it	ge
  40229e:	4613      	movge	r3, r2
  4022a0:	2b00      	cmp	r3, #0
  4022a2:	461f      	mov	r7, r3
  4022a4:	dd0d      	ble.n	4022c2 <_svfprintf_r+0xb5e>
  4022a6:	9b26      	ldr	r3, [sp, #152]	; 0x98
  4022a8:	f8c8 6000 	str.w	r6, [r8]
  4022ac:	3301      	adds	r3, #1
  4022ae:	443c      	add	r4, r7
  4022b0:	2b07      	cmp	r3, #7
  4022b2:	9427      	str	r4, [sp, #156]	; 0x9c
  4022b4:	f8c8 7004 	str.w	r7, [r8, #4]
  4022b8:	9326      	str	r3, [sp, #152]	; 0x98
  4022ba:	f300 831f 	bgt.w	4028fc <_svfprintf_r+0x1198>
  4022be:	f108 0808 	add.w	r8, r8, #8
  4022c2:	9b12      	ldr	r3, [sp, #72]	; 0x48
  4022c4:	2f00      	cmp	r7, #0
  4022c6:	bfa8      	it	ge
  4022c8:	1bdb      	subge	r3, r3, r7
  4022ca:	2b00      	cmp	r3, #0
  4022cc:	461f      	mov	r7, r3
  4022ce:	f340 80d6 	ble.w	40247e <_svfprintf_r+0xd1a>
  4022d2:	2f10      	cmp	r7, #16
  4022d4:	9b26      	ldr	r3, [sp, #152]	; 0x98
  4022d6:	4d31      	ldr	r5, [pc, #196]	; (40239c <_svfprintf_r+0xc38>)
  4022d8:	f340 81ed 	ble.w	4026b6 <_svfprintf_r+0xf52>
  4022dc:	4642      	mov	r2, r8
  4022de:	4621      	mov	r1, r4
  4022e0:	46b0      	mov	r8, r6
  4022e2:	f04f 0b10 	mov.w	fp, #16
  4022e6:	462e      	mov	r6, r5
  4022e8:	9c0c      	ldr	r4, [sp, #48]	; 0x30
  4022ea:	9d0b      	ldr	r5, [sp, #44]	; 0x2c
  4022ec:	e004      	b.n	4022f8 <_svfprintf_r+0xb94>
  4022ee:	3208      	adds	r2, #8
  4022f0:	3f10      	subs	r7, #16
  4022f2:	2f10      	cmp	r7, #16
  4022f4:	f340 81db 	ble.w	4026ae <_svfprintf_r+0xf4a>
  4022f8:	3301      	adds	r3, #1
  4022fa:	3110      	adds	r1, #16
  4022fc:	2b07      	cmp	r3, #7
  4022fe:	9127      	str	r1, [sp, #156]	; 0x9c
  402300:	9326      	str	r3, [sp, #152]	; 0x98
  402302:	e882 0840 	stmia.w	r2, {r6, fp}
  402306:	ddf2      	ble.n	4022ee <_svfprintf_r+0xb8a>
  402308:	aa25      	add	r2, sp, #148	; 0x94
  40230a:	4629      	mov	r1, r5
  40230c:	4620      	mov	r0, r4
  40230e:	f002 fb85 	bl	404a1c <__ssprint_r>
  402312:	2800      	cmp	r0, #0
  402314:	f47f aaf8 	bne.w	401908 <_svfprintf_r+0x1a4>
  402318:	9927      	ldr	r1, [sp, #156]	; 0x9c
  40231a:	9b26      	ldr	r3, [sp, #152]	; 0x98
  40231c:	464a      	mov	r2, r9
  40231e:	e7e7      	b.n	4022f0 <_svfprintf_r+0xb8c>
  402320:	9b0a      	ldr	r3, [sp, #40]	; 0x28
  402322:	930e      	str	r3, [sp, #56]	; 0x38
  402324:	464e      	mov	r6, r9
  402326:	f7ff bb2d 	b.w	401984 <_svfprintf_r+0x220>
  40232a:	2d00      	cmp	r5, #0
  40232c:	bf08      	it	eq
  40232e:	2c0a      	cmpeq	r4, #10
  402330:	f0c0 808f 	bcc.w	402452 <_svfprintf_r+0xcee>
  402334:	464e      	mov	r6, r9
  402336:	4620      	mov	r0, r4
  402338:	4629      	mov	r1, r5
  40233a:	220a      	movs	r2, #10
  40233c:	2300      	movs	r3, #0
  40233e:	f003 fc71 	bl	405c24 <__aeabi_uldivmod>
  402342:	3230      	adds	r2, #48	; 0x30
  402344:	f806 2d01 	strb.w	r2, [r6, #-1]!
  402348:	4620      	mov	r0, r4
  40234a:	4629      	mov	r1, r5
  40234c:	2300      	movs	r3, #0
  40234e:	220a      	movs	r2, #10
  402350:	f003 fc68 	bl	405c24 <__aeabi_uldivmod>
  402354:	4604      	mov	r4, r0
  402356:	460d      	mov	r5, r1
  402358:	ea54 0305 	orrs.w	r3, r4, r5
  40235c:	d1eb      	bne.n	402336 <_svfprintf_r+0xbd2>
  40235e:	eba9 0306 	sub.w	r3, r9, r6
  402362:	930e      	str	r3, [sp, #56]	; 0x38
  402364:	f7ff bb0e 	b.w	401984 <_svfprintf_r+0x220>
  402368:	aa25      	add	r2, sp, #148	; 0x94
  40236a:	990b      	ldr	r1, [sp, #44]	; 0x2c
  40236c:	980c      	ldr	r0, [sp, #48]	; 0x30
  40236e:	f002 fb55 	bl	404a1c <__ssprint_r>
  402372:	2800      	cmp	r0, #0
  402374:	f47f aac8 	bne.w	401908 <_svfprintf_r+0x1a4>
  402378:	f89d 7077 	ldrb.w	r7, [sp, #119]	; 0x77
  40237c:	9c27      	ldr	r4, [sp, #156]	; 0x9c
  40237e:	46c8      	mov	r8, r9
  402380:	f7ff bb5e 	b.w	401a40 <_svfprintf_r+0x2dc>
  402384:	1e5e      	subs	r6, r3, #1
  402386:	2e00      	cmp	r6, #0
  402388:	f77f af0a 	ble.w	4021a0 <_svfprintf_r+0xa3c>
  40238c:	2e10      	cmp	r6, #16
  40238e:	4d03      	ldr	r5, [pc, #12]	; (40239c <_svfprintf_r+0xc38>)
  402390:	dd22      	ble.n	4023d8 <_svfprintf_r+0xc74>
  402392:	4622      	mov	r2, r4
  402394:	f04f 0b10 	mov.w	fp, #16
  402398:	9c0c      	ldr	r4, [sp, #48]	; 0x30
  40239a:	e006      	b.n	4023aa <_svfprintf_r+0xc46>
  40239c:	00407040 	.word	0x00407040
  4023a0:	3e10      	subs	r6, #16
  4023a2:	2e10      	cmp	r6, #16
  4023a4:	f108 0808 	add.w	r8, r8, #8
  4023a8:	dd15      	ble.n	4023d6 <_svfprintf_r+0xc72>
  4023aa:	3701      	adds	r7, #1
  4023ac:	3210      	adds	r2, #16
  4023ae:	2f07      	cmp	r7, #7
  4023b0:	9227      	str	r2, [sp, #156]	; 0x9c
  4023b2:	9726      	str	r7, [sp, #152]	; 0x98
  4023b4:	e888 0820 	stmia.w	r8, {r5, fp}
  4023b8:	ddf2      	ble.n	4023a0 <_svfprintf_r+0xc3c>
  4023ba:	aa25      	add	r2, sp, #148	; 0x94
  4023bc:	990b      	ldr	r1, [sp, #44]	; 0x2c
  4023be:	4620      	mov	r0, r4
  4023c0:	f002 fb2c 	bl	404a1c <__ssprint_r>
  4023c4:	2800      	cmp	r0, #0
  4023c6:	f47f aa9f 	bne.w	401908 <_svfprintf_r+0x1a4>
  4023ca:	3e10      	subs	r6, #16
  4023cc:	2e10      	cmp	r6, #16
  4023ce:	9a27      	ldr	r2, [sp, #156]	; 0x9c
  4023d0:	9f26      	ldr	r7, [sp, #152]	; 0x98
  4023d2:	46c8      	mov	r8, r9
  4023d4:	dce9      	bgt.n	4023aa <_svfprintf_r+0xc46>
  4023d6:	4614      	mov	r4, r2
  4023d8:	3701      	adds	r7, #1
  4023da:	4434      	add	r4, r6
  4023dc:	2f07      	cmp	r7, #7
  4023de:	9427      	str	r4, [sp, #156]	; 0x9c
  4023e0:	9726      	str	r7, [sp, #152]	; 0x98
  4023e2:	e888 0060 	stmia.w	r8, {r5, r6}
  4023e6:	f77f aed9 	ble.w	40219c <_svfprintf_r+0xa38>
  4023ea:	aa25      	add	r2, sp, #148	; 0x94
  4023ec:	990b      	ldr	r1, [sp, #44]	; 0x2c
  4023ee:	980c      	ldr	r0, [sp, #48]	; 0x30
  4023f0:	f002 fb14 	bl	404a1c <__ssprint_r>
  4023f4:	2800      	cmp	r0, #0
  4023f6:	f47f aa87 	bne.w	401908 <_svfprintf_r+0x1a4>
  4023fa:	9c27      	ldr	r4, [sp, #156]	; 0x9c
  4023fc:	9f26      	ldr	r7, [sp, #152]	; 0x98
  4023fe:	46c8      	mov	r8, r9
  402400:	e6ce      	b.n	4021a0 <_svfprintf_r+0xa3c>
  402402:	9a0f      	ldr	r2, [sp, #60]	; 0x3c
  402404:	6814      	ldr	r4, [r2, #0]
  402406:	4613      	mov	r3, r2
  402408:	3304      	adds	r3, #4
  40240a:	17e5      	asrs	r5, r4, #31
  40240c:	930f      	str	r3, [sp, #60]	; 0x3c
  40240e:	4622      	mov	r2, r4
  402410:	462b      	mov	r3, r5
  402412:	e4fa      	b.n	401e0a <_svfprintf_r+0x6a6>
  402414:	3204      	adds	r2, #4
  402416:	681c      	ldr	r4, [r3, #0]
  402418:	920f      	str	r2, [sp, #60]	; 0x3c
  40241a:	2301      	movs	r3, #1
  40241c:	2500      	movs	r5, #0
  40241e:	f7ff ba94 	b.w	40194a <_svfprintf_r+0x1e6>
  402422:	681c      	ldr	r4, [r3, #0]
  402424:	3304      	adds	r3, #4
  402426:	930f      	str	r3, [sp, #60]	; 0x3c
  402428:	2500      	movs	r5, #0
  40242a:	e421      	b.n	401c70 <_svfprintf_r+0x50c>
  40242c:	990f      	ldr	r1, [sp, #60]	; 0x3c
  40242e:	460a      	mov	r2, r1
  402430:	3204      	adds	r2, #4
  402432:	680c      	ldr	r4, [r1, #0]
  402434:	920f      	str	r2, [sp, #60]	; 0x3c
  402436:	2500      	movs	r5, #0
  402438:	f7ff ba87 	b.w	40194a <_svfprintf_r+0x1e6>
  40243c:	4614      	mov	r4, r2
  40243e:	3301      	adds	r3, #1
  402440:	4434      	add	r4, r6
  402442:	2b07      	cmp	r3, #7
  402444:	9427      	str	r4, [sp, #156]	; 0x9c
  402446:	9326      	str	r3, [sp, #152]	; 0x98
  402448:	e888 0060 	stmia.w	r8, {r5, r6}
  40244c:	f77f ab68 	ble.w	401b20 <_svfprintf_r+0x3bc>
  402450:	e6b3      	b.n	4021ba <_svfprintf_r+0xa56>
  402452:	f8dd b01c 	ldr.w	fp, [sp, #28]
  402456:	f8cd b01c 	str.w	fp, [sp, #28]
  40245a:	ae42      	add	r6, sp, #264	; 0x108
  40245c:	3430      	adds	r4, #48	; 0x30
  40245e:	2301      	movs	r3, #1
  402460:	f806 4d41 	strb.w	r4, [r6, #-65]!
  402464:	930e      	str	r3, [sp, #56]	; 0x38
  402466:	f7ff ba8d 	b.w	401984 <_svfprintf_r+0x220>
  40246a:	aa25      	add	r2, sp, #148	; 0x94
  40246c:	990b      	ldr	r1, [sp, #44]	; 0x2c
  40246e:	980c      	ldr	r0, [sp, #48]	; 0x30
  402470:	f002 fad4 	bl	404a1c <__ssprint_r>
  402474:	2800      	cmp	r0, #0
  402476:	f47f aa47 	bne.w	401908 <_svfprintf_r+0x1a4>
  40247a:	9c27      	ldr	r4, [sp, #156]	; 0x9c
  40247c:	46c8      	mov	r8, r9
  40247e:	9a1f      	ldr	r2, [sp, #124]	; 0x7c
  402480:	9b13      	ldr	r3, [sp, #76]	; 0x4c
  402482:	429a      	cmp	r2, r3
  402484:	db44      	blt.n	402510 <_svfprintf_r+0xdac>
  402486:	9b07      	ldr	r3, [sp, #28]
  402488:	07d9      	lsls	r1, r3, #31
  40248a:	d441      	bmi.n	402510 <_svfprintf_r+0xdac>
  40248c:	9b13      	ldr	r3, [sp, #76]	; 0x4c
  40248e:	9812      	ldr	r0, [sp, #72]	; 0x48
  402490:	1a9a      	subs	r2, r3, r2
  402492:	1a1d      	subs	r5, r3, r0
  402494:	4295      	cmp	r5, r2
  402496:	bfa8      	it	ge
  402498:	4615      	movge	r5, r2
  40249a:	2d00      	cmp	r5, #0
  40249c:	dd0e      	ble.n	4024bc <_svfprintf_r+0xd58>
  40249e:	9926      	ldr	r1, [sp, #152]	; 0x98
  4024a0:	f8c8 5004 	str.w	r5, [r8, #4]
  4024a4:	3101      	adds	r1, #1
  4024a6:	4406      	add	r6, r0
  4024a8:	442c      	add	r4, r5
  4024aa:	2907      	cmp	r1, #7
  4024ac:	f8c8 6000 	str.w	r6, [r8]
  4024b0:	9427      	str	r4, [sp, #156]	; 0x9c
  4024b2:	9126      	str	r1, [sp, #152]	; 0x98
  4024b4:	f300 823b 	bgt.w	40292e <_svfprintf_r+0x11ca>
  4024b8:	f108 0808 	add.w	r8, r8, #8
  4024bc:	2d00      	cmp	r5, #0
  4024be:	bfac      	ite	ge
  4024c0:	1b56      	subge	r6, r2, r5
  4024c2:	4616      	movlt	r6, r2
  4024c4:	2e00      	cmp	r6, #0
  4024c6:	f77f ab2d 	ble.w	401b24 <_svfprintf_r+0x3c0>
  4024ca:	2e10      	cmp	r6, #16
  4024cc:	9b26      	ldr	r3, [sp, #152]	; 0x98
