
AFEC_EXAMPLE11.elf:     file format elf32-littlearm

Sections:
Idx Name          Size      VMA       LMA       File off  Algn
  0 .text         000280dc  00400000  00400000  00010000  2**6
                  CONTENTS, ALLOC, LOAD, READONLY, CODE
  1 .ARM.exidx    00000008  004280dc  004280dc  000380dc  2**2
                  CONTENTS, ALLOC, LOAD, READONLY, DATA
  2 .relocate     000009c0  20400000  004280e4  00040000  2**3
                  CONTENTS, ALLOC, LOAD, CODE
  3 .bss          00000560  204009c0  00428aa4  000409c0  2**2
                  ALLOC
  4 .stack        00002000  20400f20  00429004  000409c0  2**0
                  ALLOC
  5 .heap         00000200  20402f20  0042b004  000409c0  2**0
                  ALLOC
  6 .ARM.attributes 0000002e  00000000  00000000  000409c0  2**0
                  CONTENTS, READONLY
  7 .comment      00000059  00000000  00000000  000409ee  2**0
                  CONTENTS, READONLY
  8 .debug_info   0001a892  00000000  00000000  00040a47  2**0
                  CONTENTS, READONLY, DEBUGGING
  9 .debug_abbrev 00003255  00000000  00000000  0005b2d9  2**0
                  CONTENTS, READONLY, DEBUGGING
 10 .debug_loc    00009022  00000000  00000000  0005e52e  2**0
                  CONTENTS, READONLY, DEBUGGING
 11 .debug_aranges 00000fa0  00000000  00000000  00067550  2**0
                  CONTENTS, READONLY, DEBUGGING
 12 .debug_ranges 00000ed0  00000000  00000000  000684f0  2**0
                  CONTENTS, READONLY, DEBUGGING
 13 .debug_macro  000215c3  00000000  00000000  000693c0  2**0
                  CONTENTS, READONLY, DEBUGGING
 14 .debug_line   0000f8eb  00000000  00000000  0008a983  2**0
                  CONTENTS, READONLY, DEBUGGING
 15 .debug_str    0008e8e1  00000000  00000000  0009a26e  2**0
                  CONTENTS, READONLY, DEBUGGING
 16 .debug_frame  000052b0  00000000  00000000  00128b50  2**2
                  CONTENTS, READONLY, DEBUGGING

Disassembly of section .text:

00400000 <exception_table>:
  400000:	20 2f 40 20 dd 40 40 00 8d 41 40 00 8d 41 40 00      /@ .@@..A@..A@.
  400010:	8d 41 40 00 8d 41 40 00 8d 41 40 00 00 00 00 00     .A@..A@..A@.....
	...
  40002c:	8d 41 40 00 8d 41 40 00 00 00 00 00 8d 41 40 00     .A@..A@......A@.
  40003c:	8d 41 40 00 8d 41 40 00 8d 41 40 00 8d 41 40 00     .A@..A@..A@..A@.
  40004c:	8d 41 40 00 8d 41 40 00 8d 41 40 00 8d 41 40 00     .A@..A@..A@..A@.
  40005c:	8d 41 40 00 8d 41 40 00 00 00 00 00 65 35 40 00     .A@..A@.....e5@.
  40006c:	7d 35 40 00 95 35 40 00 8d 41 40 00 8d 41 40 00     }5@..5@..A@..A@.
  40007c:	8d 41 40 00 ad 35 40 00 c5 35 40 00 8d 41 40 00     .A@..5@..5@..A@.
  40008c:	8d 41 40 00 8d 41 40 00 8d 41 40 00 8d 41 40 00     .A@..A@..A@..A@.
  40009c:	8d 41 40 00 8d 41 40 00 8d 41 40 00 8d 41 40 00     .A@..A@..A@..A@.
  4000ac:	8d 41 40 00 8d 41 40 00 c5 2e 40 00 8d 41 40 00     .A@..A@...@..A@.
  4000bc:	8d 41 40 00 8d 41 40 00 8d 41 40 00 8d 41 40 00     .A@..A@..A@..A@.
  4000cc:	8d 41 40 00 00 00 00 00 8d 41 40 00 00 00 00 00     .A@......A@.....
  4000dc:	8d 41 40 00 dd 2e 40 00 8d 41 40 00 8d 41 40 00     .A@...@..A@..A@.
  4000ec:	8d 41 40 00 8d 41 40 00 8d 41 40 00 8d 41 40 00     .A@..A@..A@..A@.
  4000fc:	8d 41 40 00 8d 41 40 00 8d 41 40 00 8d 41 40 00     .A@..A@..A@..A@.
  40010c:	8d 41 40 00 8d 41 40 00 00 00 00 00 00 00 00 00     .A@..A@.........
  40011c:	00 00 00 00 8d 41 40 00 8d 41 40 00 8d 41 40 00     .....A@..A@..A@.
  40012c:	8d 41 40 00 8d 41 40 00 00 00 00 00 8d 41 40 00     .A@..A@......A@.
  40013c:	8d 41 40 00                                         .A@.

00400140 <__do_global_dtors_aux>:
  400140:	b510      	push	{r4, lr}
  400142:	4c05      	ldr	r4, [pc, #20]	; (400158 <__do_global_dtors_aux+0x18>)
  400144:	7823      	ldrb	r3, [r4, #0]
  400146:	b933      	cbnz	r3, 400156 <__do_global_dtors_aux+0x16>
  400148:	4b04      	ldr	r3, [pc, #16]	; (40015c <__do_global_dtors_aux+0x1c>)
  40014a:	b113      	cbz	r3, 400152 <__do_global_dtors_aux+0x12>
  40014c:	4804      	ldr	r0, [pc, #16]	; (400160 <__do_global_dtors_aux+0x20>)
  40014e:	f3af 8000 	nop.w
  400152:	2301      	movs	r3, #1
  400154:	7023      	strb	r3, [r4, #0]
  400156:	bd10      	pop	{r4, pc}
  400158:	204009c0 	.word	0x204009c0
  40015c:	00000000 	.word	0x00000000
  400160:	004280e4 	.word	0x004280e4

00400164 <frame_dummy>:
  400164:	4b0c      	ldr	r3, [pc, #48]	; (400198 <frame_dummy+0x34>)
  400166:	b143      	cbz	r3, 40017a <frame_dummy+0x16>
  400168:	480c      	ldr	r0, [pc, #48]	; (40019c <frame_dummy+0x38>)
  40016a:	490d      	ldr	r1, [pc, #52]	; (4001a0 <frame_dummy+0x3c>)
  40016c:	b510      	push	{r4, lr}
  40016e:	f3af 8000 	nop.w
  400172:	480c      	ldr	r0, [pc, #48]	; (4001a4 <frame_dummy+0x40>)
  400174:	6803      	ldr	r3, [r0, #0]
  400176:	b923      	cbnz	r3, 400182 <frame_dummy+0x1e>
  400178:	bd10      	pop	{r4, pc}
  40017a:	480a      	ldr	r0, [pc, #40]	; (4001a4 <frame_dummy+0x40>)
  40017c:	6803      	ldr	r3, [r0, #0]
  40017e:	b933      	cbnz	r3, 40018e <frame_dummy+0x2a>
  400180:	4770      	bx	lr
  400182:	4b09      	ldr	r3, [pc, #36]	; (4001a8 <frame_dummy+0x44>)
  400184:	2b00      	cmp	r3, #0
  400186:	d0f7      	beq.n	400178 <frame_dummy+0x14>
  400188:	e8bd 4010 	ldmia.w	sp!, {r4, lr}
  40018c:	4718      	bx	r3
  40018e:	4b06      	ldr	r3, [pc, #24]	; (4001a8 <frame_dummy+0x44>)
  400190:	2b00      	cmp	r3, #0
  400192:	d0f5      	beq.n	400180 <frame_dummy+0x1c>
  400194:	4718      	bx	r3
  400196:	bf00      	nop
  400198:	00000000 	.word	0x00000000
  40019c:	004280e4 	.word	0x004280e4
  4001a0:	204009c4 	.word	0x204009c4
  4001a4:	004280e4 	.word	0x004280e4
  4001a8:	00000000 	.word	0x00000000

004001ac <afec_ch_sanity_check>:
 * \param channel  AFEC channel number.
 *
 */
static inline void afec_ch_sanity_check(Afec *const afec,
		const enum afec_channel_num channel)
{
  4001ac:	b480      	push	{r7}
  4001ae:	b083      	sub	sp, #12
  4001b0:	af00      	add	r7, sp, #0
  4001b2:	6078      	str	r0, [r7, #4]
  4001b4:	460b      	mov	r3, r1
  4001b6:	807b      	strh	r3, [r7, #2]
	#endif
	} else if (afec == AFEC1) {
		Assert(channel < NB_CH_AFE1);
	}
	UNUSED(channel);
}
  4001b8:	bf00      	nop
  4001ba:	370c      	adds	r7, #12
  4001bc:	46bd      	mov	sp, r7
  4001be:	f85d 7b04 	ldr.w	r7, [sp], #4
  4001c2:	4770      	bx	lr

004001c4 <afec_set_trigger>:
 * \param trigger Conversion trigger.
 *
 */
static inline void afec_set_trigger(Afec *const afec,
		const enum afec_trigger trigger)
{
  4001c4:	b480      	push	{r7}
  4001c6:	b085      	sub	sp, #20
  4001c8:	af00      	add	r7, sp, #0
  4001ca:	6078      	str	r0, [r7, #4]
  4001cc:	460b      	mov	r3, r1
  4001ce:	70fb      	strb	r3, [r7, #3]
	uint32_t reg;

	reg = afec->AFEC_MR;
  4001d0:	687b      	ldr	r3, [r7, #4]
  4001d2:	685b      	ldr	r3, [r3, #4]
  4001d4:	60fb      	str	r3, [r7, #12]

	if (trigger == AFEC_TRIG_FREERUN) {
  4001d6:	78fb      	ldrb	r3, [r7, #3]
  4001d8:	2bff      	cmp	r3, #255	; 0xff
  4001da:	d104      	bne.n	4001e6 <afec_set_trigger+0x22>
		reg |= AFEC_MR_FREERUN_ON;
  4001dc:	68fb      	ldr	r3, [r7, #12]
  4001de:	f043 0380 	orr.w	r3, r3, #128	; 0x80
  4001e2:	60fb      	str	r3, [r7, #12]
  4001e4:	e007      	b.n	4001f6 <afec_set_trigger+0x32>
	} else {
		reg &= ~(AFEC_MR_TRGSEL_Msk | AFEC_MR_TRGEN | AFEC_MR_FREERUN_ON);
  4001e6:	68fb      	ldr	r3, [r7, #12]
  4001e8:	f023 038f 	bic.w	r3, r3, #143	; 0x8f
  4001ec:	60fb      	str	r3, [r7, #12]
		reg |= trigger;
  4001ee:	78fb      	ldrb	r3, [r7, #3]
  4001f0:	68fa      	ldr	r2, [r7, #12]
  4001f2:	4313      	orrs	r3, r2
  4001f4:	60fb      	str	r3, [r7, #12]
	}

	afec->AFEC_MR = reg;
  4001f6:	687b      	ldr	r3, [r7, #4]
  4001f8:	68fa      	ldr	r2, [r7, #12]
  4001fa:	605a      	str	r2, [r3, #4]
}
  4001fc:	bf00      	nop
  4001fe:	3714      	adds	r7, #20
  400200:	46bd      	mov	sp, r7
  400202:	f85d 7b04 	ldr.w	r7, [sp], #4
  400206:	4770      	bx	lr

00400208 <afec_start_software_conversion>:
 * this function can NOT start analog to digital conversion.
 *
 * \param afec  Base address of the AFEC.
 */
static inline void afec_start_software_conversion(Afec *const afec)
{
  400208:	b480      	push	{r7}
  40020a:	b083      	sub	sp, #12
  40020c:	af00      	add	r7, sp, #0
  40020e:	6078      	str	r0, [r7, #4]
	afec->AFEC_CR = AFEC_CR_START;
  400210:	687b      	ldr	r3, [r7, #4]
  400212:	2202      	movs	r2, #2
  400214:	601a      	str	r2, [r3, #0]
}
  400216:	bf00      	nop
  400218:	370c      	adds	r7, #12
  40021a:	46bd      	mov	sp, r7
  40021c:	f85d 7b04 	ldr.w	r7, [sp], #4
  400220:	4770      	bx	lr
	...

00400224 <afec_channel_enable>:
 * \param afec  Base address of the AFEC.
 * \param afec_ch AFEC channel number.
 */
static inline void afec_channel_enable(Afec *const afec,
		const enum afec_channel_num afec_ch)
{
  400224:	b580      	push	{r7, lr}
  400226:	b082      	sub	sp, #8
  400228:	af00      	add	r7, sp, #0
  40022a:	6078      	str	r0, [r7, #4]
  40022c:	460b      	mov	r3, r1
  40022e:	807b      	strh	r3, [r7, #2]
	if (afec_ch != AFEC_CHANNEL_ALL) {
  400230:	887b      	ldrh	r3, [r7, #2]
  400232:	f640 72ff 	movw	r2, #4095	; 0xfff
  400236:	4293      	cmp	r3, r2
  400238:	d004      	beq.n	400244 <afec_channel_enable+0x20>
		afec_ch_sanity_check(afec, afec_ch);
  40023a:	887b      	ldrh	r3, [r7, #2]
  40023c:	4619      	mov	r1, r3
  40023e:	6878      	ldr	r0, [r7, #4]
  400240:	4b0a      	ldr	r3, [pc, #40]	; (40026c <afec_channel_enable+0x48>)
  400242:	4798      	blx	r3
	}

	afec->AFEC_CHER = (afec_ch == AFEC_CHANNEL_ALL) ?
			AFEC_CHANNEL_ALL : 1 << afec_ch;
  400244:	887b      	ldrh	r3, [r7, #2]
  400246:	f640 72ff 	movw	r2, #4095	; 0xfff
  40024a:	4293      	cmp	r3, r2
  40024c:	d005      	beq.n	40025a <afec_channel_enable+0x36>
  40024e:	887b      	ldrh	r3, [r7, #2]
  400250:	2201      	movs	r2, #1
  400252:	fa02 f303 	lsl.w	r3, r2, r3
  400256:	461a      	mov	r2, r3
  400258:	e001      	b.n	40025e <afec_channel_enable+0x3a>
  40025a:	f640 72ff 	movw	r2, #4095	; 0xfff
	afec->AFEC_CHER = (afec_ch == AFEC_CHANNEL_ALL) ?
  40025e:	687b      	ldr	r3, [r7, #4]
  400260:	615a      	str	r2, [r3, #20]
}
  400262:	bf00      	nop
  400264:	3708      	adds	r7, #8
  400266:	46bd      	mov	sp, r7
  400268:	bd80      	pop	{r7, pc}
  40026a:	bf00      	nop
  40026c:	004001ad 	.word	0x004001ad

00400270 <afec_channel_get_value>:
 *
 * \return AFEC converted value of the selected channel.
 */
static inline uint32_t afec_channel_get_value(Afec *const afec,
		enum afec_channel_num afec_ch)
{
  400270:	b580      	push	{r7, lr}
  400272:	b082      	sub	sp, #8
  400274:	af00      	add	r7, sp, #0
  400276:	6078      	str	r0, [r7, #4]
  400278:	460b      	mov	r3, r1
  40027a:	807b      	strh	r3, [r7, #2]
	afec_ch_sanity_check(afec, afec_ch);
  40027c:	887b      	ldrh	r3, [r7, #2]
  40027e:	4619      	mov	r1, r3
  400280:	6878      	ldr	r0, [r7, #4]
  400282:	4b05      	ldr	r3, [pc, #20]	; (400298 <afec_channel_get_value+0x28>)
  400284:	4798      	blx	r3

	afec->AFEC_CSELR = afec_ch;
  400286:	887a      	ldrh	r2, [r7, #2]
  400288:	687b      	ldr	r3, [r7, #4]
  40028a:	665a      	str	r2, [r3, #100]	; 0x64
	return afec->AFEC_CDR;
  40028c:	687b      	ldr	r3, [r7, #4]
  40028e:	6e9b      	ldr	r3, [r3, #104]	; 0x68
}
  400290:	4618      	mov	r0, r3
  400292:	3708      	adds	r7, #8
  400294:	46bd      	mov	sp, r7
  400296:	bd80      	pop	{r7, pc}
  400298:	004001ad 	.word	0x004001ad

0040029c <afec_channel_set_analog_offset>:
 * \param afec_ch AFEC channel number.
 * \param aoffset  Analog offset value.
 */
static inline void afec_channel_set_analog_offset(Afec *const afec,
		enum afec_channel_num afec_ch, uint16_t aoffset)
{
  40029c:	b580      	push	{r7, lr}
  40029e:	b082      	sub	sp, #8
  4002a0:	af00      	add	r7, sp, #0
  4002a2:	6078      	str	r0, [r7, #4]
  4002a4:	460b      	mov	r3, r1
  4002a6:	807b      	strh	r3, [r7, #2]
  4002a8:	4613      	mov	r3, r2
  4002aa:	803b      	strh	r3, [r7, #0]
	afec_ch_sanity_check(afec, afec_ch);
  4002ac:	887b      	ldrh	r3, [r7, #2]
  4002ae:	4619      	mov	r1, r3
  4002b0:	6878      	ldr	r0, [r7, #4]
  4002b2:	4b07      	ldr	r3, [pc, #28]	; (4002d0 <afec_channel_set_analog_offset+0x34>)
  4002b4:	4798      	blx	r3

	afec->AFEC_CSELR = afec_ch;
  4002b6:	887a      	ldrh	r2, [r7, #2]
  4002b8:	687b      	ldr	r3, [r7, #4]
  4002ba:	665a      	str	r2, [r3, #100]	; 0x64
	afec->AFEC_COCR = (aoffset & AFEC_COCR_AOFF_Msk);
  4002bc:	883b      	ldrh	r3, [r7, #0]
  4002be:	f3c3 020b 	ubfx	r2, r3, #0, #12
  4002c2:	687b      	ldr	r3, [r7, #4]
  4002c4:	66da      	str	r2, [r3, #108]	; 0x6c
}
  4002c6:	bf00      	nop
  4002c8:	3708      	adds	r7, #8
  4002ca:	46bd      	mov	sp, r7
  4002cc:	bd80      	pop	{r7, pc}
  4002ce:	bf00      	nop
  4002d0:	004001ad 	.word	0x004001ad

004002d4 <osc_get_rate>:

	return 0;
}

static inline uint32_t osc_get_rate(uint32_t ul_id)
{
  4002d4:	b480      	push	{r7}
  4002d6:	b083      	sub	sp, #12
  4002d8:	af00      	add	r7, sp, #0
  4002da:	6078      	str	r0, [r7, #4]
	switch (ul_id) {
  4002dc:	687b      	ldr	r3, [r7, #4]
  4002de:	2b07      	cmp	r3, #7
  4002e0:	d825      	bhi.n	40032e <osc_get_rate+0x5a>
  4002e2:	a201      	add	r2, pc, #4	; (adr r2, 4002e8 <osc_get_rate+0x14>)
  4002e4:	f852 f023 	ldr.w	pc, [r2, r3, lsl #2]
  4002e8:	00400309 	.word	0x00400309
  4002ec:	0040030f 	.word	0x0040030f
  4002f0:	00400315 	.word	0x00400315
  4002f4:	0040031b 	.word	0x0040031b
  4002f8:	0040031f 	.word	0x0040031f
  4002fc:	00400323 	.word	0x00400323
  400300:	00400327 	.word	0x00400327
  400304:	0040032b 	.word	0x0040032b
	case OSC_SLCK_32K_RC:
		return OSC_SLCK_32K_RC_HZ;
  400308:	f44f 43fa 	mov.w	r3, #32000	; 0x7d00
  40030c:	e010      	b.n	400330 <osc_get_rate+0x5c>

	case OSC_SLCK_32K_XTAL:
		return BOARD_FREQ_SLCK_XTAL;
  40030e:	f44f 4300 	mov.w	r3, #32768	; 0x8000
  400312:	e00d      	b.n	400330 <osc_get_rate+0x5c>

	case OSC_SLCK_32K_BYPASS:
		return BOARD_FREQ_SLCK_BYPASS;
  400314:	f44f 4300 	mov.w	r3, #32768	; 0x8000
  400318:	e00a      	b.n	400330 <osc_get_rate+0x5c>

	case OSC_MAINCK_4M_RC:
		return OSC_MAINCK_4M_RC_HZ;
  40031a:	4b08      	ldr	r3, [pc, #32]	; (40033c <osc_get_rate+0x68>)
  40031c:	e008      	b.n	400330 <osc_get_rate+0x5c>

	case OSC_MAINCK_8M_RC:
		return OSC_MAINCK_8M_RC_HZ;
  40031e:	4b08      	ldr	r3, [pc, #32]	; (400340 <osc_get_rate+0x6c>)
  400320:	e006      	b.n	400330 <osc_get_rate+0x5c>

	case OSC_MAINCK_12M_RC:
		return OSC_MAINCK_12M_RC_HZ;
  400322:	4b08      	ldr	r3, [pc, #32]	; (400344 <osc_get_rate+0x70>)
  400324:	e004      	b.n	400330 <osc_get_rate+0x5c>

	case OSC_MAINCK_XTAL:
		return BOARD_FREQ_MAINCK_XTAL;
  400326:	4b07      	ldr	r3, [pc, #28]	; (400344 <osc_get_rate+0x70>)
  400328:	e002      	b.n	400330 <osc_get_rate+0x5c>

	case OSC_MAINCK_BYPASS:
		return BOARD_FREQ_MAINCK_BYPASS;
  40032a:	4b06      	ldr	r3, [pc, #24]	; (400344 <osc_get_rate+0x70>)
  40032c:	e000      	b.n	400330 <osc_get_rate+0x5c>
	}

	return 0;
  40032e:	2300      	movs	r3, #0
}
  400330:	4618      	mov	r0, r3
  400332:	370c      	adds	r7, #12
  400334:	46bd      	mov	sp, r7
  400336:	f85d 7b04 	ldr.w	r7, [sp], #4
  40033a:	4770      	bx	lr
  40033c:	003d0900 	.word	0x003d0900
  400340:	007a1200 	.word	0x007a1200
  400344:	00b71b00 	.word	0x00b71b00

00400348 <sysclk_get_main_hz>:
 */
#if (defined CONFIG_SYSCLK_DEFAULT_RETURNS_SLOW_OSC)
extern uint32_t sysclk_initialized;
#endif
static inline uint32_t sysclk_get_main_hz(void)
{
  400348:	b580      	push	{r7, lr}
  40034a:	af00      	add	r7, sp, #0
	} else if (CONFIG_SYSCLK_SOURCE == SYSCLK_SRC_MAINCK_BYPASS) {
		return OSC_MAINCK_BYPASS_HZ;
	}
#ifdef CONFIG_PLL0_SOURCE
	else if (CONFIG_SYSCLK_SOURCE == SYSCLK_SRC_PLLACK) {
		return pll_get_default_rate(0);
  40034c:	2006      	movs	r0, #6
  40034e:	4b05      	ldr	r3, [pc, #20]	; (400364 <sysclk_get_main_hz+0x1c>)
  400350:	4798      	blx	r3
  400352:	4602      	mov	r2, r0
  400354:	4613      	mov	r3, r2
  400356:	009b      	lsls	r3, r3, #2
  400358:	4413      	add	r3, r2
  40035a:	009a      	lsls	r2, r3, #2
  40035c:	4413      	add	r3, r2
#endif
	else {
		/* unhandled_case(CONFIG_SYSCLK_SOURCE); */
		return 0;
	}
}
  40035e:	4618      	mov	r0, r3
  400360:	bd80      	pop	{r7, pc}
  400362:	bf00      	nop
  400364:	004002d5 	.word	0x004002d5

00400368 <sysclk_get_cpu_hz>:
 * clocks.
 *
 * \return Frequency of the CPU clock, in Hz.
 */
static inline uint32_t sysclk_get_cpu_hz(void)
{
  400368:	b580      	push	{r7, lr}
  40036a:	af00      	add	r7, sp, #0
	/* CONFIG_SYSCLK_PRES is the register value for setting the expected */
	/* prescaler, not an immediate value. */
	return sysclk_get_main_hz() /
  40036c:	4b02      	ldr	r3, [pc, #8]	; (400378 <sysclk_get_cpu_hz+0x10>)
  40036e:	4798      	blx	r3
  400370:	4603      	mov	r3, r0
		((CONFIG_SYSCLK_PRES == SYSCLK_PRES_3) ? 3 :
			(1 << (CONFIG_SYSCLK_PRES >> PMC_MCKR_PRES_Pos)));
}
  400372:	4618      	mov	r0, r3
  400374:	bd80      	pop	{r7, pc}
  400376:	bf00      	nop
  400378:	00400349 	.word	0x00400349

0040037c <sysclk_get_peripheral_hz>:
 * \brief Retrieves the current rate in Hz of the peripheral clocks.
 *
 * \return Frequency of the peripheral clocks, in Hz.
 */
static inline uint32_t sysclk_get_peripheral_hz(void)
{
  40037c:	b580      	push	{r7, lr}
  40037e:	af00      	add	r7, sp, #0
	/* CONFIG_SYSCLK_PRES is the register value for setting the expected */
	/* prescaler, not an immediate value. */
	return sysclk_get_main_hz() /
  400380:	4b02      	ldr	r3, [pc, #8]	; (40038c <sysclk_get_peripheral_hz+0x10>)
  400382:	4798      	blx	r3
  400384:	4603      	mov	r3, r0
  400386:	085b      	lsrs	r3, r3, #1
		(((CONFIG_SYSCLK_PRES == SYSCLK_PRES_3) ? 3 : (1 << (CONFIG_SYSCLK_PRES >> PMC_MCKR_PRES_Pos))) * CONFIG_SYSCLK_DIV);
}
  400388:	4618      	mov	r0, r3
  40038a:	bd80      	pop	{r7, pc}
  40038c:	00400349 	.word	0x00400349

00400390 <sysclk_enable_peripheral_clock>:
 * \brief Enable a peripheral's clock.
 *
 * \param ul_id Id (number) of the peripheral clock.
 */
static inline void sysclk_enable_peripheral_clock(uint32_t ul_id)
{
  400390:	b580      	push	{r7, lr}
  400392:	b082      	sub	sp, #8
  400394:	af00      	add	r7, sp, #0
  400396:	6078      	str	r0, [r7, #4]
	pmc_enable_periph_clk(ul_id);
  400398:	6878      	ldr	r0, [r7, #4]
  40039a:	4b03      	ldr	r3, [pc, #12]	; (4003a8 <sysclk_enable_peripheral_clock+0x18>)
  40039c:	4798      	blx	r3
}
  40039e:	bf00      	nop
  4003a0:	3708      	adds	r7, #8
  4003a2:	46bd      	mov	sp, r7
  4003a4:	bd80      	pop	{r7, pc}
  4003a6:	bf00      	nop
  4003a8:	004038a1 	.word	0x004038a1

004003ac <usart_serial_init>:
 * \param opt      Options needed to set up RS232 communication (see
 * \ref usart_options_t).
 */
static inline void usart_serial_init(usart_if p_usart,
		usart_serial_options_t *opt)
{
  4003ac:	b580      	push	{r7, lr}
  4003ae:	b08c      	sub	sp, #48	; 0x30
  4003b0:	af00      	add	r7, sp, #0
  4003b2:	6078      	str	r0, [r7, #4]
  4003b4:	6039      	str	r1, [r7, #0]
#if ((!SAM4L) && (!SAMG55))
	sam_uart_opt_t uart_settings;
	uart_settings.ul_mck = sysclk_get_peripheral_hz();
  4003b6:	4b4f      	ldr	r3, [pc, #316]	; (4004f4 <usart_serial_init+0x148>)
  4003b8:	4798      	blx	r3
  4003ba:	4603      	mov	r3, r0
  4003bc:	627b      	str	r3, [r7, #36]	; 0x24
	uart_settings.ul_baudrate = opt->baudrate;
  4003be:	683b      	ldr	r3, [r7, #0]
  4003c0:	681b      	ldr	r3, [r3, #0]
  4003c2:	62bb      	str	r3, [r7, #40]	; 0x28
	uart_settings.ul_mode = opt->paritytype;
  4003c4:	683b      	ldr	r3, [r7, #0]
  4003c6:	689b      	ldr	r3, [r3, #8]
  4003c8:	62fb      	str	r3, [r7, #44]	; 0x2c
#endif

	sam_usart_opt_t usart_settings;
	usart_settings.baudrate = opt->baudrate;
  4003ca:	683b      	ldr	r3, [r7, #0]
  4003cc:	681b      	ldr	r3, [r3, #0]
  4003ce:	60fb      	str	r3, [r7, #12]
	usart_settings.char_length = opt->charlength;
  4003d0:	683b      	ldr	r3, [r7, #0]
  4003d2:	685b      	ldr	r3, [r3, #4]
  4003d4:	613b      	str	r3, [r7, #16]
	usart_settings.parity_type = opt->paritytype;
  4003d6:	683b      	ldr	r3, [r7, #0]
  4003d8:	689b      	ldr	r3, [r3, #8]
  4003da:	617b      	str	r3, [r7, #20]
	usart_settings.stop_bits= opt->stopbits;
  4003dc:	683b      	ldr	r3, [r7, #0]
  4003de:	68db      	ldr	r3, [r3, #12]
  4003e0:	61bb      	str	r3, [r7, #24]
	usart_settings.channel_mode= US_MR_CHMODE_NORMAL;
  4003e2:	2300      	movs	r3, #0
  4003e4:	61fb      	str	r3, [r7, #28]
		/* Configure UART */
		uart_init((Uart*)p_usart, &uart_settings);
	}
#else
# ifdef UART0
	if (UART0 == (Uart*)p_usart) {
  4003e6:	687b      	ldr	r3, [r7, #4]
  4003e8:	4a43      	ldr	r2, [pc, #268]	; (4004f8 <usart_serial_init+0x14c>)
  4003ea:	4293      	cmp	r3, r2
  4003ec:	d108      	bne.n	400400 <usart_serial_init+0x54>
		sysclk_enable_peripheral_clock(ID_UART0);
  4003ee:	2007      	movs	r0, #7
  4003f0:	4b42      	ldr	r3, [pc, #264]	; (4004fc <usart_serial_init+0x150>)
  4003f2:	4798      	blx	r3
		/* Configure UART */
		uart_init((Uart*)p_usart, &uart_settings);
  4003f4:	f107 0324 	add.w	r3, r7, #36	; 0x24
  4003f8:	4619      	mov	r1, r3
  4003fa:	6878      	ldr	r0, [r7, #4]
  4003fc:	4b40      	ldr	r3, [pc, #256]	; (400500 <usart_serial_init+0x154>)
  4003fe:	4798      	blx	r3
	}
# endif
# ifdef UART1
	if (UART1 == (Uart*)p_usart) {
  400400:	687b      	ldr	r3, [r7, #4]
  400402:	4a40      	ldr	r2, [pc, #256]	; (400504 <usart_serial_init+0x158>)
  400404:	4293      	cmp	r3, r2
  400406:	d108      	bne.n	40041a <usart_serial_init+0x6e>
		sysclk_enable_peripheral_clock(ID_UART1);
  400408:	2008      	movs	r0, #8
  40040a:	4b3c      	ldr	r3, [pc, #240]	; (4004fc <usart_serial_init+0x150>)
  40040c:	4798      	blx	r3
		/* Configure UART */
		uart_init((Uart*)p_usart, &uart_settings);
  40040e:	f107 0324 	add.w	r3, r7, #36	; 0x24
  400412:	4619      	mov	r1, r3
  400414:	6878      	ldr	r0, [r7, #4]
  400416:	4b3a      	ldr	r3, [pc, #232]	; (400500 <usart_serial_init+0x154>)
  400418:	4798      	blx	r3
	}
# endif
# ifdef UART2
	if (UART2 == (Uart*)p_usart) {
  40041a:	687b      	ldr	r3, [r7, #4]
  40041c:	4a3a      	ldr	r2, [pc, #232]	; (400508 <usart_serial_init+0x15c>)
  40041e:	4293      	cmp	r3, r2
  400420:	d108      	bne.n	400434 <usart_serial_init+0x88>
		sysclk_enable_peripheral_clock(ID_UART2);
  400422:	202c      	movs	r0, #44	; 0x2c
  400424:	4b35      	ldr	r3, [pc, #212]	; (4004fc <usart_serial_init+0x150>)
  400426:	4798      	blx	r3
		/* Configure UART */
		uart_init((Uart*)p_usart, &uart_settings);
  400428:	f107 0324 	add.w	r3, r7, #36	; 0x24
  40042c:	4619      	mov	r1, r3
  40042e:	6878      	ldr	r0, [r7, #4]
  400430:	4b33      	ldr	r3, [pc, #204]	; (400500 <usart_serial_init+0x154>)
  400432:	4798      	blx	r3
	}
# endif
# ifdef UART3
	if (UART3 == (Uart*)p_usart) {
  400434:	687b      	ldr	r3, [r7, #4]
  400436:	4a35      	ldr	r2, [pc, #212]	; (40050c <usart_serial_init+0x160>)
  400438:	4293      	cmp	r3, r2
  40043a:	d108      	bne.n	40044e <usart_serial_init+0xa2>
		sysclk_enable_peripheral_clock(ID_UART3);
  40043c:	202d      	movs	r0, #45	; 0x2d
  40043e:	4b2f      	ldr	r3, [pc, #188]	; (4004fc <usart_serial_init+0x150>)
  400440:	4798      	blx	r3
		/* Configure UART */
		uart_init((Uart*)p_usart, &uart_settings);
  400442:	f107 0324 	add.w	r3, r7, #36	; 0x24
  400446:	4619      	mov	r1, r3
  400448:	6878      	ldr	r0, [r7, #4]
  40044a:	4b2d      	ldr	r3, [pc, #180]	; (400500 <usart_serial_init+0x154>)
  40044c:	4798      	blx	r3
	}
# endif
# ifdef UART4
	if (UART4 == (Uart*)p_usart) {
  40044e:	687b      	ldr	r3, [r7, #4]
  400450:	4a2f      	ldr	r2, [pc, #188]	; (400510 <usart_serial_init+0x164>)
  400452:	4293      	cmp	r3, r2
  400454:	d108      	bne.n	400468 <usart_serial_init+0xbc>
		sysclk_enable_peripheral_clock(ID_UART4);
  400456:	202e      	movs	r0, #46	; 0x2e
  400458:	4b28      	ldr	r3, [pc, #160]	; (4004fc <usart_serial_init+0x150>)
  40045a:	4798      	blx	r3
		/* Configure UART */
		uart_init((Uart*)p_usart, &uart_settings);
  40045c:	f107 0324 	add.w	r3, r7, #36	; 0x24
  400460:	4619      	mov	r1, r3
  400462:	6878      	ldr	r0, [r7, #4]
  400464:	4b26      	ldr	r3, [pc, #152]	; (400500 <usart_serial_init+0x154>)
  400466:	4798      	blx	r3
		usart_enable_tx(p_usart);
		usart_enable_rx(p_usart);
	}
#else
# ifdef USART0
	if (USART0 == p_usart) {
  400468:	687b      	ldr	r3, [r7, #4]
  40046a:	4a2a      	ldr	r2, [pc, #168]	; (400514 <usart_serial_init+0x168>)
  40046c:	4293      	cmp	r3, r2
  40046e:	d111      	bne.n	400494 <usart_serial_init+0xe8>
#if (!SAM4L)
#if (SAMG55)
		flexcom_enable(FLEXCOM0);
		flexcom_set_opmode(FLEXCOM0, FLEXCOM_USART);
#else
		sysclk_enable_peripheral_clock(ID_USART0);
  400470:	200d      	movs	r0, #13
  400472:	4b22      	ldr	r3, [pc, #136]	; (4004fc <usart_serial_init+0x150>)
  400474:	4798      	blx	r3
#endif
		/* Configure USART */
		usart_init_rs232(p_usart, &usart_settings,
  400476:	4b1f      	ldr	r3, [pc, #124]	; (4004f4 <usart_serial_init+0x148>)
  400478:	4798      	blx	r3
  40047a:	4602      	mov	r2, r0
  40047c:	f107 030c 	add.w	r3, r7, #12
  400480:	4619      	mov	r1, r3
  400482:	6878      	ldr	r0, [r7, #4]
  400484:	4b24      	ldr	r3, [pc, #144]	; (400518 <usart_serial_init+0x16c>)
  400486:	4798      	blx	r3
		/* Configure USART */
		usart_init_rs232(p_usart, &usart_settings,
				sysclk_get_peripheral_bus_hz(p_usart));
#endif
		/* Enable the receiver and transmitter. */
		usart_enable_tx(p_usart);
  400488:	6878      	ldr	r0, [r7, #4]
  40048a:	4b24      	ldr	r3, [pc, #144]	; (40051c <usart_serial_init+0x170>)
  40048c:	4798      	blx	r3
		usart_enable_rx(p_usart);
  40048e:	6878      	ldr	r0, [r7, #4]
  400490:	4b23      	ldr	r3, [pc, #140]	; (400520 <usart_serial_init+0x174>)
  400492:	4798      	blx	r3
	}
# endif
# ifdef USART1
	if (USART1 == p_usart) {
  400494:	687b      	ldr	r3, [r7, #4]
  400496:	4a23      	ldr	r2, [pc, #140]	; (400524 <usart_serial_init+0x178>)
  400498:	4293      	cmp	r3, r2
  40049a:	d111      	bne.n	4004c0 <usart_serial_init+0x114>
#if (!SAM4L)
#if (SAMG55)
		flexcom_enable(FLEXCOM1);
		flexcom_set_opmode(FLEXCOM1, FLEXCOM_USART);
#else
		sysclk_enable_peripheral_clock(ID_USART1);
  40049c:	200e      	movs	r0, #14
  40049e:	4b17      	ldr	r3, [pc, #92]	; (4004fc <usart_serial_init+0x150>)
  4004a0:	4798      	blx	r3
#endif
		/* Configure USART */
		usart_init_rs232(p_usart, &usart_settings,
  4004a2:	4b14      	ldr	r3, [pc, #80]	; (4004f4 <usart_serial_init+0x148>)
  4004a4:	4798      	blx	r3
  4004a6:	4602      	mov	r2, r0
  4004a8:	f107 030c 	add.w	r3, r7, #12
  4004ac:	4619      	mov	r1, r3
  4004ae:	6878      	ldr	r0, [r7, #4]
  4004b0:	4b19      	ldr	r3, [pc, #100]	; (400518 <usart_serial_init+0x16c>)
  4004b2:	4798      	blx	r3
		/* Configure USART */
		usart_init_rs232(p_usart, &usart_settings,
				sysclk_get_peripheral_bus_hz(p_usart));
#endif
		/* Enable the receiver and transmitter. */
		usart_enable_tx(p_usart);
  4004b4:	6878      	ldr	r0, [r7, #4]
  4004b6:	4b19      	ldr	r3, [pc, #100]	; (40051c <usart_serial_init+0x170>)
  4004b8:	4798      	blx	r3
		usart_enable_rx(p_usart);
  4004ba:	6878      	ldr	r0, [r7, #4]
  4004bc:	4b18      	ldr	r3, [pc, #96]	; (400520 <usart_serial_init+0x174>)
  4004be:	4798      	blx	r3
	}
# endif
# ifdef USART2
	if (USART2 == p_usart) {
  4004c0:	687b      	ldr	r3, [r7, #4]
  4004c2:	4a19      	ldr	r2, [pc, #100]	; (400528 <usart_serial_init+0x17c>)
  4004c4:	4293      	cmp	r3, r2
  4004c6:	d111      	bne.n	4004ec <usart_serial_init+0x140>
#if (!SAM4L)
#if (SAMG55)
		flexcom_enable(FLEXCOM2);
		flexcom_set_opmode(FLEXCOM2, FLEXCOM_USART);
#else
		sysclk_enable_peripheral_clock(ID_USART2);
  4004c8:	200f      	movs	r0, #15
  4004ca:	4b0c      	ldr	r3, [pc, #48]	; (4004fc <usart_serial_init+0x150>)
  4004cc:	4798      	blx	r3
#endif
		/* Configure USART */
		usart_init_rs232(p_usart, &usart_settings,
  4004ce:	4b09      	ldr	r3, [pc, #36]	; (4004f4 <usart_serial_init+0x148>)
  4004d0:	4798      	blx	r3
  4004d2:	4602      	mov	r2, r0
  4004d4:	f107 030c 	add.w	r3, r7, #12
  4004d8:	4619      	mov	r1, r3
  4004da:	6878      	ldr	r0, [r7, #4]
  4004dc:	4b0e      	ldr	r3, [pc, #56]	; (400518 <usart_serial_init+0x16c>)
  4004de:	4798      	blx	r3
		/* Configure USART */
		usart_init_rs232(p_usart, &usart_settings,
				sysclk_get_peripheral_bus_hz(p_usart));
#endif
		/* Enable the receiver and transmitter. */
		usart_enable_tx(p_usart);
  4004e0:	6878      	ldr	r0, [r7, #4]
  4004e2:	4b0e      	ldr	r3, [pc, #56]	; (40051c <usart_serial_init+0x170>)
  4004e4:	4798      	blx	r3
		usart_enable_rx(p_usart);
  4004e6:	6878      	ldr	r0, [r7, #4]
  4004e8:	4b0d      	ldr	r3, [pc, #52]	; (400520 <usart_serial_init+0x174>)
  4004ea:	4798      	blx	r3
	}
# endif

#endif /* ifdef USART */

}
  4004ec:	bf00      	nop
  4004ee:	3730      	adds	r7, #48	; 0x30
  4004f0:	46bd      	mov	sp, r7
  4004f2:	bd80      	pop	{r7, pc}
  4004f4:	0040037d 	.word	0x0040037d
  4004f8:	400e0800 	.word	0x400e0800
  4004fc:	00400391 	.word	0x00400391
  400500:	00403d11 	.word	0x00403d11
  400504:	400e0a00 	.word	0x400e0a00
  400508:	400e1a00 	.word	0x400e1a00
  40050c:	400e1c00 	.word	0x400e1c00
  400510:	400e1e00 	.word	0x400e1e00
  400514:	40024000 	.word	0x40024000
  400518:	00403ea9 	.word	0x00403ea9
  40051c:	00403f2d 	.word	0x00403f2d
  400520:	00403f61 	.word	0x00403f61
  400524:	40028000 	.word	0x40028000
  400528:	4002c000 	.word	0x4002c000

0040052c <usart_serial_putchar>:
 *   \retval 1  The character was written.
 *   \retval 0  The function timed out before the USART transmitter became
 * ready to send.
 */
static inline int usart_serial_putchar(usart_if p_usart, const uint8_t c)
{
  40052c:	b580      	push	{r7, lr}
  40052e:	b082      	sub	sp, #8
  400530:	af00      	add	r7, sp, #0
  400532:	6078      	str	r0, [r7, #4]
  400534:	460b      	mov	r3, r1
  400536:	70fb      	strb	r3, [r7, #3]
		while (uart_write((Uart*)p_usart, c)!=0);
		return 1;
	}
#else
# ifdef UART0
	if (UART0 == (Uart*)p_usart) {
  400538:	687b      	ldr	r3, [r7, #4]
  40053a:	4a36      	ldr	r2, [pc, #216]	; (400614 <usart_serial_putchar+0xe8>)
  40053c:	4293      	cmp	r3, r2
  40053e:	d10a      	bne.n	400556 <usart_serial_putchar+0x2a>
		while (uart_write((Uart*)p_usart, c)!=0);
  400540:	bf00      	nop
  400542:	78fb      	ldrb	r3, [r7, #3]
  400544:	4619      	mov	r1, r3
  400546:	6878      	ldr	r0, [r7, #4]
  400548:	4b33      	ldr	r3, [pc, #204]	; (400618 <usart_serial_putchar+0xec>)
  40054a:	4798      	blx	r3
  40054c:	4603      	mov	r3, r0
  40054e:	2b00      	cmp	r3, #0
  400550:	d1f7      	bne.n	400542 <usart_serial_putchar+0x16>
		return 1;
  400552:	2301      	movs	r3, #1
  400554:	e05a      	b.n	40060c <usart_serial_putchar+0xe0>
	}
# endif
# ifdef UART1
	if (UART1 == (Uart*)p_usart) {
  400556:	687b      	ldr	r3, [r7, #4]
  400558:	4a30      	ldr	r2, [pc, #192]	; (40061c <usart_serial_putchar+0xf0>)
  40055a:	4293      	cmp	r3, r2
  40055c:	d10a      	bne.n	400574 <usart_serial_putchar+0x48>
		while (uart_write((Uart*)p_usart, c)!=0);
  40055e:	bf00      	nop
  400560:	78fb      	ldrb	r3, [r7, #3]
  400562:	4619      	mov	r1, r3
  400564:	6878      	ldr	r0, [r7, #4]
  400566:	4b2c      	ldr	r3, [pc, #176]	; (400618 <usart_serial_putchar+0xec>)
  400568:	4798      	blx	r3
  40056a:	4603      	mov	r3, r0
  40056c:	2b00      	cmp	r3, #0
  40056e:	d1f7      	bne.n	400560 <usart_serial_putchar+0x34>
		return 1;
  400570:	2301      	movs	r3, #1
  400572:	e04b      	b.n	40060c <usart_serial_putchar+0xe0>
	}
# endif
# ifdef UART2
	if (UART2 == (Uart*)p_usart) {
  400574:	687b      	ldr	r3, [r7, #4]
  400576:	4a2a      	ldr	r2, [pc, #168]	; (400620 <usart_serial_putchar+0xf4>)
  400578:	4293      	cmp	r3, r2
  40057a:	d10a      	bne.n	400592 <usart_serial_putchar+0x66>
		while (uart_write((Uart*)p_usart, c)!=0);
  40057c:	bf00      	nop
  40057e:	78fb      	ldrb	r3, [r7, #3]
  400580:	4619      	mov	r1, r3
  400582:	6878      	ldr	r0, [r7, #4]
  400584:	4b24      	ldr	r3, [pc, #144]	; (400618 <usart_serial_putchar+0xec>)
  400586:	4798      	blx	r3
  400588:	4603      	mov	r3, r0
  40058a:	2b00      	cmp	r3, #0
  40058c:	d1f7      	bne.n	40057e <usart_serial_putchar+0x52>
		return 1;
  40058e:	2301      	movs	r3, #1
  400590:	e03c      	b.n	40060c <usart_serial_putchar+0xe0>
	}
# endif
# ifdef UART3
	if (UART3 == (Uart*)p_usart) {
  400592:	687b      	ldr	r3, [r7, #4]
  400594:	4a23      	ldr	r2, [pc, #140]	; (400624 <usart_serial_putchar+0xf8>)
  400596:	4293      	cmp	r3, r2
  400598:	d10a      	bne.n	4005b0 <usart_serial_putchar+0x84>
		while (uart_write((Uart*)p_usart, c)!=0);
  40059a:	bf00      	nop
  40059c:	78fb      	ldrb	r3, [r7, #3]
  40059e:	4619      	mov	r1, r3
  4005a0:	6878      	ldr	r0, [r7, #4]
  4005a2:	4b1d      	ldr	r3, [pc, #116]	; (400618 <usart_serial_putchar+0xec>)
  4005a4:	4798      	blx	r3
  4005a6:	4603      	mov	r3, r0
  4005a8:	2b00      	cmp	r3, #0
  4005aa:	d1f7      	bne.n	40059c <usart_serial_putchar+0x70>
		return 1;
  4005ac:	2301      	movs	r3, #1
  4005ae:	e02d      	b.n	40060c <usart_serial_putchar+0xe0>
		while (usart_write(p_usart, c)!=0);
		return 1;
	}
#else
# ifdef USART0
	if (USART0 == p_usart) {
  4005b0:	687b      	ldr	r3, [r7, #4]
  4005b2:	4a1d      	ldr	r2, [pc, #116]	; (400628 <usart_serial_putchar+0xfc>)
  4005b4:	4293      	cmp	r3, r2
  4005b6:	d10a      	bne.n	4005ce <usart_serial_putchar+0xa2>
		while (usart_write(p_usart, c)!=0);
  4005b8:	bf00      	nop
  4005ba:	78fb      	ldrb	r3, [r7, #3]
  4005bc:	4619      	mov	r1, r3
  4005be:	6878      	ldr	r0, [r7, #4]
  4005c0:	4b1a      	ldr	r3, [pc, #104]	; (40062c <usart_serial_putchar+0x100>)
  4005c2:	4798      	blx	r3
  4005c4:	4603      	mov	r3, r0
  4005c6:	2b00      	cmp	r3, #0
  4005c8:	d1f7      	bne.n	4005ba <usart_serial_putchar+0x8e>
		return 1;
  4005ca:	2301      	movs	r3, #1
  4005cc:	e01e      	b.n	40060c <usart_serial_putchar+0xe0>
	}
# endif
# ifdef USART1
	if (USART1 == p_usart) {
  4005ce:	687b      	ldr	r3, [r7, #4]
  4005d0:	4a17      	ldr	r2, [pc, #92]	; (400630 <usart_serial_putchar+0x104>)
  4005d2:	4293      	cmp	r3, r2
  4005d4:	d10a      	bne.n	4005ec <usart_serial_putchar+0xc0>
		while (usart_write(p_usart, c)!=0);
  4005d6:	bf00      	nop
  4005d8:	78fb      	ldrb	r3, [r7, #3]
  4005da:	4619      	mov	r1, r3
  4005dc:	6878      	ldr	r0, [r7, #4]
  4005de:	4b13      	ldr	r3, [pc, #76]	; (40062c <usart_serial_putchar+0x100>)
  4005e0:	4798      	blx	r3
  4005e2:	4603      	mov	r3, r0
  4005e4:	2b00      	cmp	r3, #0
  4005e6:	d1f7      	bne.n	4005d8 <usart_serial_putchar+0xac>
		return 1;
  4005e8:	2301      	movs	r3, #1
  4005ea:	e00f      	b.n	40060c <usart_serial_putchar+0xe0>
	}
# endif
# ifdef USART2
	if (USART2 == p_usart) {
  4005ec:	687b      	ldr	r3, [r7, #4]
  4005ee:	4a11      	ldr	r2, [pc, #68]	; (400634 <usart_serial_putchar+0x108>)
  4005f0:	4293      	cmp	r3, r2
  4005f2:	d10a      	bne.n	40060a <usart_serial_putchar+0xde>
		while (usart_write(p_usart, c)!=0);
  4005f4:	bf00      	nop
  4005f6:	78fb      	ldrb	r3, [r7, #3]
  4005f8:	4619      	mov	r1, r3
  4005fa:	6878      	ldr	r0, [r7, #4]
  4005fc:	4b0b      	ldr	r3, [pc, #44]	; (40062c <usart_serial_putchar+0x100>)
  4005fe:	4798      	blx	r3
  400600:	4603      	mov	r3, r0
  400602:	2b00      	cmp	r3, #0
  400604:	d1f7      	bne.n	4005f6 <usart_serial_putchar+0xca>
		return 1;
  400606:	2301      	movs	r3, #1
  400608:	e000      	b.n	40060c <usart_serial_putchar+0xe0>
		return 1;
	}
# endif
#endif /* ifdef USART */

	return 0;
  40060a:	2300      	movs	r3, #0
}
  40060c:	4618      	mov	r0, r3
  40060e:	3708      	adds	r7, #8
  400610:	46bd      	mov	sp, r7
  400612:	bd80      	pop	{r7, pc}
  400614:	400e0800 	.word	0x400e0800
  400618:	00403d69 	.word	0x00403d69
  40061c:	400e0a00 	.word	0x400e0a00
  400620:	400e1a00 	.word	0x400e1a00
  400624:	400e1c00 	.word	0x400e1c00
  400628:	40024000 	.word	0x40024000
  40062c:	00403fcd 	.word	0x00403fcd
  400630:	40028000 	.word	0x40028000
  400634:	4002c000 	.word	0x4002c000

00400638 <usart_serial_getchar>:
 * \param p_usart   Base address of the USART instance.
 * \param data   Data to read
 *
 */
static inline void usart_serial_getchar(usart_if p_usart, uint8_t *data)
{
  400638:	b580      	push	{r7, lr}
  40063a:	b084      	sub	sp, #16
  40063c:	af00      	add	r7, sp, #0
  40063e:	6078      	str	r0, [r7, #4]
  400640:	6039      	str	r1, [r7, #0]
	uint32_t val = 0;
  400642:	2300      	movs	r3, #0
  400644:	60fb      	str	r3, [r7, #12]
	if (UART == (Uart*)p_usart) {
		while (uart_read((Uart*)p_usart, data));
	}
#else
# ifdef UART0
	if (UART0 == (Uart*)p_usart) {
  400646:	687b      	ldr	r3, [r7, #4]
  400648:	4a34      	ldr	r2, [pc, #208]	; (40071c <usart_serial_getchar+0xe4>)
  40064a:	4293      	cmp	r3, r2
  40064c:	d107      	bne.n	40065e <usart_serial_getchar+0x26>
		while (uart_read((Uart*)p_usart, data));
  40064e:	bf00      	nop
  400650:	6839      	ldr	r1, [r7, #0]
  400652:	6878      	ldr	r0, [r7, #4]
  400654:	4b32      	ldr	r3, [pc, #200]	; (400720 <usart_serial_getchar+0xe8>)
  400656:	4798      	blx	r3
  400658:	4603      	mov	r3, r0
  40065a:	2b00      	cmp	r3, #0
  40065c:	d1f8      	bne.n	400650 <usart_serial_getchar+0x18>
	}
# endif
# ifdef UART1
	if (UART1 == (Uart*)p_usart) {
  40065e:	687b      	ldr	r3, [r7, #4]
  400660:	4a30      	ldr	r2, [pc, #192]	; (400724 <usart_serial_getchar+0xec>)
  400662:	4293      	cmp	r3, r2
  400664:	d107      	bne.n	400676 <usart_serial_getchar+0x3e>
		while (uart_read((Uart*)p_usart, data));
  400666:	bf00      	nop
  400668:	6839      	ldr	r1, [r7, #0]
  40066a:	6878      	ldr	r0, [r7, #4]
  40066c:	4b2c      	ldr	r3, [pc, #176]	; (400720 <usart_serial_getchar+0xe8>)
  40066e:	4798      	blx	r3
  400670:	4603      	mov	r3, r0
  400672:	2b00      	cmp	r3, #0
  400674:	d1f8      	bne.n	400668 <usart_serial_getchar+0x30>
	}
# endif
# ifdef UART2
	if (UART2 == (Uart*)p_usart) {
  400676:	687b      	ldr	r3, [r7, #4]
  400678:	4a2b      	ldr	r2, [pc, #172]	; (400728 <usart_serial_getchar+0xf0>)
  40067a:	4293      	cmp	r3, r2
  40067c:	d107      	bne.n	40068e <usart_serial_getchar+0x56>
		while (uart_read((Uart*)p_usart, data));
  40067e:	bf00      	nop
  400680:	6839      	ldr	r1, [r7, #0]
  400682:	6878      	ldr	r0, [r7, #4]
  400684:	4b26      	ldr	r3, [pc, #152]	; (400720 <usart_serial_getchar+0xe8>)
  400686:	4798      	blx	r3
  400688:	4603      	mov	r3, r0
  40068a:	2b00      	cmp	r3, #0
  40068c:	d1f8      	bne.n	400680 <usart_serial_getchar+0x48>
	}
# endif
# ifdef UART3
	if (UART3 == (Uart*)p_usart) {
  40068e:	687b      	ldr	r3, [r7, #4]
  400690:	4a26      	ldr	r2, [pc, #152]	; (40072c <usart_serial_getchar+0xf4>)
  400692:	4293      	cmp	r3, r2
  400694:	d107      	bne.n	4006a6 <usart_serial_getchar+0x6e>
		while (uart_read((Uart*)p_usart, data));
  400696:	bf00      	nop
  400698:	6839      	ldr	r1, [r7, #0]
  40069a:	6878      	ldr	r0, [r7, #4]
  40069c:	4b20      	ldr	r3, [pc, #128]	; (400720 <usart_serial_getchar+0xe8>)
  40069e:	4798      	blx	r3
  4006a0:	4603      	mov	r3, r0
  4006a2:	2b00      	cmp	r3, #0
  4006a4:	d1f8      	bne.n	400698 <usart_serial_getchar+0x60>
		while (usart_read(p_usart, &val));
		*data = (uint8_t)(val & 0xFF);
	}
#else
# ifdef USART0
	if (USART0 == p_usart) {
  4006a6:	687b      	ldr	r3, [r7, #4]
  4006a8:	4a21      	ldr	r2, [pc, #132]	; (400730 <usart_serial_getchar+0xf8>)
  4006aa:	4293      	cmp	r3, r2
  4006ac:	d10d      	bne.n	4006ca <usart_serial_getchar+0x92>
		while (usart_read(p_usart, &val));
  4006ae:	bf00      	nop
  4006b0:	f107 030c 	add.w	r3, r7, #12
  4006b4:	4619      	mov	r1, r3
  4006b6:	6878      	ldr	r0, [r7, #4]
  4006b8:	4b1e      	ldr	r3, [pc, #120]	; (400734 <usart_serial_getchar+0xfc>)
  4006ba:	4798      	blx	r3
  4006bc:	4603      	mov	r3, r0
  4006be:	2b00      	cmp	r3, #0
  4006c0:	d1f6      	bne.n	4006b0 <usart_serial_getchar+0x78>
		*data = (uint8_t)(val & 0xFF);
  4006c2:	68fb      	ldr	r3, [r7, #12]
  4006c4:	b2da      	uxtb	r2, r3
  4006c6:	683b      	ldr	r3, [r7, #0]
  4006c8:	701a      	strb	r2, [r3, #0]
	}
# endif
# ifdef USART1
	if (USART1 == p_usart) {
  4006ca:	687b      	ldr	r3, [r7, #4]
  4006cc:	4a1a      	ldr	r2, [pc, #104]	; (400738 <usart_serial_getchar+0x100>)
  4006ce:	4293      	cmp	r3, r2
  4006d0:	d10d      	bne.n	4006ee <usart_serial_getchar+0xb6>
		while (usart_read(p_usart, &val));
  4006d2:	bf00      	nop
  4006d4:	f107 030c 	add.w	r3, r7, #12
  4006d8:	4619      	mov	r1, r3
  4006da:	6878      	ldr	r0, [r7, #4]
  4006dc:	4b15      	ldr	r3, [pc, #84]	; (400734 <usart_serial_getchar+0xfc>)
  4006de:	4798      	blx	r3
  4006e0:	4603      	mov	r3, r0
  4006e2:	2b00      	cmp	r3, #0
  4006e4:	d1f6      	bne.n	4006d4 <usart_serial_getchar+0x9c>
		*data = (uint8_t)(val & 0xFF);
  4006e6:	68fb      	ldr	r3, [r7, #12]
  4006e8:	b2da      	uxtb	r2, r3
  4006ea:	683b      	ldr	r3, [r7, #0]
  4006ec:	701a      	strb	r2, [r3, #0]
	}
# endif
# ifdef USART2
	if (USART2 == p_usart) {
  4006ee:	687b      	ldr	r3, [r7, #4]
  4006f0:	4a12      	ldr	r2, [pc, #72]	; (40073c <usart_serial_getchar+0x104>)
  4006f2:	4293      	cmp	r3, r2
  4006f4:	d10d      	bne.n	400712 <usart_serial_getchar+0xda>
		while (usart_read(p_usart, &val));
  4006f6:	bf00      	nop
  4006f8:	f107 030c 	add.w	r3, r7, #12
  4006fc:	4619      	mov	r1, r3
  4006fe:	6878      	ldr	r0, [r7, #4]
  400700:	4b0c      	ldr	r3, [pc, #48]	; (400734 <usart_serial_getchar+0xfc>)
  400702:	4798      	blx	r3
  400704:	4603      	mov	r3, r0
  400706:	2b00      	cmp	r3, #0
  400708:	d1f6      	bne.n	4006f8 <usart_serial_getchar+0xc0>
		*data = (uint8_t)(val & 0xFF);
  40070a:	68fb      	ldr	r3, [r7, #12]
  40070c:	b2da      	uxtb	r2, r3
  40070e:	683b      	ldr	r3, [r7, #0]
  400710:	701a      	strb	r2, [r3, #0]
		*data = (uint8_t)(val & 0xFF);
	}
# endif
#endif /* ifdef USART */

}
  400712:	bf00      	nop
  400714:	3710      	adds	r7, #16
  400716:	46bd      	mov	sp, r7
  400718:	bd80      	pop	{r7, pc}
  40071a:	bf00      	nop
  40071c:	400e0800 	.word	0x400e0800
  400720:	00403d99 	.word	0x00403d99
  400724:	400e0a00 	.word	0x400e0a00
  400728:	400e1a00 	.word	0x400e1a00
  40072c:	400e1c00 	.word	0x400e1c00
  400730:	40024000 	.word	0x40024000
  400734:	00403fff 	.word	0x00403fff
  400738:	40028000 	.word	0x40028000
  40073c:	4002c000 	.word	0x4002c000

00400740 <stdio_serial_init>:
 * \param usart       Base address of the USART instance.
 * \param opt         Options needed to set up RS232 communication (see \ref usart_options_t).
 *
 */
static inline void stdio_serial_init(volatile void *usart, const usart_serial_options_t *opt)
{
  400740:	b580      	push	{r7, lr}
  400742:	b082      	sub	sp, #8
  400744:	af00      	add	r7, sp, #0
  400746:	6078      	str	r0, [r7, #4]
  400748:	6039      	str	r1, [r7, #0]
	stdio_base = (void *)usart;
  40074a:	4a0f      	ldr	r2, [pc, #60]	; (400788 <stdio_serial_init+0x48>)
  40074c:	687b      	ldr	r3, [r7, #4]
  40074e:	6013      	str	r3, [r2, #0]
	ptr_put = (int (*)(void volatile*,char))&usart_serial_putchar;
  400750:	4b0e      	ldr	r3, [pc, #56]	; (40078c <stdio_serial_init+0x4c>)
  400752:	4a0f      	ldr	r2, [pc, #60]	; (400790 <stdio_serial_init+0x50>)
  400754:	601a      	str	r2, [r3, #0]
	ptr_get = (void (*)(void volatile*,char*))&usart_serial_getchar;
  400756:	4b0f      	ldr	r3, [pc, #60]	; (400794 <stdio_serial_init+0x54>)
  400758:	4a0f      	ldr	r2, [pc, #60]	; (400798 <stdio_serial_init+0x58>)
  40075a:	601a      	str	r2, [r3, #0]
# if (XMEGA || MEGA_RF)
	usart_serial_init((USART_t *)usart,opt);
# elif UC3
	usart_serial_init(usart,(usart_serial_options_t *)opt);
# elif SAM
	usart_serial_init((Usart *)usart,(usart_serial_options_t *)opt);
  40075c:	6839      	ldr	r1, [r7, #0]
  40075e:	6878      	ldr	r0, [r7, #4]
  400760:	4b0e      	ldr	r3, [pc, #56]	; (40079c <stdio_serial_init+0x5c>)
  400762:	4798      	blx	r3
	fdevopen((int (*)(char, FILE*))(_write),(int (*)(FILE*))(_read));
#  endif
#  if UC3 || SAM
	// For AVR32 and SAM GCC
	// Specify that stdout and stdin should not be buffered.
	setbuf(stdout, NULL);
  400764:	4b0e      	ldr	r3, [pc, #56]	; (4007a0 <stdio_serial_init+0x60>)
  400766:	681b      	ldr	r3, [r3, #0]
  400768:	689b      	ldr	r3, [r3, #8]
  40076a:	2100      	movs	r1, #0
  40076c:	4618      	mov	r0, r3
  40076e:	4b0d      	ldr	r3, [pc, #52]	; (4007a4 <stdio_serial_init+0x64>)
  400770:	4798      	blx	r3
	setbuf(stdin, NULL);
  400772:	4b0b      	ldr	r3, [pc, #44]	; (4007a0 <stdio_serial_init+0x60>)
  400774:	681b      	ldr	r3, [r3, #0]
  400776:	685b      	ldr	r3, [r3, #4]
  400778:	2100      	movs	r1, #0
  40077a:	4618      	mov	r0, r3
  40077c:	4b09      	ldr	r3, [pc, #36]	; (4007a4 <stdio_serial_init+0x64>)
  40077e:	4798      	blx	r3
	// and AVR GCC library:
	// - printf() emits one character at a time.
	// - getchar() requests only 1 byte to exit.
#  endif
# endif
}
  400780:	bf00      	nop
  400782:	3708      	adds	r7, #8
  400784:	46bd      	mov	sp, r7
  400786:	bd80      	pop	{r7, pc}
  400788:	20400e74 	.word	0x20400e74
  40078c:	20400e70 	.word	0x20400e70
  400790:	0040052d 	.word	0x0040052d
  400794:	20400e6c 	.word	0x20400e6c
  400798:	00400639 	.word	0x00400639
  40079c:	004003ad 	.word	0x004003ad
  4007a0:	20400010 	.word	0x20400010
  4007a4:	00404855 	.word	0x00404855

004007a8 <POT_init>:

struct ili9488_opt_t g_ili9488_display_opt;

void POT_init(void);

void POT_init(void){
  4007a8:	b580      	push	{r7, lr}
  4007aa:	af00      	add	r7, sp, #0
	pmc_enable_periph_clk(POT_AFEC_ID);
  4007ac:	201d      	movs	r0, #29
  4007ae:	4b02      	ldr	r3, [pc, #8]	; (4007b8 <POT_init+0x10>)
  4007b0:	4798      	blx	r3
};
  4007b2:	bf00      	nop
  4007b4:	bd80      	pop	{r7, pc}
  4007b6:	bf00      	nop
  4007b8:	004038a1 	.word	0x004038a1

004007bc <convert_adc_to_temp>:

static int32_t convert_adc_to_temp(int32_t ADC_value){
  4007bc:	b480      	push	{r7}
  4007be:	b085      	sub	sp, #20
  4007c0:	af00      	add	r7, sp, #0
  4007c2:	6078      	str	r0, [r7, #4]

  int32_t ul_vol;
  int32_t ul_temp;

	ul_vol = ADC_value * VOLT_REF / MAX_DIGITAL;
  4007c4:	687b      	ldr	r3, [r7, #4]
  4007c6:	f640 42e4 	movw	r2, #3300	; 0xce4
  4007ca:	fb02 f303 	mul.w	r3, r2, r3
  4007ce:	461a      	mov	r2, r3
  4007d0:	4b0e      	ldr	r3, [pc, #56]	; (40080c <convert_adc_to_temp+0x50>)
  4007d2:	fba3 1302 	umull	r1, r3, r3, r2
  4007d6:	1ad2      	subs	r2, r2, r3
  4007d8:	0852      	lsrs	r2, r2, #1
  4007da:	4413      	add	r3, r2
  4007dc:	0adb      	lsrs	r3, r3, #11
  4007de:	60fb      	str	r3, [r7, #12]

  /*
   * According to datasheet, The output voltage VT = 0.72V at 27C
   * and the temperature slope dVT/dT = 2.33 mV/C
   */
  ul_temp = (ul_vol - 720)  * 100 / 233 + 27;
  4007e0:	68fb      	ldr	r3, [r7, #12]
  4007e2:	f5a3 7334 	sub.w	r3, r3, #720	; 0x2d0
  4007e6:	2264      	movs	r2, #100	; 0x64
  4007e8:	fb02 f303 	mul.w	r3, r2, r3
  4007ec:	4a08      	ldr	r2, [pc, #32]	; (400810 <convert_adc_to_temp+0x54>)
  4007ee:	fb82 1203 	smull	r1, r2, r2, r3
  4007f2:	441a      	add	r2, r3
  4007f4:	11d2      	asrs	r2, r2, #7
  4007f6:	17db      	asrs	r3, r3, #31
  4007f8:	1ad3      	subs	r3, r2, r3
  4007fa:	331b      	adds	r3, #27
  4007fc:	60bb      	str	r3, [r7, #8]
  
  return(ul_temp);
  4007fe:	68bb      	ldr	r3, [r7, #8]
}
  400800:	4618      	mov	r0, r3
  400802:	3714      	adds	r7, #20
  400804:	46bd      	mov	sp, r7
  400806:	f85d 7b04 	ldr.w	r7, [sp], #4
  40080a:	4770      	bx	lr
  40080c:	00100101 	.word	0x00100101
  400810:	8ca29c05 	.word	0x8ca29c05

00400814 <AFEC_Temp_callback2>:

static void AFEC_Temp_callback2(void)
{
  400814:	b580      	push	{r7, lr}
  400816:	af00      	add	r7, sp, #0
	g_ul_value2 = afec_channel_get_value(AFEC0, AFEC_CHANNEL_TEMP_SENSOR);
  400818:	210b      	movs	r1, #11
  40081a:	4805      	ldr	r0, [pc, #20]	; (400830 <AFEC_Temp_callback2+0x1c>)
  40081c:	4b05      	ldr	r3, [pc, #20]	; (400834 <AFEC_Temp_callback2+0x20>)
  40081e:	4798      	blx	r3
  400820:	4602      	mov	r2, r0
  400822:	4b05      	ldr	r3, [pc, #20]	; (400838 <AFEC_Temp_callback2+0x24>)
  400824:	601a      	str	r2, [r3, #0]
	is_conversion_done2 = true;
  400826:	4b05      	ldr	r3, [pc, #20]	; (40083c <AFEC_Temp_callback2+0x28>)
  400828:	2201      	movs	r2, #1
  40082a:	701a      	strb	r2, [r3, #0]
}
  40082c:	bf00      	nop
  40082e:	bd80      	pop	{r7, pc}
  400830:	4003c000 	.word	0x4003c000
  400834:	00400271 	.word	0x00400271
  400838:	204009e4 	.word	0x204009e4
  40083c:	204009dd 	.word	0x204009dd

00400840 <AFEC_Temp_callback>:

static void AFEC_Temp_callback(void)
{
  400840:	b580      	push	{r7, lr}
  400842:	af00      	add	r7, sp, #0
	g_ul_value = afec_channel_get_value(POT_AFEC, POT_AFEC_CH);
  400844:	2105      	movs	r1, #5
  400846:	4805      	ldr	r0, [pc, #20]	; (40085c <AFEC_Temp_callback+0x1c>)
  400848:	4b05      	ldr	r3, [pc, #20]	; (400860 <AFEC_Temp_callback+0x20>)
  40084a:	4798      	blx	r3
  40084c:	4602      	mov	r2, r0
  40084e:	4b05      	ldr	r3, [pc, #20]	; (400864 <AFEC_Temp_callback+0x24>)
  400850:	601a      	str	r2, [r3, #0]
	is_conversion_done = true;
  400852:	4b05      	ldr	r3, [pc, #20]	; (400868 <AFEC_Temp_callback+0x28>)
  400854:	2201      	movs	r2, #1
  400856:	701a      	strb	r2, [r3, #0]
};
  400858:	bf00      	nop
  40085a:	bd80      	pop	{r7, pc}
  40085c:	4003c000 	.word	0x4003c000
  400860:	00400271 	.word	0x00400271
  400864:	204009e0 	.word	0x204009e0
  400868:	204009dc 	.word	0x204009dc

0040086c <configure_lcd>:

static void configure_lcd(void){
  40086c:	b590      	push	{r4, r7, lr}
  40086e:	b083      	sub	sp, #12
  400870:	af02      	add	r7, sp, #8
	/* Initialize display parameter */
	g_ili9488_display_opt.ul_width = ILI9488_LCD_WIDTH;
  400872:	4b1c      	ldr	r3, [pc, #112]	; (4008e4 <configure_lcd+0x78>)
  400874:	f44f 72a0 	mov.w	r2, #320	; 0x140
  400878:	601a      	str	r2, [r3, #0]
	g_ili9488_display_opt.ul_height = ILI9488_LCD_HEIGHT;
  40087a:	4b1a      	ldr	r3, [pc, #104]	; (4008e4 <configure_lcd+0x78>)
  40087c:	f44f 72f0 	mov.w	r2, #480	; 0x1e0
  400880:	605a      	str	r2, [r3, #4]
	g_ili9488_display_opt.foreground_color = COLOR_CONVERT(COLOR_WHITE);
  400882:	4b18      	ldr	r3, [pc, #96]	; (4008e4 <configure_lcd+0x78>)
  400884:	4a18      	ldr	r2, [pc, #96]	; (4008e8 <configure_lcd+0x7c>)
  400886:	609a      	str	r2, [r3, #8]
	g_ili9488_display_opt.background_color = COLOR_CONVERT(COLOR_WHITE);
  400888:	4b16      	ldr	r3, [pc, #88]	; (4008e4 <configure_lcd+0x78>)
  40088a:	4a17      	ldr	r2, [pc, #92]	; (4008e8 <configure_lcd+0x7c>)
  40088c:	60da      	str	r2, [r3, #12]

	/* Initialize LCD */
	ili9488_init(&g_ili9488_display_opt);
  40088e:	4815      	ldr	r0, [pc, #84]	; (4008e4 <configure_lcd+0x78>)
  400890:	4b16      	ldr	r3, [pc, #88]	; (4008ec <configure_lcd+0x80>)
  400892:	4798      	blx	r3
	ili9488_draw_filled_rectangle(0, 0, ILI9488_LCD_WIDTH-1, ILI9488_LCD_HEIGHT-1);
  400894:	f240 13df 	movw	r3, #479	; 0x1df
  400898:	f240 123f 	movw	r2, #319	; 0x13f
  40089c:	2100      	movs	r1, #0
  40089e:	2000      	movs	r0, #0
  4008a0:	4c13      	ldr	r4, [pc, #76]	; (4008f0 <configure_lcd+0x84>)
  4008a2:	47a0      	blx	r4
	ili9488_set_foreground_color(COLOR_CONVERT(COLOR_TOMATO));
  4008a4:	4813      	ldr	r0, [pc, #76]	; (4008f4 <configure_lcd+0x88>)
  4008a6:	4b14      	ldr	r3, [pc, #80]	; (4008f8 <configure_lcd+0x8c>)
  4008a8:	4798      	blx	r3
	ili9488_draw_filled_rectangle(0, 0, ILI9488_LCD_WIDTH-1, 120-1);
  4008aa:	2377      	movs	r3, #119	; 0x77
  4008ac:	f240 123f 	movw	r2, #319	; 0x13f
  4008b0:	2100      	movs	r1, #0
  4008b2:	2000      	movs	r0, #0
  4008b4:	4c0e      	ldr	r4, [pc, #56]	; (4008f0 <configure_lcd+0x84>)
  4008b6:	47a0      	blx	r4
	ili9488_draw_filled_rectangle(0, 360, ILI9488_LCD_WIDTH-1, 480-1);
  4008b8:	f240 13df 	movw	r3, #479	; 0x1df
  4008bc:	f240 123f 	movw	r2, #319	; 0x13f
  4008c0:	f44f 71b4 	mov.w	r1, #360	; 0x168
  4008c4:	2000      	movs	r0, #0
  4008c6:	4c0a      	ldr	r4, [pc, #40]	; (4008f0 <configure_lcd+0x84>)
  4008c8:	47a0      	blx	r4
	ili9488_draw_pixmap(0, 50, 319, 129, logoImage);
  4008ca:	4b0c      	ldr	r3, [pc, #48]	; (4008fc <configure_lcd+0x90>)
  4008cc:	9300      	str	r3, [sp, #0]
  4008ce:	2381      	movs	r3, #129	; 0x81
  4008d0:	f240 123f 	movw	r2, #319	; 0x13f
  4008d4:	2132      	movs	r1, #50	; 0x32
  4008d6:	2000      	movs	r0, #0
  4008d8:	4c09      	ldr	r4, [pc, #36]	; (400900 <configure_lcd+0x94>)
  4008da:	47a0      	blx	r4
	
}
  4008dc:	bf00      	nop
  4008de:	3704      	adds	r7, #4
  4008e0:	46bd      	mov	sp, r7
  4008e2:	bd90      	pop	{r4, r7, pc}
  4008e4:	20400e54 	.word	0x20400e54
  4008e8:	00fcfcfc 	.word	0x00fcfcfc
  4008ec:	0040222d 	.word	0x0040222d
  4008f0:	004024cd 	.word	0x004024cd
  4008f4:	00fc6044 	.word	0x00fc6044
  4008f8:	004023a1 	.word	0x004023a1
  4008fc:	0040944c 	.word	0x0040944c
  400900:	004026dd 	.word	0x004026dd

00400904 <config_ADC_POT>:

static void config_ADC_POT(void){
  400904:	b590      	push	{r4, r7, lr}
  400906:	b089      	sub	sp, #36	; 0x24
  400908:	af00      	add	r7, sp, #0
	afec_enable(AFEC0);
  40090a:	481b      	ldr	r0, [pc, #108]	; (400978 <config_ADC_POT+0x74>)
  40090c:	4b1b      	ldr	r3, [pc, #108]	; (40097c <config_ADC_POT+0x78>)
  40090e:	4798      	blx	r3

	/* struct de configuracao do AFEC */
	struct afec_config afec_cfg;

	/* Carrega parametros padrao */
	afec_get_config_defaults(&afec_cfg);
  400910:	f107 0308 	add.w	r3, r7, #8
  400914:	4618      	mov	r0, r3
  400916:	4b1a      	ldr	r3, [pc, #104]	; (400980 <config_ADC_POT+0x7c>)
  400918:	4798      	blx	r3

	/* Configura AFEC */
	afec_init(AFEC0, &afec_cfg);
  40091a:	f107 0308 	add.w	r3, r7, #8
  40091e:	4619      	mov	r1, r3
  400920:	4815      	ldr	r0, [pc, #84]	; (400978 <config_ADC_POT+0x74>)
  400922:	4b18      	ldr	r3, [pc, #96]	; (400984 <config_ADC_POT+0x80>)
  400924:	4798      	blx	r3
  
	/* Configura trigger por software */
	afec_set_trigger(AFEC0, AFEC_TRIG_SW);
  400926:	2100      	movs	r1, #0
  400928:	4813      	ldr	r0, [pc, #76]	; (400978 <config_ADC_POT+0x74>)
  40092a:	4b17      	ldr	r3, [pc, #92]	; (400988 <config_ADC_POT+0x84>)
  40092c:	4798      	blx	r3
  
	/* configura call back */
	afec_set_callback(AFEC0, AFEC_INTERRUPT_EOC_5,	AFEC_Temp_callback, 1); 
  40092e:	2301      	movs	r3, #1
  400930:	4a16      	ldr	r2, [pc, #88]	; (40098c <config_ADC_POT+0x88>)
  400932:	2105      	movs	r1, #5
  400934:	4810      	ldr	r0, [pc, #64]	; (400978 <config_ADC_POT+0x74>)
  400936:	4c16      	ldr	r4, [pc, #88]	; (400990 <config_ADC_POT+0x8c>)
  400938:	47a0      	blx	r4
   
	/*** Configuracao especfica do canal AFEC ***/
	struct afec_ch_config afec_ch_cfg;
	afec_ch_get_config_defaults(&afec_ch_cfg);
  40093a:	1d3b      	adds	r3, r7, #4
  40093c:	4618      	mov	r0, r3
  40093e:	4b15      	ldr	r3, [pc, #84]	; (400994 <config_ADC_POT+0x90>)
  400940:	4798      	blx	r3
	afec_ch_cfg.gain = AFEC_GAINVALUE_0;
  400942:	2300      	movs	r3, #0
  400944:	717b      	strb	r3, [r7, #5]
	afec_ch_set_config(AFEC0, POT_AFEC_CH, &afec_ch_cfg);
  400946:	1d3b      	adds	r3, r7, #4
  400948:	461a      	mov	r2, r3
  40094a:	2105      	movs	r1, #5
  40094c:	480a      	ldr	r0, [pc, #40]	; (400978 <config_ADC_POT+0x74>)
  40094e:	4b12      	ldr	r3, [pc, #72]	; (400998 <config_ADC_POT+0x94>)
  400950:	4798      	blx	r3
	/*
	* Calibracao:
	* Because the internal ADC offset is 0x200, it should cancel it and shift
	 down to 0.
	 */
	afec_channel_set_analog_offset(AFEC0, POT_AFEC_CH, 0x200);
  400952:	f44f 7200 	mov.w	r2, #512	; 0x200
  400956:	2105      	movs	r1, #5
  400958:	4807      	ldr	r0, [pc, #28]	; (400978 <config_ADC_POT+0x74>)
  40095a:	4b10      	ldr	r3, [pc, #64]	; (40099c <config_ADC_POT+0x98>)
  40095c:	4798      	blx	r3
	
	/* Selecina canal e inicializa converso */  
	afec_channel_enable(AFEC0, POT_AFEC_CH);
  40095e:	2105      	movs	r1, #5
  400960:	4805      	ldr	r0, [pc, #20]	; (400978 <config_ADC_POT+0x74>)
  400962:	4b0f      	ldr	r3, [pc, #60]	; (4009a0 <config_ADC_POT+0x9c>)
  400964:	4798      	blx	r3
	afec_enable_interrupt(AFEC0, POT_AFEC_CH);
  400966:	2105      	movs	r1, #5
  400968:	4803      	ldr	r0, [pc, #12]	; (400978 <config_ADC_POT+0x74>)
  40096a:	4b0e      	ldr	r3, [pc, #56]	; (4009a4 <config_ADC_POT+0xa0>)
  40096c:	4798      	blx	r3

}
  40096e:	bf00      	nop
  400970:	3724      	adds	r7, #36	; 0x24
  400972:	46bd      	mov	sp, r7
  400974:	bd90      	pop	{r4, r7, pc}
  400976:	bf00      	nop
  400978:	4003c000 	.word	0x4003c000
  40097c:	00402ef5 	.word	0x00402ef5
  400980:	00402bb5 	.word	0x00402bb5
  400984:	00402c35 	.word	0x00402c35
  400988:	004001c5 	.word	0x004001c5
  40098c:	00400841 	.word	0x00400841
  400990:	00402ccd 	.word	0x00402ccd
  400994:	00402c15 	.word	0x00402c15
  400998:	00402b21 	.word	0x00402b21
  40099c:	0040029d 	.word	0x0040029d
  4009a0:	00400225 	.word	0x00400225
  4009a4:	00402d55 	.word	0x00402d55

004009a8 <config_ADC_TEMP>:

static void config_ADC_TEMP(void){
  4009a8:	b590      	push	{r4, r7, lr}
  4009aa:	b089      	sub	sp, #36	; 0x24
  4009ac:	af00      	add	r7, sp, #0
	afec_enable(AFEC0);
  4009ae:	481b      	ldr	r0, [pc, #108]	; (400a1c <config_ADC_TEMP+0x74>)
  4009b0:	4b1b      	ldr	r3, [pc, #108]	; (400a20 <config_ADC_TEMP+0x78>)
  4009b2:	4798      	blx	r3

	/* struct de configuracao do AFEC */
	struct afec_config afec_cfg;

	/* Carrega parametros padrao */
	afec_get_config_defaults(&afec_cfg);
  4009b4:	f107 0308 	add.w	r3, r7, #8
  4009b8:	4618      	mov	r0, r3
  4009ba:	4b1a      	ldr	r3, [pc, #104]	; (400a24 <config_ADC_TEMP+0x7c>)
  4009bc:	4798      	blx	r3

	/* Configura AFEC */
	afec_init(AFEC0, &afec_cfg);
  4009be:	f107 0308 	add.w	r3, r7, #8
  4009c2:	4619      	mov	r1, r3
  4009c4:	4815      	ldr	r0, [pc, #84]	; (400a1c <config_ADC_TEMP+0x74>)
  4009c6:	4b18      	ldr	r3, [pc, #96]	; (400a28 <config_ADC_TEMP+0x80>)
  4009c8:	4798      	blx	r3
  
	/* Configura trigger por software */
	afec_set_trigger(AFEC0, AFEC_TRIG_SW);
  4009ca:	2100      	movs	r1, #0
  4009cc:	4813      	ldr	r0, [pc, #76]	; (400a1c <config_ADC_TEMP+0x74>)
  4009ce:	4b17      	ldr	r3, [pc, #92]	; (400a2c <config_ADC_TEMP+0x84>)
  4009d0:	4798      	blx	r3
  
	/* configura call back */
	afec_set_callback(AFEC0, AFEC_INTERRUPT_EOC_11,	AFEC_Temp_callback2, 1); 
  4009d2:	2301      	movs	r3, #1
  4009d4:	4a16      	ldr	r2, [pc, #88]	; (400a30 <config_ADC_TEMP+0x88>)
  4009d6:	210b      	movs	r1, #11
  4009d8:	4810      	ldr	r0, [pc, #64]	; (400a1c <config_ADC_TEMP+0x74>)
  4009da:	4c16      	ldr	r4, [pc, #88]	; (400a34 <config_ADC_TEMP+0x8c>)
  4009dc:	47a0      	blx	r4
   
	/*** Configuracao especfica do canal AFEC ***/
	struct afec_ch_config afec_ch_cfg;
	afec_ch_get_config_defaults(&afec_ch_cfg);
  4009de:	1d3b      	adds	r3, r7, #4
  4009e0:	4618      	mov	r0, r3
  4009e2:	4b15      	ldr	r3, [pc, #84]	; (400a38 <config_ADC_TEMP+0x90>)
  4009e4:	4798      	blx	r3
	afec_ch_cfg.gain = AFEC_GAINVALUE_0;
  4009e6:	2300      	movs	r3, #0
  4009e8:	717b      	strb	r3, [r7, #5]
	afec_ch_set_config(AFEC0, AFEC_CHANNEL_TEMP_SENSOR, &afec_ch_cfg);
  4009ea:	1d3b      	adds	r3, r7, #4
  4009ec:	461a      	mov	r2, r3
  4009ee:	210b      	movs	r1, #11
  4009f0:	480a      	ldr	r0, [pc, #40]	; (400a1c <config_ADC_TEMP+0x74>)
  4009f2:	4b12      	ldr	r3, [pc, #72]	; (400a3c <config_ADC_TEMP+0x94>)
  4009f4:	4798      	blx	r3
	/*
	* Calibracao:
	* Because the internal ADC offset is 0x200, it should cancel it and shift
	 down to 0.
	 */
	afec_channel_set_analog_offset(AFEC0,AFEC_CHANNEL_TEMP_SENSOR, 0x200);
  4009f6:	f44f 7200 	mov.w	r2, #512	; 0x200
  4009fa:	210b      	movs	r1, #11
  4009fc:	4807      	ldr	r0, [pc, #28]	; (400a1c <config_ADC_TEMP+0x74>)
  4009fe:	4b10      	ldr	r3, [pc, #64]	; (400a40 <config_ADC_TEMP+0x98>)
  400a00:	4798      	blx	r3
	
	/* Selecina canal e inicializa converso */  
	afec_channel_enable(AFEC0, AFEC_CHANNEL_TEMP_SENSOR);
  400a02:	210b      	movs	r1, #11
  400a04:	4805      	ldr	r0, [pc, #20]	; (400a1c <config_ADC_TEMP+0x74>)
  400a06:	4b0f      	ldr	r3, [pc, #60]	; (400a44 <config_ADC_TEMP+0x9c>)
  400a08:	4798      	blx	r3
	afec_enable_interrupt(AFEC0, AFEC_CHANNEL_TEMP_SENSOR);
  400a0a:	210b      	movs	r1, #11
  400a0c:	4803      	ldr	r0, [pc, #12]	; (400a1c <config_ADC_TEMP+0x74>)
  400a0e:	4b0e      	ldr	r3, [pc, #56]	; (400a48 <config_ADC_TEMP+0xa0>)
  400a10:	4798      	blx	r3

}
  400a12:	bf00      	nop
  400a14:	3724      	adds	r7, #36	; 0x24
  400a16:	46bd      	mov	sp, r7
  400a18:	bd90      	pop	{r4, r7, pc}
  400a1a:	bf00      	nop
  400a1c:	4003c000 	.word	0x4003c000
  400a20:	00402ef5 	.word	0x00402ef5
  400a24:	00402bb5 	.word	0x00402bb5
  400a28:	00402c35 	.word	0x00402c35
  400a2c:	004001c5 	.word	0x004001c5
  400a30:	00400815 	.word	0x00400815
  400a34:	00402ccd 	.word	0x00402ccd
  400a38:	00402c15 	.word	0x00402c15
  400a3c:	00402b21 	.word	0x00402b21
  400a40:	0040029d 	.word	0x0040029d
  400a44:	00400225 	.word	0x00400225
  400a48:	00402d55 	.word	0x00402d55

00400a4c <configure_console>:

static void configure_console(void)
{
  400a4c:	b590      	push	{r4, r7, lr}
  400a4e:	b085      	sub	sp, #20
  400a50:	af00      	add	r7, sp, #0

  /* Configura USART1 Pinos */
  sysclk_enable_peripheral_clock(ID_PIOB);
  400a52:	200b      	movs	r0, #11
  400a54:	4b15      	ldr	r3, [pc, #84]	; (400aac <configure_console+0x60>)
  400a56:	4798      	blx	r3
  sysclk_enable_peripheral_clock(ID_PIOA);
  400a58:	200a      	movs	r0, #10
  400a5a:	4b14      	ldr	r3, [pc, #80]	; (400aac <configure_console+0x60>)
  400a5c:	4798      	blx	r3
  pio_set_peripheral(PIOB, PIO_PERIPH_D, PIO_PB4);  // RX
  400a5e:	2210      	movs	r2, #16
  400a60:	f04f 5100 	mov.w	r1, #536870912	; 0x20000000
  400a64:	4812      	ldr	r0, [pc, #72]	; (400ab0 <configure_console+0x64>)
  400a66:	4b13      	ldr	r3, [pc, #76]	; (400ab4 <configure_console+0x68>)
  400a68:	4798      	blx	r3
  pio_set_peripheral(PIOA, PIO_PERIPH_A, PIO_PA21); // TX
  400a6a:	f44f 1200 	mov.w	r2, #2097152	; 0x200000
  400a6e:	f04f 6100 	mov.w	r1, #134217728	; 0x8000000
  400a72:	4811      	ldr	r0, [pc, #68]	; (400ab8 <configure_console+0x6c>)
  400a74:	4b0f      	ldr	r3, [pc, #60]	; (400ab4 <configure_console+0x68>)
  400a76:	4798      	blx	r3
 	MATRIX->CCFG_SYSIO |= CCFG_SYSIO_SYSIO4;
  400a78:	4a10      	ldr	r2, [pc, #64]	; (400abc <configure_console+0x70>)
  400a7a:	4b10      	ldr	r3, [pc, #64]	; (400abc <configure_console+0x70>)
  400a7c:	f8d3 3114 	ldr.w	r3, [r3, #276]	; 0x114
  400a80:	f043 0310 	orr.w	r3, r3, #16
  400a84:	f8c2 3114 	str.w	r3, [r2, #276]	; 0x114
 
	const usart_serial_options_t uart_serial_options = {
  400a88:	4b0d      	ldr	r3, [pc, #52]	; (400ac0 <configure_console+0x74>)
  400a8a:	463c      	mov	r4, r7
  400a8c:	cb0f      	ldmia	r3, {r0, r1, r2, r3}
  400a8e:	e884 000f 	stmia.w	r4, {r0, r1, r2, r3}
		.paritytype = CONF_UART_PARITY,
		.stopbits   = CONF_UART_STOP_BITS,
	};

	/* Configure console UART. */
	sysclk_enable_peripheral_clock(CONSOLE_UART_ID);
  400a92:	200e      	movs	r0, #14
  400a94:	4b05      	ldr	r3, [pc, #20]	; (400aac <configure_console+0x60>)
  400a96:	4798      	blx	r3
	stdio_serial_init(CONF_UART, &uart_serial_options);
  400a98:	463b      	mov	r3, r7
  400a9a:	4619      	mov	r1, r3
  400a9c:	4809      	ldr	r0, [pc, #36]	; (400ac4 <configure_console+0x78>)
  400a9e:	4b0a      	ldr	r3, [pc, #40]	; (400ac8 <configure_console+0x7c>)
  400aa0:	4798      	blx	r3
}
  400aa2:	bf00      	nop
  400aa4:	3714      	adds	r7, #20
  400aa6:	46bd      	mov	sp, r7
  400aa8:	bd90      	pop	{r4, r7, pc}
  400aaa:	bf00      	nop
  400aac:	00400391 	.word	0x00400391
  400ab0:	400e1000 	.word	0x400e1000
  400ab4:	00402f6d 	.word	0x00402f6d
  400ab8:	400e0e00 	.word	0x400e0e00
  400abc:	40088000 	.word	0x40088000
  400ac0:	0042768c 	.word	0x0042768c
  400ac4:	40028000 	.word	0x40028000
  400ac8:	00400741 	.word	0x00400741

00400acc <main>:

int main(void)
{
  400acc:	e92d 4ff0 	stmdb	sp!, {r4, r5, r6, r7, r8, r9, sl, fp, lr}
  400ad0:	b09f      	sub	sp, #124	; 0x7c
  400ad2:	af00      	add	r7, sp, #0
	int ul_temp;
	int ul_res;
	int temp;
	
	/* Initialize the SAM system. */
	sysclk_init();
  400ad4:	4b7c      	ldr	r3, [pc, #496]	; (400cc8 <main+0x1fc>)
  400ad6:	4798      	blx	r3
	board_init();
  400ad8:	4b7c      	ldr	r3, [pc, #496]	; (400ccc <main+0x200>)
  400ada:	4798      	blx	r3
	POT_init();
  400adc:	4b7c      	ldr	r3, [pc, #496]	; (400cd0 <main+0x204>)
  400ade:	4798      	blx	r3
	config_ADC_POT();
  400ae0:	4b7c      	ldr	r3, [pc, #496]	; (400cd4 <main+0x208>)
  400ae2:	4798      	blx	r3
	
	configure_lcd();
  400ae4:	4b7c      	ldr	r3, [pc, #496]	; (400cd8 <main+0x20c>)
  400ae6:	4798      	blx	r3
	configure_console();
  400ae8:	4b7c      	ldr	r3, [pc, #496]	; (400cdc <main+0x210>)
  400aea:	4798      	blx	r3
	
	/* Initialize the SAM system */
	sysclk_init();
  400aec:	4b76      	ldr	r3, [pc, #472]	; (400cc8 <main+0x1fc>)
  400aee:	4798      	blx	r3
	
	/* Disable the watchdog */
	WDT->WDT_MR = WDT_MR_WDDIS;
  400af0:	4a7b      	ldr	r2, [pc, #492]	; (400ce0 <main+0x214>)
  400af2:	f44f 4300 	mov.w	r3, #32768	; 0x8000
  400af6:	6053      	str	r3, [r2, #4]
	
	/* Output example information. */
	afec_start_software_conversion(AFEC0);
  400af8:	487a      	ldr	r0, [pc, #488]	; (400ce4 <main+0x218>)
  400afa:	4b7b      	ldr	r3, [pc, #492]	; (400ce8 <main+0x21c>)
  400afc:	4798      	blx	r3

    /* Escreve na tela Computacao Embarcada 2018 */
	ili9488_set_foreground_color(COLOR_CONVERT(COLOR_WHITE));
  400afe:	487b      	ldr	r0, [pc, #492]	; (400cec <main+0x220>)
  400b00:	4b7b      	ldr	r3, [pc, #492]	; (400cf0 <main+0x224>)
  400b02:	4798      	blx	r3
	ili9488_draw_filled_rectangle(0, 300, ILI9488_LCD_WIDTH-1, 315);
  400b04:	f240 133b 	movw	r3, #315	; 0x13b
  400b08:	f240 123f 	movw	r2, #319	; 0x13f
  400b0c:	f44f 7196 	mov.w	r1, #300	; 0x12c
  400b10:	2000      	movs	r0, #0
  400b12:	4c78      	ldr	r4, [pc, #480]	; (400cf4 <main+0x228>)
  400b14:	47a0      	blx	r4
	ili9488_set_foreground_color(COLOR_CONVERT(COLOR_BLACK));
  400b16:	2000      	movs	r0, #0
  400b18:	4b75      	ldr	r3, [pc, #468]	; (400cf0 <main+0x224>)
  400b1a:	4798      	blx	r3
	
	while (1) {
		
		if(is_conversion_done == true) {
  400b1c:	4b76      	ldr	r3, [pc, #472]	; (400cf8 <main+0x22c>)
  400b1e:	781b      	ldrb	r3, [r3, #0]
  400b20:	b2db      	uxtb	r3, r3
  400b22:	2b00      	cmp	r3, #0
  400b24:	f000 809b 	beq.w	400c5e <main+0x192>
			char resistence[10];
			
			ul_vol = g_ul_value *1000 / MAX_DIGITAL;
  400b28:	4b74      	ldr	r3, [pc, #464]	; (400cfc <main+0x230>)
  400b2a:	681a      	ldr	r2, [r3, #0]
  400b2c:	f44f 737a 	mov.w	r3, #1000	; 0x3e8
  400b30:	fb03 f102 	mul.w	r1, r3, r2
  400b34:	4b72      	ldr	r3, [pc, #456]	; (400d00 <main+0x234>)
  400b36:	fba3 3201 	umull	r3, r2, r3, r1
  400b3a:	1a8b      	subs	r3, r1, r2
  400b3c:	085b      	lsrs	r3, r3, #1
  400b3e:	4413      	add	r3, r2
  400b40:	0adb      	lsrs	r3, r3, #11
  400b42:	677b      	str	r3, [r7, #116]	; 0x74
			
			ul_res = (int) ul_vol;
  400b44:	6f7b      	ldr	r3, [r7, #116]	; 0x74
  400b46:	673b      	str	r3, [r7, #112]	; 0x70
			
			sprintf(resistence, "%d Ohms", ul_res);
  400b48:	f107 035c 	add.w	r3, r7, #92	; 0x5c
  400b4c:	6f3a      	ldr	r2, [r7, #112]	; 0x70
  400b4e:	496d      	ldr	r1, [pc, #436]	; (400d04 <main+0x238>)
  400b50:	4618      	mov	r0, r3
  400b52:	4b6d      	ldr	r3, [pc, #436]	; (400d08 <main+0x23c>)
  400b54:	4798      	blx	r3
			if(ul_res < 333){
  400b56:	6f3b      	ldr	r3, [r7, #112]	; 0x70
  400b58:	f5b3 7fa6 	cmp.w	r3, #332	; 0x14c
  400b5c:	dc0c      	bgt.n	400b78 <main+0xac>
				ili9488_set_foreground_color(COLOR_CONVERT(COLOR_GREEN));
  400b5e:	f44f 407c 	mov.w	r0, #64512	; 0xfc00
  400b62:	4b63      	ldr	r3, [pc, #396]	; (400cf0 <main+0x224>)
  400b64:	4798      	blx	r3
				ili9488_draw_string(10, 300, resistence);
  400b66:	f107 035c 	add.w	r3, r7, #92	; 0x5c
  400b6a:	461a      	mov	r2, r3
  400b6c:	f44f 7196 	mov.w	r1, #300	; 0x12c
  400b70:	200a      	movs	r0, #10
  400b72:	4b66      	ldr	r3, [pc, #408]	; (400d0c <main+0x240>)
  400b74:	4798      	blx	r3
  400b76:	e01b      	b.n	400bb0 <main+0xe4>
			} else if (ul_res < 666) {
  400b78:	6f3a      	ldr	r2, [r7, #112]	; 0x70
  400b7a:	f240 2399 	movw	r3, #665	; 0x299
  400b7e:	429a      	cmp	r2, r3
  400b80:	dc0b      	bgt.n	400b9a <main+0xce>
				ili9488_set_foreground_color(COLOR_CONVERT(COLOR_YELLOW));
  400b82:	4863      	ldr	r0, [pc, #396]	; (400d10 <main+0x244>)
  400b84:	4b5a      	ldr	r3, [pc, #360]	; (400cf0 <main+0x224>)
  400b86:	4798      	blx	r3
				ili9488_draw_string(10, 300, resistence);				
  400b88:	f107 035c 	add.w	r3, r7, #92	; 0x5c
  400b8c:	461a      	mov	r2, r3
  400b8e:	f44f 7196 	mov.w	r1, #300	; 0x12c
  400b92:	200a      	movs	r0, #10
  400b94:	4b5d      	ldr	r3, [pc, #372]	; (400d0c <main+0x240>)
  400b96:	4798      	blx	r3
  400b98:	e00a      	b.n	400bb0 <main+0xe4>
			} else {
				ili9488_set_foreground_color(COLOR_CONVERT(COLOR_TOMATO));
  400b9a:	485e      	ldr	r0, [pc, #376]	; (400d14 <main+0x248>)
  400b9c:	4b54      	ldr	r3, [pc, #336]	; (400cf0 <main+0x224>)
  400b9e:	4798      	blx	r3
				ili9488_draw_string(10, 300, resistence);
  400ba0:	f107 035c 	add.w	r3, r7, #92	; 0x5c
  400ba4:	461a      	mov	r2, r3
  400ba6:	f44f 7196 	mov.w	r1, #300	; 0x12c
  400baa:	200a      	movs	r0, #10
  400bac:	4b57      	ldr	r3, [pc, #348]	; (400d0c <main+0x240>)
  400bae:	4798      	blx	r3
			}
			
			afec_start_software_conversion(AFEC0);
  400bb0:	484c      	ldr	r0, [pc, #304]	; (400ce4 <main+0x218>)
  400bb2:	4b4d      	ldr	r3, [pc, #308]	; (400ce8 <main+0x21c>)
  400bb4:	4798      	blx	r3
			is_conversion_done = false;			
  400bb6:	4a50      	ldr	r2, [pc, #320]	; (400cf8 <main+0x22c>)
  400bb8:	2300      	movs	r3, #0
  400bba:	7013      	strb	r3, [r2, #0]
			delay_ms (2500);
  400bbc:	4b56      	ldr	r3, [pc, #344]	; (400d18 <main+0x24c>)
  400bbe:	4798      	blx	r3
  400bc0:	4603      	mov	r3, r0
  400bc2:	4619      	mov	r1, r3
  400bc4:	f04f 0200 	mov.w	r2, #0
  400bc8:	460b      	mov	r3, r1
  400bca:	4614      	mov	r4, r2
  400bcc:	00a0      	lsls	r0, r4, #2
  400bce:	64f8      	str	r0, [r7, #76]	; 0x4c
  400bd0:	6cf8      	ldr	r0, [r7, #76]	; 0x4c
  400bd2:	ea40 7093 	orr.w	r0, r0, r3, lsr #30
  400bd6:	64f8      	str	r0, [r7, #76]	; 0x4c
  400bd8:	009b      	lsls	r3, r3, #2
  400bda:	64bb      	str	r3, [r7, #72]	; 0x48
  400bdc:	e9d7 3412 	ldrd	r3, r4, [r7, #72]	; 0x48
  400be0:	185b      	adds	r3, r3, r1
  400be2:	eb44 0402 	adc.w	r4, r4, r2
  400be6:	00e0      	lsls	r0, r4, #3
  400be8:	6478      	str	r0, [r7, #68]	; 0x44
  400bea:	6c78      	ldr	r0, [r7, #68]	; 0x44
  400bec:	ea40 7053 	orr.w	r0, r0, r3, lsr #29
  400bf0:	6478      	str	r0, [r7, #68]	; 0x44
  400bf2:	00db      	lsls	r3, r3, #3
  400bf4:	643b      	str	r3, [r7, #64]	; 0x40
  400bf6:	e9d7 3410 	ldrd	r3, r4, [r7, #64]	; 0x40
  400bfa:	1a5b      	subs	r3, r3, r1
  400bfc:	eb64 0402 	sbc.w	r4, r4, r2
  400c00:	0120      	lsls	r0, r4, #4
  400c02:	63f8      	str	r0, [r7, #60]	; 0x3c
  400c04:	6bf8      	ldr	r0, [r7, #60]	; 0x3c
  400c06:	ea40 7013 	orr.w	r0, r0, r3, lsr #28
  400c0a:	63f8      	str	r0, [r7, #60]	; 0x3c
  400c0c:	011b      	lsls	r3, r3, #4
  400c0e:	63bb      	str	r3, [r7, #56]	; 0x38
  400c10:	e9d7 340e 	ldrd	r3, r4, [r7, #56]	; 0x38
  400c14:	185b      	adds	r3, r3, r1
  400c16:	eb44 0402 	adc.w	r4, r4, r2
  400c1a:	00a2      	lsls	r2, r4, #2
  400c1c:	637a      	str	r2, [r7, #52]	; 0x34
  400c1e:	6b7a      	ldr	r2, [r7, #52]	; 0x34
  400c20:	ea42 7293 	orr.w	r2, r2, r3, lsr #30
  400c24:	637a      	str	r2, [r7, #52]	; 0x34
  400c26:	009b      	lsls	r3, r3, #2
  400c28:	633b      	str	r3, [r7, #48]	; 0x30
  400c2a:	e9d7 340c 	ldrd	r3, r4, [r7, #48]	; 0x30
  400c2e:	4619      	mov	r1, r3
  400c30:	4622      	mov	r2, r4
  400c32:	f241 732b 	movw	r3, #5931	; 0x172b
  400c36:	f04f 0400 	mov.w	r4, #0
  400c3a:	18cd      	adds	r5, r1, r3
  400c3c:	eb42 0604 	adc.w	r6, r2, r4
  400c40:	4628      	mov	r0, r5
  400c42:	4631      	mov	r1, r6
  400c44:	4c35      	ldr	r4, [pc, #212]	; (400d1c <main+0x250>)
  400c46:	f241 722c 	movw	r2, #5932	; 0x172c
  400c4a:	f04f 0300 	mov.w	r3, #0
  400c4e:	47a0      	blx	r4
  400c50:	4603      	mov	r3, r0
  400c52:	460c      	mov	r4, r1
  400c54:	4618      	mov	r0, r3
  400c56:	4b32      	ldr	r3, [pc, #200]	; (400d20 <main+0x254>)
  400c58:	4798      	blx	r3
			
			config_ADC_TEMP();
  400c5a:	4b32      	ldr	r3, [pc, #200]	; (400d24 <main+0x258>)
  400c5c:	4798      	blx	r3
		}
		
		if(is_conversion_done2 == true){
  400c5e:	4b32      	ldr	r3, [pc, #200]	; (400d28 <main+0x25c>)
  400c60:	781b      	ldrb	r3, [r3, #0]
  400c62:	b2db      	uxtb	r3, r3
  400c64:	2b00      	cmp	r3, #0
  400c66:	f000 80c7 	beq.w	400df8 <main+0x32c>
			
			char temperature[10];
			
			ul_temp = convert_adc_to_temp(g_ul_value2);
  400c6a:	4b30      	ldr	r3, [pc, #192]	; (400d2c <main+0x260>)
  400c6c:	681b      	ldr	r3, [r3, #0]
  400c6e:	4618      	mov	r0, r3
  400c70:	4b2f      	ldr	r3, [pc, #188]	; (400d30 <main+0x264>)
  400c72:	4798      	blx	r3
  400c74:	66f8      	str	r0, [r7, #108]	; 0x6c
						
			temp = (int) ul_temp;
  400c76:	6efb      	ldr	r3, [r7, #108]	; 0x6c
  400c78:	66bb      	str	r3, [r7, #104]	; 0x68
		    
			sprintf(temperature, "%d oC", temp);
  400c7a:	f107 0350 	add.w	r3, r7, #80	; 0x50
  400c7e:	6eba      	ldr	r2, [r7, #104]	; 0x68
  400c80:	492c      	ldr	r1, [pc, #176]	; (400d34 <main+0x268>)
  400c82:	4618      	mov	r0, r3
  400c84:	4b20      	ldr	r3, [pc, #128]	; (400d08 <main+0x23c>)
  400c86:	4798      	blx	r3
			if(temp < 16){
  400c88:	6ebb      	ldr	r3, [r7, #104]	; 0x68
  400c8a:	2b0f      	cmp	r3, #15
  400c8c:	dc0c      	bgt.n	400ca8 <main+0x1dc>
				ili9488_set_foreground_color(COLOR_CONVERT(COLOR_GREEN));
  400c8e:	f44f 407c 	mov.w	r0, #64512	; 0xfc00
  400c92:	4b17      	ldr	r3, [pc, #92]	; (400cf0 <main+0x224>)
  400c94:	4798      	blx	r3
				ili9488_draw_string(10, 330, temperature);
  400c96:	f107 0350 	add.w	r3, r7, #80	; 0x50
  400c9a:	461a      	mov	r2, r3
  400c9c:	f44f 71a5 	mov.w	r1, #330	; 0x14a
  400ca0:	200a      	movs	r0, #10
  400ca2:	4b1a      	ldr	r3, [pc, #104]	; (400d0c <main+0x240>)
  400ca4:	4798      	blx	r3
  400ca6:	e052      	b.n	400d4e <main+0x282>
				} else if (temp < 26) {
  400ca8:	6ebb      	ldr	r3, [r7, #104]	; 0x68
  400caa:	2b19      	cmp	r3, #25
  400cac:	dc44      	bgt.n	400d38 <main+0x26c>
				ili9488_set_foreground_color(COLOR_CONVERT(COLOR_YELLOW));
  400cae:	4818      	ldr	r0, [pc, #96]	; (400d10 <main+0x244>)
  400cb0:	4b0f      	ldr	r3, [pc, #60]	; (400cf0 <main+0x224>)
  400cb2:	4798      	blx	r3
				ili9488_draw_string(10, 330, temperature);
  400cb4:	f107 0350 	add.w	r3, r7, #80	; 0x50
  400cb8:	461a      	mov	r2, r3
  400cba:	f44f 71a5 	mov.w	r1, #330	; 0x14a
  400cbe:	200a      	movs	r0, #10
  400cc0:	4b12      	ldr	r3, [pc, #72]	; (400d0c <main+0x240>)
  400cc2:	4798      	blx	r3
  400cc4:	e043      	b.n	400d4e <main+0x282>
  400cc6:	bf00      	nop
  400cc8:	004011cd 	.word	0x004011cd
  400ccc:	00401c95 	.word	0x00401c95
  400cd0:	004007a9 	.word	0x004007a9
  400cd4:	00400905 	.word	0x00400905
  400cd8:	0040086d 	.word	0x0040086d
  400cdc:	00400a4d 	.word	0x00400a4d
  400ce0:	400e1850 	.word	0x400e1850
  400ce4:	4003c000 	.word	0x4003c000
  400ce8:	00400209 	.word	0x00400209
  400cec:	00fcfcfc 	.word	0x00fcfcfc
  400cf0:	004023a1 	.word	0x004023a1
  400cf4:	004024cd 	.word	0x004024cd
  400cf8:	204009dc 	.word	0x204009dc
  400cfc:	204009e0 	.word	0x204009e0
  400d00:	00100101 	.word	0x00100101
  400d04:	0042769c 	.word	0x0042769c
  400d08:	004049f5 	.word	0x004049f5
  400d0c:	0040267d 	.word	0x0040267d
  400d10:	00fcfc00 	.word	0x00fcfc00
  400d14:	00fc6044 	.word	0x00fc6044
  400d18:	00400369 	.word	0x00400369
  400d1c:	00404459 	.word	0x00404459
  400d20:	20400001 	.word	0x20400001
  400d24:	004009a9 	.word	0x004009a9
  400d28:	204009dd 	.word	0x204009dd
  400d2c:	204009e4 	.word	0x204009e4
  400d30:	004007bd 	.word	0x004007bd
  400d34:	004276a4 	.word	0x004276a4
				} else {
				ili9488_set_foreground_color(COLOR_CONVERT(COLOR_TOMATO));
  400d38:	4859      	ldr	r0, [pc, #356]	; (400ea0 <main+0x3d4>)
  400d3a:	4b5a      	ldr	r3, [pc, #360]	; (400ea4 <main+0x3d8>)
  400d3c:	4798      	blx	r3
				ili9488_draw_string(10, 330, temperature);
  400d3e:	f107 0350 	add.w	r3, r7, #80	; 0x50
  400d42:	461a      	mov	r2, r3
  400d44:	f44f 71a5 	mov.w	r1, #330	; 0x14a
  400d48:	200a      	movs	r0, #10
  400d4a:	4b57      	ldr	r3, [pc, #348]	; (400ea8 <main+0x3dc>)
  400d4c:	4798      	blx	r3
			}			
			
			
			afec_start_software_conversion(AFEC0);
  400d4e:	4857      	ldr	r0, [pc, #348]	; (400eac <main+0x3e0>)
  400d50:	4b57      	ldr	r3, [pc, #348]	; (400eb0 <main+0x3e4>)
  400d52:	4798      	blx	r3
			is_conversion_done2 = false;
  400d54:	4a57      	ldr	r2, [pc, #348]	; (400eb4 <main+0x3e8>)
  400d56:	2300      	movs	r3, #0
  400d58:	7013      	strb	r3, [r2, #0]
			delay_ms (2500);
  400d5a:	4b57      	ldr	r3, [pc, #348]	; (400eb8 <main+0x3ec>)
  400d5c:	4798      	blx	r3
  400d5e:	4603      	mov	r3, r0
  400d60:	4619      	mov	r1, r3
  400d62:	f04f 0200 	mov.w	r2, #0
  400d66:	460b      	mov	r3, r1
  400d68:	4614      	mov	r4, r2
  400d6a:	00a0      	lsls	r0, r4, #2
  400d6c:	62f8      	str	r0, [r7, #44]	; 0x2c
  400d6e:	6af8      	ldr	r0, [r7, #44]	; 0x2c
  400d70:	ea40 7093 	orr.w	r0, r0, r3, lsr #30
  400d74:	62f8      	str	r0, [r7, #44]	; 0x2c
  400d76:	009b      	lsls	r3, r3, #2
  400d78:	62bb      	str	r3, [r7, #40]	; 0x28
  400d7a:	e9d7 340a 	ldrd	r3, r4, [r7, #40]	; 0x28
  400d7e:	185b      	adds	r3, r3, r1
  400d80:	eb44 0402 	adc.w	r4, r4, r2
  400d84:	00e0      	lsls	r0, r4, #3
  400d86:	6278      	str	r0, [r7, #36]	; 0x24
  400d88:	6a78      	ldr	r0, [r7, #36]	; 0x24
  400d8a:	ea40 7053 	orr.w	r0, r0, r3, lsr #29
  400d8e:	6278      	str	r0, [r7, #36]	; 0x24
  400d90:	00db      	lsls	r3, r3, #3
  400d92:	623b      	str	r3, [r7, #32]
  400d94:	e9d7 3408 	ldrd	r3, r4, [r7, #32]
  400d98:	1a5b      	subs	r3, r3, r1
  400d9a:	eb64 0402 	sbc.w	r4, r4, r2
  400d9e:	0120      	lsls	r0, r4, #4
  400da0:	61f8      	str	r0, [r7, #28]
  400da2:	69f8      	ldr	r0, [r7, #28]
  400da4:	ea40 7013 	orr.w	r0, r0, r3, lsr #28
  400da8:	61f8      	str	r0, [r7, #28]
  400daa:	011b      	lsls	r3, r3, #4
  400dac:	61bb      	str	r3, [r7, #24]
  400dae:	e9d7 3406 	ldrd	r3, r4, [r7, #24]
  400db2:	185b      	adds	r3, r3, r1
  400db4:	eb44 0402 	adc.w	r4, r4, r2
  400db8:	ea4f 0984 	mov.w	r9, r4, lsl #2
  400dbc:	ea49 7993 	orr.w	r9, r9, r3, lsr #30
  400dc0:	ea4f 0883 	mov.w	r8, r3, lsl #2
  400dc4:	4643      	mov	r3, r8
  400dc6:	464c      	mov	r4, r9
  400dc8:	4619      	mov	r1, r3
  400dca:	4622      	mov	r2, r4
  400dcc:	f241 732b 	movw	r3, #5931	; 0x172b
  400dd0:	f04f 0400 	mov.w	r4, #0
  400dd4:	18cd      	adds	r5, r1, r3
  400dd6:	eb42 0604 	adc.w	r6, r2, r4
  400dda:	4628      	mov	r0, r5
  400ddc:	4631      	mov	r1, r6
  400dde:	4c37      	ldr	r4, [pc, #220]	; (400ebc <main+0x3f0>)
  400de0:	f241 722c 	movw	r2, #5932	; 0x172c
  400de4:	f04f 0300 	mov.w	r3, #0
  400de8:	47a0      	blx	r4
  400dea:	4603      	mov	r3, r0
  400dec:	460c      	mov	r4, r1
  400dee:	4618      	mov	r0, r3
  400df0:	4b33      	ldr	r3, [pc, #204]	; (400ec0 <main+0x3f4>)
  400df2:	4798      	blx	r3
			config_ADC_POT();
  400df4:	4b33      	ldr	r3, [pc, #204]	; (400ec4 <main+0x3f8>)
  400df6:	4798      	blx	r3
		}
		afec_start_software_conversion(AFEC0);
  400df8:	482c      	ldr	r0, [pc, #176]	; (400eac <main+0x3e0>)
  400dfa:	4b2d      	ldr	r3, [pc, #180]	; (400eb0 <main+0x3e4>)
  400dfc:	4798      	blx	r3
		delay_ms(2500);
  400dfe:	4b2e      	ldr	r3, [pc, #184]	; (400eb8 <main+0x3ec>)
  400e00:	4798      	blx	r3
  400e02:	4603      	mov	r3, r0
  400e04:	4619      	mov	r1, r3
  400e06:	f04f 0200 	mov.w	r2, #0
  400e0a:	460b      	mov	r3, r1
  400e0c:	4614      	mov	r4, r2
  400e0e:	00a0      	lsls	r0, r4, #2
  400e10:	6178      	str	r0, [r7, #20]
  400e12:	6978      	ldr	r0, [r7, #20]
  400e14:	ea40 7093 	orr.w	r0, r0, r3, lsr #30
  400e18:	6178      	str	r0, [r7, #20]
  400e1a:	009b      	lsls	r3, r3, #2
  400e1c:	613b      	str	r3, [r7, #16]
  400e1e:	e9d7 3404 	ldrd	r3, r4, [r7, #16]
  400e22:	185b      	adds	r3, r3, r1
  400e24:	eb44 0402 	adc.w	r4, r4, r2
  400e28:	00e0      	lsls	r0, r4, #3
  400e2a:	60f8      	str	r0, [r7, #12]
  400e2c:	68f8      	ldr	r0, [r7, #12]
  400e2e:	ea40 7053 	orr.w	r0, r0, r3, lsr #29
  400e32:	60f8      	str	r0, [r7, #12]
  400e34:	00db      	lsls	r3, r3, #3
  400e36:	60bb      	str	r3, [r7, #8]
  400e38:	e9d7 3402 	ldrd	r3, r4, [r7, #8]
  400e3c:	1a5b      	subs	r3, r3, r1
  400e3e:	eb64 0402 	sbc.w	r4, r4, r2
  400e42:	0120      	lsls	r0, r4, #4
  400e44:	6078      	str	r0, [r7, #4]
  400e46:	6878      	ldr	r0, [r7, #4]
  400e48:	ea40 7013 	orr.w	r0, r0, r3, lsr #28
  400e4c:	6078      	str	r0, [r7, #4]
  400e4e:	011b      	lsls	r3, r3, #4
  400e50:	603b      	str	r3, [r7, #0]
  400e52:	e9d7 3400 	ldrd	r3, r4, [r7]
  400e56:	185b      	adds	r3, r3, r1
  400e58:	eb44 0402 	adc.w	r4, r4, r2
  400e5c:	ea4f 0b84 	mov.w	fp, r4, lsl #2
  400e60:	ea4b 7b93 	orr.w	fp, fp, r3, lsr #30
  400e64:	ea4f 0a83 	mov.w	sl, r3, lsl #2
  400e68:	4653      	mov	r3, sl
  400e6a:	465c      	mov	r4, fp
  400e6c:	4619      	mov	r1, r3
  400e6e:	4622      	mov	r2, r4
  400e70:	f241 732b 	movw	r3, #5931	; 0x172b
  400e74:	f04f 0400 	mov.w	r4, #0
  400e78:	18cd      	adds	r5, r1, r3
  400e7a:	eb42 0604 	adc.w	r6, r2, r4
  400e7e:	4628      	mov	r0, r5
  400e80:	4631      	mov	r1, r6
  400e82:	4c0e      	ldr	r4, [pc, #56]	; (400ebc <main+0x3f0>)
  400e84:	f241 722c 	movw	r2, #5932	; 0x172c
  400e88:	f04f 0300 	mov.w	r3, #0
  400e8c:	47a0      	blx	r4
  400e8e:	4603      	mov	r3, r0
  400e90:	460c      	mov	r4, r1
  400e92:	4618      	mov	r0, r3
  400e94:	4b0a      	ldr	r3, [pc, #40]	; (400ec0 <main+0x3f4>)
  400e96:	4798      	blx	r3
		configure_lcd();
  400e98:	4b0b      	ldr	r3, [pc, #44]	; (400ec8 <main+0x3fc>)
  400e9a:	4798      	blx	r3
		if(is_conversion_done == true) {
  400e9c:	e63e      	b.n	400b1c <main+0x50>
  400e9e:	bf00      	nop
  400ea0:	00fc6044 	.word	0x00fc6044
  400ea4:	004023a1 	.word	0x004023a1
  400ea8:	0040267d 	.word	0x0040267d
  400eac:	4003c000 	.word	0x4003c000
  400eb0:	00400209 	.word	0x00400209
  400eb4:	204009dd 	.word	0x204009dd
  400eb8:	00400369 	.word	0x00400369
  400ebc:	00404459 	.word	0x00404459
  400ec0:	20400001 	.word	0x20400001
  400ec4:	00400905 	.word	0x00400905
  400ec8:	0040086d 	.word	0x0040086d

00400ecc <osc_enable>:
  400ecc:	b580      	push	{r7, lr}
  400ece:	b082      	sub	sp, #8
  400ed0:	af00      	add	r7, sp, #0
  400ed2:	6078      	str	r0, [r7, #4]
  400ed4:	687b      	ldr	r3, [r7, #4]
  400ed6:	2b07      	cmp	r3, #7
  400ed8:	d831      	bhi.n	400f3e <osc_enable+0x72>
  400eda:	a201      	add	r2, pc, #4	; (adr r2, 400ee0 <osc_enable+0x14>)
  400edc:	f852 f023 	ldr.w	pc, [r2, r3, lsl #2]
  400ee0:	00400f3d 	.word	0x00400f3d
  400ee4:	00400f01 	.word	0x00400f01
  400ee8:	00400f09 	.word	0x00400f09
  400eec:	00400f11 	.word	0x00400f11
  400ef0:	00400f19 	.word	0x00400f19
  400ef4:	00400f21 	.word	0x00400f21
  400ef8:	00400f29 	.word	0x00400f29
  400efc:	00400f33 	.word	0x00400f33
  400f00:	2000      	movs	r0, #0
  400f02:	4b11      	ldr	r3, [pc, #68]	; (400f48 <osc_enable+0x7c>)
  400f04:	4798      	blx	r3
  400f06:	e01a      	b.n	400f3e <osc_enable+0x72>
  400f08:	2001      	movs	r0, #1
  400f0a:	4b0f      	ldr	r3, [pc, #60]	; (400f48 <osc_enable+0x7c>)
  400f0c:	4798      	blx	r3
  400f0e:	e016      	b.n	400f3e <osc_enable+0x72>
  400f10:	2000      	movs	r0, #0
  400f12:	4b0e      	ldr	r3, [pc, #56]	; (400f4c <osc_enable+0x80>)
  400f14:	4798      	blx	r3
  400f16:	e012      	b.n	400f3e <osc_enable+0x72>
  400f18:	2010      	movs	r0, #16
  400f1a:	4b0c      	ldr	r3, [pc, #48]	; (400f4c <osc_enable+0x80>)
  400f1c:	4798      	blx	r3
  400f1e:	e00e      	b.n	400f3e <osc_enable+0x72>
  400f20:	2020      	movs	r0, #32
  400f22:	4b0a      	ldr	r3, [pc, #40]	; (400f4c <osc_enable+0x80>)
  400f24:	4798      	blx	r3
  400f26:	e00a      	b.n	400f3e <osc_enable+0x72>
  400f28:	213e      	movs	r1, #62	; 0x3e
  400f2a:	2000      	movs	r0, #0
  400f2c:	4b08      	ldr	r3, [pc, #32]	; (400f50 <osc_enable+0x84>)
  400f2e:	4798      	blx	r3
  400f30:	e005      	b.n	400f3e <osc_enable+0x72>
  400f32:	213e      	movs	r1, #62	; 0x3e
  400f34:	2001      	movs	r0, #1
  400f36:	4b06      	ldr	r3, [pc, #24]	; (400f50 <osc_enable+0x84>)
  400f38:	4798      	blx	r3
  400f3a:	e000      	b.n	400f3e <osc_enable+0x72>
  400f3c:	bf00      	nop
  400f3e:	bf00      	nop
  400f40:	3708      	adds	r7, #8
  400f42:	46bd      	mov	sp, r7
  400f44:	bd80      	pop	{r7, pc}
  400f46:	bf00      	nop
  400f48:	004036dd 	.word	0x004036dd
  400f4c:	00403749 	.word	0x00403749
  400f50:	004037b9 	.word	0x004037b9

00400f54 <osc_is_ready>:
  400f54:	b580      	push	{r7, lr}
  400f56:	b082      	sub	sp, #8
  400f58:	af00      	add	r7, sp, #0
  400f5a:	6078      	str	r0, [r7, #4]
  400f5c:	687b      	ldr	r3, [r7, #4]
  400f5e:	2b07      	cmp	r3, #7
  400f60:	d826      	bhi.n	400fb0 <osc_is_ready+0x5c>
  400f62:	a201      	add	r2, pc, #4	; (adr r2, 400f68 <osc_is_ready+0x14>)
  400f64:	f852 f023 	ldr.w	pc, [r2, r3, lsl #2]
  400f68:	00400f89 	.word	0x00400f89
  400f6c:	00400f8d 	.word	0x00400f8d
  400f70:	00400f8d 	.word	0x00400f8d
  400f74:	00400f9f 	.word	0x00400f9f
  400f78:	00400f9f 	.word	0x00400f9f
  400f7c:	00400f9f 	.word	0x00400f9f
  400f80:	00400f9f 	.word	0x00400f9f
  400f84:	00400f9f 	.word	0x00400f9f
  400f88:	2301      	movs	r3, #1
  400f8a:	e012      	b.n	400fb2 <osc_is_ready+0x5e>
  400f8c:	4b0b      	ldr	r3, [pc, #44]	; (400fbc <osc_is_ready+0x68>)
  400f8e:	4798      	blx	r3
  400f90:	4603      	mov	r3, r0
  400f92:	2b00      	cmp	r3, #0
  400f94:	bf14      	ite	ne
  400f96:	2301      	movne	r3, #1
  400f98:	2300      	moveq	r3, #0
  400f9a:	b2db      	uxtb	r3, r3
  400f9c:	e009      	b.n	400fb2 <osc_is_ready+0x5e>
  400f9e:	4b08      	ldr	r3, [pc, #32]	; (400fc0 <osc_is_ready+0x6c>)
  400fa0:	4798      	blx	r3
  400fa2:	4603      	mov	r3, r0
  400fa4:	2b00      	cmp	r3, #0
  400fa6:	bf14      	ite	ne
  400fa8:	2301      	movne	r3, #1
  400faa:	2300      	moveq	r3, #0
  400fac:	b2db      	uxtb	r3, r3
  400fae:	e000      	b.n	400fb2 <osc_is_ready+0x5e>
  400fb0:	2300      	movs	r3, #0
  400fb2:	4618      	mov	r0, r3
  400fb4:	3708      	adds	r7, #8
  400fb6:	46bd      	mov	sp, r7
  400fb8:	bd80      	pop	{r7, pc}
  400fba:	bf00      	nop
  400fbc:	00403715 	.word	0x00403715
  400fc0:	00403831 	.word	0x00403831

00400fc4 <osc_get_rate>:
  400fc4:	b480      	push	{r7}
  400fc6:	b083      	sub	sp, #12
  400fc8:	af00      	add	r7, sp, #0
  400fca:	6078      	str	r0, [r7, #4]
  400fcc:	687b      	ldr	r3, [r7, #4]
  400fce:	2b07      	cmp	r3, #7
  400fd0:	d825      	bhi.n	40101e <osc_get_rate+0x5a>
  400fd2:	a201      	add	r2, pc, #4	; (adr r2, 400fd8 <osc_get_rate+0x14>)
  400fd4:	f852 f023 	ldr.w	pc, [r2, r3, lsl #2]
  400fd8:	00400ff9 	.word	0x00400ff9
  400fdc:	00400fff 	.word	0x00400fff
  400fe0:	00401005 	.word	0x00401005
  400fe4:	0040100b 	.word	0x0040100b
  400fe8:	0040100f 	.word	0x0040100f
  400fec:	00401013 	.word	0x00401013
  400ff0:	00401017 	.word	0x00401017
  400ff4:	0040101b 	.word	0x0040101b
  400ff8:	f44f 43fa 	mov.w	r3, #32000	; 0x7d00
  400ffc:	e010      	b.n	401020 <osc_get_rate+0x5c>
  400ffe:	f44f 4300 	mov.w	r3, #32768	; 0x8000
  401002:	e00d      	b.n	401020 <osc_get_rate+0x5c>
  401004:	f44f 4300 	mov.w	r3, #32768	; 0x8000
  401008:	e00a      	b.n	401020 <osc_get_rate+0x5c>
  40100a:	4b08      	ldr	r3, [pc, #32]	; (40102c <osc_get_rate+0x68>)
  40100c:	e008      	b.n	401020 <osc_get_rate+0x5c>
  40100e:	4b08      	ldr	r3, [pc, #32]	; (401030 <osc_get_rate+0x6c>)
  401010:	e006      	b.n	401020 <osc_get_rate+0x5c>
  401012:	4b08      	ldr	r3, [pc, #32]	; (401034 <osc_get_rate+0x70>)
  401014:	e004      	b.n	401020 <osc_get_rate+0x5c>
  401016:	4b07      	ldr	r3, [pc, #28]	; (401034 <osc_get_rate+0x70>)
  401018:	e002      	b.n	401020 <osc_get_rate+0x5c>
  40101a:	4b06      	ldr	r3, [pc, #24]	; (401034 <osc_get_rate+0x70>)
  40101c:	e000      	b.n	401020 <osc_get_rate+0x5c>
  40101e:	2300      	movs	r3, #0
  401020:	4618      	mov	r0, r3
  401022:	370c      	adds	r7, #12
  401024:	46bd      	mov	sp, r7
  401026:	f85d 7b04 	ldr.w	r7, [sp], #4
  40102a:	4770      	bx	lr
  40102c:	003d0900 	.word	0x003d0900
  401030:	007a1200 	.word	0x007a1200
  401034:	00b71b00 	.word	0x00b71b00

00401038 <osc_wait_ready>:
  401038:	b580      	push	{r7, lr}
  40103a:	b082      	sub	sp, #8
  40103c:	af00      	add	r7, sp, #0
  40103e:	4603      	mov	r3, r0
  401040:	71fb      	strb	r3, [r7, #7]
  401042:	bf00      	nop
  401044:	79fb      	ldrb	r3, [r7, #7]
  401046:	4618      	mov	r0, r3
  401048:	4b05      	ldr	r3, [pc, #20]	; (401060 <osc_wait_ready+0x28>)
  40104a:	4798      	blx	r3
  40104c:	4603      	mov	r3, r0
  40104e:	f083 0301 	eor.w	r3, r3, #1
  401052:	b2db      	uxtb	r3, r3
  401054:	2b00      	cmp	r3, #0
  401056:	d1f5      	bne.n	401044 <osc_wait_ready+0xc>
  401058:	bf00      	nop
  40105a:	3708      	adds	r7, #8
  40105c:	46bd      	mov	sp, r7
  40105e:	bd80      	pop	{r7, pc}
  401060:	00400f55 	.word	0x00400f55

00401064 <pll_config_init>:
  401064:	b580      	push	{r7, lr}
  401066:	b086      	sub	sp, #24
  401068:	af00      	add	r7, sp, #0
  40106a:	60f8      	str	r0, [r7, #12]
  40106c:	607a      	str	r2, [r7, #4]
  40106e:	603b      	str	r3, [r7, #0]
  401070:	460b      	mov	r3, r1
  401072:	72fb      	strb	r3, [r7, #11]
  401074:	687b      	ldr	r3, [r7, #4]
  401076:	2b00      	cmp	r3, #0
  401078:	d107      	bne.n	40108a <pll_config_init+0x26>
  40107a:	683b      	ldr	r3, [r7, #0]
  40107c:	2b00      	cmp	r3, #0
  40107e:	d104      	bne.n	40108a <pll_config_init+0x26>
  401080:	68fb      	ldr	r3, [r7, #12]
  401082:	f44f 0270 	mov.w	r2, #15728640	; 0xf00000
  401086:	601a      	str	r2, [r3, #0]
  401088:	e019      	b.n	4010be <pll_config_init+0x5a>
  40108a:	7afb      	ldrb	r3, [r7, #11]
  40108c:	4618      	mov	r0, r3
  40108e:	4b0e      	ldr	r3, [pc, #56]	; (4010c8 <pll_config_init+0x64>)
  401090:	4798      	blx	r3
  401092:	4602      	mov	r2, r0
  401094:	687b      	ldr	r3, [r7, #4]
  401096:	fbb2 f3f3 	udiv	r3, r2, r3
  40109a:	617b      	str	r3, [r7, #20]
  40109c:	697b      	ldr	r3, [r7, #20]
  40109e:	683a      	ldr	r2, [r7, #0]
  4010a0:	fb02 f303 	mul.w	r3, r2, r3
  4010a4:	617b      	str	r3, [r7, #20]
  4010a6:	683b      	ldr	r3, [r7, #0]
  4010a8:	3b01      	subs	r3, #1
  4010aa:	041a      	lsls	r2, r3, #16
  4010ac:	4b07      	ldr	r3, [pc, #28]	; (4010cc <pll_config_init+0x68>)
  4010ae:	4013      	ands	r3, r2
  4010b0:	687a      	ldr	r2, [r7, #4]
  4010b2:	b2d2      	uxtb	r2, r2
  4010b4:	4313      	orrs	r3, r2
  4010b6:	f443 527c 	orr.w	r2, r3, #16128	; 0x3f00
  4010ba:	68fb      	ldr	r3, [r7, #12]
  4010bc:	601a      	str	r2, [r3, #0]
  4010be:	bf00      	nop
  4010c0:	3718      	adds	r7, #24
  4010c2:	46bd      	mov	sp, r7
  4010c4:	bd80      	pop	{r7, pc}
  4010c6:	bf00      	nop
  4010c8:	00400fc5 	.word	0x00400fc5
  4010cc:	07ff0000 	.word	0x07ff0000

004010d0 <pll_enable>:
  4010d0:	b580      	push	{r7, lr}
  4010d2:	b082      	sub	sp, #8
  4010d4:	af00      	add	r7, sp, #0
  4010d6:	6078      	str	r0, [r7, #4]
  4010d8:	6039      	str	r1, [r7, #0]
  4010da:	683b      	ldr	r3, [r7, #0]
  4010dc:	2b00      	cmp	r3, #0
  4010de:	d108      	bne.n	4010f2 <pll_enable+0x22>
  4010e0:	4b09      	ldr	r3, [pc, #36]	; (401108 <pll_enable+0x38>)
  4010e2:	4798      	blx	r3
  4010e4:	4a09      	ldr	r2, [pc, #36]	; (40110c <pll_enable+0x3c>)
  4010e6:	687b      	ldr	r3, [r7, #4]
  4010e8:	681b      	ldr	r3, [r3, #0]
  4010ea:	f043 5300 	orr.w	r3, r3, #536870912	; 0x20000000
  4010ee:	6293      	str	r3, [r2, #40]	; 0x28
  4010f0:	e005      	b.n	4010fe <pll_enable+0x2e>
  4010f2:	4a06      	ldr	r2, [pc, #24]	; (40110c <pll_enable+0x3c>)
  4010f4:	687b      	ldr	r3, [r7, #4]
  4010f6:	681b      	ldr	r3, [r3, #0]
  4010f8:	f443 3380 	orr.w	r3, r3, #65536	; 0x10000
  4010fc:	61d3      	str	r3, [r2, #28]
  4010fe:	bf00      	nop
  401100:	3708      	adds	r7, #8
  401102:	46bd      	mov	sp, r7
  401104:	bd80      	pop	{r7, pc}
  401106:	bf00      	nop
  401108:	0040384d 	.word	0x0040384d
  40110c:	400e0600 	.word	0x400e0600

00401110 <pll_is_locked>:
  401110:	b580      	push	{r7, lr}
  401112:	b082      	sub	sp, #8
  401114:	af00      	add	r7, sp, #0
  401116:	6078      	str	r0, [r7, #4]
  401118:	687b      	ldr	r3, [r7, #4]
  40111a:	2b00      	cmp	r3, #0
  40111c:	d103      	bne.n	401126 <pll_is_locked+0x16>
  40111e:	4b05      	ldr	r3, [pc, #20]	; (401134 <pll_is_locked+0x24>)
  401120:	4798      	blx	r3
  401122:	4603      	mov	r3, r0
  401124:	e002      	b.n	40112c <pll_is_locked+0x1c>
  401126:	4b04      	ldr	r3, [pc, #16]	; (401138 <pll_is_locked+0x28>)
  401128:	4798      	blx	r3
  40112a:	4603      	mov	r3, r0
  40112c:	4618      	mov	r0, r3
  40112e:	3708      	adds	r7, #8
  401130:	46bd      	mov	sp, r7
  401132:	bd80      	pop	{r7, pc}
  401134:	00403869 	.word	0x00403869
  401138:	00403885 	.word	0x00403885

0040113c <pll_enable_source>:
  40113c:	b580      	push	{r7, lr}
  40113e:	b082      	sub	sp, #8
  401140:	af00      	add	r7, sp, #0
  401142:	4603      	mov	r3, r0
  401144:	71fb      	strb	r3, [r7, #7]
  401146:	79fb      	ldrb	r3, [r7, #7]
  401148:	3b03      	subs	r3, #3
  40114a:	2b04      	cmp	r3, #4
  40114c:	d808      	bhi.n	401160 <pll_enable_source+0x24>
  40114e:	79fb      	ldrb	r3, [r7, #7]
  401150:	4618      	mov	r0, r3
  401152:	4b06      	ldr	r3, [pc, #24]	; (40116c <pll_enable_source+0x30>)
  401154:	4798      	blx	r3
  401156:	79fb      	ldrb	r3, [r7, #7]
  401158:	4618      	mov	r0, r3
  40115a:	4b05      	ldr	r3, [pc, #20]	; (401170 <pll_enable_source+0x34>)
  40115c:	4798      	blx	r3
  40115e:	e000      	b.n	401162 <pll_enable_source+0x26>
  401160:	bf00      	nop
  401162:	bf00      	nop
  401164:	3708      	adds	r7, #8
  401166:	46bd      	mov	sp, r7
  401168:	bd80      	pop	{r7, pc}
  40116a:	bf00      	nop
  40116c:	00400ecd 	.word	0x00400ecd
  401170:	00401039 	.word	0x00401039

00401174 <pll_wait_for_lock>:
  401174:	b580      	push	{r7, lr}
  401176:	b082      	sub	sp, #8
  401178:	af00      	add	r7, sp, #0
  40117a:	6078      	str	r0, [r7, #4]
  40117c:	bf00      	nop
  40117e:	6878      	ldr	r0, [r7, #4]
  401180:	4b04      	ldr	r3, [pc, #16]	; (401194 <pll_wait_for_lock+0x20>)
  401182:	4798      	blx	r3
  401184:	4603      	mov	r3, r0
  401186:	2b00      	cmp	r3, #0
  401188:	d0f9      	beq.n	40117e <pll_wait_for_lock+0xa>
  40118a:	2300      	movs	r3, #0
  40118c:	4618      	mov	r0, r3
  40118e:	3708      	adds	r7, #8
  401190:	46bd      	mov	sp, r7
  401192:	bd80      	pop	{r7, pc}
  401194:	00401111 	.word	0x00401111

00401198 <sysclk_get_main_hz>:
  401198:	b580      	push	{r7, lr}
  40119a:	af00      	add	r7, sp, #0
  40119c:	2006      	movs	r0, #6
  40119e:	4b05      	ldr	r3, [pc, #20]	; (4011b4 <sysclk_get_main_hz+0x1c>)
  4011a0:	4798      	blx	r3
  4011a2:	4602      	mov	r2, r0
  4011a4:	4613      	mov	r3, r2
  4011a6:	009b      	lsls	r3, r3, #2
  4011a8:	4413      	add	r3, r2
  4011aa:	009a      	lsls	r2, r3, #2
  4011ac:	4413      	add	r3, r2
  4011ae:	4618      	mov	r0, r3
  4011b0:	bd80      	pop	{r7, pc}
  4011b2:	bf00      	nop
  4011b4:	00400fc5 	.word	0x00400fc5

004011b8 <sysclk_get_cpu_hz>:
  4011b8:	b580      	push	{r7, lr}
  4011ba:	af00      	add	r7, sp, #0
  4011bc:	4b02      	ldr	r3, [pc, #8]	; (4011c8 <sysclk_get_cpu_hz+0x10>)
  4011be:	4798      	blx	r3
  4011c0:	4603      	mov	r3, r0
  4011c2:	4618      	mov	r0, r3
  4011c4:	bd80      	pop	{r7, pc}
  4011c6:	bf00      	nop
  4011c8:	00401199 	.word	0x00401199

004011cc <sysclk_init>:
  4011cc:	b590      	push	{r4, r7, lr}
  4011ce:	b083      	sub	sp, #12
  4011d0:	af00      	add	r7, sp, #0
  4011d2:	4813      	ldr	r0, [pc, #76]	; (401220 <sysclk_init+0x54>)
  4011d4:	4b13      	ldr	r3, [pc, #76]	; (401224 <sysclk_init+0x58>)
  4011d6:	4798      	blx	r3
  4011d8:	2006      	movs	r0, #6
  4011da:	4b13      	ldr	r3, [pc, #76]	; (401228 <sysclk_init+0x5c>)
  4011dc:	4798      	blx	r3
  4011de:	1d38      	adds	r0, r7, #4
  4011e0:	2319      	movs	r3, #25
  4011e2:	2201      	movs	r2, #1
  4011e4:	2106      	movs	r1, #6
  4011e6:	4c11      	ldr	r4, [pc, #68]	; (40122c <sysclk_init+0x60>)
  4011e8:	47a0      	blx	r4
  4011ea:	1d3b      	adds	r3, r7, #4
  4011ec:	2100      	movs	r1, #0
  4011ee:	4618      	mov	r0, r3
  4011f0:	4b0f      	ldr	r3, [pc, #60]	; (401230 <sysclk_init+0x64>)
  4011f2:	4798      	blx	r3
  4011f4:	2000      	movs	r0, #0
  4011f6:	4b0f      	ldr	r3, [pc, #60]	; (401234 <sysclk_init+0x68>)
  4011f8:	4798      	blx	r3
  4011fa:	2002      	movs	r0, #2
  4011fc:	4b0e      	ldr	r3, [pc, #56]	; (401238 <sysclk_init+0x6c>)
  4011fe:	4798      	blx	r3
  401200:	2000      	movs	r0, #0
  401202:	4b0e      	ldr	r3, [pc, #56]	; (40123c <sysclk_init+0x70>)
  401204:	4798      	blx	r3
  401206:	4b0e      	ldr	r3, [pc, #56]	; (401240 <sysclk_init+0x74>)
  401208:	4798      	blx	r3
  40120a:	4b0e      	ldr	r3, [pc, #56]	; (401244 <sysclk_init+0x78>)
  40120c:	4798      	blx	r3
  40120e:	4603      	mov	r3, r0
  401210:	4618      	mov	r0, r3
  401212:	4b04      	ldr	r3, [pc, #16]	; (401224 <sysclk_init+0x58>)
  401214:	4798      	blx	r3
  401216:	bf00      	nop
  401218:	370c      	adds	r7, #12
  40121a:	46bd      	mov	sp, r7
  40121c:	bd90      	pop	{r4, r7, pc}
  40121e:	bf00      	nop
  401220:	11e1a300 	.word	0x11e1a300
  401224:	004042fd 	.word	0x004042fd
  401228:	0040113d 	.word	0x0040113d
  40122c:	00401065 	.word	0x00401065
  401230:	004010d1 	.word	0x004010d1
  401234:	00401175 	.word	0x00401175
  401238:	004035dd 	.word	0x004035dd
  40123c:	00403659 	.word	0x00403659
  401240:	00404195 	.word	0x00404195
  401244:	004011b9 	.word	0x004011b9

00401248 <osc_get_rate>:
  401248:	b480      	push	{r7}
  40124a:	b083      	sub	sp, #12
  40124c:	af00      	add	r7, sp, #0
  40124e:	6078      	str	r0, [r7, #4]
  401250:	687b      	ldr	r3, [r7, #4]
  401252:	2b07      	cmp	r3, #7
  401254:	d825      	bhi.n	4012a2 <osc_get_rate+0x5a>
  401256:	a201      	add	r2, pc, #4	; (adr r2, 40125c <osc_get_rate+0x14>)
  401258:	f852 f023 	ldr.w	pc, [r2, r3, lsl #2]
  40125c:	0040127d 	.word	0x0040127d
  401260:	00401283 	.word	0x00401283
  401264:	00401289 	.word	0x00401289
  401268:	0040128f 	.word	0x0040128f
  40126c:	00401293 	.word	0x00401293
  401270:	00401297 	.word	0x00401297
  401274:	0040129b 	.word	0x0040129b
  401278:	0040129f 	.word	0x0040129f
  40127c:	f44f 43fa 	mov.w	r3, #32000	; 0x7d00
  401280:	e010      	b.n	4012a4 <osc_get_rate+0x5c>
  401282:	f44f 4300 	mov.w	r3, #32768	; 0x8000
  401286:	e00d      	b.n	4012a4 <osc_get_rate+0x5c>
  401288:	f44f 4300 	mov.w	r3, #32768	; 0x8000
  40128c:	e00a      	b.n	4012a4 <osc_get_rate+0x5c>
  40128e:	4b08      	ldr	r3, [pc, #32]	; (4012b0 <osc_get_rate+0x68>)
  401290:	e008      	b.n	4012a4 <osc_get_rate+0x5c>
  401292:	4b08      	ldr	r3, [pc, #32]	; (4012b4 <osc_get_rate+0x6c>)
  401294:	e006      	b.n	4012a4 <osc_get_rate+0x5c>
  401296:	4b08      	ldr	r3, [pc, #32]	; (4012b8 <osc_get_rate+0x70>)
  401298:	e004      	b.n	4012a4 <osc_get_rate+0x5c>
  40129a:	4b07      	ldr	r3, [pc, #28]	; (4012b8 <osc_get_rate+0x70>)
  40129c:	e002      	b.n	4012a4 <osc_get_rate+0x5c>
  40129e:	4b06      	ldr	r3, [pc, #24]	; (4012b8 <osc_get_rate+0x70>)
  4012a0:	e000      	b.n	4012a4 <osc_get_rate+0x5c>
  4012a2:	2300      	movs	r3, #0
  4012a4:	4618      	mov	r0, r3
  4012a6:	370c      	adds	r7, #12
  4012a8:	46bd      	mov	sp, r7
  4012aa:	f85d 7b04 	ldr.w	r7, [sp], #4
  4012ae:	4770      	bx	lr
  4012b0:	003d0900 	.word	0x003d0900
  4012b4:	007a1200 	.word	0x007a1200
  4012b8:	00b71b00 	.word	0x00b71b00

004012bc <sysclk_get_main_hz>:
  4012bc:	b580      	push	{r7, lr}
  4012be:	af00      	add	r7, sp, #0
  4012c0:	2006      	movs	r0, #6
  4012c2:	4b05      	ldr	r3, [pc, #20]	; (4012d8 <sysclk_get_main_hz+0x1c>)
  4012c4:	4798      	blx	r3
  4012c6:	4602      	mov	r2, r0
  4012c8:	4613      	mov	r3, r2
  4012ca:	009b      	lsls	r3, r3, #2
  4012cc:	4413      	add	r3, r2
  4012ce:	009a      	lsls	r2, r3, #2
  4012d0:	4413      	add	r3, r2
  4012d2:	4618      	mov	r0, r3
  4012d4:	bd80      	pop	{r7, pc}
  4012d6:	bf00      	nop
  4012d8:	00401249 	.word	0x00401249

004012dc <sysclk_get_peripheral_hz>:
  4012dc:	b580      	push	{r7, lr}
  4012de:	af00      	add	r7, sp, #0
  4012e0:	4b02      	ldr	r3, [pc, #8]	; (4012ec <sysclk_get_peripheral_hz+0x10>)
  4012e2:	4798      	blx	r3
  4012e4:	4603      	mov	r3, r0
  4012e6:	085b      	lsrs	r3, r3, #1
  4012e8:	4618      	mov	r0, r3
  4012ea:	bd80      	pop	{r7, pc}
  4012ec:	004012bd 	.word	0x004012bd

004012f0 <spi_reset>:
  4012f0:	b480      	push	{r7}
  4012f2:	b083      	sub	sp, #12
  4012f4:	af00      	add	r7, sp, #0
  4012f6:	6078      	str	r0, [r7, #4]
  4012f8:	687b      	ldr	r3, [r7, #4]
  4012fa:	2280      	movs	r2, #128	; 0x80
  4012fc:	601a      	str	r2, [r3, #0]
  4012fe:	bf00      	nop
  401300:	370c      	adds	r7, #12
  401302:	46bd      	mov	sp, r7
  401304:	f85d 7b04 	ldr.w	r7, [sp], #4
  401308:	4770      	bx	lr

0040130a <spi_set_master_mode>:
  40130a:	b480      	push	{r7}
  40130c:	b083      	sub	sp, #12
  40130e:	af00      	add	r7, sp, #0
  401310:	6078      	str	r0, [r7, #4]
  401312:	687b      	ldr	r3, [r7, #4]
  401314:	685b      	ldr	r3, [r3, #4]
  401316:	f043 0201 	orr.w	r2, r3, #1
  40131a:	687b      	ldr	r3, [r7, #4]
  40131c:	605a      	str	r2, [r3, #4]
  40131e:	bf00      	nop
  401320:	370c      	adds	r7, #12
  401322:	46bd      	mov	sp, r7
  401324:	f85d 7b04 	ldr.w	r7, [sp], #4
  401328:	4770      	bx	lr

0040132a <spi_set_fixed_peripheral_select>:
  40132a:	b480      	push	{r7}
  40132c:	b083      	sub	sp, #12
  40132e:	af00      	add	r7, sp, #0
  401330:	6078      	str	r0, [r7, #4]
  401332:	687b      	ldr	r3, [r7, #4]
  401334:	685b      	ldr	r3, [r3, #4]
  401336:	f023 0202 	bic.w	r2, r3, #2
  40133a:	687b      	ldr	r3, [r7, #4]
  40133c:	605a      	str	r2, [r3, #4]
  40133e:	bf00      	nop
  401340:	370c      	adds	r7, #12
  401342:	46bd      	mov	sp, r7
  401344:	f85d 7b04 	ldr.w	r7, [sp], #4
  401348:	4770      	bx	lr

0040134a <spi_disable_peripheral_select_decode>:
  40134a:	b480      	push	{r7}
  40134c:	b083      	sub	sp, #12
  40134e:	af00      	add	r7, sp, #0
  401350:	6078      	str	r0, [r7, #4]
  401352:	687b      	ldr	r3, [r7, #4]
  401354:	685b      	ldr	r3, [r3, #4]
  401356:	f023 0204 	bic.w	r2, r3, #4
  40135a:	687b      	ldr	r3, [r7, #4]
  40135c:	605a      	str	r2, [r3, #4]
  40135e:	bf00      	nop
  401360:	370c      	adds	r7, #12
  401362:	46bd      	mov	sp, r7
  401364:	f85d 7b04 	ldr.w	r7, [sp], #4
  401368:	4770      	bx	lr

0040136a <spi_get_peripheral_select_decode_setting>:
  40136a:	b480      	push	{r7}
  40136c:	b083      	sub	sp, #12
  40136e:	af00      	add	r7, sp, #0
  401370:	6078      	str	r0, [r7, #4]
  401372:	687b      	ldr	r3, [r7, #4]
  401374:	685b      	ldr	r3, [r3, #4]
  401376:	f003 0304 	and.w	r3, r3, #4
  40137a:	2b00      	cmp	r3, #0
  40137c:	d001      	beq.n	401382 <spi_get_peripheral_select_decode_setting+0x18>
  40137e:	2301      	movs	r3, #1
  401380:	e000      	b.n	401384 <spi_get_peripheral_select_decode_setting+0x1a>
  401382:	2300      	movs	r3, #0
  401384:	4618      	mov	r0, r3
  401386:	370c      	adds	r7, #12
  401388:	46bd      	mov	sp, r7
  40138a:	f85d 7b04 	ldr.w	r7, [sp], #4
  40138e:	4770      	bx	lr

00401390 <spi_disable_mode_fault_detect>:
  401390:	b480      	push	{r7}
  401392:	b083      	sub	sp, #12
  401394:	af00      	add	r7, sp, #0
  401396:	6078      	str	r0, [r7, #4]
  401398:	687b      	ldr	r3, [r7, #4]
  40139a:	685b      	ldr	r3, [r3, #4]
  40139c:	f043 0210 	orr.w	r2, r3, #16
  4013a0:	687b      	ldr	r3, [r7, #4]
  4013a2:	605a      	str	r2, [r3, #4]
  4013a4:	bf00      	nop
  4013a6:	370c      	adds	r7, #12
  4013a8:	46bd      	mov	sp, r7
  4013aa:	f85d 7b04 	ldr.w	r7, [sp], #4
  4013ae:	4770      	bx	lr

004013b0 <spi_disable_loopback>:
  4013b0:	b480      	push	{r7}
  4013b2:	b083      	sub	sp, #12
  4013b4:	af00      	add	r7, sp, #0
  4013b6:	6078      	str	r0, [r7, #4]
  4013b8:	687b      	ldr	r3, [r7, #4]
  4013ba:	685b      	ldr	r3, [r3, #4]
  4013bc:	f023 0280 	bic.w	r2, r3, #128	; 0x80
  4013c0:	687b      	ldr	r3, [r7, #4]
  4013c2:	605a      	str	r2, [r3, #4]
  4013c4:	bf00      	nop
  4013c6:	370c      	adds	r7, #12
  4013c8:	46bd      	mov	sp, r7
  4013ca:	f85d 7b04 	ldr.w	r7, [sp], #4
  4013ce:	4770      	bx	lr

004013d0 <spi_put>:
  4013d0:	b480      	push	{r7}
  4013d2:	b083      	sub	sp, #12
  4013d4:	af00      	add	r7, sp, #0
  4013d6:	6078      	str	r0, [r7, #4]
  4013d8:	460b      	mov	r3, r1
  4013da:	807b      	strh	r3, [r7, #2]
  4013dc:	887a      	ldrh	r2, [r7, #2]
  4013de:	687b      	ldr	r3, [r7, #4]
  4013e0:	60da      	str	r2, [r3, #12]
  4013e2:	bf00      	nop
  4013e4:	370c      	adds	r7, #12
  4013e6:	46bd      	mov	sp, r7
  4013e8:	f85d 7b04 	ldr.w	r7, [sp], #4
  4013ec:	4770      	bx	lr

004013ee <spi_get>:
  4013ee:	b480      	push	{r7}
  4013f0:	b083      	sub	sp, #12
  4013f2:	af00      	add	r7, sp, #0
  4013f4:	6078      	str	r0, [r7, #4]
  4013f6:	687b      	ldr	r3, [r7, #4]
  4013f8:	689b      	ldr	r3, [r3, #8]
  4013fa:	b29b      	uxth	r3, r3
  4013fc:	4618      	mov	r0, r3
  4013fe:	370c      	adds	r7, #12
  401400:	46bd      	mov	sp, r7
  401402:	f85d 7b04 	ldr.w	r7, [sp], #4
  401406:	4770      	bx	lr

00401408 <spi_is_tx_ready>:
  401408:	b480      	push	{r7}
  40140a:	b083      	sub	sp, #12
  40140c:	af00      	add	r7, sp, #0
  40140e:	6078      	str	r0, [r7, #4]
  401410:	687b      	ldr	r3, [r7, #4]
  401412:	691b      	ldr	r3, [r3, #16]
  401414:	f003 0302 	and.w	r3, r3, #2
  401418:	2b00      	cmp	r3, #0
  40141a:	d001      	beq.n	401420 <spi_is_tx_ready+0x18>
  40141c:	2301      	movs	r3, #1
  40141e:	e000      	b.n	401422 <spi_is_tx_ready+0x1a>
  401420:	2300      	movs	r3, #0
  401422:	4618      	mov	r0, r3
  401424:	370c      	adds	r7, #12
  401426:	46bd      	mov	sp, r7
  401428:	f85d 7b04 	ldr.w	r7, [sp], #4
  40142c:	4770      	bx	lr

0040142e <spi_is_rx_ready>:
  40142e:	b480      	push	{r7}
  401430:	b083      	sub	sp, #12
  401432:	af00      	add	r7, sp, #0
  401434:	6078      	str	r0, [r7, #4]
  401436:	687b      	ldr	r3, [r7, #4]
  401438:	691a      	ldr	r2, [r3, #16]
  40143a:	f240 2301 	movw	r3, #513	; 0x201
  40143e:	4013      	ands	r3, r2
  401440:	f240 2201 	movw	r2, #513	; 0x201
  401444:	4293      	cmp	r3, r2
  401446:	d101      	bne.n	40144c <spi_is_rx_ready+0x1e>
  401448:	2301      	movs	r3, #1
  40144a:	e000      	b.n	40144e <spi_is_rx_ready+0x20>
  40144c:	2300      	movs	r3, #0
  40144e:	4618      	mov	r0, r3
  401450:	370c      	adds	r7, #12
  401452:	46bd      	mov	sp, r7
  401454:	f85d 7b04 	ldr.w	r7, [sp], #4
  401458:	4770      	bx	lr
	...

0040145c <spi_write_single>:
  40145c:	b580      	push	{r7, lr}
  40145e:	b082      	sub	sp, #8
  401460:	af00      	add	r7, sp, #0
  401462:	6078      	str	r0, [r7, #4]
  401464:	460b      	mov	r3, r1
  401466:	70fb      	strb	r3, [r7, #3]
  401468:	78fb      	ldrb	r3, [r7, #3]
  40146a:	b29b      	uxth	r3, r3
  40146c:	4619      	mov	r1, r3
  40146e:	6878      	ldr	r0, [r7, #4]
  401470:	4b02      	ldr	r3, [pc, #8]	; (40147c <spi_write_single+0x20>)
  401472:	4798      	blx	r3
  401474:	bf00      	nop
  401476:	3708      	adds	r7, #8
  401478:	46bd      	mov	sp, r7
  40147a:	bd80      	pop	{r7, pc}
  40147c:	004013d1 	.word	0x004013d1

00401480 <spi_read_single>:
  401480:	b580      	push	{r7, lr}
  401482:	b082      	sub	sp, #8
  401484:	af00      	add	r7, sp, #0
  401486:	6078      	str	r0, [r7, #4]
  401488:	6039      	str	r1, [r7, #0]
  40148a:	6878      	ldr	r0, [r7, #4]
  40148c:	4b04      	ldr	r3, [pc, #16]	; (4014a0 <spi_read_single+0x20>)
  40148e:	4798      	blx	r3
  401490:	4603      	mov	r3, r0
  401492:	b2da      	uxtb	r2, r3
  401494:	683b      	ldr	r3, [r7, #0]
  401496:	701a      	strb	r2, [r3, #0]
  401498:	bf00      	nop
  40149a:	3708      	adds	r7, #8
  40149c:	46bd      	mov	sp, r7
  40149e:	bd80      	pop	{r7, pc}
  4014a0:	004013ef 	.word	0x004013ef

004014a4 <spi_master_init>:
  4014a4:	b580      	push	{r7, lr}
  4014a6:	b082      	sub	sp, #8
  4014a8:	af00      	add	r7, sp, #0
  4014aa:	6078      	str	r0, [r7, #4]
  4014ac:	6878      	ldr	r0, [r7, #4]
  4014ae:	4b10      	ldr	r3, [pc, #64]	; (4014f0 <spi_master_init+0x4c>)
  4014b0:	4798      	blx	r3
  4014b2:	6878      	ldr	r0, [r7, #4]
  4014b4:	4b0f      	ldr	r3, [pc, #60]	; (4014f4 <spi_master_init+0x50>)
  4014b6:	4798      	blx	r3
  4014b8:	6878      	ldr	r0, [r7, #4]
  4014ba:	4b0f      	ldr	r3, [pc, #60]	; (4014f8 <spi_master_init+0x54>)
  4014bc:	4798      	blx	r3
  4014be:	6878      	ldr	r0, [r7, #4]
  4014c0:	4b0e      	ldr	r3, [pc, #56]	; (4014fc <spi_master_init+0x58>)
  4014c2:	4798      	blx	r3
  4014c4:	6878      	ldr	r0, [r7, #4]
  4014c6:	4b0e      	ldr	r3, [pc, #56]	; (401500 <spi_master_init+0x5c>)
  4014c8:	4798      	blx	r3
  4014ca:	2100      	movs	r1, #0
  4014cc:	6878      	ldr	r0, [r7, #4]
  4014ce:	4b0d      	ldr	r3, [pc, #52]	; (401504 <spi_master_init+0x60>)
  4014d0:	4798      	blx	r3
  4014d2:	6878      	ldr	r0, [r7, #4]
  4014d4:	4b0c      	ldr	r3, [pc, #48]	; (401508 <spi_master_init+0x64>)
  4014d6:	4798      	blx	r3
  4014d8:	6878      	ldr	r0, [r7, #4]
  4014da:	4b0c      	ldr	r3, [pc, #48]	; (40150c <spi_master_init+0x68>)
  4014dc:	4798      	blx	r3
  4014de:	2100      	movs	r1, #0
  4014e0:	6878      	ldr	r0, [r7, #4]
  4014e2:	4b0b      	ldr	r3, [pc, #44]	; (401510 <spi_master_init+0x6c>)
  4014e4:	4798      	blx	r3
  4014e6:	bf00      	nop
  4014e8:	3708      	adds	r7, #8
  4014ea:	46bd      	mov	sp, r7
  4014ec:	bd80      	pop	{r7, pc}
  4014ee:	bf00      	nop
  4014f0:	00403969 	.word	0x00403969
  4014f4:	004012f1 	.word	0x004012f1
  4014f8:	0040130b 	.word	0x0040130b
  4014fc:	00401391 	.word	0x00401391
  401500:	004013b1 	.word	0x004013b1
  401504:	004039a5 	.word	0x004039a5
  401508:	0040132b 	.word	0x0040132b
  40150c:	0040134b 	.word	0x0040134b
  401510:	004039d9 	.word	0x004039d9

00401514 <spi_master_setup_device>:
  401514:	b590      	push	{r4, r7, lr}
  401516:	b087      	sub	sp, #28
  401518:	af00      	add	r7, sp, #0
  40151a:	60f8      	str	r0, [r7, #12]
  40151c:	60b9      	str	r1, [r7, #8]
  40151e:	603b      	str	r3, [r7, #0]
  401520:	4613      	mov	r3, r2
  401522:	71fb      	strb	r3, [r7, #7]
  401524:	4b20      	ldr	r3, [pc, #128]	; (4015a8 <spi_master_setup_device+0x94>)
  401526:	4798      	blx	r3
  401528:	4603      	mov	r3, r0
  40152a:	4619      	mov	r1, r3
  40152c:	6838      	ldr	r0, [r7, #0]
  40152e:	4b1f      	ldr	r3, [pc, #124]	; (4015ac <spi_master_setup_device+0x98>)
  401530:	4798      	blx	r3
  401532:	4603      	mov	r3, r0
  401534:	82fb      	strh	r3, [r7, #22]
  401536:	68bb      	ldr	r3, [r7, #8]
  401538:	6819      	ldr	r1, [r3, #0]
  40153a:	2300      	movs	r3, #0
  40153c:	2200      	movs	r2, #0
  40153e:	68f8      	ldr	r0, [r7, #12]
  401540:	4c1b      	ldr	r4, [pc, #108]	; (4015b0 <spi_master_setup_device+0x9c>)
  401542:	47a0      	blx	r4
  401544:	68bb      	ldr	r3, [r7, #8]
  401546:	681b      	ldr	r3, [r3, #0]
  401548:	2208      	movs	r2, #8
  40154a:	4619      	mov	r1, r3
  40154c:	68f8      	ldr	r0, [r7, #12]
  40154e:	4b19      	ldr	r3, [pc, #100]	; (4015b4 <spi_master_setup_device+0xa0>)
  401550:	4798      	blx	r3
  401552:	68bb      	ldr	r3, [r7, #8]
  401554:	681b      	ldr	r3, [r3, #0]
  401556:	8afa      	ldrh	r2, [r7, #22]
  401558:	b2d2      	uxtb	r2, r2
  40155a:	4619      	mov	r1, r3
  40155c:	68f8      	ldr	r0, [r7, #12]
  40155e:	4b16      	ldr	r3, [pc, #88]	; (4015b8 <spi_master_setup_device+0xa4>)
  401560:	4798      	blx	r3
  401562:	68bb      	ldr	r3, [r7, #8]
  401564:	681b      	ldr	r3, [r3, #0]
  401566:	2208      	movs	r2, #8
  401568:	4619      	mov	r1, r3
  40156a:	68f8      	ldr	r0, [r7, #12]
  40156c:	4b13      	ldr	r3, [pc, #76]	; (4015bc <spi_master_setup_device+0xa8>)
  40156e:	4798      	blx	r3
  401570:	68bb      	ldr	r3, [r7, #8]
  401572:	6819      	ldr	r1, [r3, #0]
  401574:	79fb      	ldrb	r3, [r7, #7]
  401576:	085b      	lsrs	r3, r3, #1
  401578:	b2db      	uxtb	r3, r3
  40157a:	461a      	mov	r2, r3
  40157c:	68f8      	ldr	r0, [r7, #12]
  40157e:	4b10      	ldr	r3, [pc, #64]	; (4015c0 <spi_master_setup_device+0xac>)
  401580:	4798      	blx	r3
  401582:	68bb      	ldr	r3, [r7, #8]
  401584:	6819      	ldr	r1, [r3, #0]
  401586:	79fb      	ldrb	r3, [r7, #7]
  401588:	f003 0301 	and.w	r3, r3, #1
  40158c:	2b00      	cmp	r3, #0
  40158e:	bf0c      	ite	eq
  401590:	2301      	moveq	r3, #1
  401592:	2300      	movne	r3, #0
  401594:	b2db      	uxtb	r3, r3
  401596:	461a      	mov	r2, r3
  401598:	68f8      	ldr	r0, [r7, #12]
  40159a:	4b0a      	ldr	r3, [pc, #40]	; (4015c4 <spi_master_setup_device+0xb0>)
  40159c:	4798      	blx	r3
  40159e:	bf00      	nop
  4015a0:	371c      	adds	r7, #28
  4015a2:	46bd      	mov	sp, r7
  4015a4:	bd90      	pop	{r4, r7, pc}
  4015a6:	bf00      	nop
  4015a8:	004012dd 	.word	0x004012dd
  4015ac:	00403c19 	.word	0x00403c19
  4015b0:	00403cb3 	.word	0x00403cb3
  4015b4:	00403bcf 	.word	0x00403bcf
  4015b8:	00403c55 	.word	0x00403c55
  4015bc:	00403b29 	.word	0x00403b29
  4015c0:	00403a89 	.word	0x00403a89
  4015c4:	00403ad9 	.word	0x00403ad9

004015c8 <spi_select_device>:
  4015c8:	b580      	push	{r7, lr}
  4015ca:	b082      	sub	sp, #8
  4015cc:	af00      	add	r7, sp, #0
  4015ce:	6078      	str	r0, [r7, #4]
  4015d0:	6039      	str	r1, [r7, #0]
  4015d2:	6878      	ldr	r0, [r7, #4]
  4015d4:	4b10      	ldr	r3, [pc, #64]	; (401618 <spi_select_device+0x50>)
  4015d6:	4798      	blx	r3
  4015d8:	4603      	mov	r3, r0
  4015da:	2b00      	cmp	r3, #0
  4015dc:	d00a      	beq.n	4015f4 <spi_select_device+0x2c>
  4015de:	683b      	ldr	r3, [r7, #0]
  4015e0:	681b      	ldr	r3, [r3, #0]
  4015e2:	2b0f      	cmp	r3, #15
  4015e4:	d814      	bhi.n	401610 <spi_select_device+0x48>
  4015e6:	683b      	ldr	r3, [r7, #0]
  4015e8:	681b      	ldr	r3, [r3, #0]
  4015ea:	4619      	mov	r1, r3
  4015ec:	6878      	ldr	r0, [r7, #4]
  4015ee:	4b0b      	ldr	r3, [pc, #44]	; (40161c <spi_select_device+0x54>)
  4015f0:	4798      	blx	r3
  4015f2:	e00d      	b.n	401610 <spi_select_device+0x48>
  4015f4:	683b      	ldr	r3, [r7, #0]
  4015f6:	681b      	ldr	r3, [r3, #0]
  4015f8:	2b03      	cmp	r3, #3
  4015fa:	d809      	bhi.n	401610 <spi_select_device+0x48>
  4015fc:	683b      	ldr	r3, [r7, #0]
  4015fe:	681b      	ldr	r3, [r3, #0]
  401600:	2201      	movs	r2, #1
  401602:	fa02 f303 	lsl.w	r3, r2, r3
  401606:	43db      	mvns	r3, r3
  401608:	4619      	mov	r1, r3
  40160a:	6878      	ldr	r0, [r7, #4]
  40160c:	4b03      	ldr	r3, [pc, #12]	; (40161c <spi_select_device+0x54>)
  40160e:	4798      	blx	r3
  401610:	bf00      	nop
  401612:	3708      	adds	r7, #8
  401614:	46bd      	mov	sp, r7
  401616:	bd80      	pop	{r7, pc}
  401618:	0040136b 	.word	0x0040136b
  40161c:	004039a5 	.word	0x004039a5

00401620 <spi_write_packet>:
  401620:	b580      	push	{r7, lr}
  401622:	b088      	sub	sp, #32
  401624:	af00      	add	r7, sp, #0
  401626:	60f8      	str	r0, [r7, #12]
  401628:	60b9      	str	r1, [r7, #8]
  40162a:	607a      	str	r2, [r7, #4]
  40162c:	f643 2398 	movw	r3, #15000	; 0x3a98
  401630:	61fb      	str	r3, [r7, #28]
  401632:	2300      	movs	r3, #0
  401634:	61bb      	str	r3, [r7, #24]
  401636:	e021      	b.n	40167c <spi_write_packet+0x5c>
  401638:	f643 2398 	movw	r3, #15000	; 0x3a98
  40163c:	61fb      	str	r3, [r7, #28]
  40163e:	e007      	b.n	401650 <spi_write_packet+0x30>
  401640:	69fb      	ldr	r3, [r7, #28]
  401642:	1e5a      	subs	r2, r3, #1
  401644:	61fa      	str	r2, [r7, #28]
  401646:	2b00      	cmp	r3, #0
  401648:	d102      	bne.n	401650 <spi_write_packet+0x30>
  40164a:	f06f 0302 	mvn.w	r3, #2
  40164e:	e019      	b.n	401684 <spi_write_packet+0x64>
  401650:	68f8      	ldr	r0, [r7, #12]
  401652:	4b0e      	ldr	r3, [pc, #56]	; (40168c <spi_write_packet+0x6c>)
  401654:	4798      	blx	r3
  401656:	4603      	mov	r3, r0
  401658:	2b00      	cmp	r3, #0
  40165a:	d0f1      	beq.n	401640 <spi_write_packet+0x20>
  40165c:	68ba      	ldr	r2, [r7, #8]
  40165e:	69bb      	ldr	r3, [r7, #24]
  401660:	4413      	add	r3, r2
  401662:	781b      	ldrb	r3, [r3, #0]
  401664:	75fb      	strb	r3, [r7, #23]
  401666:	7dfb      	ldrb	r3, [r7, #23]
  401668:	4619      	mov	r1, r3
  40166a:	68f8      	ldr	r0, [r7, #12]
  40166c:	4b08      	ldr	r3, [pc, #32]	; (401690 <spi_write_packet+0x70>)
  40166e:	4798      	blx	r3
  401670:	69bb      	ldr	r3, [r7, #24]
  401672:	3301      	adds	r3, #1
  401674:	61bb      	str	r3, [r7, #24]
  401676:	687b      	ldr	r3, [r7, #4]
  401678:	3b01      	subs	r3, #1
  40167a:	607b      	str	r3, [r7, #4]
  40167c:	687b      	ldr	r3, [r7, #4]
  40167e:	2b00      	cmp	r3, #0
  401680:	d1da      	bne.n	401638 <spi_write_packet+0x18>
  401682:	2300      	movs	r3, #0
  401684:	4618      	mov	r0, r3
  401686:	3720      	adds	r7, #32
  401688:	46bd      	mov	sp, r7
  40168a:	bd80      	pop	{r7, pc}
  40168c:	00401409 	.word	0x00401409
  401690:	0040145d 	.word	0x0040145d

00401694 <spi_read_packet>:
  401694:	b580      	push	{r7, lr}
  401696:	b088      	sub	sp, #32
  401698:	af00      	add	r7, sp, #0
  40169a:	60f8      	str	r0, [r7, #12]
  40169c:	60b9      	str	r1, [r7, #8]
  40169e:	607a      	str	r2, [r7, #4]
  4016a0:	f643 2398 	movw	r3, #15000	; 0x3a98
  4016a4:	61fb      	str	r3, [r7, #28]
  4016a6:	2300      	movs	r3, #0
  4016a8:	61bb      	str	r3, [r7, #24]
  4016aa:	e038      	b.n	40171e <spi_read_packet+0x8a>
  4016ac:	f643 2398 	movw	r3, #15000	; 0x3a98
  4016b0:	61fb      	str	r3, [r7, #28]
  4016b2:	e007      	b.n	4016c4 <spi_read_packet+0x30>
  4016b4:	69fb      	ldr	r3, [r7, #28]
  4016b6:	1e5a      	subs	r2, r3, #1
  4016b8:	61fa      	str	r2, [r7, #28]
  4016ba:	2b00      	cmp	r3, #0
  4016bc:	d102      	bne.n	4016c4 <spi_read_packet+0x30>
  4016be:	f06f 0302 	mvn.w	r3, #2
  4016c2:	e030      	b.n	401726 <spi_read_packet+0x92>
  4016c4:	68f8      	ldr	r0, [r7, #12]
  4016c6:	4b1a      	ldr	r3, [pc, #104]	; (401730 <spi_read_packet+0x9c>)
  4016c8:	4798      	blx	r3
  4016ca:	4603      	mov	r3, r0
  4016cc:	2b00      	cmp	r3, #0
  4016ce:	d0f1      	beq.n	4016b4 <spi_read_packet+0x20>
  4016d0:	21ff      	movs	r1, #255	; 0xff
  4016d2:	68f8      	ldr	r0, [r7, #12]
  4016d4:	4b17      	ldr	r3, [pc, #92]	; (401734 <spi_read_packet+0xa0>)
  4016d6:	4798      	blx	r3
  4016d8:	f643 2398 	movw	r3, #15000	; 0x3a98
  4016dc:	61fb      	str	r3, [r7, #28]
  4016de:	e007      	b.n	4016f0 <spi_read_packet+0x5c>
  4016e0:	69fb      	ldr	r3, [r7, #28]
  4016e2:	1e5a      	subs	r2, r3, #1
  4016e4:	61fa      	str	r2, [r7, #28]
  4016e6:	2b00      	cmp	r3, #0
  4016e8:	d102      	bne.n	4016f0 <spi_read_packet+0x5c>
  4016ea:	f06f 0302 	mvn.w	r3, #2
  4016ee:	e01a      	b.n	401726 <spi_read_packet+0x92>
  4016f0:	68f8      	ldr	r0, [r7, #12]
  4016f2:	4b11      	ldr	r3, [pc, #68]	; (401738 <spi_read_packet+0xa4>)
  4016f4:	4798      	blx	r3
  4016f6:	4603      	mov	r3, r0
  4016f8:	2b00      	cmp	r3, #0
  4016fa:	d0f1      	beq.n	4016e0 <spi_read_packet+0x4c>
  4016fc:	f107 0317 	add.w	r3, r7, #23
  401700:	4619      	mov	r1, r3
  401702:	68f8      	ldr	r0, [r7, #12]
  401704:	4b0d      	ldr	r3, [pc, #52]	; (40173c <spi_read_packet+0xa8>)
  401706:	4798      	blx	r3
  401708:	68ba      	ldr	r2, [r7, #8]
  40170a:	69bb      	ldr	r3, [r7, #24]
  40170c:	4413      	add	r3, r2
  40170e:	7dfa      	ldrb	r2, [r7, #23]
  401710:	701a      	strb	r2, [r3, #0]
  401712:	69bb      	ldr	r3, [r7, #24]
  401714:	3301      	adds	r3, #1
  401716:	61bb      	str	r3, [r7, #24]
  401718:	687b      	ldr	r3, [r7, #4]
  40171a:	3b01      	subs	r3, #1
  40171c:	607b      	str	r3, [r7, #4]
  40171e:	687b      	ldr	r3, [r7, #4]
  401720:	2b00      	cmp	r3, #0
  401722:	d1c3      	bne.n	4016ac <spi_read_packet+0x18>
  401724:	2300      	movs	r3, #0
  401726:	4618      	mov	r0, r3
  401728:	3720      	adds	r7, #32
  40172a:	46bd      	mov	sp, r7
  40172c:	bd80      	pop	{r7, pc}
  40172e:	bf00      	nop
  401730:	00401409 	.word	0x00401409
  401734:	0040145d 	.word	0x0040145d
  401738:	0040142f 	.word	0x0040142f
  40173c:	00401481 	.word	0x00401481

00401740 <_read>:
  401740:	b580      	push	{r7, lr}
  401742:	b086      	sub	sp, #24
  401744:	af00      	add	r7, sp, #0
  401746:	60f8      	str	r0, [r7, #12]
  401748:	60b9      	str	r1, [r7, #8]
  40174a:	607a      	str	r2, [r7, #4]
  40174c:	2300      	movs	r3, #0
  40174e:	617b      	str	r3, [r7, #20]
  401750:	68fb      	ldr	r3, [r7, #12]
  401752:	2b00      	cmp	r3, #0
  401754:	d012      	beq.n	40177c <_read+0x3c>
  401756:	f04f 33ff 	mov.w	r3, #4294967295
  40175a:	e013      	b.n	401784 <_read+0x44>
  40175c:	4b0b      	ldr	r3, [pc, #44]	; (40178c <_read+0x4c>)
  40175e:	681b      	ldr	r3, [r3, #0]
  401760:	4a0b      	ldr	r2, [pc, #44]	; (401790 <_read+0x50>)
  401762:	6812      	ldr	r2, [r2, #0]
  401764:	68b9      	ldr	r1, [r7, #8]
  401766:	4610      	mov	r0, r2
  401768:	4798      	blx	r3
  40176a:	68bb      	ldr	r3, [r7, #8]
  40176c:	3301      	adds	r3, #1
  40176e:	60bb      	str	r3, [r7, #8]
  401770:	697b      	ldr	r3, [r7, #20]
  401772:	3301      	adds	r3, #1
  401774:	617b      	str	r3, [r7, #20]
  401776:	687b      	ldr	r3, [r7, #4]
  401778:	3b01      	subs	r3, #1
  40177a:	607b      	str	r3, [r7, #4]
  40177c:	687b      	ldr	r3, [r7, #4]
  40177e:	2b00      	cmp	r3, #0
  401780:	dcec      	bgt.n	40175c <_read+0x1c>
  401782:	697b      	ldr	r3, [r7, #20]
  401784:	4618      	mov	r0, r3
  401786:	3718      	adds	r7, #24
  401788:	46bd      	mov	sp, r7
  40178a:	bd80      	pop	{r7, pc}
  40178c:	20400e6c 	.word	0x20400e6c
  401790:	20400e74 	.word	0x20400e74

00401794 <_write>:
  401794:	b580      	push	{r7, lr}
  401796:	b086      	sub	sp, #24
  401798:	af00      	add	r7, sp, #0
  40179a:	60f8      	str	r0, [r7, #12]
  40179c:	60b9      	str	r1, [r7, #8]
  40179e:	607a      	str	r2, [r7, #4]
  4017a0:	2300      	movs	r3, #0
  4017a2:	617b      	str	r3, [r7, #20]
  4017a4:	68fb      	ldr	r3, [r7, #12]
  4017a6:	2b01      	cmp	r3, #1
  4017a8:	d01e      	beq.n	4017e8 <_write+0x54>
  4017aa:	68fb      	ldr	r3, [r7, #12]
  4017ac:	2b02      	cmp	r3, #2
  4017ae:	d01b      	beq.n	4017e8 <_write+0x54>
  4017b0:	68fb      	ldr	r3, [r7, #12]
  4017b2:	2b03      	cmp	r3, #3
  4017b4:	d018      	beq.n	4017e8 <_write+0x54>
  4017b6:	f04f 33ff 	mov.w	r3, #4294967295
  4017ba:	e019      	b.n	4017f0 <_write+0x5c>
  4017bc:	4b0e      	ldr	r3, [pc, #56]	; (4017f8 <_write+0x64>)
  4017be:	681a      	ldr	r2, [r3, #0]
  4017c0:	4b0e      	ldr	r3, [pc, #56]	; (4017fc <_write+0x68>)
  4017c2:	6818      	ldr	r0, [r3, #0]
  4017c4:	68bb      	ldr	r3, [r7, #8]
  4017c6:	1c59      	adds	r1, r3, #1
  4017c8:	60b9      	str	r1, [r7, #8]
  4017ca:	781b      	ldrb	r3, [r3, #0]
  4017cc:	4619      	mov	r1, r3
  4017ce:	4790      	blx	r2
  4017d0:	4603      	mov	r3, r0
  4017d2:	2b00      	cmp	r3, #0
  4017d4:	da02      	bge.n	4017dc <_write+0x48>
  4017d6:	f04f 33ff 	mov.w	r3, #4294967295
  4017da:	e009      	b.n	4017f0 <_write+0x5c>
  4017dc:	697b      	ldr	r3, [r7, #20]
  4017de:	3301      	adds	r3, #1
  4017e0:	617b      	str	r3, [r7, #20]
  4017e2:	687b      	ldr	r3, [r7, #4]
  4017e4:	3b01      	subs	r3, #1
  4017e6:	607b      	str	r3, [r7, #4]
  4017e8:	687b      	ldr	r3, [r7, #4]
  4017ea:	2b00      	cmp	r3, #0
  4017ec:	d1e6      	bne.n	4017bc <_write+0x28>
  4017ee:	697b      	ldr	r3, [r7, #20]
  4017f0:	4618      	mov	r0, r3
  4017f2:	3718      	adds	r7, #24
  4017f4:	46bd      	mov	sp, r7
  4017f6:	bd80      	pop	{r7, pc}
  4017f8:	20400e70 	.word	0x20400e70
  4017fc:	20400e74 	.word	0x20400e74

00401800 <SCB_EnableICache>:
  401800:	b480      	push	{r7}
  401802:	af00      	add	r7, sp, #0
  401804:	f3bf 8f4f 	dsb	sy
  401808:	f3bf 8f6f 	isb	sy
  40180c:	4b09      	ldr	r3, [pc, #36]	; (401834 <SCB_EnableICache+0x34>)
  40180e:	2200      	movs	r2, #0
  401810:	f8c3 2250 	str.w	r2, [r3, #592]	; 0x250
  401814:	4a07      	ldr	r2, [pc, #28]	; (401834 <SCB_EnableICache+0x34>)
  401816:	4b07      	ldr	r3, [pc, #28]	; (401834 <SCB_EnableICache+0x34>)
  401818:	695b      	ldr	r3, [r3, #20]
  40181a:	f443 3300 	orr.w	r3, r3, #131072	; 0x20000
  40181e:	6153      	str	r3, [r2, #20]
  401820:	f3bf 8f4f 	dsb	sy
  401824:	f3bf 8f6f 	isb	sy
  401828:	bf00      	nop
  40182a:	46bd      	mov	sp, r7
  40182c:	f85d 7b04 	ldr.w	r7, [sp], #4
  401830:	4770      	bx	lr
  401832:	bf00      	nop
  401834:	e000ed00 	.word	0xe000ed00

00401838 <SCB_EnableDCache>:
  401838:	b480      	push	{r7}
  40183a:	b08b      	sub	sp, #44	; 0x2c
  40183c:	af00      	add	r7, sp, #0
  40183e:	4b26      	ldr	r3, [pc, #152]	; (4018d8 <SCB_EnableDCache+0xa0>)
  401840:	f8d3 3080 	ldr.w	r3, [r3, #128]	; 0x80
  401844:	61fb      	str	r3, [r7, #28]
  401846:	69fb      	ldr	r3, [r7, #28]
  401848:	0b5b      	lsrs	r3, r3, #13
  40184a:	f3c3 030e 	ubfx	r3, r3, #0, #15
  40184e:	627b      	str	r3, [r7, #36]	; 0x24
  401850:	69fb      	ldr	r3, [r7, #28]
  401852:	f003 0307 	and.w	r3, r3, #7
  401856:	3304      	adds	r3, #4
  401858:	61bb      	str	r3, [r7, #24]
  40185a:	69fb      	ldr	r3, [r7, #28]
  40185c:	08db      	lsrs	r3, r3, #3
  40185e:	f3c3 0309 	ubfx	r3, r3, #0, #10
  401862:	617b      	str	r3, [r7, #20]
  401864:	697b      	ldr	r3, [r7, #20]
  401866:	60bb      	str	r3, [r7, #8]
  401868:	68bb      	ldr	r3, [r7, #8]
  40186a:	fab3 f383 	clz	r3, r3
  40186e:	607b      	str	r3, [r7, #4]
  401870:	687b      	ldr	r3, [r7, #4]
  401872:	b2db      	uxtb	r3, r3
  401874:	f003 031f 	and.w	r3, r3, #31
  401878:	613b      	str	r3, [r7, #16]
  40187a:	f3bf 8f4f 	dsb	sy
  40187e:	697b      	ldr	r3, [r7, #20]
  401880:	623b      	str	r3, [r7, #32]
  401882:	6a3a      	ldr	r2, [r7, #32]
  401884:	693b      	ldr	r3, [r7, #16]
  401886:	fa02 f303 	lsl.w	r3, r2, r3
  40188a:	4619      	mov	r1, r3
  40188c:	6a7a      	ldr	r2, [r7, #36]	; 0x24
  40188e:	69bb      	ldr	r3, [r7, #24]
  401890:	fa02 f303 	lsl.w	r3, r2, r3
  401894:	430b      	orrs	r3, r1
  401896:	60fb      	str	r3, [r7, #12]
  401898:	4a0f      	ldr	r2, [pc, #60]	; (4018d8 <SCB_EnableDCache+0xa0>)
  40189a:	68fb      	ldr	r3, [r7, #12]
  40189c:	f8c2 3260 	str.w	r3, [r2, #608]	; 0x260
  4018a0:	6a3b      	ldr	r3, [r7, #32]
  4018a2:	1e5a      	subs	r2, r3, #1
  4018a4:	623a      	str	r2, [r7, #32]
  4018a6:	2b00      	cmp	r3, #0
  4018a8:	d1eb      	bne.n	401882 <SCB_EnableDCache+0x4a>
  4018aa:	6a7b      	ldr	r3, [r7, #36]	; 0x24
  4018ac:	1e5a      	subs	r2, r3, #1
  4018ae:	627a      	str	r2, [r7, #36]	; 0x24
  4018b0:	2b00      	cmp	r3, #0
  4018b2:	d1e4      	bne.n	40187e <SCB_EnableDCache+0x46>
  4018b4:	f3bf 8f4f 	dsb	sy
  4018b8:	4a07      	ldr	r2, [pc, #28]	; (4018d8 <SCB_EnableDCache+0xa0>)
  4018ba:	4b07      	ldr	r3, [pc, #28]	; (4018d8 <SCB_EnableDCache+0xa0>)
  4018bc:	695b      	ldr	r3, [r3, #20]
  4018be:	f443 3380 	orr.w	r3, r3, #65536	; 0x10000
  4018c2:	6153      	str	r3, [r2, #20]
  4018c4:	f3bf 8f4f 	dsb	sy
  4018c8:	f3bf 8f6f 	isb	sy
  4018cc:	bf00      	nop
  4018ce:	372c      	adds	r7, #44	; 0x2c
  4018d0:	46bd      	mov	sp, r7
  4018d2:	f85d 7b04 	ldr.w	r7, [sp], #4
  4018d6:	4770      	bx	lr
  4018d8:	e000ed00 	.word	0xe000ed00

004018dc <sysclk_enable_peripheral_clock>:
  4018dc:	b580      	push	{r7, lr}
  4018de:	b082      	sub	sp, #8
  4018e0:	af00      	add	r7, sp, #0
  4018e2:	6078      	str	r0, [r7, #4]
  4018e4:	6878      	ldr	r0, [r7, #4]
  4018e6:	4b03      	ldr	r3, [pc, #12]	; (4018f4 <sysclk_enable_peripheral_clock+0x18>)
  4018e8:	4798      	blx	r3
  4018ea:	bf00      	nop
  4018ec:	3708      	adds	r7, #8
  4018ee:	46bd      	mov	sp, r7
  4018f0:	bd80      	pop	{r7, pc}
  4018f2:	bf00      	nop
  4018f4:	004038a1 	.word	0x004038a1

004018f8 <ioport_init>:
  4018f8:	b580      	push	{r7, lr}
  4018fa:	af00      	add	r7, sp, #0
  4018fc:	200a      	movs	r0, #10
  4018fe:	4b08      	ldr	r3, [pc, #32]	; (401920 <ioport_init+0x28>)
  401900:	4798      	blx	r3
  401902:	200b      	movs	r0, #11
  401904:	4b06      	ldr	r3, [pc, #24]	; (401920 <ioport_init+0x28>)
  401906:	4798      	blx	r3
  401908:	200c      	movs	r0, #12
  40190a:	4b05      	ldr	r3, [pc, #20]	; (401920 <ioport_init+0x28>)
  40190c:	4798      	blx	r3
  40190e:	2010      	movs	r0, #16
  401910:	4b03      	ldr	r3, [pc, #12]	; (401920 <ioport_init+0x28>)
  401912:	4798      	blx	r3
  401914:	2011      	movs	r0, #17
  401916:	4b02      	ldr	r3, [pc, #8]	; (401920 <ioport_init+0x28>)
  401918:	4798      	blx	r3
  40191a:	bf00      	nop
  40191c:	bd80      	pop	{r7, pc}
  40191e:	bf00      	nop
  401920:	004018dd 	.word	0x004018dd

00401924 <ioport_disable_pin>:
  401924:	b480      	push	{r7}
  401926:	b089      	sub	sp, #36	; 0x24
  401928:	af00      	add	r7, sp, #0
  40192a:	6078      	str	r0, [r7, #4]
  40192c:	687b      	ldr	r3, [r7, #4]
  40192e:	61fb      	str	r3, [r7, #28]
  401930:	69fb      	ldr	r3, [r7, #28]
  401932:	61bb      	str	r3, [r7, #24]
  401934:	69bb      	ldr	r3, [r7, #24]
  401936:	095a      	lsrs	r2, r3, #5
  401938:	69fb      	ldr	r3, [r7, #28]
  40193a:	617b      	str	r3, [r7, #20]
  40193c:	697b      	ldr	r3, [r7, #20]
  40193e:	f003 031f 	and.w	r3, r3, #31
  401942:	2101      	movs	r1, #1
  401944:	fa01 f303 	lsl.w	r3, r1, r3
  401948:	613a      	str	r2, [r7, #16]
  40194a:	60fb      	str	r3, [r7, #12]
  40194c:	693b      	ldr	r3, [r7, #16]
  40194e:	60bb      	str	r3, [r7, #8]
  401950:	68ba      	ldr	r2, [r7, #8]
  401952:	4b06      	ldr	r3, [pc, #24]	; (40196c <ioport_disable_pin+0x48>)
  401954:	4413      	add	r3, r2
  401956:	025b      	lsls	r3, r3, #9
  401958:	461a      	mov	r2, r3
  40195a:	68fb      	ldr	r3, [r7, #12]
  40195c:	6053      	str	r3, [r2, #4]
  40195e:	bf00      	nop
  401960:	3724      	adds	r7, #36	; 0x24
  401962:	46bd      	mov	sp, r7
  401964:	f85d 7b04 	ldr.w	r7, [sp], #4
  401968:	4770      	bx	lr
  40196a:	bf00      	nop
  40196c:	00200707 	.word	0x00200707

00401970 <ioport_set_pin_mode>:
  401970:	b480      	push	{r7}
  401972:	b08d      	sub	sp, #52	; 0x34
  401974:	af00      	add	r7, sp, #0
  401976:	6078      	str	r0, [r7, #4]
  401978:	6039      	str	r1, [r7, #0]
  40197a:	687b      	ldr	r3, [r7, #4]
  40197c:	62fb      	str	r3, [r7, #44]	; 0x2c
  40197e:	683b      	ldr	r3, [r7, #0]
  401980:	62bb      	str	r3, [r7, #40]	; 0x28
  401982:	6afb      	ldr	r3, [r7, #44]	; 0x2c
  401984:	627b      	str	r3, [r7, #36]	; 0x24
  401986:	6a7b      	ldr	r3, [r7, #36]	; 0x24
  401988:	095a      	lsrs	r2, r3, #5
  40198a:	6afb      	ldr	r3, [r7, #44]	; 0x2c
  40198c:	623b      	str	r3, [r7, #32]
  40198e:	6a3b      	ldr	r3, [r7, #32]
  401990:	f003 031f 	and.w	r3, r3, #31
  401994:	2101      	movs	r1, #1
  401996:	fa01 f303 	lsl.w	r3, r1, r3
  40199a:	61fa      	str	r2, [r7, #28]
  40199c:	61bb      	str	r3, [r7, #24]
  40199e:	6abb      	ldr	r3, [r7, #40]	; 0x28
  4019a0:	617b      	str	r3, [r7, #20]
  4019a2:	69fb      	ldr	r3, [r7, #28]
  4019a4:	613b      	str	r3, [r7, #16]
  4019a6:	693a      	ldr	r2, [r7, #16]
  4019a8:	4b37      	ldr	r3, [pc, #220]	; (401a88 <ioport_set_pin_mode+0x118>)
  4019aa:	4413      	add	r3, r2
  4019ac:	025b      	lsls	r3, r3, #9
  4019ae:	60fb      	str	r3, [r7, #12]
  4019b0:	697b      	ldr	r3, [r7, #20]
  4019b2:	f003 0308 	and.w	r3, r3, #8
  4019b6:	2b00      	cmp	r3, #0
  4019b8:	d003      	beq.n	4019c2 <ioport_set_pin_mode+0x52>
  4019ba:	68fb      	ldr	r3, [r7, #12]
  4019bc:	69ba      	ldr	r2, [r7, #24]
  4019be:	665a      	str	r2, [r3, #100]	; 0x64
  4019c0:	e002      	b.n	4019c8 <ioport_set_pin_mode+0x58>
  4019c2:	68fb      	ldr	r3, [r7, #12]
  4019c4:	69ba      	ldr	r2, [r7, #24]
  4019c6:	661a      	str	r2, [r3, #96]	; 0x60
  4019c8:	697b      	ldr	r3, [r7, #20]
  4019ca:	f003 0310 	and.w	r3, r3, #16
  4019ce:	2b00      	cmp	r3, #0
  4019d0:	d004      	beq.n	4019dc <ioport_set_pin_mode+0x6c>
  4019d2:	68fb      	ldr	r3, [r7, #12]
  4019d4:	69ba      	ldr	r2, [r7, #24]
  4019d6:	f8c3 2094 	str.w	r2, [r3, #148]	; 0x94
  4019da:	e003      	b.n	4019e4 <ioport_set_pin_mode+0x74>
  4019dc:	68fb      	ldr	r3, [r7, #12]
  4019de:	69ba      	ldr	r2, [r7, #24]
  4019e0:	f8c3 2090 	str.w	r2, [r3, #144]	; 0x90
  4019e4:	697b      	ldr	r3, [r7, #20]
  4019e6:	f003 0320 	and.w	r3, r3, #32
  4019ea:	2b00      	cmp	r3, #0
  4019ec:	d003      	beq.n	4019f6 <ioport_set_pin_mode+0x86>
  4019ee:	68fb      	ldr	r3, [r7, #12]
  4019f0:	69ba      	ldr	r2, [r7, #24]
  4019f2:	651a      	str	r2, [r3, #80]	; 0x50
  4019f4:	e002      	b.n	4019fc <ioport_set_pin_mode+0x8c>
  4019f6:	68fb      	ldr	r3, [r7, #12]
  4019f8:	69ba      	ldr	r2, [r7, #24]
  4019fa:	655a      	str	r2, [r3, #84]	; 0x54
  4019fc:	697b      	ldr	r3, [r7, #20]
  4019fe:	f003 03c0 	and.w	r3, r3, #192	; 0xc0
  401a02:	2b00      	cmp	r3, #0
  401a04:	d003      	beq.n	401a0e <ioport_set_pin_mode+0x9e>
  401a06:	68fb      	ldr	r3, [r7, #12]
  401a08:	69ba      	ldr	r2, [r7, #24]
  401a0a:	621a      	str	r2, [r3, #32]
  401a0c:	e002      	b.n	401a14 <ioport_set_pin_mode+0xa4>
  401a0e:	68fb      	ldr	r3, [r7, #12]
  401a10:	69ba      	ldr	r2, [r7, #24]
  401a12:	625a      	str	r2, [r3, #36]	; 0x24
  401a14:	697b      	ldr	r3, [r7, #20]
  401a16:	f003 0380 	and.w	r3, r3, #128	; 0x80
  401a1a:	2b00      	cmp	r3, #0
  401a1c:	d004      	beq.n	401a28 <ioport_set_pin_mode+0xb8>
  401a1e:	68fb      	ldr	r3, [r7, #12]
  401a20:	69ba      	ldr	r2, [r7, #24]
  401a22:	f8c3 2084 	str.w	r2, [r3, #132]	; 0x84
  401a26:	e003      	b.n	401a30 <ioport_set_pin_mode+0xc0>
  401a28:	68fb      	ldr	r3, [r7, #12]
  401a2a:	69ba      	ldr	r2, [r7, #24]
  401a2c:	f8c3 2080 	str.w	r2, [r3, #128]	; 0x80
  401a30:	697b      	ldr	r3, [r7, #20]
  401a32:	f003 0301 	and.w	r3, r3, #1
  401a36:	2b00      	cmp	r3, #0
  401a38:	d006      	beq.n	401a48 <ioport_set_pin_mode+0xd8>
  401a3a:	68fb      	ldr	r3, [r7, #12]
  401a3c:	6f1a      	ldr	r2, [r3, #112]	; 0x70
  401a3e:	69bb      	ldr	r3, [r7, #24]
  401a40:	431a      	orrs	r2, r3
  401a42:	68fb      	ldr	r3, [r7, #12]
  401a44:	671a      	str	r2, [r3, #112]	; 0x70
  401a46:	e006      	b.n	401a56 <ioport_set_pin_mode+0xe6>
  401a48:	68fb      	ldr	r3, [r7, #12]
  401a4a:	6f1a      	ldr	r2, [r3, #112]	; 0x70
  401a4c:	69bb      	ldr	r3, [r7, #24]
  401a4e:	43db      	mvns	r3, r3
  401a50:	401a      	ands	r2, r3
  401a52:	68fb      	ldr	r3, [r7, #12]
  401a54:	671a      	str	r2, [r3, #112]	; 0x70
  401a56:	697b      	ldr	r3, [r7, #20]
  401a58:	f003 0302 	and.w	r3, r3, #2
  401a5c:	2b00      	cmp	r3, #0
  401a5e:	d006      	beq.n	401a6e <ioport_set_pin_mode+0xfe>
  401a60:	68fb      	ldr	r3, [r7, #12]
  401a62:	6f5a      	ldr	r2, [r3, #116]	; 0x74
  401a64:	69bb      	ldr	r3, [r7, #24]
  401a66:	431a      	orrs	r2, r3
  401a68:	68fb      	ldr	r3, [r7, #12]
  401a6a:	675a      	str	r2, [r3, #116]	; 0x74
  401a6c:	e006      	b.n	401a7c <ioport_set_pin_mode+0x10c>
  401a6e:	68fb      	ldr	r3, [r7, #12]
  401a70:	6f5a      	ldr	r2, [r3, #116]	; 0x74
  401a72:	69bb      	ldr	r3, [r7, #24]
  401a74:	43db      	mvns	r3, r3
  401a76:	401a      	ands	r2, r3
  401a78:	68fb      	ldr	r3, [r7, #12]
  401a7a:	675a      	str	r2, [r3, #116]	; 0x74
  401a7c:	bf00      	nop
  401a7e:	3734      	adds	r7, #52	; 0x34
  401a80:	46bd      	mov	sp, r7
  401a82:	f85d 7b04 	ldr.w	r7, [sp], #4
  401a86:	4770      	bx	lr
  401a88:	00200707 	.word	0x00200707

00401a8c <ioport_set_pin_dir>:
  401a8c:	b480      	push	{r7}
  401a8e:	b08d      	sub	sp, #52	; 0x34
  401a90:	af00      	add	r7, sp, #0
  401a92:	6078      	str	r0, [r7, #4]
  401a94:	460b      	mov	r3, r1
  401a96:	70fb      	strb	r3, [r7, #3]
  401a98:	687b      	ldr	r3, [r7, #4]
  401a9a:	62fb      	str	r3, [r7, #44]	; 0x2c
  401a9c:	78fb      	ldrb	r3, [r7, #3]
  401a9e:	f887 302b 	strb.w	r3, [r7, #43]	; 0x2b
  401aa2:	6afb      	ldr	r3, [r7, #44]	; 0x2c
  401aa4:	627b      	str	r3, [r7, #36]	; 0x24
  401aa6:	6a7b      	ldr	r3, [r7, #36]	; 0x24
  401aa8:	623b      	str	r3, [r7, #32]
  401aaa:	6a3b      	ldr	r3, [r7, #32]
  401aac:	095b      	lsrs	r3, r3, #5
  401aae:	61fb      	str	r3, [r7, #28]
  401ab0:	69fa      	ldr	r2, [r7, #28]
  401ab2:	4b17      	ldr	r3, [pc, #92]	; (401b10 <ioport_set_pin_dir+0x84>)
  401ab4:	4413      	add	r3, r2
  401ab6:	025b      	lsls	r3, r3, #9
  401ab8:	61bb      	str	r3, [r7, #24]
  401aba:	f897 302b 	ldrb.w	r3, [r7, #43]	; 0x2b
  401abe:	2b01      	cmp	r3, #1
  401ac0:	d109      	bne.n	401ad6 <ioport_set_pin_dir+0x4a>
  401ac2:	6afb      	ldr	r3, [r7, #44]	; 0x2c
  401ac4:	617b      	str	r3, [r7, #20]
  401ac6:	697b      	ldr	r3, [r7, #20]
  401ac8:	f003 031f 	and.w	r3, r3, #31
  401acc:	2201      	movs	r2, #1
  401ace:	409a      	lsls	r2, r3
  401ad0:	69bb      	ldr	r3, [r7, #24]
  401ad2:	611a      	str	r2, [r3, #16]
  401ad4:	e00c      	b.n	401af0 <ioport_set_pin_dir+0x64>
  401ad6:	f897 302b 	ldrb.w	r3, [r7, #43]	; 0x2b
  401ada:	2b00      	cmp	r3, #0
  401adc:	d108      	bne.n	401af0 <ioport_set_pin_dir+0x64>
  401ade:	6afb      	ldr	r3, [r7, #44]	; 0x2c
  401ae0:	613b      	str	r3, [r7, #16]
  401ae2:	693b      	ldr	r3, [r7, #16]
  401ae4:	f003 031f 	and.w	r3, r3, #31
  401ae8:	2201      	movs	r2, #1
  401aea:	409a      	lsls	r2, r3
  401aec:	69bb      	ldr	r3, [r7, #24]
  401aee:	615a      	str	r2, [r3, #20]
  401af0:	6afb      	ldr	r3, [r7, #44]	; 0x2c
  401af2:	60fb      	str	r3, [r7, #12]
  401af4:	68fb      	ldr	r3, [r7, #12]
  401af6:	f003 031f 	and.w	r3, r3, #31
  401afa:	2201      	movs	r2, #1
  401afc:	409a      	lsls	r2, r3
  401afe:	69bb      	ldr	r3, [r7, #24]
  401b00:	f8c3 20a0 	str.w	r2, [r3, #160]	; 0xa0
  401b04:	bf00      	nop
  401b06:	3734      	adds	r7, #52	; 0x34
  401b08:	46bd      	mov	sp, r7
  401b0a:	f85d 7b04 	ldr.w	r7, [sp], #4
  401b0e:	4770      	bx	lr
  401b10:	00200707 	.word	0x00200707

00401b14 <ioport_set_pin_level>:
  401b14:	b480      	push	{r7}
  401b16:	b08b      	sub	sp, #44	; 0x2c
  401b18:	af00      	add	r7, sp, #0
  401b1a:	6078      	str	r0, [r7, #4]
  401b1c:	460b      	mov	r3, r1
  401b1e:	70fb      	strb	r3, [r7, #3]
  401b20:	687b      	ldr	r3, [r7, #4]
  401b22:	627b      	str	r3, [r7, #36]	; 0x24
  401b24:	78fb      	ldrb	r3, [r7, #3]
  401b26:	f887 3023 	strb.w	r3, [r7, #35]	; 0x23
  401b2a:	6a7b      	ldr	r3, [r7, #36]	; 0x24
  401b2c:	61fb      	str	r3, [r7, #28]
  401b2e:	69fb      	ldr	r3, [r7, #28]
  401b30:	61bb      	str	r3, [r7, #24]
  401b32:	69bb      	ldr	r3, [r7, #24]
  401b34:	095b      	lsrs	r3, r3, #5
  401b36:	617b      	str	r3, [r7, #20]
  401b38:	697a      	ldr	r2, [r7, #20]
  401b3a:	4b10      	ldr	r3, [pc, #64]	; (401b7c <ioport_set_pin_level+0x68>)
  401b3c:	4413      	add	r3, r2
  401b3e:	025b      	lsls	r3, r3, #9
  401b40:	613b      	str	r3, [r7, #16]
  401b42:	f897 3023 	ldrb.w	r3, [r7, #35]	; 0x23
  401b46:	2b00      	cmp	r3, #0
  401b48:	d009      	beq.n	401b5e <ioport_set_pin_level+0x4a>
  401b4a:	6a7b      	ldr	r3, [r7, #36]	; 0x24
  401b4c:	60fb      	str	r3, [r7, #12]
  401b4e:	68fb      	ldr	r3, [r7, #12]
  401b50:	f003 031f 	and.w	r3, r3, #31
  401b54:	2201      	movs	r2, #1
  401b56:	409a      	lsls	r2, r3
  401b58:	693b      	ldr	r3, [r7, #16]
  401b5a:	631a      	str	r2, [r3, #48]	; 0x30
  401b5c:	e008      	b.n	401b70 <ioport_set_pin_level+0x5c>
  401b5e:	6a7b      	ldr	r3, [r7, #36]	; 0x24
  401b60:	60bb      	str	r3, [r7, #8]
  401b62:	68bb      	ldr	r3, [r7, #8]
  401b64:	f003 031f 	and.w	r3, r3, #31
  401b68:	2201      	movs	r2, #1
  401b6a:	409a      	lsls	r2, r3
  401b6c:	693b      	ldr	r3, [r7, #16]
  401b6e:	635a      	str	r2, [r3, #52]	; 0x34
  401b70:	bf00      	nop
  401b72:	372c      	adds	r7, #44	; 0x2c
  401b74:	46bd      	mov	sp, r7
  401b76:	f85d 7b04 	ldr.w	r7, [sp], #4
  401b7a:	4770      	bx	lr
  401b7c:	00200707 	.word	0x00200707

00401b80 <ioport_set_pin_sense_mode>:
  401b80:	b480      	push	{r7}
  401b82:	b08d      	sub	sp, #52	; 0x34
  401b84:	af00      	add	r7, sp, #0
  401b86:	6078      	str	r0, [r7, #4]
  401b88:	460b      	mov	r3, r1
  401b8a:	70fb      	strb	r3, [r7, #3]
  401b8c:	687b      	ldr	r3, [r7, #4]
  401b8e:	62fb      	str	r3, [r7, #44]	; 0x2c
  401b90:	78fb      	ldrb	r3, [r7, #3]
  401b92:	f887 302b 	strb.w	r3, [r7, #43]	; 0x2b
  401b96:	6afb      	ldr	r3, [r7, #44]	; 0x2c
  401b98:	627b      	str	r3, [r7, #36]	; 0x24
  401b9a:	6a7b      	ldr	r3, [r7, #36]	; 0x24
  401b9c:	095a      	lsrs	r2, r3, #5
  401b9e:	6afb      	ldr	r3, [r7, #44]	; 0x2c
  401ba0:	623b      	str	r3, [r7, #32]
  401ba2:	6a3b      	ldr	r3, [r7, #32]
  401ba4:	f003 031f 	and.w	r3, r3, #31
  401ba8:	2101      	movs	r1, #1
  401baa:	fa01 f303 	lsl.w	r3, r1, r3
  401bae:	61fa      	str	r2, [r7, #28]
  401bb0:	61bb      	str	r3, [r7, #24]
  401bb2:	f897 302b 	ldrb.w	r3, [r7, #43]	; 0x2b
  401bb6:	75fb      	strb	r3, [r7, #23]
  401bb8:	69fb      	ldr	r3, [r7, #28]
  401bba:	613b      	str	r3, [r7, #16]
  401bbc:	693a      	ldr	r2, [r7, #16]
  401bbe:	4b23      	ldr	r3, [pc, #140]	; (401c4c <ioport_set_pin_sense_mode+0xcc>)
  401bc0:	4413      	add	r3, r2
  401bc2:	025b      	lsls	r3, r3, #9
  401bc4:	60fb      	str	r3, [r7, #12]
  401bc6:	7dfb      	ldrb	r3, [r7, #23]
  401bc8:	3b01      	subs	r3, #1
  401bca:	2b03      	cmp	r3, #3
  401bcc:	d82e      	bhi.n	401c2c <ioport_set_pin_sense_mode+0xac>
  401bce:	a201      	add	r2, pc, #4	; (adr r2, 401bd4 <ioport_set_pin_sense_mode+0x54>)
  401bd0:	f852 f023 	ldr.w	pc, [r2, r3, lsl #2]
  401bd4:	00401c09 	.word	0x00401c09
  401bd8:	00401c1b 	.word	0x00401c1b
  401bdc:	00401be5 	.word	0x00401be5
  401be0:	00401bf7 	.word	0x00401bf7
  401be4:	68fb      	ldr	r3, [r7, #12]
  401be6:	69ba      	ldr	r2, [r7, #24]
  401be8:	f8c3 20c4 	str.w	r2, [r3, #196]	; 0xc4
  401bec:	68fb      	ldr	r3, [r7, #12]
  401bee:	69ba      	ldr	r2, [r7, #24]
  401bf0:	f8c3 20d0 	str.w	r2, [r3, #208]	; 0xd0
  401bf4:	e01f      	b.n	401c36 <ioport_set_pin_sense_mode+0xb6>
  401bf6:	68fb      	ldr	r3, [r7, #12]
  401bf8:	69ba      	ldr	r2, [r7, #24]
  401bfa:	f8c3 20c4 	str.w	r2, [r3, #196]	; 0xc4
  401bfe:	68fb      	ldr	r3, [r7, #12]
  401c00:	69ba      	ldr	r2, [r7, #24]
  401c02:	f8c3 20d4 	str.w	r2, [r3, #212]	; 0xd4
  401c06:	e016      	b.n	401c36 <ioport_set_pin_sense_mode+0xb6>
  401c08:	68fb      	ldr	r3, [r7, #12]
  401c0a:	69ba      	ldr	r2, [r7, #24]
  401c0c:	f8c3 20c0 	str.w	r2, [r3, #192]	; 0xc0
  401c10:	68fb      	ldr	r3, [r7, #12]
  401c12:	69ba      	ldr	r2, [r7, #24]
  401c14:	f8c3 20d0 	str.w	r2, [r3, #208]	; 0xd0
  401c18:	e00d      	b.n	401c36 <ioport_set_pin_sense_mode+0xb6>
  401c1a:	68fb      	ldr	r3, [r7, #12]
  401c1c:	69ba      	ldr	r2, [r7, #24]
  401c1e:	f8c3 20c0 	str.w	r2, [r3, #192]	; 0xc0
  401c22:	68fb      	ldr	r3, [r7, #12]
  401c24:	69ba      	ldr	r2, [r7, #24]
  401c26:	f8c3 20d4 	str.w	r2, [r3, #212]	; 0xd4
  401c2a:	e004      	b.n	401c36 <ioport_set_pin_sense_mode+0xb6>
  401c2c:	68fb      	ldr	r3, [r7, #12]
  401c2e:	69ba      	ldr	r2, [r7, #24]
  401c30:	f8c3 20b4 	str.w	r2, [r3, #180]	; 0xb4
  401c34:	e003      	b.n	401c3e <ioport_set_pin_sense_mode+0xbe>
  401c36:	68fb      	ldr	r3, [r7, #12]
  401c38:	69ba      	ldr	r2, [r7, #24]
  401c3a:	f8c3 20b0 	str.w	r2, [r3, #176]	; 0xb0
  401c3e:	bf00      	nop
  401c40:	3734      	adds	r7, #52	; 0x34
  401c42:	46bd      	mov	sp, r7
  401c44:	f85d 7b04 	ldr.w	r7, [sp], #4
  401c48:	4770      	bx	lr
  401c4a:	bf00      	nop
  401c4c:	00200707 	.word	0x00200707

00401c50 <tcm_disable>:
  401c50:	b480      	push	{r7}
  401c52:	af00      	add	r7, sp, #0
  401c54:	f3bf 8f4f 	dsb	sy
  401c58:	f3bf 8f6f 	isb	sy
  401c5c:	4a0c      	ldr	r2, [pc, #48]	; (401c90 <tcm_disable+0x40>)
  401c5e:	4b0c      	ldr	r3, [pc, #48]	; (401c90 <tcm_disable+0x40>)
  401c60:	f8d3 3290 	ldr.w	r3, [r3, #656]	; 0x290
  401c64:	f023 0301 	bic.w	r3, r3, #1
  401c68:	f8c2 3290 	str.w	r3, [r2, #656]	; 0x290
  401c6c:	4a08      	ldr	r2, [pc, #32]	; (401c90 <tcm_disable+0x40>)
  401c6e:	4b08      	ldr	r3, [pc, #32]	; (401c90 <tcm_disable+0x40>)
  401c70:	f8d3 3294 	ldr.w	r3, [r3, #660]	; 0x294
  401c74:	f023 0301 	bic.w	r3, r3, #1
  401c78:	f8c2 3294 	str.w	r3, [r2, #660]	; 0x294
  401c7c:	f3bf 8f4f 	dsb	sy
  401c80:	f3bf 8f6f 	isb	sy
  401c84:	bf00      	nop
  401c86:	46bd      	mov	sp, r7
  401c88:	f85d 7b04 	ldr.w	r7, [sp], #4
  401c8c:	4770      	bx	lr
  401c8e:	bf00      	nop
  401c90:	e000ed00 	.word	0xe000ed00

00401c94 <board_init>:
  401c94:	b598      	push	{r3, r4, r7, lr}
  401c96:	af00      	add	r7, sp, #0
  401c98:	4b57      	ldr	r3, [pc, #348]	; (401df8 <board_init+0x164>)
  401c9a:	f44f 4200 	mov.w	r2, #32768	; 0x8000
  401c9e:	605a      	str	r2, [r3, #4]
  401ca0:	4b56      	ldr	r3, [pc, #344]	; (401dfc <board_init+0x168>)
  401ca2:	4798      	blx	r3
  401ca4:	4b56      	ldr	r3, [pc, #344]	; (401e00 <board_init+0x16c>)
  401ca6:	4798      	blx	r3
  401ca8:	4b56      	ldr	r3, [pc, #344]	; (401e04 <board_init+0x170>)
  401caa:	4a57      	ldr	r2, [pc, #348]	; (401e08 <board_init+0x174>)
  401cac:	605a      	str	r2, [r3, #4]
  401cae:	4b55      	ldr	r3, [pc, #340]	; (401e04 <board_init+0x170>)
  401cb0:	4a56      	ldr	r2, [pc, #344]	; (401e0c <board_init+0x178>)
  401cb2:	605a      	str	r2, [r3, #4]
  401cb4:	4b56      	ldr	r3, [pc, #344]	; (401e10 <board_init+0x17c>)
  401cb6:	4798      	blx	r3
  401cb8:	4b56      	ldr	r3, [pc, #344]	; (401e14 <board_init+0x180>)
  401cba:	4798      	blx	r3
  401cbc:	2101      	movs	r1, #1
  401cbe:	2048      	movs	r0, #72	; 0x48
  401cc0:	4b55      	ldr	r3, [pc, #340]	; (401e18 <board_init+0x184>)
  401cc2:	4798      	blx	r3
  401cc4:	2101      	movs	r1, #1
  401cc6:	2048      	movs	r0, #72	; 0x48
  401cc8:	4b54      	ldr	r3, [pc, #336]	; (401e1c <board_init+0x188>)
  401cca:	4798      	blx	r3
  401ccc:	2100      	movs	r1, #0
  401cce:	200b      	movs	r0, #11
  401cd0:	4b51      	ldr	r3, [pc, #324]	; (401e18 <board_init+0x184>)
  401cd2:	4798      	blx	r3
  401cd4:	2188      	movs	r1, #136	; 0x88
  401cd6:	200b      	movs	r0, #11
  401cd8:	4b51      	ldr	r3, [pc, #324]	; (401e20 <board_init+0x18c>)
  401cda:	4798      	blx	r3
  401cdc:	2102      	movs	r1, #2
  401cde:	200b      	movs	r0, #11
  401ce0:	4b50      	ldr	r3, [pc, #320]	; (401e24 <board_init+0x190>)
  401ce2:	4798      	blx	r3
  401ce4:	2100      	movs	r1, #0
  401ce6:	2015      	movs	r0, #21
  401ce8:	4b4d      	ldr	r3, [pc, #308]	; (401e20 <board_init+0x18c>)
  401cea:	4798      	blx	r3
  401cec:	2015      	movs	r0, #21
  401cee:	4b4e      	ldr	r3, [pc, #312]	; (401e28 <board_init+0x194>)
  401cf0:	4798      	blx	r3
  401cf2:	4a4e      	ldr	r2, [pc, #312]	; (401e2c <board_init+0x198>)
  401cf4:	4b4d      	ldr	r3, [pc, #308]	; (401e2c <board_init+0x198>)
  401cf6:	f8d3 3114 	ldr.w	r3, [r3, #276]	; 0x114
  401cfa:	f043 0310 	orr.w	r3, r3, #16
  401cfe:	f8c2 3114 	str.w	r3, [r2, #276]	; 0x114
  401d02:	2103      	movs	r1, #3
  401d04:	2024      	movs	r0, #36	; 0x24
  401d06:	4b46      	ldr	r3, [pc, #280]	; (401e20 <board_init+0x18c>)
  401d08:	4798      	blx	r3
  401d0a:	2024      	movs	r0, #36	; 0x24
  401d0c:	4b46      	ldr	r3, [pc, #280]	; (401e28 <board_init+0x194>)
  401d0e:	4798      	blx	r3
  401d10:	2300      	movs	r3, #0
  401d12:	f44f 5200 	mov.w	r2, #8192	; 0x2000
  401d16:	f04f 5160 	mov.w	r1, #939524096	; 0x38000000
  401d1a:	4845      	ldr	r0, [pc, #276]	; (401e30 <board_init+0x19c>)
  401d1c:	4c45      	ldr	r4, [pc, #276]	; (401e34 <board_init+0x1a0>)
  401d1e:	47a0      	blx	r4
  401d20:	2300      	movs	r3, #0
  401d22:	f04f 4280 	mov.w	r2, #1073741824	; 0x40000000
  401d26:	f04f 5160 	mov.w	r1, #939524096	; 0x38000000
  401d2a:	4841      	ldr	r0, [pc, #260]	; (401e30 <board_init+0x19c>)
  401d2c:	4c41      	ldr	r4, [pc, #260]	; (401e34 <board_init+0x1a0>)
  401d2e:	47a0      	blx	r4
  401d30:	2301      	movs	r3, #1
  401d32:	22ff      	movs	r2, #255	; 0xff
  401d34:	f04f 6100 	mov.w	r1, #134217728	; 0x8000000
  401d38:	483d      	ldr	r0, [pc, #244]	; (401e30 <board_init+0x19c>)
  401d3a:	4c3e      	ldr	r4, [pc, #248]	; (401e34 <board_init+0x1a0>)
  401d3c:	47a0      	blx	r4
  401d3e:	2301      	movs	r3, #1
  401d40:	223f      	movs	r2, #63	; 0x3f
  401d42:	f04f 6100 	mov.w	r1, #134217728	; 0x8000000
  401d46:	483c      	ldr	r0, [pc, #240]	; (401e38 <board_init+0x1a4>)
  401d48:	4c3a      	ldr	r4, [pc, #232]	; (401e34 <board_init+0x1a0>)
  401d4a:	47a0      	blx	r4
  401d4c:	2301      	movs	r3, #1
  401d4e:	f44f 32c0 	mov.w	r2, #98304	; 0x18000
  401d52:	f04f 6100 	mov.w	r1, #134217728	; 0x8000000
  401d56:	4839      	ldr	r0, [pc, #228]	; (401e3c <board_init+0x1a8>)
  401d58:	4c36      	ldr	r4, [pc, #216]	; (401e34 <board_init+0x1a0>)
  401d5a:	47a0      	blx	r4
  401d5c:	2301      	movs	r3, #1
  401d5e:	f44f 7280 	mov.w	r2, #256	; 0x100
  401d62:	f04f 6100 	mov.w	r1, #134217728	; 0x8000000
  401d66:	4832      	ldr	r0, [pc, #200]	; (401e30 <board_init+0x19c>)
  401d68:	4c32      	ldr	r4, [pc, #200]	; (401e34 <board_init+0x1a0>)
  401d6a:	47a0      	blx	r4
  401d6c:	2301      	movs	r3, #1
  401d6e:	f44f 6200 	mov.w	r2, #2048	; 0x800
  401d72:	f04f 6100 	mov.w	r1, #134217728	; 0x8000000
  401d76:	482e      	ldr	r0, [pc, #184]	; (401e30 <board_init+0x19c>)
  401d78:	4c2e      	ldr	r4, [pc, #184]	; (401e34 <board_init+0x1a0>)
  401d7a:	47a0      	blx	r4
  401d7c:	2301      	movs	r3, #1
  401d7e:	f44f 2200 	mov.w	r2, #524288	; 0x80000
  401d82:	f04f 6100 	mov.w	r1, #134217728	; 0x8000000
  401d86:	482e      	ldr	r0, [pc, #184]	; (401e40 <board_init+0x1ac>)
  401d88:	4c2a      	ldr	r4, [pc, #168]	; (401e34 <board_init+0x1a0>)
  401d8a:	47a0      	blx	r4
  401d8c:	2300      	movs	r3, #0
  401d8e:	f44f 7200 	mov.w	r2, #512	; 0x200
  401d92:	f04f 5180 	mov.w	r1, #268435456	; 0x10000000
  401d96:	4826      	ldr	r0, [pc, #152]	; (401e30 <board_init+0x19c>)
  401d98:	4c26      	ldr	r4, [pc, #152]	; (401e34 <board_init+0x1a0>)
  401d9a:	47a0      	blx	r4
  401d9c:	f44f 7100 	mov.w	r1, #512	; 0x200
  401da0:	4823      	ldr	r0, [pc, #140]	; (401e30 <board_init+0x19c>)
  401da2:	4b28      	ldr	r3, [pc, #160]	; (401e44 <board_init+0x1b0>)
  401da4:	4798      	blx	r3
  401da6:	f04f 5180 	mov.w	r1, #268435456	; 0x10000000
  401daa:	2074      	movs	r0, #116	; 0x74
  401dac:	4b26      	ldr	r3, [pc, #152]	; (401e48 <board_init+0x1b4>)
  401dae:	4798      	blx	r3
  401db0:	f04f 5180 	mov.w	r1, #268435456	; 0x10000000
  401db4:	2075      	movs	r0, #117	; 0x75
  401db6:	4b24      	ldr	r3, [pc, #144]	; (401e48 <board_init+0x1b4>)
  401db8:	4798      	blx	r3
  401dba:	f04f 5180 	mov.w	r1, #268435456	; 0x10000000
  401dbe:	2076      	movs	r0, #118	; 0x76
  401dc0:	4b21      	ldr	r3, [pc, #132]	; (401e48 <board_init+0x1b4>)
  401dc2:	4798      	blx	r3
  401dc4:	f04f 5180 	mov.w	r1, #268435456	; 0x10000000
  401dc8:	207b      	movs	r0, #123	; 0x7b
  401dca:	4b1f      	ldr	r3, [pc, #124]	; (401e48 <board_init+0x1b4>)
  401dcc:	4798      	blx	r3
  401dce:	f04f 5160 	mov.w	r1, #939524096	; 0x38000000
  401dd2:	2018      	movs	r0, #24
  401dd4:	4b1c      	ldr	r3, [pc, #112]	; (401e48 <board_init+0x1b4>)
  401dd6:	4798      	blx	r3
  401dd8:	f04f 5160 	mov.w	r1, #939524096	; 0x38000000
  401ddc:	2006      	movs	r0, #6
  401dde:	4b1a      	ldr	r3, [pc, #104]	; (401e48 <board_init+0x1b4>)
  401de0:	4798      	blx	r3
  401de2:	f04f 5160 	mov.w	r1, #939524096	; 0x38000000
  401de6:	2053      	movs	r0, #83	; 0x53
  401de8:	4b17      	ldr	r3, [pc, #92]	; (401e48 <board_init+0x1b4>)
  401dea:	4798      	blx	r3
  401dec:	2053      	movs	r0, #83	; 0x53
  401dee:	4b17      	ldr	r3, [pc, #92]	; (401e4c <board_init+0x1b8>)
  401df0:	4798      	blx	r3
  401df2:	bf00      	nop
  401df4:	bd98      	pop	{r3, r4, r7, pc}
  401df6:	bf00      	nop
  401df8:	400e1850 	.word	0x400e1850
  401dfc:	00401801 	.word	0x00401801
  401e00:	00401839 	.word	0x00401839
  401e04:	400e0c00 	.word	0x400e0c00
  401e08:	5a00080c 	.word	0x5a00080c
  401e0c:	5a00070c 	.word	0x5a00070c
  401e10:	00401c51 	.word	0x00401c51
  401e14:	004018f9 	.word	0x004018f9
  401e18:	00401a8d 	.word	0x00401a8d
  401e1c:	00401b15 	.word	0x00401b15
  401e20:	00401971 	.word	0x00401971
  401e24:	00401b81 	.word	0x00401b81
  401e28:	00401925 	.word	0x00401925
  401e2c:	40088000 	.word	0x40088000
  401e30:	400e1200 	.word	0x400e1200
  401e34:	00403161 	.word	0x00403161
  401e38:	400e1600 	.word	0x400e1600
  401e3c:	400e0e00 	.word	0x400e0e00
  401e40:	400e1400 	.word	0x400e1400
  401e44:	00402f51 	.word	0x00402f51
  401e48:	004032d9 	.word	0x004032d9
  401e4c:	00403279 	.word	0x00403279

00401e50 <spi_enable>:
  401e50:	b480      	push	{r7}
  401e52:	b083      	sub	sp, #12
  401e54:	af00      	add	r7, sp, #0
  401e56:	6078      	str	r0, [r7, #4]
  401e58:	687b      	ldr	r3, [r7, #4]
  401e5a:	2201      	movs	r2, #1
  401e5c:	601a      	str	r2, [r3, #0]
  401e5e:	bf00      	nop
  401e60:	370c      	adds	r7, #12
  401e62:	46bd      	mov	sp, r7
  401e64:	f85d 7b04 	ldr.w	r7, [sp], #4
  401e68:	4770      	bx	lr

00401e6a <spi_enable_interrupt>:
  401e6a:	b480      	push	{r7}
  401e6c:	b083      	sub	sp, #12
  401e6e:	af00      	add	r7, sp, #0
  401e70:	6078      	str	r0, [r7, #4]
  401e72:	6039      	str	r1, [r7, #0]
  401e74:	687b      	ldr	r3, [r7, #4]
  401e76:	683a      	ldr	r2, [r7, #0]
  401e78:	615a      	str	r2, [r3, #20]
  401e7a:	bf00      	nop
  401e7c:	370c      	adds	r7, #12
  401e7e:	46bd      	mov	sp, r7
  401e80:	f85d 7b04 	ldr.w	r7, [sp], #4
  401e84:	4770      	bx	lr
	...

00401e88 <ili9488_write_ram_prepare>:
  401e88:	b590      	push	{r4, r7, lr}
  401e8a:	b083      	sub	sp, #12
  401e8c:	af00      	add	r7, sp, #0
  401e8e:	2006      	movs	r0, #6
  401e90:	4b0a      	ldr	r3, [pc, #40]	; (401ebc <ili9488_write_ram_prepare+0x34>)
  401e92:	4798      	blx	r3
  401e94:	2300      	movs	r3, #0
  401e96:	2203      	movs	r2, #3
  401e98:	212c      	movs	r1, #44	; 0x2c
  401e9a:	4809      	ldr	r0, [pc, #36]	; (401ec0 <ili9488_write_ram_prepare+0x38>)
  401e9c:	4c09      	ldr	r4, [pc, #36]	; (401ec4 <ili9488_write_ram_prepare+0x3c>)
  401e9e:	47a0      	blx	r4
  401ea0:	2300      	movs	r3, #0
  401ea2:	607b      	str	r3, [r7, #4]
  401ea4:	e002      	b.n	401eac <ili9488_write_ram_prepare+0x24>
  401ea6:	687b      	ldr	r3, [r7, #4]
  401ea8:	3301      	adds	r3, #1
  401eaa:	607b      	str	r3, [r7, #4]
  401eac:	687b      	ldr	r3, [r7, #4]
  401eae:	2bfe      	cmp	r3, #254	; 0xfe
  401eb0:	d9f9      	bls.n	401ea6 <ili9488_write_ram_prepare+0x1e>
  401eb2:	bf00      	nop
  401eb4:	370c      	adds	r7, #12
  401eb6:	46bd      	mov	sp, r7
  401eb8:	bd90      	pop	{r4, r7, pc}
  401eba:	bf00      	nop
  401ebc:	004032a9 	.word	0x004032a9
  401ec0:	40008000 	.word	0x40008000
  401ec4:	00403a09 	.word	0x00403a09

00401ec8 <ili9488_write_ram_buffer>:
  401ec8:	b580      	push	{r7, lr}
  401eca:	b084      	sub	sp, #16
  401ecc:	af00      	add	r7, sp, #0
  401ece:	6078      	str	r0, [r7, #4]
  401ed0:	6039      	str	r1, [r7, #0]
  401ed2:	2006      	movs	r0, #6
  401ed4:	4b09      	ldr	r3, [pc, #36]	; (401efc <ili9488_write_ram_buffer+0x34>)
  401ed6:	4798      	blx	r3
  401ed8:	683a      	ldr	r2, [r7, #0]
  401eda:	6879      	ldr	r1, [r7, #4]
  401edc:	4808      	ldr	r0, [pc, #32]	; (401f00 <ili9488_write_ram_buffer+0x38>)
  401ede:	4b09      	ldr	r3, [pc, #36]	; (401f04 <ili9488_write_ram_buffer+0x3c>)
  401ee0:	4798      	blx	r3
  401ee2:	2300      	movs	r3, #0
  401ee4:	60fb      	str	r3, [r7, #12]
  401ee6:	e002      	b.n	401eee <ili9488_write_ram_buffer+0x26>
  401ee8:	68fb      	ldr	r3, [r7, #12]
  401eea:	3301      	adds	r3, #1
  401eec:	60fb      	str	r3, [r7, #12]
  401eee:	68fb      	ldr	r3, [r7, #12]
  401ef0:	2bfe      	cmp	r3, #254	; 0xfe
  401ef2:	d9f9      	bls.n	401ee8 <ili9488_write_ram_buffer+0x20>
  401ef4:	bf00      	nop
  401ef6:	3710      	adds	r7, #16
  401ef8:	46bd      	mov	sp, r7
  401efa:	bd80      	pop	{r7, pc}
  401efc:	00403279 	.word	0x00403279
  401f00:	40008000 	.word	0x40008000
  401f04:	00401621 	.word	0x00401621

00401f08 <ili9488_write_register>:
  401f08:	b590      	push	{r4, r7, lr}
  401f0a:	b087      	sub	sp, #28
  401f0c:	af00      	add	r7, sp, #0
  401f0e:	4603      	mov	r3, r0
  401f10:	60b9      	str	r1, [r7, #8]
  401f12:	607a      	str	r2, [r7, #4]
  401f14:	73fb      	strb	r3, [r7, #15]
  401f16:	2006      	movs	r0, #6
  401f18:	4b14      	ldr	r3, [pc, #80]	; (401f6c <ili9488_write_register+0x64>)
  401f1a:	4798      	blx	r3
  401f1c:	7bfb      	ldrb	r3, [r7, #15]
  401f1e:	b299      	uxth	r1, r3
  401f20:	2300      	movs	r3, #0
  401f22:	2203      	movs	r2, #3
  401f24:	4812      	ldr	r0, [pc, #72]	; (401f70 <ili9488_write_register+0x68>)
  401f26:	4c13      	ldr	r4, [pc, #76]	; (401f74 <ili9488_write_register+0x6c>)
  401f28:	47a0      	blx	r4
  401f2a:	2300      	movs	r3, #0
  401f2c:	617b      	str	r3, [r7, #20]
  401f2e:	e002      	b.n	401f36 <ili9488_write_register+0x2e>
  401f30:	697b      	ldr	r3, [r7, #20]
  401f32:	3301      	adds	r3, #1
  401f34:	617b      	str	r3, [r7, #20]
  401f36:	697b      	ldr	r3, [r7, #20]
  401f38:	2bfe      	cmp	r3, #254	; 0xfe
  401f3a:	d9f9      	bls.n	401f30 <ili9488_write_register+0x28>
  401f3c:	687b      	ldr	r3, [r7, #4]
  401f3e:	2b00      	cmp	r3, #0
  401f40:	d010      	beq.n	401f64 <ili9488_write_register+0x5c>
  401f42:	2006      	movs	r0, #6
  401f44:	4b0c      	ldr	r3, [pc, #48]	; (401f78 <ili9488_write_register+0x70>)
  401f46:	4798      	blx	r3
  401f48:	687a      	ldr	r2, [r7, #4]
  401f4a:	68b9      	ldr	r1, [r7, #8]
  401f4c:	4808      	ldr	r0, [pc, #32]	; (401f70 <ili9488_write_register+0x68>)
  401f4e:	4b0b      	ldr	r3, [pc, #44]	; (401f7c <ili9488_write_register+0x74>)
  401f50:	4798      	blx	r3
  401f52:	2300      	movs	r3, #0
  401f54:	617b      	str	r3, [r7, #20]
  401f56:	e002      	b.n	401f5e <ili9488_write_register+0x56>
  401f58:	697b      	ldr	r3, [r7, #20]
  401f5a:	3301      	adds	r3, #1
  401f5c:	617b      	str	r3, [r7, #20]
  401f5e:	697b      	ldr	r3, [r7, #20]
  401f60:	2b5e      	cmp	r3, #94	; 0x5e
  401f62:	d9f9      	bls.n	401f58 <ili9488_write_register+0x50>
  401f64:	bf00      	nop
  401f66:	371c      	adds	r7, #28
  401f68:	46bd      	mov	sp, r7
  401f6a:	bd90      	pop	{r4, r7, pc}
  401f6c:	004032a9 	.word	0x004032a9
  401f70:	40008000 	.word	0x40008000
  401f74:	00403a09 	.word	0x00403a09
  401f78:	00403279 	.word	0x00403279
  401f7c:	00401621 	.word	0x00401621

00401f80 <ili9488_read_chipid>:
  401f80:	b580      	push	{r7, lr}
  401f82:	b084      	sub	sp, #16
  401f84:	af00      	add	r7, sp, #0
  401f86:	2300      	movs	r3, #0
  401f88:	60bb      	str	r3, [r7, #8]
  401f8a:	2381      	movs	r3, #129	; 0x81
  401f8c:	70bb      	strb	r3, [r7, #2]
  401f8e:	2300      	movs	r3, #0
  401f90:	707b      	strb	r3, [r7, #1]
  401f92:	2303      	movs	r3, #3
  401f94:	60fb      	str	r3, [r7, #12]
  401f96:	e048      	b.n	40202a <ili9488_read_chipid+0xaa>
  401f98:	1cbb      	adds	r3, r7, #2
  401f9a:	2201      	movs	r2, #1
  401f9c:	4619      	mov	r1, r3
  401f9e:	20fb      	movs	r0, #251	; 0xfb
  401fa0:	4b26      	ldr	r3, [pc, #152]	; (40203c <ili9488_read_chipid+0xbc>)
  401fa2:	4798      	blx	r3
  401fa4:	78bb      	ldrb	r3, [r7, #2]
  401fa6:	3301      	adds	r3, #1
  401fa8:	b2db      	uxtb	r3, r3
  401faa:	70bb      	strb	r3, [r7, #2]
  401fac:	2300      	movs	r3, #0
  401fae:	607b      	str	r3, [r7, #4]
  401fb0:	e002      	b.n	401fb8 <ili9488_read_chipid+0x38>
  401fb2:	687b      	ldr	r3, [r7, #4]
  401fb4:	3301      	adds	r3, #1
  401fb6:	607b      	str	r3, [r7, #4]
  401fb8:	687b      	ldr	r3, [r7, #4]
  401fba:	2bfe      	cmp	r3, #254	; 0xfe
  401fbc:	d9f9      	bls.n	401fb2 <ili9488_read_chipid+0x32>
  401fbe:	2200      	movs	r2, #0
  401fc0:	2100      	movs	r1, #0
  401fc2:	20d3      	movs	r0, #211	; 0xd3
  401fc4:	4b1d      	ldr	r3, [pc, #116]	; (40203c <ili9488_read_chipid+0xbc>)
  401fc6:	4798      	blx	r3
  401fc8:	2006      	movs	r0, #6
  401fca:	4b1d      	ldr	r3, [pc, #116]	; (402040 <ili9488_read_chipid+0xc0>)
  401fcc:	4798      	blx	r3
  401fce:	1cfb      	adds	r3, r7, #3
  401fd0:	2201      	movs	r2, #1
  401fd2:	4619      	mov	r1, r3
  401fd4:	481b      	ldr	r0, [pc, #108]	; (402044 <ili9488_read_chipid+0xc4>)
  401fd6:	4b1c      	ldr	r3, [pc, #112]	; (402048 <ili9488_read_chipid+0xc8>)
  401fd8:	4798      	blx	r3
  401fda:	2300      	movs	r3, #0
  401fdc:	607b      	str	r3, [r7, #4]
  401fde:	e002      	b.n	401fe6 <ili9488_read_chipid+0x66>
  401fe0:	687b      	ldr	r3, [r7, #4]
  401fe2:	3301      	adds	r3, #1
  401fe4:	607b      	str	r3, [r7, #4]
  401fe6:	687b      	ldr	r3, [r7, #4]
  401fe8:	2bfe      	cmp	r3, #254	; 0xfe
  401fea:	d9f9      	bls.n	401fe0 <ili9488_read_chipid+0x60>
  401fec:	78fb      	ldrb	r3, [r7, #3]
  401fee:	461a      	mov	r2, r3
  401ff0:	68fb      	ldr	r3, [r7, #12]
  401ff2:	3b01      	subs	r3, #1
  401ff4:	00db      	lsls	r3, r3, #3
  401ff6:	fa02 f303 	lsl.w	r3, r2, r3
  401ffa:	461a      	mov	r2, r3
  401ffc:	68bb      	ldr	r3, [r7, #8]
  401ffe:	4313      	orrs	r3, r2
  402000:	60bb      	str	r3, [r7, #8]
  402002:	1c7b      	adds	r3, r7, #1
  402004:	2201      	movs	r2, #1
  402006:	4619      	mov	r1, r3
  402008:	20fb      	movs	r0, #251	; 0xfb
  40200a:	4b0c      	ldr	r3, [pc, #48]	; (40203c <ili9488_read_chipid+0xbc>)
  40200c:	4798      	blx	r3
  40200e:	2300      	movs	r3, #0
  402010:	607b      	str	r3, [r7, #4]
  402012:	e002      	b.n	40201a <ili9488_read_chipid+0x9a>
  402014:	687b      	ldr	r3, [r7, #4]
  402016:	3301      	adds	r3, #1
  402018:	607b      	str	r3, [r7, #4]
  40201a:	687b      	ldr	r3, [r7, #4]
  40201c:	f640 72fe 	movw	r2, #4094	; 0xffe
  402020:	4293      	cmp	r3, r2
  402022:	d9f7      	bls.n	402014 <ili9488_read_chipid+0x94>
  402024:	68fb      	ldr	r3, [r7, #12]
  402026:	3b01      	subs	r3, #1
  402028:	60fb      	str	r3, [r7, #12]
  40202a:	68fb      	ldr	r3, [r7, #12]
  40202c:	2b00      	cmp	r3, #0
  40202e:	d1b3      	bne.n	401f98 <ili9488_read_chipid+0x18>
  402030:	68bb      	ldr	r3, [r7, #8]
  402032:	4618      	mov	r0, r3
  402034:	3710      	adds	r7, #16
  402036:	46bd      	mov	sp, r7
  402038:	bd80      	pop	{r7, pc}
  40203a:	bf00      	nop
  40203c:	00401f09 	.word	0x00401f09
  402040:	00403279 	.word	0x00403279
  402044:	40008000 	.word	0x40008000
  402048:	00401695 	.word	0x00401695

0040204c <ili9488_delay>:
  40204c:	b480      	push	{r7}
  40204e:	b085      	sub	sp, #20
  402050:	af00      	add	r7, sp, #0
  402052:	6078      	str	r0, [r7, #4]
  402054:	2300      	movs	r3, #0
  402056:	60fb      	str	r3, [r7, #12]
  402058:	e00c      	b.n	402074 <ili9488_delay+0x28>
  40205a:	2300      	movs	r3, #0
  40205c:	60fb      	str	r3, [r7, #12]
  40205e:	e002      	b.n	402066 <ili9488_delay+0x1a>
  402060:	68fb      	ldr	r3, [r7, #12]
  402062:	3301      	adds	r3, #1
  402064:	60fb      	str	r3, [r7, #12]
  402066:	68fb      	ldr	r3, [r7, #12]
  402068:	4a07      	ldr	r2, [pc, #28]	; (402088 <ili9488_delay+0x3c>)
  40206a:	4293      	cmp	r3, r2
  40206c:	d9f8      	bls.n	402060 <ili9488_delay+0x14>
  40206e:	68fb      	ldr	r3, [r7, #12]
  402070:	3301      	adds	r3, #1
  402072:	60fb      	str	r3, [r7, #12]
  402074:	68fa      	ldr	r2, [r7, #12]
  402076:	687b      	ldr	r3, [r7, #4]
  402078:	429a      	cmp	r2, r3
  40207a:	d3ee      	bcc.n	40205a <ili9488_delay+0xe>
  40207c:	bf00      	nop
  40207e:	3714      	adds	r7, #20
  402080:	46bd      	mov	sp, r7
  402082:	f85d 7b04 	ldr.w	r7, [sp], #4
  402086:	4770      	bx	lr
  402088:	0001869f 	.word	0x0001869f

0040208c <ili9488_check_box_coordinates>:
  40208c:	b480      	push	{r7}
  40208e:	b087      	sub	sp, #28
  402090:	af00      	add	r7, sp, #0
  402092:	60f8      	str	r0, [r7, #12]
  402094:	60b9      	str	r1, [r7, #8]
  402096:	607a      	str	r2, [r7, #4]
  402098:	603b      	str	r3, [r7, #0]
  40209a:	68fb      	ldr	r3, [r7, #12]
  40209c:	681b      	ldr	r3, [r3, #0]
  40209e:	f5b3 7fa0 	cmp.w	r3, #320	; 0x140
  4020a2:	d303      	bcc.n	4020ac <ili9488_check_box_coordinates+0x20>
  4020a4:	68fb      	ldr	r3, [r7, #12]
  4020a6:	f240 123f 	movw	r2, #319	; 0x13f
  4020aa:	601a      	str	r2, [r3, #0]
  4020ac:	687b      	ldr	r3, [r7, #4]
  4020ae:	681b      	ldr	r3, [r3, #0]
  4020b0:	f5b3 7fa0 	cmp.w	r3, #320	; 0x140
  4020b4:	d303      	bcc.n	4020be <ili9488_check_box_coordinates+0x32>
  4020b6:	687b      	ldr	r3, [r7, #4]
  4020b8:	f240 123f 	movw	r2, #319	; 0x13f
  4020bc:	601a      	str	r2, [r3, #0]
  4020be:	68bb      	ldr	r3, [r7, #8]
  4020c0:	681b      	ldr	r3, [r3, #0]
  4020c2:	f5b3 7ff0 	cmp.w	r3, #480	; 0x1e0
  4020c6:	d303      	bcc.n	4020d0 <ili9488_check_box_coordinates+0x44>
  4020c8:	68bb      	ldr	r3, [r7, #8]
  4020ca:	f240 12df 	movw	r2, #479	; 0x1df
  4020ce:	601a      	str	r2, [r3, #0]
  4020d0:	683b      	ldr	r3, [r7, #0]
  4020d2:	681b      	ldr	r3, [r3, #0]
  4020d4:	f5b3 7ff0 	cmp.w	r3, #480	; 0x1e0
  4020d8:	d303      	bcc.n	4020e2 <ili9488_check_box_coordinates+0x56>
  4020da:	683b      	ldr	r3, [r7, #0]
  4020dc:	f240 12df 	movw	r2, #479	; 0x1df
  4020e0:	601a      	str	r2, [r3, #0]
  4020e2:	68fb      	ldr	r3, [r7, #12]
  4020e4:	681a      	ldr	r2, [r3, #0]
  4020e6:	687b      	ldr	r3, [r7, #4]
  4020e8:	681b      	ldr	r3, [r3, #0]
  4020ea:	429a      	cmp	r2, r3
  4020ec:	d909      	bls.n	402102 <ili9488_check_box_coordinates+0x76>
  4020ee:	68fb      	ldr	r3, [r7, #12]
  4020f0:	681b      	ldr	r3, [r3, #0]
  4020f2:	617b      	str	r3, [r7, #20]
  4020f4:	687b      	ldr	r3, [r7, #4]
  4020f6:	681a      	ldr	r2, [r3, #0]
  4020f8:	68fb      	ldr	r3, [r7, #12]
  4020fa:	601a      	str	r2, [r3, #0]
  4020fc:	687b      	ldr	r3, [r7, #4]
  4020fe:	697a      	ldr	r2, [r7, #20]
  402100:	601a      	str	r2, [r3, #0]
  402102:	68bb      	ldr	r3, [r7, #8]
  402104:	681a      	ldr	r2, [r3, #0]
  402106:	683b      	ldr	r3, [r7, #0]
  402108:	681b      	ldr	r3, [r3, #0]
  40210a:	429a      	cmp	r2, r3
  40210c:	d909      	bls.n	402122 <ili9488_check_box_coordinates+0x96>
  40210e:	68bb      	ldr	r3, [r7, #8]
  402110:	681b      	ldr	r3, [r3, #0]
  402112:	617b      	str	r3, [r7, #20]
  402114:	683b      	ldr	r3, [r7, #0]
  402116:	681a      	ldr	r2, [r3, #0]
  402118:	68bb      	ldr	r3, [r7, #8]
  40211a:	601a      	str	r2, [r3, #0]
  40211c:	683b      	ldr	r3, [r7, #0]
  40211e:	697a      	ldr	r2, [r7, #20]
  402120:	601a      	str	r2, [r3, #0]
  402122:	bf00      	nop
  402124:	371c      	adds	r7, #28
  402126:	46bd      	mov	sp, r7
  402128:	f85d 7b04 	ldr.w	r7, [sp], #4
  40212c:	4770      	bx	lr
	...

00402130 <ili9488_set_display_direction>:
  402130:	b580      	push	{r7, lr}
  402132:	b084      	sub	sp, #16
  402134:	af00      	add	r7, sp, #0
  402136:	4603      	mov	r3, r0
  402138:	71fb      	strb	r3, [r7, #7]
  40213a:	79fb      	ldrb	r3, [r7, #7]
  40213c:	2b00      	cmp	r3, #0
  40213e:	d002      	beq.n	402146 <ili9488_set_display_direction+0x16>
  402140:	23e8      	movs	r3, #232	; 0xe8
  402142:	73fb      	strb	r3, [r7, #15]
  402144:	e001      	b.n	40214a <ili9488_set_display_direction+0x1a>
  402146:	2348      	movs	r3, #72	; 0x48
  402148:	73fb      	strb	r3, [r7, #15]
  40214a:	f107 030f 	add.w	r3, r7, #15
  40214e:	2201      	movs	r2, #1
  402150:	4619      	mov	r1, r3
  402152:	2036      	movs	r0, #54	; 0x36
  402154:	4b02      	ldr	r3, [pc, #8]	; (402160 <ili9488_set_display_direction+0x30>)
  402156:	4798      	blx	r3
  402158:	bf00      	nop
  40215a:	3710      	adds	r7, #16
  40215c:	46bd      	mov	sp, r7
  40215e:	bd80      	pop	{r7, pc}
  402160:	00401f09 	.word	0x00401f09

00402164 <ili9488_set_window>:
  402164:	b590      	push	{r4, r7, lr}
  402166:	b087      	sub	sp, #28
  402168:	af00      	add	r7, sp, #0
  40216a:	4604      	mov	r4, r0
  40216c:	4608      	mov	r0, r1
  40216e:	4611      	mov	r1, r2
  402170:	461a      	mov	r2, r3
  402172:	4623      	mov	r3, r4
  402174:	80fb      	strh	r3, [r7, #6]
  402176:	4603      	mov	r3, r0
  402178:	80bb      	strh	r3, [r7, #4]
  40217a:	460b      	mov	r3, r1
  40217c:	807b      	strh	r3, [r7, #2]
  40217e:	4613      	mov	r3, r2
  402180:	803b      	strh	r3, [r7, #0]
  402182:	2300      	movs	r3, #0
  402184:	617b      	str	r3, [r7, #20]
  402186:	2304      	movs	r3, #4
  402188:	617b      	str	r3, [r7, #20]
  40218a:	88fb      	ldrh	r3, [r7, #6]
  40218c:	827b      	strh	r3, [r7, #18]
  40218e:	887a      	ldrh	r2, [r7, #2]
  402190:	88fb      	ldrh	r3, [r7, #6]
  402192:	4413      	add	r3, r2
  402194:	b29b      	uxth	r3, r3
  402196:	3b01      	subs	r3, #1
  402198:	b29b      	uxth	r3, r3
  40219a:	823b      	strh	r3, [r7, #16]
  40219c:	88bb      	ldrh	r3, [r7, #4]
  40219e:	81fb      	strh	r3, [r7, #14]
  4021a0:	883a      	ldrh	r2, [r7, #0]
  4021a2:	88bb      	ldrh	r3, [r7, #4]
  4021a4:	4413      	add	r3, r2
  4021a6:	b29b      	uxth	r3, r3
  4021a8:	3b01      	subs	r3, #1
  4021aa:	b29b      	uxth	r3, r3
  4021ac:	81bb      	strh	r3, [r7, #12]
  4021ae:	f107 0312 	add.w	r3, r7, #18
  4021b2:	785b      	ldrb	r3, [r3, #1]
  4021b4:	723b      	strb	r3, [r7, #8]
  4021b6:	f107 0312 	add.w	r3, r7, #18
  4021ba:	781b      	ldrb	r3, [r3, #0]
  4021bc:	727b      	strb	r3, [r7, #9]
  4021be:	f107 0310 	add.w	r3, r7, #16
  4021c2:	785b      	ldrb	r3, [r3, #1]
  4021c4:	72bb      	strb	r3, [r7, #10]
  4021c6:	f107 0310 	add.w	r3, r7, #16
  4021ca:	781b      	ldrb	r3, [r3, #0]
  4021cc:	72fb      	strb	r3, [r7, #11]
  4021ce:	f107 0308 	add.w	r3, r7, #8
  4021d2:	697a      	ldr	r2, [r7, #20]
  4021d4:	4619      	mov	r1, r3
  4021d6:	202a      	movs	r0, #42	; 0x2a
  4021d8:	4b13      	ldr	r3, [pc, #76]	; (402228 <ili9488_set_window+0xc4>)
  4021da:	4798      	blx	r3
  4021dc:	2200      	movs	r2, #0
  4021de:	2100      	movs	r1, #0
  4021e0:	2000      	movs	r0, #0
  4021e2:	4b11      	ldr	r3, [pc, #68]	; (402228 <ili9488_set_window+0xc4>)
  4021e4:	4798      	blx	r3
  4021e6:	f107 030e 	add.w	r3, r7, #14
  4021ea:	785b      	ldrb	r3, [r3, #1]
  4021ec:	723b      	strb	r3, [r7, #8]
  4021ee:	f107 030e 	add.w	r3, r7, #14
  4021f2:	781b      	ldrb	r3, [r3, #0]
  4021f4:	727b      	strb	r3, [r7, #9]
  4021f6:	f107 030c 	add.w	r3, r7, #12
  4021fa:	785b      	ldrb	r3, [r3, #1]
  4021fc:	72bb      	strb	r3, [r7, #10]
  4021fe:	f107 030c 	add.w	r3, r7, #12
  402202:	781b      	ldrb	r3, [r3, #0]
  402204:	72fb      	strb	r3, [r7, #11]
  402206:	f107 0308 	add.w	r3, r7, #8
  40220a:	697a      	ldr	r2, [r7, #20]
  40220c:	4619      	mov	r1, r3
  40220e:	202b      	movs	r0, #43	; 0x2b
  402210:	4b05      	ldr	r3, [pc, #20]	; (402228 <ili9488_set_window+0xc4>)
  402212:	4798      	blx	r3
  402214:	2200      	movs	r2, #0
  402216:	2100      	movs	r1, #0
  402218:	2000      	movs	r0, #0
  40221a:	4b03      	ldr	r3, [pc, #12]	; (402228 <ili9488_set_window+0xc4>)
  40221c:	4798      	blx	r3
  40221e:	bf00      	nop
  402220:	371c      	adds	r7, #28
  402222:	46bd      	mov	sp, r7
  402224:	bd90      	pop	{r4, r7, pc}
  402226:	bf00      	nop
  402228:	00401f09 	.word	0x00401f09

0040222c <ili9488_init>:
  40222c:	b590      	push	{r4, r7, lr}
  40222e:	b089      	sub	sp, #36	; 0x24
  402230:	af02      	add	r7, sp, #8
  402232:	6078      	str	r0, [r7, #4]
  402234:	2303      	movs	r3, #3
  402236:	60fb      	str	r3, [r7, #12]
  402238:	4843      	ldr	r0, [pc, #268]	; (402348 <ili9488_init+0x11c>)
  40223a:	4b44      	ldr	r3, [pc, #272]	; (40234c <ili9488_init+0x120>)
  40223c:	4798      	blx	r3
  40223e:	f107 010c 	add.w	r1, r7, #12
  402242:	2300      	movs	r3, #0
  402244:	9300      	str	r3, [sp, #0]
  402246:	4b42      	ldr	r3, [pc, #264]	; (402350 <ili9488_init+0x124>)
  402248:	2203      	movs	r2, #3
  40224a:	483f      	ldr	r0, [pc, #252]	; (402348 <ili9488_init+0x11c>)
  40224c:	4c41      	ldr	r4, [pc, #260]	; (402354 <ili9488_init+0x128>)
  40224e:	47a0      	blx	r4
  402250:	2200      	movs	r2, #0
  402252:	2103      	movs	r1, #3
  402254:	483c      	ldr	r0, [pc, #240]	; (402348 <ili9488_init+0x11c>)
  402256:	4b40      	ldr	r3, [pc, #256]	; (402358 <ili9488_init+0x12c>)
  402258:	4798      	blx	r3
  40225a:	f107 030c 	add.w	r3, r7, #12
  40225e:	4619      	mov	r1, r3
  402260:	4839      	ldr	r0, [pc, #228]	; (402348 <ili9488_init+0x11c>)
  402262:	4b3e      	ldr	r3, [pc, #248]	; (40235c <ili9488_init+0x130>)
  402264:	4798      	blx	r3
  402266:	4838      	ldr	r0, [pc, #224]	; (402348 <ili9488_init+0x11c>)
  402268:	4b3d      	ldr	r3, [pc, #244]	; (402360 <ili9488_init+0x134>)
  40226a:	4798      	blx	r3
  40226c:	2101      	movs	r1, #1
  40226e:	4836      	ldr	r0, [pc, #216]	; (402348 <ili9488_init+0x11c>)
  402270:	4b3c      	ldr	r3, [pc, #240]	; (402364 <ili9488_init+0x138>)
  402272:	4798      	blx	r3
  402274:	2200      	movs	r2, #0
  402276:	2100      	movs	r1, #0
  402278:	2001      	movs	r0, #1
  40227a:	4b3b      	ldr	r3, [pc, #236]	; (402368 <ili9488_init+0x13c>)
  40227c:	4798      	blx	r3
  40227e:	20c8      	movs	r0, #200	; 0xc8
  402280:	4b3a      	ldr	r3, [pc, #232]	; (40236c <ili9488_init+0x140>)
  402282:	4798      	blx	r3
  402284:	2200      	movs	r2, #0
  402286:	2100      	movs	r1, #0
  402288:	2011      	movs	r0, #17
  40228a:	4b37      	ldr	r3, [pc, #220]	; (402368 <ili9488_init+0x13c>)
  40228c:	4798      	blx	r3
  40228e:	20c8      	movs	r0, #200	; 0xc8
  402290:	4b36      	ldr	r3, [pc, #216]	; (40236c <ili9488_init+0x140>)
  402292:	4798      	blx	r3
  402294:	4b36      	ldr	r3, [pc, #216]	; (402370 <ili9488_init+0x144>)
  402296:	4798      	blx	r3
  402298:	6178      	str	r0, [r7, #20]
  40229a:	697b      	ldr	r3, [r7, #20]
  40229c:	f249 4288 	movw	r2, #38024	; 0x9488
  4022a0:	4293      	cmp	r3, r2
  4022a2:	d001      	beq.n	4022a8 <ili9488_init+0x7c>
  4022a4:	2301      	movs	r3, #1
  4022a6:	e04a      	b.n	40233e <ili9488_init+0x112>
  4022a8:	2348      	movs	r3, #72	; 0x48
  4022aa:	74fb      	strb	r3, [r7, #19]
  4022ac:	f107 0313 	add.w	r3, r7, #19
  4022b0:	2201      	movs	r2, #1
  4022b2:	4619      	mov	r1, r3
  4022b4:	2036      	movs	r0, #54	; 0x36
  4022b6:	4b2c      	ldr	r3, [pc, #176]	; (402368 <ili9488_init+0x13c>)
  4022b8:	4798      	blx	r3
  4022ba:	2064      	movs	r0, #100	; 0x64
  4022bc:	4b2b      	ldr	r3, [pc, #172]	; (40236c <ili9488_init+0x140>)
  4022be:	4798      	blx	r3
  4022c0:	2304      	movs	r3, #4
  4022c2:	74fb      	strb	r3, [r7, #19]
  4022c4:	f107 0313 	add.w	r3, r7, #19
  4022c8:	2201      	movs	r2, #1
  4022ca:	4619      	mov	r1, r3
  4022cc:	20cf      	movs	r0, #207	; 0xcf
  4022ce:	4b26      	ldr	r3, [pc, #152]	; (402368 <ili9488_init+0x13c>)
  4022d0:	4798      	blx	r3
  4022d2:	2064      	movs	r0, #100	; 0x64
  4022d4:	4b25      	ldr	r3, [pc, #148]	; (40236c <ili9488_init+0x140>)
  4022d6:	4798      	blx	r3
  4022d8:	2306      	movs	r3, #6
  4022da:	74fb      	strb	r3, [r7, #19]
  4022dc:	f107 0313 	add.w	r3, r7, #19
  4022e0:	2201      	movs	r2, #1
  4022e2:	4619      	mov	r1, r3
  4022e4:	203a      	movs	r0, #58	; 0x3a
  4022e6:	4b20      	ldr	r3, [pc, #128]	; (402368 <ili9488_init+0x13c>)
  4022e8:	4798      	blx	r3
  4022ea:	2064      	movs	r0, #100	; 0x64
  4022ec:	4b1f      	ldr	r3, [pc, #124]	; (40236c <ili9488_init+0x140>)
  4022ee:	4798      	blx	r3
  4022f0:	2200      	movs	r2, #0
  4022f2:	2100      	movs	r1, #0
  4022f4:	2013      	movs	r0, #19
  4022f6:	4b1c      	ldr	r3, [pc, #112]	; (402368 <ili9488_init+0x13c>)
  4022f8:	4798      	blx	r3
  4022fa:	2064      	movs	r0, #100	; 0x64
  4022fc:	4b1b      	ldr	r3, [pc, #108]	; (40236c <ili9488_init+0x140>)
  4022fe:	4798      	blx	r3
  402300:	4b1c      	ldr	r3, [pc, #112]	; (402374 <ili9488_init+0x148>)
  402302:	4798      	blx	r3
  402304:	2064      	movs	r0, #100	; 0x64
  402306:	4b19      	ldr	r3, [pc, #100]	; (40236c <ili9488_init+0x140>)
  402308:	4798      	blx	r3
  40230a:	2000      	movs	r0, #0
  40230c:	4b1a      	ldr	r3, [pc, #104]	; (402378 <ili9488_init+0x14c>)
  40230e:	4798      	blx	r3
  402310:	2064      	movs	r0, #100	; 0x64
  402312:	4b16      	ldr	r3, [pc, #88]	; (40236c <ili9488_init+0x140>)
  402314:	4798      	blx	r3
  402316:	687b      	ldr	r3, [r7, #4]
  402318:	681b      	ldr	r3, [r3, #0]
  40231a:	b29a      	uxth	r2, r3
  40231c:	687b      	ldr	r3, [r7, #4]
  40231e:	685b      	ldr	r3, [r3, #4]
  402320:	b29b      	uxth	r3, r3
  402322:	2100      	movs	r1, #0
  402324:	2000      	movs	r0, #0
  402326:	4c15      	ldr	r4, [pc, #84]	; (40237c <ili9488_init+0x150>)
  402328:	47a0      	blx	r4
  40232a:	687b      	ldr	r3, [r7, #4]
  40232c:	689b      	ldr	r3, [r3, #8]
  40232e:	4618      	mov	r0, r3
  402330:	4b13      	ldr	r3, [pc, #76]	; (402380 <ili9488_init+0x154>)
  402332:	4798      	blx	r3
  402334:	2100      	movs	r1, #0
  402336:	2000      	movs	r0, #0
  402338:	4b12      	ldr	r3, [pc, #72]	; (402384 <ili9488_init+0x158>)
  40233a:	4798      	blx	r3
  40233c:	2300      	movs	r3, #0
  40233e:	4618      	mov	r0, r3
  402340:	371c      	adds	r7, #28
  402342:	46bd      	mov	sp, r7
  402344:	bd90      	pop	{r4, r7, pc}
  402346:	bf00      	nop
  402348:	40008000 	.word	0x40008000
  40234c:	004014a5 	.word	0x004014a5
  402350:	01312d00 	.word	0x01312d00
  402354:	00401515 	.word	0x00401515
  402358:	00403b29 	.word	0x00403b29
  40235c:	004015c9 	.word	0x004015c9
  402360:	00401e51 	.word	0x00401e51
  402364:	00401e6b 	.word	0x00401e6b
  402368:	00401f09 	.word	0x00401f09
  40236c:	0040204d 	.word	0x0040204d
  402370:	00401f81 	.word	0x00401f81
  402374:	00402389 	.word	0x00402389
  402378:	00402131 	.word	0x00402131
  40237c:	00402165 	.word	0x00402165
  402380:	004023a1 	.word	0x004023a1
  402384:	004023f5 	.word	0x004023f5

00402388 <ili9488_display_on>:
  402388:	b580      	push	{r7, lr}
  40238a:	af00      	add	r7, sp, #0
  40238c:	2200      	movs	r2, #0
  40238e:	2100      	movs	r1, #0
  402390:	2029      	movs	r0, #41	; 0x29
  402392:	4b02      	ldr	r3, [pc, #8]	; (40239c <ili9488_display_on+0x14>)
  402394:	4798      	blx	r3
  402396:	bf00      	nop
  402398:	bd80      	pop	{r7, pc}
  40239a:	bf00      	nop
  40239c:	00401f09 	.word	0x00401f09

004023a0 <ili9488_set_foreground_color>:
  4023a0:	b480      	push	{r7}
  4023a2:	b085      	sub	sp, #20
  4023a4:	af00      	add	r7, sp, #0
  4023a6:	6078      	str	r0, [r7, #4]
  4023a8:	2300      	movs	r3, #0
  4023aa:	60fb      	str	r3, [r7, #12]
  4023ac:	e016      	b.n	4023dc <ili9488_set_foreground_color+0x3c>
  4023ae:	68fb      	ldr	r3, [r7, #12]
  4023b0:	1c5a      	adds	r2, r3, #1
  4023b2:	60fa      	str	r2, [r7, #12]
  4023b4:	687a      	ldr	r2, [r7, #4]
  4023b6:	0c12      	lsrs	r2, r2, #16
  4023b8:	b2d1      	uxtb	r1, r2
  4023ba:	4a0d      	ldr	r2, [pc, #52]	; (4023f0 <ili9488_set_foreground_color+0x50>)
  4023bc:	54d1      	strb	r1, [r2, r3]
  4023be:	68fb      	ldr	r3, [r7, #12]
  4023c0:	1c5a      	adds	r2, r3, #1
  4023c2:	60fa      	str	r2, [r7, #12]
  4023c4:	687a      	ldr	r2, [r7, #4]
  4023c6:	0a12      	lsrs	r2, r2, #8
  4023c8:	b2d1      	uxtb	r1, r2
  4023ca:	4a09      	ldr	r2, [pc, #36]	; (4023f0 <ili9488_set_foreground_color+0x50>)
  4023cc:	54d1      	strb	r1, [r2, r3]
  4023ce:	68fb      	ldr	r3, [r7, #12]
  4023d0:	1c5a      	adds	r2, r3, #1
  4023d2:	60fa      	str	r2, [r7, #12]
  4023d4:	687a      	ldr	r2, [r7, #4]
  4023d6:	b2d1      	uxtb	r1, r2
  4023d8:	4a05      	ldr	r2, [pc, #20]	; (4023f0 <ili9488_set_foreground_color+0x50>)
  4023da:	54d1      	strb	r1, [r2, r3]
  4023dc:	68fb      	ldr	r3, [r7, #12]
  4023de:	f5b3 7f70 	cmp.w	r3, #960	; 0x3c0
  4023e2:	d3e4      	bcc.n	4023ae <ili9488_set_foreground_color+0xe>
  4023e4:	bf00      	nop
  4023e6:	3714      	adds	r7, #20
  4023e8:	46bd      	mov	sp, r7
  4023ea:	f85d 7b04 	ldr.w	r7, [sp], #4
  4023ee:	4770      	bx	lr
  4023f0:	204009e8 	.word	0x204009e8

004023f4 <ili9488_set_cursor_position>:
  4023f4:	b580      	push	{r7, lr}
  4023f6:	b084      	sub	sp, #16
  4023f8:	af00      	add	r7, sp, #0
  4023fa:	4603      	mov	r3, r0
  4023fc:	460a      	mov	r2, r1
  4023fe:	80fb      	strh	r3, [r7, #6]
  402400:	4613      	mov	r3, r2
  402402:	80bb      	strh	r3, [r7, #4]
  402404:	2300      	movs	r3, #0
  402406:	60fb      	str	r3, [r7, #12]
  402408:	2304      	movs	r3, #4
  40240a:	60fb      	str	r3, [r7, #12]
  40240c:	1dbb      	adds	r3, r7, #6
  40240e:	785b      	ldrb	r3, [r3, #1]
  402410:	723b      	strb	r3, [r7, #8]
  402412:	1dbb      	adds	r3, r7, #6
  402414:	781b      	ldrb	r3, [r3, #0]
  402416:	727b      	strb	r3, [r7, #9]
  402418:	1dbb      	adds	r3, r7, #6
  40241a:	785b      	ldrb	r3, [r3, #1]
  40241c:	72bb      	strb	r3, [r7, #10]
  40241e:	1dbb      	adds	r3, r7, #6
  402420:	781b      	ldrb	r3, [r3, #0]
  402422:	72fb      	strb	r3, [r7, #11]
  402424:	f107 0308 	add.w	r3, r7, #8
  402428:	68fa      	ldr	r2, [r7, #12]
  40242a:	4619      	mov	r1, r3
  40242c:	202a      	movs	r0, #42	; 0x2a
  40242e:	4b11      	ldr	r3, [pc, #68]	; (402474 <ili9488_set_cursor_position+0x80>)
  402430:	4798      	blx	r3
  402432:	2200      	movs	r2, #0
  402434:	2100      	movs	r1, #0
  402436:	2000      	movs	r0, #0
  402438:	4b0e      	ldr	r3, [pc, #56]	; (402474 <ili9488_set_cursor_position+0x80>)
  40243a:	4798      	blx	r3
  40243c:	1d3b      	adds	r3, r7, #4
  40243e:	785b      	ldrb	r3, [r3, #1]
  402440:	723b      	strb	r3, [r7, #8]
  402442:	1d3b      	adds	r3, r7, #4
  402444:	781b      	ldrb	r3, [r3, #0]
  402446:	727b      	strb	r3, [r7, #9]
  402448:	1d3b      	adds	r3, r7, #4
  40244a:	785b      	ldrb	r3, [r3, #1]
  40244c:	72bb      	strb	r3, [r7, #10]
  40244e:	1d3b      	adds	r3, r7, #4
  402450:	781b      	ldrb	r3, [r3, #0]
  402452:	72fb      	strb	r3, [r7, #11]
  402454:	f107 0308 	add.w	r3, r7, #8
  402458:	68fa      	ldr	r2, [r7, #12]
  40245a:	4619      	mov	r1, r3
  40245c:	202b      	movs	r0, #43	; 0x2b
  40245e:	4b05      	ldr	r3, [pc, #20]	; (402474 <ili9488_set_cursor_position+0x80>)
  402460:	4798      	blx	r3
  402462:	2200      	movs	r2, #0
  402464:	2100      	movs	r1, #0
  402466:	2000      	movs	r0, #0
  402468:	4b02      	ldr	r3, [pc, #8]	; (402474 <ili9488_set_cursor_position+0x80>)
  40246a:	4798      	blx	r3
  40246c:	bf00      	nop
  40246e:	3710      	adds	r7, #16
  402470:	46bd      	mov	sp, r7
  402472:	bd80      	pop	{r7, pc}
  402474:	00401f09 	.word	0x00401f09

00402478 <ili9488_draw_pixel>:
  402478:	b580      	push	{r7, lr}
  40247a:	b082      	sub	sp, #8
  40247c:	af00      	add	r7, sp, #0
  40247e:	6078      	str	r0, [r7, #4]
  402480:	6039      	str	r1, [r7, #0]
  402482:	687b      	ldr	r3, [r7, #4]
  402484:	f5b3 7fa0 	cmp.w	r3, #320	; 0x140
  402488:	d203      	bcs.n	402492 <ili9488_draw_pixel+0x1a>
  40248a:	683b      	ldr	r3, [r7, #0]
  40248c:	f5b3 7ff0 	cmp.w	r3, #480	; 0x1e0
  402490:	d301      	bcc.n	402496 <ili9488_draw_pixel+0x1e>
  402492:	2301      	movs	r3, #1
  402494:	e00e      	b.n	4024b4 <ili9488_draw_pixel+0x3c>
  402496:	687b      	ldr	r3, [r7, #4]
  402498:	b29b      	uxth	r3, r3
  40249a:	683a      	ldr	r2, [r7, #0]
  40249c:	b292      	uxth	r2, r2
  40249e:	4611      	mov	r1, r2
  4024a0:	4618      	mov	r0, r3
  4024a2:	4b06      	ldr	r3, [pc, #24]	; (4024bc <ili9488_draw_pixel+0x44>)
  4024a4:	4798      	blx	r3
  4024a6:	4b06      	ldr	r3, [pc, #24]	; (4024c0 <ili9488_draw_pixel+0x48>)
  4024a8:	4798      	blx	r3
  4024aa:	2103      	movs	r1, #3
  4024ac:	4805      	ldr	r0, [pc, #20]	; (4024c4 <ili9488_draw_pixel+0x4c>)
  4024ae:	4b06      	ldr	r3, [pc, #24]	; (4024c8 <ili9488_draw_pixel+0x50>)
  4024b0:	4798      	blx	r3
  4024b2:	2300      	movs	r3, #0
  4024b4:	4618      	mov	r0, r3
  4024b6:	3708      	adds	r7, #8
  4024b8:	46bd      	mov	sp, r7
  4024ba:	bd80      	pop	{r7, pc}
  4024bc:	004023f5 	.word	0x004023f5
  4024c0:	00401e89 	.word	0x00401e89
  4024c4:	204009e8 	.word	0x204009e8
  4024c8:	00401ec9 	.word	0x00401ec9

004024cc <ili9488_draw_filled_rectangle>:
  4024cc:	b590      	push	{r4, r7, lr}
  4024ce:	b087      	sub	sp, #28
  4024d0:	af00      	add	r7, sp, #0
  4024d2:	60f8      	str	r0, [r7, #12]
  4024d4:	60b9      	str	r1, [r7, #8]
  4024d6:	607a      	str	r2, [r7, #4]
  4024d8:	603b      	str	r3, [r7, #0]
  4024da:	463b      	mov	r3, r7
  4024dc:	1d3a      	adds	r2, r7, #4
  4024de:	f107 0108 	add.w	r1, r7, #8
  4024e2:	f107 000c 	add.w	r0, r7, #12
  4024e6:	4c2a      	ldr	r4, [pc, #168]	; (402590 <ili9488_draw_filled_rectangle+0xc4>)
  4024e8:	47a0      	blx	r4
  4024ea:	68fb      	ldr	r3, [r7, #12]
  4024ec:	b298      	uxth	r0, r3
  4024ee:	68bb      	ldr	r3, [r7, #8]
  4024f0:	b299      	uxth	r1, r3
  4024f2:	687b      	ldr	r3, [r7, #4]
  4024f4:	b29a      	uxth	r2, r3
  4024f6:	68fb      	ldr	r3, [r7, #12]
  4024f8:	b29b      	uxth	r3, r3
  4024fa:	1ad3      	subs	r3, r2, r3
  4024fc:	b29b      	uxth	r3, r3
  4024fe:	3301      	adds	r3, #1
  402500:	b29c      	uxth	r4, r3
  402502:	683b      	ldr	r3, [r7, #0]
  402504:	b29a      	uxth	r2, r3
  402506:	68bb      	ldr	r3, [r7, #8]
  402508:	b29b      	uxth	r3, r3
  40250a:	1ad3      	subs	r3, r2, r3
  40250c:	b29b      	uxth	r3, r3
  40250e:	3301      	adds	r3, #1
  402510:	b29b      	uxth	r3, r3
  402512:	4622      	mov	r2, r4
  402514:	4c1f      	ldr	r4, [pc, #124]	; (402594 <ili9488_draw_filled_rectangle+0xc8>)
  402516:	47a0      	blx	r4
  402518:	4b1f      	ldr	r3, [pc, #124]	; (402598 <ili9488_draw_filled_rectangle+0xcc>)
  40251a:	4798      	blx	r3
  40251c:	687a      	ldr	r2, [r7, #4]
  40251e:	68fb      	ldr	r3, [r7, #12]
  402520:	1ad3      	subs	r3, r2, r3
  402522:	3301      	adds	r3, #1
  402524:	6839      	ldr	r1, [r7, #0]
  402526:	68ba      	ldr	r2, [r7, #8]
  402528:	1a8a      	subs	r2, r1, r2
  40252a:	3201      	adds	r2, #1
  40252c:	fb02 f303 	mul.w	r3, r2, r3
  402530:	613b      	str	r3, [r7, #16]
  402532:	693b      	ldr	r3, [r7, #16]
  402534:	4a19      	ldr	r2, [pc, #100]	; (40259c <ili9488_draw_filled_rectangle+0xd0>)
  402536:	fba2 2303 	umull	r2, r3, r2, r3
  40253a:	0a1b      	lsrs	r3, r3, #8
  40253c:	617b      	str	r3, [r7, #20]
  40253e:	e004      	b.n	40254a <ili9488_draw_filled_rectangle+0x7e>
  402540:	f44f 7170 	mov.w	r1, #960	; 0x3c0
  402544:	4816      	ldr	r0, [pc, #88]	; (4025a0 <ili9488_draw_filled_rectangle+0xd4>)
  402546:	4b17      	ldr	r3, [pc, #92]	; (4025a4 <ili9488_draw_filled_rectangle+0xd8>)
  402548:	4798      	blx	r3
  40254a:	697b      	ldr	r3, [r7, #20]
  40254c:	1e5a      	subs	r2, r3, #1
  40254e:	617a      	str	r2, [r7, #20]
  402550:	2b00      	cmp	r3, #0
  402552:	d1f5      	bne.n	402540 <ili9488_draw_filled_rectangle+0x74>
  402554:	6939      	ldr	r1, [r7, #16]
  402556:	4b11      	ldr	r3, [pc, #68]	; (40259c <ili9488_draw_filled_rectangle+0xd0>)
  402558:	fba3 2301 	umull	r2, r3, r3, r1
  40255c:	0a1a      	lsrs	r2, r3, #8
  40255e:	4613      	mov	r3, r2
  402560:	009b      	lsls	r3, r3, #2
  402562:	4413      	add	r3, r2
  402564:	019b      	lsls	r3, r3, #6
  402566:	1aca      	subs	r2, r1, r3
  402568:	4613      	mov	r3, r2
  40256a:	005b      	lsls	r3, r3, #1
  40256c:	4413      	add	r3, r2
  40256e:	4619      	mov	r1, r3
  402570:	480b      	ldr	r0, [pc, #44]	; (4025a0 <ili9488_draw_filled_rectangle+0xd4>)
  402572:	4b0c      	ldr	r3, [pc, #48]	; (4025a4 <ili9488_draw_filled_rectangle+0xd8>)
  402574:	4798      	blx	r3
  402576:	f44f 73f0 	mov.w	r3, #480	; 0x1e0
  40257a:	f44f 72a0 	mov.w	r2, #320	; 0x140
  40257e:	2100      	movs	r1, #0
  402580:	2000      	movs	r0, #0
  402582:	4c04      	ldr	r4, [pc, #16]	; (402594 <ili9488_draw_filled_rectangle+0xc8>)
  402584:	47a0      	blx	r4
  402586:	bf00      	nop
  402588:	371c      	adds	r7, #28
  40258a:	46bd      	mov	sp, r7
  40258c:	bd90      	pop	{r4, r7, pc}
  40258e:	bf00      	nop
  402590:	0040208d 	.word	0x0040208d
  402594:	00402165 	.word	0x00402165
  402598:	00401e89 	.word	0x00401e89
  40259c:	cccccccd 	.word	0xcccccccd
  4025a0:	204009e8 	.word	0x204009e8
  4025a4:	00401ec9 	.word	0x00401ec9

004025a8 <ili9488_draw_char>:
  4025a8:	b580      	push	{r7, lr}
  4025aa:	b08a      	sub	sp, #40	; 0x28
  4025ac:	af00      	add	r7, sp, #0
  4025ae:	60f8      	str	r0, [r7, #12]
  4025b0:	60b9      	str	r1, [r7, #8]
  4025b2:	4613      	mov	r3, r2
  4025b4:	71fb      	strb	r3, [r7, #7]
  4025b6:	79fa      	ldrb	r2, [r7, #7]
  4025b8:	4613      	mov	r3, r2
  4025ba:	009b      	lsls	r3, r3, #2
  4025bc:	4413      	add	r3, r2
  4025be:	009b      	lsls	r3, r3, #2
  4025c0:	f5a3 7320 	sub.w	r3, r3, #640	; 0x280
  4025c4:	61fb      	str	r3, [r7, #28]
  4025c6:	2300      	movs	r3, #0
  4025c8:	623b      	str	r3, [r7, #32]
  4025ca:	e04b      	b.n	402664 <ili9488_draw_char+0xbc>
  4025cc:	6a3b      	ldr	r3, [r7, #32]
  4025ce:	005a      	lsls	r2, r3, #1
  4025d0:	69fb      	ldr	r3, [r7, #28]
  4025d2:	4413      	add	r3, r2
  4025d4:	61bb      	str	r3, [r7, #24]
  4025d6:	69bb      	ldr	r3, [r7, #24]
  4025d8:	3301      	adds	r3, #1
  4025da:	617b      	str	r3, [r7, #20]
  4025dc:	2300      	movs	r3, #0
  4025de:	627b      	str	r3, [r7, #36]	; 0x24
  4025e0:	e019      	b.n	402616 <ili9488_draw_char+0x6e>
  4025e2:	4a24      	ldr	r2, [pc, #144]	; (402674 <ili9488_draw_char+0xcc>)
  4025e4:	69bb      	ldr	r3, [r7, #24]
  4025e6:	4413      	add	r3, r2
  4025e8:	781b      	ldrb	r3, [r3, #0]
  4025ea:	461a      	mov	r2, r3
  4025ec:	6a7b      	ldr	r3, [r7, #36]	; 0x24
  4025ee:	f1c3 0307 	rsb	r3, r3, #7
  4025f2:	fa42 f303 	asr.w	r3, r2, r3
  4025f6:	f003 0301 	and.w	r3, r3, #1
  4025fa:	2b00      	cmp	r3, #0
  4025fc:	d008      	beq.n	402610 <ili9488_draw_char+0x68>
  4025fe:	68fa      	ldr	r2, [r7, #12]
  402600:	6a3b      	ldr	r3, [r7, #32]
  402602:	18d0      	adds	r0, r2, r3
  402604:	68ba      	ldr	r2, [r7, #8]
  402606:	6a7b      	ldr	r3, [r7, #36]	; 0x24
  402608:	4413      	add	r3, r2
  40260a:	4619      	mov	r1, r3
  40260c:	4b1a      	ldr	r3, [pc, #104]	; (402678 <ili9488_draw_char+0xd0>)
  40260e:	4798      	blx	r3
  402610:	6a7b      	ldr	r3, [r7, #36]	; 0x24
  402612:	3301      	adds	r3, #1
  402614:	627b      	str	r3, [r7, #36]	; 0x24
  402616:	6a7b      	ldr	r3, [r7, #36]	; 0x24
  402618:	2b07      	cmp	r3, #7
  40261a:	d9e2      	bls.n	4025e2 <ili9488_draw_char+0x3a>
  40261c:	2300      	movs	r3, #0
  40261e:	627b      	str	r3, [r7, #36]	; 0x24
  402620:	e01a      	b.n	402658 <ili9488_draw_char+0xb0>
  402622:	4a14      	ldr	r2, [pc, #80]	; (402674 <ili9488_draw_char+0xcc>)
  402624:	697b      	ldr	r3, [r7, #20]
  402626:	4413      	add	r3, r2
  402628:	781b      	ldrb	r3, [r3, #0]
  40262a:	461a      	mov	r2, r3
  40262c:	6a7b      	ldr	r3, [r7, #36]	; 0x24
  40262e:	f1c3 0307 	rsb	r3, r3, #7
  402632:	fa42 f303 	asr.w	r3, r2, r3
  402636:	f003 0301 	and.w	r3, r3, #1
  40263a:	2b00      	cmp	r3, #0
  40263c:	d009      	beq.n	402652 <ili9488_draw_char+0xaa>
  40263e:	68fa      	ldr	r2, [r7, #12]
  402640:	6a3b      	ldr	r3, [r7, #32]
  402642:	18d0      	adds	r0, r2, r3
  402644:	68ba      	ldr	r2, [r7, #8]
  402646:	6a7b      	ldr	r3, [r7, #36]	; 0x24
  402648:	4413      	add	r3, r2
  40264a:	3308      	adds	r3, #8
  40264c:	4619      	mov	r1, r3
  40264e:	4b0a      	ldr	r3, [pc, #40]	; (402678 <ili9488_draw_char+0xd0>)
  402650:	4798      	blx	r3
  402652:	6a7b      	ldr	r3, [r7, #36]	; 0x24
  402654:	3301      	adds	r3, #1
  402656:	627b      	str	r3, [r7, #36]	; 0x24
  402658:	6a7b      	ldr	r3, [r7, #36]	; 0x24
  40265a:	2b05      	cmp	r3, #5
  40265c:	d9e1      	bls.n	402622 <ili9488_draw_char+0x7a>
  40265e:	6a3b      	ldr	r3, [r7, #32]
  402660:	3301      	adds	r3, #1
  402662:	623b      	str	r3, [r7, #32]
  402664:	6a3b      	ldr	r3, [r7, #32]
  402666:	2b09      	cmp	r3, #9
  402668:	d9b0      	bls.n	4025cc <ili9488_draw_char+0x24>
  40266a:	bf00      	nop
  40266c:	3728      	adds	r7, #40	; 0x28
  40266e:	46bd      	mov	sp, r7
  402670:	bd80      	pop	{r7, pc}
  402672:	bf00      	nop
  402674:	004276ac 	.word	0x004276ac
  402678:	00402479 	.word	0x00402479

0040267c <ili9488_draw_string>:
  40267c:	b580      	push	{r7, lr}
  40267e:	b086      	sub	sp, #24
  402680:	af00      	add	r7, sp, #0
  402682:	60f8      	str	r0, [r7, #12]
  402684:	60b9      	str	r1, [r7, #8]
  402686:	607a      	str	r2, [r7, #4]
  402688:	68fb      	ldr	r3, [r7, #12]
  40268a:	617b      	str	r3, [r7, #20]
  40268c:	e01c      	b.n	4026c8 <ili9488_draw_string+0x4c>
  40268e:	687b      	ldr	r3, [r7, #4]
  402690:	781b      	ldrb	r3, [r3, #0]
  402692:	2b0a      	cmp	r3, #10
  402694:	d108      	bne.n	4026a8 <ili9488_draw_string+0x2c>
  402696:	230e      	movs	r3, #14
  402698:	461a      	mov	r2, r3
  40269a:	68bb      	ldr	r3, [r7, #8]
  40269c:	4413      	add	r3, r2
  40269e:	3302      	adds	r3, #2
  4026a0:	60bb      	str	r3, [r7, #8]
  4026a2:	697b      	ldr	r3, [r7, #20]
  4026a4:	60fb      	str	r3, [r7, #12]
  4026a6:	e00c      	b.n	4026c2 <ili9488_draw_string+0x46>
  4026a8:	687b      	ldr	r3, [r7, #4]
  4026aa:	781b      	ldrb	r3, [r3, #0]
  4026ac:	461a      	mov	r2, r3
  4026ae:	68b9      	ldr	r1, [r7, #8]
  4026b0:	68f8      	ldr	r0, [r7, #12]
  4026b2:	4b09      	ldr	r3, [pc, #36]	; (4026d8 <ili9488_draw_string+0x5c>)
  4026b4:	4798      	blx	r3
  4026b6:	230a      	movs	r3, #10
  4026b8:	461a      	mov	r2, r3
  4026ba:	68fb      	ldr	r3, [r7, #12]
  4026bc:	4413      	add	r3, r2
  4026be:	3302      	adds	r3, #2
  4026c0:	60fb      	str	r3, [r7, #12]
  4026c2:	687b      	ldr	r3, [r7, #4]
  4026c4:	3301      	adds	r3, #1
  4026c6:	607b      	str	r3, [r7, #4]
  4026c8:	687b      	ldr	r3, [r7, #4]
  4026ca:	781b      	ldrb	r3, [r3, #0]
  4026cc:	2b00      	cmp	r3, #0
  4026ce:	d1de      	bne.n	40268e <ili9488_draw_string+0x12>
  4026d0:	bf00      	nop
  4026d2:	3718      	adds	r7, #24
  4026d4:	46bd      	mov	sp, r7
  4026d6:	bd80      	pop	{r7, pc}
  4026d8:	004025a9 	.word	0x004025a9

004026dc <ili9488_draw_pixmap>:
  4026dc:	b590      	push	{r4, r7, lr}
  4026de:	b08b      	sub	sp, #44	; 0x2c
  4026e0:	af00      	add	r7, sp, #0
  4026e2:	60f8      	str	r0, [r7, #12]
  4026e4:	60b9      	str	r1, [r7, #8]
  4026e6:	607a      	str	r2, [r7, #4]
  4026e8:	603b      	str	r3, [r7, #0]
  4026ea:	68fb      	ldr	r3, [r7, #12]
  4026ec:	623b      	str	r3, [r7, #32]
  4026ee:	68bb      	ldr	r3, [r7, #8]
  4026f0:	61fb      	str	r3, [r7, #28]
  4026f2:	68fa      	ldr	r2, [r7, #12]
  4026f4:	687b      	ldr	r3, [r7, #4]
  4026f6:	4413      	add	r3, r2
  4026f8:	3b01      	subs	r3, #1
  4026fa:	61bb      	str	r3, [r7, #24]
  4026fc:	68ba      	ldr	r2, [r7, #8]
  4026fe:	683b      	ldr	r3, [r7, #0]
  402700:	4413      	add	r3, r2
  402702:	3b01      	subs	r3, #1
  402704:	617b      	str	r3, [r7, #20]
  402706:	f107 0314 	add.w	r3, r7, #20
  40270a:	f107 0218 	add.w	r2, r7, #24
  40270e:	f107 011c 	add.w	r1, r7, #28
  402712:	f107 0020 	add.w	r0, r7, #32
  402716:	4c1b      	ldr	r4, [pc, #108]	; (402784 <ili9488_draw_pixmap+0xa8>)
  402718:	47a0      	blx	r4
  40271a:	6a3b      	ldr	r3, [r7, #32]
  40271c:	b298      	uxth	r0, r3
  40271e:	69fb      	ldr	r3, [r7, #28]
  402720:	b299      	uxth	r1, r3
  402722:	69bb      	ldr	r3, [r7, #24]
  402724:	b29a      	uxth	r2, r3
  402726:	6a3b      	ldr	r3, [r7, #32]
  402728:	b29b      	uxth	r3, r3
  40272a:	1ad3      	subs	r3, r2, r3
  40272c:	b29b      	uxth	r3, r3
  40272e:	3301      	adds	r3, #1
  402730:	b29c      	uxth	r4, r3
  402732:	697b      	ldr	r3, [r7, #20]
  402734:	b29a      	uxth	r2, r3
  402736:	69fb      	ldr	r3, [r7, #28]
  402738:	b29b      	uxth	r3, r3
  40273a:	1ad3      	subs	r3, r2, r3
  40273c:	b29b      	uxth	r3, r3
  40273e:	3301      	adds	r3, #1
  402740:	b29b      	uxth	r3, r3
  402742:	4622      	mov	r2, r4
  402744:	4c10      	ldr	r4, [pc, #64]	; (402788 <ili9488_draw_pixmap+0xac>)
  402746:	47a0      	blx	r4
  402748:	69ba      	ldr	r2, [r7, #24]
  40274a:	6a3b      	ldr	r3, [r7, #32]
  40274c:	1ad3      	subs	r3, r2, r3
  40274e:	6979      	ldr	r1, [r7, #20]
  402750:	69fa      	ldr	r2, [r7, #28]
  402752:	1a8a      	subs	r2, r1, r2
  402754:	fb02 f303 	mul.w	r3, r2, r3
  402758:	627b      	str	r3, [r7, #36]	; 0x24
  40275a:	6a7a      	ldr	r2, [r7, #36]	; 0x24
  40275c:	4613      	mov	r3, r2
  40275e:	005b      	lsls	r3, r3, #1
  402760:	4413      	add	r3, r2
  402762:	461a      	mov	r2, r3
  402764:	6bb9      	ldr	r1, [r7, #56]	; 0x38
  402766:	202c      	movs	r0, #44	; 0x2c
  402768:	4b08      	ldr	r3, [pc, #32]	; (40278c <ili9488_draw_pixmap+0xb0>)
  40276a:	4798      	blx	r3
  40276c:	f44f 73f0 	mov.w	r3, #480	; 0x1e0
  402770:	f44f 72a0 	mov.w	r2, #320	; 0x140
  402774:	2100      	movs	r1, #0
  402776:	2000      	movs	r0, #0
  402778:	4c03      	ldr	r4, [pc, #12]	; (402788 <ili9488_draw_pixmap+0xac>)
  40277a:	47a0      	blx	r4
  40277c:	bf00      	nop
  40277e:	372c      	adds	r7, #44	; 0x2c
  402780:	46bd      	mov	sp, r7
  402782:	bd90      	pop	{r4, r7, pc}
  402784:	0040208d 	.word	0x0040208d
  402788:	00402165 	.word	0x00402165
  40278c:	00401f09 	.word	0x00401f09

00402790 <NVIC_EnableIRQ>:
  402790:	b480      	push	{r7}
  402792:	b083      	sub	sp, #12
  402794:	af00      	add	r7, sp, #0
  402796:	4603      	mov	r3, r0
  402798:	71fb      	strb	r3, [r7, #7]
  40279a:	4909      	ldr	r1, [pc, #36]	; (4027c0 <NVIC_EnableIRQ+0x30>)
  40279c:	f997 3007 	ldrsb.w	r3, [r7, #7]
  4027a0:	095b      	lsrs	r3, r3, #5
  4027a2:	79fa      	ldrb	r2, [r7, #7]
  4027a4:	f002 021f 	and.w	r2, r2, #31
  4027a8:	2001      	movs	r0, #1
  4027aa:	fa00 f202 	lsl.w	r2, r0, r2
  4027ae:	f841 2023 	str.w	r2, [r1, r3, lsl #2]
  4027b2:	bf00      	nop
  4027b4:	370c      	adds	r7, #12
  4027b6:	46bd      	mov	sp, r7
  4027b8:	f85d 7b04 	ldr.w	r7, [sp], #4
  4027bc:	4770      	bx	lr
  4027be:	bf00      	nop
  4027c0:	e000e100 	.word	0xe000e100

004027c4 <NVIC_ClearPendingIRQ>:
  4027c4:	b480      	push	{r7}
  4027c6:	b083      	sub	sp, #12
  4027c8:	af00      	add	r7, sp, #0
  4027ca:	4603      	mov	r3, r0
  4027cc:	71fb      	strb	r3, [r7, #7]
  4027ce:	4909      	ldr	r1, [pc, #36]	; (4027f4 <NVIC_ClearPendingIRQ+0x30>)
  4027d0:	f997 3007 	ldrsb.w	r3, [r7, #7]
  4027d4:	095b      	lsrs	r3, r3, #5
  4027d6:	79fa      	ldrb	r2, [r7, #7]
  4027d8:	f002 021f 	and.w	r2, r2, #31
  4027dc:	2001      	movs	r0, #1
  4027de:	fa00 f202 	lsl.w	r2, r0, r2
  4027e2:	3360      	adds	r3, #96	; 0x60
  4027e4:	f841 2023 	str.w	r2, [r1, r3, lsl #2]
  4027e8:	bf00      	nop
  4027ea:	370c      	adds	r7, #12
  4027ec:	46bd      	mov	sp, r7
  4027ee:	f85d 7b04 	ldr.w	r7, [sp], #4
  4027f2:	4770      	bx	lr
  4027f4:	e000e100 	.word	0xe000e100

004027f8 <NVIC_SetPriority>:
  4027f8:	b480      	push	{r7}
  4027fa:	b083      	sub	sp, #12
  4027fc:	af00      	add	r7, sp, #0
  4027fe:	4603      	mov	r3, r0
  402800:	6039      	str	r1, [r7, #0]
  402802:	71fb      	strb	r3, [r7, #7]
  402804:	f997 3007 	ldrsb.w	r3, [r7, #7]
  402808:	2b00      	cmp	r3, #0
  40280a:	da0b      	bge.n	402824 <NVIC_SetPriority+0x2c>
  40280c:	490d      	ldr	r1, [pc, #52]	; (402844 <NVIC_SetPriority+0x4c>)
  40280e:	79fb      	ldrb	r3, [r7, #7]
  402810:	f003 030f 	and.w	r3, r3, #15
  402814:	3b04      	subs	r3, #4
  402816:	683a      	ldr	r2, [r7, #0]
  402818:	b2d2      	uxtb	r2, r2
  40281a:	0152      	lsls	r2, r2, #5
  40281c:	b2d2      	uxtb	r2, r2
  40281e:	440b      	add	r3, r1
  402820:	761a      	strb	r2, [r3, #24]
  402822:	e009      	b.n	402838 <NVIC_SetPriority+0x40>
  402824:	4908      	ldr	r1, [pc, #32]	; (402848 <NVIC_SetPriority+0x50>)
  402826:	f997 3007 	ldrsb.w	r3, [r7, #7]
  40282a:	683a      	ldr	r2, [r7, #0]
  40282c:	b2d2      	uxtb	r2, r2
  40282e:	0152      	lsls	r2, r2, #5
  402830:	b2d2      	uxtb	r2, r2
  402832:	440b      	add	r3, r1
  402834:	f883 2300 	strb.w	r2, [r3, #768]	; 0x300
  402838:	bf00      	nop
  40283a:	370c      	adds	r7, #12
  40283c:	46bd      	mov	sp, r7
  40283e:	f85d 7b04 	ldr.w	r7, [sp], #4
  402842:	4770      	bx	lr
  402844:	e000ed00 	.word	0xe000ed00
  402848:	e000e100 	.word	0xe000e100

0040284c <cpu_irq_save>:
  40284c:	b480      	push	{r7}
  40284e:	b083      	sub	sp, #12
  402850:	af00      	add	r7, sp, #0
  402852:	f3ef 8310 	mrs	r3, PRIMASK
  402856:	607b      	str	r3, [r7, #4]
  402858:	687b      	ldr	r3, [r7, #4]
  40285a:	2b00      	cmp	r3, #0
  40285c:	bf0c      	ite	eq
  40285e:	2301      	moveq	r3, #1
  402860:	2300      	movne	r3, #0
  402862:	b2db      	uxtb	r3, r3
  402864:	603b      	str	r3, [r7, #0]
  402866:	b672      	cpsid	i
  402868:	f3bf 8f5f 	dmb	sy
  40286c:	4b04      	ldr	r3, [pc, #16]	; (402880 <cpu_irq_save+0x34>)
  40286e:	2200      	movs	r2, #0
  402870:	701a      	strb	r2, [r3, #0]
  402872:	683b      	ldr	r3, [r7, #0]
  402874:	4618      	mov	r0, r3
  402876:	370c      	adds	r7, #12
  402878:	46bd      	mov	sp, r7
  40287a:	f85d 7b04 	ldr.w	r7, [sp], #4
  40287e:	4770      	bx	lr
  402880:	2040000a 	.word	0x2040000a

00402884 <cpu_irq_is_enabled_flags>:
  402884:	b480      	push	{r7}
  402886:	b083      	sub	sp, #12
  402888:	af00      	add	r7, sp, #0
  40288a:	6078      	str	r0, [r7, #4]
  40288c:	687b      	ldr	r3, [r7, #4]
